{
  "contractName": "AutoStakeTransfererMock",
  "abi": [
    {
      "inputs": [
        {
          "internalType": "address",
          "name": "token",
          "type": "address"
        },
        {
          "internalType": "uint256",
          "name": "_throttleRoundBlocks",
          "type": "uint256"
        },
        {
          "internalType": "uint256",
          "name": "_throttleRoundCap",
          "type": "uint256"
        },
        {
          "internalType": "uint256",
          "name": "stakeEnd",
          "type": "uint256"
        }
      ],
      "stateMutability": "nonpayable",
      "type": "constructor"
    },
    {
      "anonymous": false,
      "inputs": [
        {
          "indexed": false,
          "internalType": "address",
          "name": "user",
          "type": "address"
        },
        {
          "indexed": false,
          "internalType": "uint256",
          "name": "stake",
          "type": "uint256"
        }
      ],
      "name": "ExitCompleted",
      "type": "event"
    },
    {
      "anonymous": false,
      "inputs": [
        {
          "indexed": false,
          "internalType": "address",
          "name": "user",
          "type": "address"
        },
        {
          "indexed": false,
          "internalType": "uint256",
          "name": "exitBlock",
          "type": "uint256"
        }
      ],
      "name": "ExitRequested",
      "type": "event"
    },
    {
      "anonymous": false,
      "inputs": [
        {
          "indexed": true,
          "internalType": "address",
          "name": "previousOwner",
          "type": "address"
        },
        {
          "indexed": true,
          "internalType": "address",
          "name": "newOwner",
          "type": "address"
        }
      ],
      "name": "OwnershipTransferred",
      "type": "event"
    },
    {
      "anonymous": false,
      "inputs": [
        {
          "indexed": true,
          "internalType": "address",
          "name": "user",
          "type": "address"
        },
        {
          "indexed": false,
          "internalType": "uint256",
          "name": "amount",
          "type": "uint256"
        },
        {
          "indexed": false,
          "internalType": "uint256",
          "name": "sharesIssued",
          "type": "uint256"
        },
        {
          "indexed": false,
          "internalType": "uint256",
          "name": "oldShareVaule",
          "type": "uint256"
        },
        {
          "indexed": false,
          "internalType": "uint256",
          "name": "newShareValue",
          "type": "uint256"
        },
        {
          "indexed": false,
          "internalType": "uint256",
          "name": "balanceOf",
          "type": "uint256"
        }
      ],
      "name": "Staked",
      "type": "event"
    },
    {
      "inputs": [
        {
          "internalType": "address",
          "name": "who",
          "type": "address"
        }
      ],
      "name": "balanceOf",
      "outputs": [
        {
          "internalType": "uint256",
          "name": "",
          "type": "uint256"
        }
      ],
      "stateMutability": "view",
      "type": "function"
    },
    {
      "inputs": [],
      "name": "completeExit",
      "outputs": [],
      "stateMutability": "nonpayable",
      "type": "function"
    },
    {
      "inputs": [],
      "name": "exit",
      "outputs": [],
      "stateMutability": "nonpayable",
      "type": "function"
    },
    {
      "inputs": [
        {
          "internalType": "address",
          "name": "transferTo",
          "type": "address"
        }
      ],
      "name": "exitAndTransfer",
      "outputs": [],
      "stateMutability": "nonpayable",
      "type": "function"
    },
    {
      "inputs": [
        {
          "internalType": "address",
          "name": "",
          "type": "address"
        }
      ],
      "name": "exitInfo",
      "outputs": [
        {
          "internalType": "uint256",
          "name": "exitBlock",
          "type": "uint256"
        },
        {
          "internalType": "uint256",
          "name": "exitStake",
          "type": "uint256"
        }
      ],
      "stateMutability": "view",
      "type": "function"
    },
    {
      "inputs": [],
      "name": "exitStake",
      "outputs": [
        {
          "internalType": "uint256",
          "name": "",
          "type": "uint256"
        }
      ],
      "stateMutability": "view",
      "type": "function"
    },
    {
      "inputs": [],
      "name": "factory",
      "outputs": [
        {
          "internalType": "address",
          "name": "",
          "type": "address"
        }
      ],
      "stateMutability": "view",
      "type": "function"
    },
    {
      "inputs": [
        {
          "internalType": "uint256",
          "name": "tokenIndex",
          "type": "uint256"
        }
      ],
      "name": "getPendingReward",
      "outputs": [
        {
          "internalType": "uint256",
          "name": "",
          "type": "uint256"
        }
      ],
      "stateMutability": "view",
      "type": "function"
    },
    {
      "inputs": [],
      "name": "lockEndBlock",
      "outputs": [
        {
          "internalType": "uint256",
          "name": "",
          "type": "uint256"
        }
      ],
      "stateMutability": "view",
      "type": "function"
    },
    {
      "inputs": [],
      "name": "nextAvailableExitBlock",
      "outputs": [
        {
          "internalType": "uint256",
          "name": "",
          "type": "uint256"
        }
      ],
      "stateMutability": "view",
      "type": "function"
    },
    {
      "inputs": [],
      "name": "nextAvailableRoundExitVolume",
      "outputs": [
        {
          "internalType": "uint256",
          "name": "",
          "type": "uint256"
        }
      ],
      "stateMutability": "view",
      "type": "function"
    },
    {
      "inputs": [],
      "name": "owner",
      "outputs": [
        {
          "internalType": "address",
          "name": "",
          "type": "address"
        }
      ],
      "stateMutability": "view",
      "type": "function"
    },
    {
      "inputs": [
        {
          "internalType": "address",
          "name": "",
          "type": "address"
        }
      ],
      "name": "receiversWhitelist",
      "outputs": [
        {
          "internalType": "bool",
          "name": "",
          "type": "bool"
        }
      ],
      "stateMutability": "view",
      "type": "function"
    },
    {
      "inputs": [],
      "name": "refreshAutoStake",
      "outputs": [],
      "stateMutability": "nonpayable",
      "type": "function"
    },
    {
      "inputs": [],
      "name": "renounceOwnership",
      "outputs": [],
      "stateMutability": "nonpayable",
      "type": "function"
    },
    {
      "inputs": [],
      "name": "rewardPool",
      "outputs": [
        {
          "internalType": "contract IRewardsPoolBase",
          "name": "",
          "type": "address"
        }
      ],
      "stateMutability": "view",
      "type": "function"
    },
    {
      "inputs": [
        {
          "internalType": "address",
          "name": "pool",
          "type": "address"
        }
      ],
      "name": "setPool",
      "outputs": [],
      "stateMutability": "nonpayable",
      "type": "function"
    },
    {
      "inputs": [
        {
          "internalType": "address",
          "name": "receiver",
          "type": "address"
        },
        {
          "internalType": "bool",
          "name": "whitelisted",
          "type": "bool"
        }
      ],
      "name": "setReceiverWhitelisted",
      "outputs": [],
      "stateMutability": "nonpayable",
      "type": "function"
    },
    {
      "inputs": [
        {
          "internalType": "address",
          "name": "",
          "type": "address"
        }
      ],
      "name": "share",
      "outputs": [
        {
          "internalType": "uint256",
          "name": "",
          "type": "uint256"
        }
      ],
      "stateMutability": "view",
      "type": "function"
    },
    {
      "inputs": [
        {
          "internalType": "uint256",
          "name": "amount",
          "type": "uint256"
        }
      ],
      "name": "stake",
      "outputs": [],
      "stateMutability": "nonpayable",
      "type": "function"
    },
    {
      "inputs": [],
      "name": "stakingToken",
      "outputs": [
        {
          "internalType": "contract IERC20Detailed",
          "name": "",
          "type": "address"
        }
      ],
      "stateMutability": "view",
      "type": "function"
    },
    {
      "inputs": [],
      "name": "throttleRoundBlocks",
      "outputs": [
        {
          "internalType": "uint256",
          "name": "",
          "type": "uint256"
        }
      ],
      "stateMutability": "view",
      "type": "function"
    },
    {
      "inputs": [],
      "name": "throttleRoundCap",
      "outputs": [
        {
          "internalType": "uint256",
          "name": "",
          "type": "uint256"
        }
      ],
      "stateMutability": "view",
      "type": "function"
    },
    {
      "inputs": [],
      "name": "totalShares",
      "outputs": [
        {
          "internalType": "uint256",
          "name": "",
          "type": "uint256"
        }
      ],
      "stateMutability": "view",
      "type": "function"
    },
    {
      "inputs": [],
      "name": "totalValue",
      "outputs": [
        {
          "internalType": "uint256",
          "name": "",
          "type": "uint256"
        }
      ],
      "stateMutability": "view",
      "type": "function"
    },
    {
      "inputs": [
        {
          "internalType": "address",
          "name": "newOwner",
          "type": "address"
        }
      ],
      "name": "transferOwnership",
      "outputs": [],
      "stateMutability": "nonpayable",
      "type": "function"
    },
    {
      "inputs": [],
      "name": "unit",
      "outputs": [
        {
          "internalType": "uint256",
          "name": "",
          "type": "uint256"
        }
      ],
      "stateMutability": "view",
      "type": "function"
    },
    {
      "inputs": [],
      "name": "valuePerShare",
      "outputs": [
        {
          "internalType": "uint256",
          "name": "",
          "type": "uint256"
        }
      ],
      "stateMutability": "view",
      "type": "function"
    }
  ],
  "bytecode": "0x60e0604052670de0b6b3a76400006008553480156200001d57600080fd5b50604051620031df380380620031df833981810160405260808110156200004357600080fd5b810190808051906020019092919080519060200190929190805190602001909291908051906020019092919050505083838383806001600081905550438111620000d9576040517f08c379a000000000000000000000000000000000000000000000000000000000815260040180806020018281038252602e815260200180620031b1602e913960400191505060405180910390fd5b8060808181525050506000620000f46200022260201b60201c565b905080600660006101000a81548173ffffffffffffffffffffffffffffffffffffffff021916908373ffffffffffffffffffffffffffffffffffffffff1602179055508073ffffffffffffffffffffffffffffffffffffffff16600073ffffffffffffffffffffffffffffffffffffffff167f8be0079c531659141344cd1fd0a4f28419497f9722a3daafe3b4186f6b6457e060405160405180910390a3503373ffffffffffffffffffffffffffffffffffffffff1660c08173ffffffffffffffffffffffffffffffffffffffff1660601b815250508373ffffffffffffffffffffffffffffffffffffffff1660a08173ffffffffffffffffffffffffffffffffffffffff1660601b81525050620002148383836200022a60201b60201c565b50505050505050506200040a565b600033905090565b6000831162000285576040517f08c379a00000000000000000000000000000000000000000000000000000000081526004018080602001828103825260368152602001806200317b6036913960400191505060405180910390fd5b60008211620002e0576040517f08c379a0000000000000000000000000000000000000000000000000000000008152600401808060200182810382526033815260200180620031176033913960400191505060405180910390fd5b6000600354148015620002f557506000600454145b6200034c576040517f08c379a00000000000000000000000000000000000000000000000000000000081526004018080602001828103825260318152602001806200314a6031913960400191505060405180910390fd5b826003819055508160048190555062000376600354826200038160201b6200167f1790919060201c565b600181905550505050565b60008082840190508381101562000400576040517f08c379a000000000000000000000000000000000000000000000000000000000815260040180806020018281038252601b8152602001807f536166654d6174683a206164646974696f6e206f766572666c6f77000000000081525060200191505060405180910390fd5b8091505092915050565b60805160a05160601c60c05160601c612c9e6200047960003980610f66528061121752508061096e5280610eb5528061117652806118865280611d98528061218b528061225a528061235452806123c15250806107a55280610ed9528061101852806112415250612c9e6000f3fe608060405234801561001057600080fd5b50600436106101c45760003560e01c80638587edbb116100f9578063b540652e11610097578063d4c3eea011610071578063d4c3eea014610658578063e9fad8ee14610676578063ee483cdf14610680578063f2fde38b1461069e576101c4565b8063b540652e146105fc578063c0a239e314610606578063c45a015514610624576101c4565b806394f66417116100d357806394f6641714610515578063a694fc3a14610574578063a861a7a3146105a2578063b01eb660146105f2576101c4565b80638587edbb146104a55780638da5cb5b146104c3578063907af6c0146104f7576101c4565b80634ff3306f1161016657806370a082311161014057806370a08231146103cd578063715018a6146104255780637211bbc91461042f57806372f702f314610471576101c4565b80634ff3306f1461035d57806366666aa91461037b5780636eb957df146103af576101c4565b8063363291dc116101a2578063363291dc146102835780633882f742146102dd5780633a98ef39146102fb5780634437152a14610319576101c4565b80631877bb5c146101c95780631c1f9cc0146102215780632240e63c1461023f575b600080fd5b61020b600480360360208110156101df57600080fd5b81019080803573ffffffffffffffffffffffffffffffffffffffff1690602001909291905050506106e2565b6040518082815260200191505060405180910390f35b6102296106fa565b6040518082815260200191505060405180910390f35b6102816004803603602081101561025557600080fd5b81019080803573ffffffffffffffffffffffffffffffffffffffff169060200190929190505050610700565b005b6102c56004803603602081101561029957600080fd5b81019080803573ffffffffffffffffffffffffffffffffffffffff169060200190929190505050610a51565b60405180821515815260200191505060405180910390f35b6102e5610a71565b6040518082815260200191505060405180910390f35b610303610a77565b6040518082815260200191505060405180910390f35b61035b6004803603602081101561032f57600080fd5b81019080803573ffffffffffffffffffffffffffffffffffffffff169060200190929190505050610a7d565b005b610365610c34565b6040518082815260200191505060405180910390f35b610383610c3a565b604051808273ffffffffffffffffffffffffffffffffffffffff16815260200191505060405180910390f35b6103b7610c60565b6040518082815260200191505060405180910390f35b61040f600480360360208110156103e357600080fd5b81019080803573ffffffffffffffffffffffffffffffffffffffff169060200190929190505050610c66565b6040518082815260200191505060405180910390f35b61042d610cdd565b005b61045b6004803603602081101561044557600080fd5b8101908080359060200190929190505050610e4d565b6040518082815260200191505060405180910390f35b610479610eb3565b604051808273ffffffffffffffffffffffffffffffffffffffff16815260200191505060405180910390f35b6104ad610ed7565b6040518082815260200191505060405180910390f35b6104cb610efb565b604051808273ffffffffffffffffffffffffffffffffffffffff16815260200191505060405180910390f35b6104ff610f25565b6040518082815260200191505060405180910390f35b6105576004803603602081101561052b57600080fd5b81019080803573ffffffffffffffffffffffffffffffffffffffff169060200190929190505050610f31565b604051808381526020018281526020019250505060405180910390f35b6105a06004803603602081101561058a57600080fd5b8101908080359060200190929190505050610f55565b005b6105f0600480360360408110156105b857600080fd5b81019080803573ffffffffffffffffffffffffffffffffffffffff169060200190929190803515159060200190929190505050610f64565b005b6105fa611016565b005b6106046111f5565b005b61060e61120f565b6040518082815260200191505060405180910390f35b61062c611215565b604051808273ffffffffffffffffffffffffffffffffffffffff16815260200191505060405180910390f35b610660611239565b6040518082815260200191505060405180910390f35b61067e61123f565b005b610688611484565b6040518082815260200191505060405180910390f35b6106e0600480360360208110156106b457600080fd5b81019080803573ffffffffffffffffffffffffffffffffffffffff16906020019092919050505061148a565b005b600c6020528060005260406000206000915090505481565b60015481565b80600d60008273ffffffffffffffffffffffffffffffffffffffff1673ffffffffffffffffffffffffffffffffffffffff16815260200190815260200160002060009054906101000a900460ff166107a3576040517f08c379a000000000000000000000000000000000000000000000000000000000815260040180806020018281038252602c815260200180612bbb602c913960400191505060405180910390fd5b7f0000000000000000000000000000000000000000000000000000000000000000431161081b576040517f08c379a0000000000000000000000000000000000000000000000000000000008152600401808060200182810382526042815260200180612b586042913960600191505060405180910390fd5b60026000541415610894576040517f08c379a000000000000000000000000000000000000000000000000000000000815260040180806020018281038252601f8152602001807f5265656e7472616e637947756172643a207265656e7472616e742063616c6c0081525060200191505060405180910390fd5b60026000819055506108a4611707565b6108ac611857565b60006108b733610c66565b905060008114156108c85750610a45565b61091c600c60003373ffffffffffffffffffffffffffffffffffffffff1673ffffffffffffffffffffffffffffffffffffffff1681526020019081526020016000205460095461199490919063ffffffff16565b6009819055506000600c60003373ffffffffffffffffffffffffffffffffffffffff1673ffffffffffffffffffffffffffffffffffffffff168152602001908152602001600020819055506109b283827f000000000000000000000000000000000000000000000000000000000000000073ffffffffffffffffffffffffffffffffffffffff16611a179092919063ffffffff16565b8273ffffffffffffffffffffffffffffffffffffffff16633c323a1b33836040518363ffffffff1660e01b8152600401808373ffffffffffffffffffffffffffffffffffffffff16815260200182815260200192505050600060405180830381600087803b158015610a2357600080fd5b505af1158015610a37573d6000803e3d6000fd5b50505050610a43611857565b505b60016000819055505050565b600d6020528060005260406000206000915054906101000a900460ff1681565b600b5481565b60095481565b610a85611bdc565b73ffffffffffffffffffffffffffffffffffffffff16610aa3610efb565b73ffffffffffffffffffffffffffffffffffffffff1614610b2c576040517f08c379a00000000000000000000000000000000000000000000000000000000081526004018080602001828103825260208152602001807f4f776e61626c653a2063616c6c6572206973206e6f7420746865206f776e657281525060200191505060405180910390fd5b600073ffffffffffffffffffffffffffffffffffffffff16600760009054906101000a900473ffffffffffffffffffffffffffffffffffffffff1673ffffffffffffffffffffffffffffffffffffffff1614610bf0576040517f08c379a00000000000000000000000000000000000000000000000000000000081526004018080602001828103825260178152602001807f52657761726420706f6f6c20616c72656164792073657400000000000000000081525060200191505060405180910390fd5b80600760006101000a81548173ffffffffffffffffffffffffffffffffffffffff021916908373ffffffffffffffffffffffffffffffffffffffff16021790555050565b60045481565b600760009054906101000a900473ffffffffffffffffffffffffffffffffffffffff1681565b60035481565b6000610cd6670de0b6b3a7640000610cc8600c60008673ffffffffffffffffffffffffffffffffffffffff1673ffffffffffffffffffffffffffffffffffffffff16815260200190815260200160002054600854611be490919063ffffffff16565b611c6a90919063ffffffff16565b9050919050565b610ce5611bdc565b73ffffffffffffffffffffffffffffffffffffffff16610d03610efb565b73ffffffffffffffffffffffffffffffffffffffff1614610d8c576040517f08c379a00000000000000000000000000000000000000000000000000000000081526004018080602001828103825260208152602001807f4f776e61626c653a2063616c6c6572206973206e6f7420746865206f776e657281525060200191505060405180910390fd5b600073ffffffffffffffffffffffffffffffffffffffff16600660009054906101000a900473ffffffffffffffffffffffffffffffffffffffff1673ffffffffffffffffffffffffffffffffffffffff167f8be0079c531659141344cd1fd0a4f28419497f9722a3daafe3b4186f6b6457e060405160405180910390a36000600660006101000a81548173ffffffffffffffffffffffffffffffffffffffff021916908373ffffffffffffffffffffffffffffffffffffffff160217905550565b600080600560003373ffffffffffffffffffffffffffffffffffffffff1673ffffffffffffffffffffffffffffffffffffffff1681526020019081526020016000209050806002018381548110610ea057fe5b9060005260206000200154915050919050565b7f000000000000000000000000000000000000000000000000000000000000000081565b7f000000000000000000000000000000000000000000000000000000000000000081565b6000600660009054906101000a900473ffffffffffffffffffffffffffffffffffffffff16905090565b670de0b6b3a764000081565b60056020528060005260406000206000915090508060000154908060010154905082565b610f6181336001611cf3565b50565b7f000000000000000000000000000000000000000000000000000000000000000073ffffffffffffffffffffffffffffffffffffffff163373ffffffffffffffffffffffffffffffffffffffff1614611008576040517f08c379a0000000000000000000000000000000000000000000000000000000008152600401808060200182810382526022815260200180612be76022913960400191505060405180910390fd5b6110128282611f5e565b5050565b7f0000000000000000000000000000000000000000000000000000000000000000431161108e576040517f08c379a0000000000000000000000000000000000000000000000000000000008152600401808060200182810382526042815260200180612b586042913960600191505060405180910390fd5b60026000541415611107576040517f08c379a000000000000000000000000000000000000000000000000000000000815260040180806020018281038252601f8152602001807f5265656e7472616e637947756172643a207265656e7472616e742063616c6c0081525060200191505060405180910390fd5b60026000819055506000600560003373ffffffffffffffffffffffffffffffffffffffff1673ffffffffffffffffffffffffffffffffffffffff168152602001908152602001600020905061116b8160010154600b5461199490919063ffffffff16565b600b819055506111e27f0000000000000000000000000000000000000000000000000000000000000000600067ffffffffffffffff811180156111ad57600080fd5b506040519080825280602002602001820160405280156111dc5781602001602082028036833780820191505090505b50611fb9565b6111ea611857565b506001600081905550565b6111fd611707565b611205611857565b61120d612187565b565b60085481565b7f000000000000000000000000000000000000000000000000000000000000000081565b600a5481565b7f000000000000000000000000000000000000000000000000000000000000000043116112b7576040517f08c379a0000000000000000000000000000000000000000000000000000000008152600401808060200182810382526042815260200180612b586042913960600191505060405180910390fd5b60026000541415611330576040517f08c379a000000000000000000000000000000000000000000000000000000000815260040180806020018281038252601f8152602001807f5265656e7472616e637947756172643a207265656e7472616e742063616c6c0081525060200191505060405180910390fd5b6002600081905550611340611707565b611348611857565b600061135333610c66565b90506000811415611364575061147a565b6113b68160008067ffffffffffffffff8111801561138157600080fd5b506040519080825280602002602001820160405280156113b05781602001602082028036833780820191505090505b50612496565b61140a600c60003373ffffffffffffffffffffffffffffffffffffffff1673ffffffffffffffffffffffffffffffffffffffff1681526020019081526020016000205460095461199490919063ffffffff16565b6009819055506000600c60003373ffffffffffffffffffffffffffffffffffffffff1673ffffffffffffffffffffffffffffffffffffffff1681526020019081526020016000208190555061146a81600b5461167f90919063ffffffff16565b600b81905550611478611857565b505b6001600081905550565b60025481565b611492611bdc565b73ffffffffffffffffffffffffffffffffffffffff166114b0610efb565b73ffffffffffffffffffffffffffffffffffffffff1614611539576040517f08c379a00000000000000000000000000000000000000000000000000000000081526004018080602001828103825260208152602001807f4f776e61626c653a2063616c6c6572206973206e6f7420746865206f776e657281525060200191505060405180910390fd5b600073ffffffffffffffffffffffffffffffffffffffff168173ffffffffffffffffffffffffffffffffffffffff1614156115bf576040517f08c379a0000000000000000000000000000000000000000000000000000000008152600401808060200182810382526026815260200180612b0c6026913960400191505060405180910390fd5b8073ffffffffffffffffffffffffffffffffffffffff16600660009054906101000a900473ffffffffffffffffffffffffffffffffffffffff1673ffffffffffffffffffffffffffffffffffffffff167f8be0079c531659141344cd1fd0a4f28419497f9722a3daafe3b4186f6b6457e060405160405180910390a380600660006101000a81548173ffffffffffffffffffffffffffffffffffffffff021916908373ffffffffffffffffffffffffffffffffffffffff16021790555050565b6000808284019050838110156116fd576040517f08c379a000000000000000000000000000000000000000000000000000000000815260040180806020018281038252601b8152602001807f536166654d6174683a206164646974696f6e206f766572666c6f77000000000081525060200191505060405180910390fd5b8091505092915050565b6000600760009054906101000a900473ffffffffffffffffffffffffffffffffffffffff1673ffffffffffffffffffffffffffffffffffffffff166370a08231306040518263ffffffff1660e01b8152600401808273ffffffffffffffffffffffffffffffffffffffff16815260200191505060206040518083038186803b15801561179257600080fd5b505afa1580156117a6573d6000803e3d6000fd5b505050506040513d60208110156117bc57600080fd5b81019080805190602001909291905050501461185557600760009054906101000a900473ffffffffffffffffffffffffffffffffffffffff1673ffffffffffffffffffffffffffffffffffffffff1663e9fad8ee6040518163ffffffff1660e01b8152600401600060405180830381600087803b15801561183c57600080fd5b505af1158015611850573d6000803e3d6000fd5b505050505b565b6000600954141561187e576000600a81905550670de0b6b3a7640000600881905550611992565b611954600b547f000000000000000000000000000000000000000000000000000000000000000073ffffffffffffffffffffffffffffffffffffffff166370a08231306040518263ffffffff1660e01b8152600401808273ffffffffffffffffffffffffffffffffffffffff16815260200191505060206040518083038186803b15801561190b57600080fd5b505afa15801561191f573d6000803e3d6000fd5b505050506040513d602081101561193557600080fd5b810190808051906020019092919050505061199490919063ffffffff16565b600a8190555061198b60095461197d670de0b6b3a7640000600a54611be490919063ffffffff16565b611c6a90919063ffffffff16565b6008819055505b565b600082821115611a0c576040517f08c379a000000000000000000000000000000000000000000000000000000000815260040180806020018281038252601e8152602001807f536166654d6174683a207375627472616374696f6e206f766572666c6f77000081525060200191505060405180910390fd5b818303905092915050565b6000811480611ae5575060008373ffffffffffffffffffffffffffffffffffffffff1663dd62ed3e30856040518363ffffffff1660e01b8152600401808373ffffffffffffffffffffffffffffffffffffffff1681526020018273ffffffffffffffffffffffffffffffffffffffff1681526020019250505060206040518083038186803b158015611aa857600080fd5b505afa158015611abc573d6000803e3d6000fd5b505050506040513d6020811015611ad257600080fd5b8101908080519060200190929190505050145b611b3a576040517f08c379a0000000000000000000000000000000000000000000000000000000008152600401808060200182810382526036815260200180612c336036913960400191505060405180910390fd5b611bd78363095ea7b360e01b8484604051602401808373ffffffffffffffffffffffffffffffffffffffff16815260200182815260200192505050604051602081830303815290604052907bffffffffffffffffffffffffffffffffffffffffffffffffffffffff19166020820180517bffffffffffffffffffffffffffffffffffffffffffffffffffffffff83818316178352505050506125e7565b505050565b600033905090565b600080831415611bf75760009050611c64565b6000828402905082848281611c0857fe5b0414611c5f576040517f08c379a0000000000000000000000000000000000000000000000000000000008152600401808060200182810382526021815260200180612b9a6021913960400191505060405180910390fd5b809150505b92915050565b6000808211611ce1576040517f08c379a000000000000000000000000000000000000000000000000000000000815260040180806020018281038252601a8152602001807f536166654d6174683a206469766973696f6e206279207a65726f00000000000081525060200191505060405180910390fd5b818381611cea57fe5b04905092915050565b60026000541415611d6c576040517f08c379a000000000000000000000000000000000000000000000000000000000815260040180806020018281038252601f8152602001807f5265656e7472616e637947756172643a207265656e7472616e742063616c6c0081525060200191505060405180910390fd5b6002600081905550611d7c611707565b611d84611857565b611ddd81611d925733611d94565b825b30857f000000000000000000000000000000000000000000000000000000000000000073ffffffffffffffffffffffffffffffffffffffff16612832909392919063ffffffff16565b6000611e0e600854611e00670de0b6b3a764000087611be490919063ffffffff16565b611c6a90919063ffffffff16565b9050611e258160095461167f90919063ffffffff16565b600981905550611e7d81600c60008673ffffffffffffffffffffffffffffffffffffffff1673ffffffffffffffffffffffffffffffffffffffff1681526020019081526020016000205461167f90919063ffffffff16565b600c60008573ffffffffffffffffffffffffffffffffffffffff1673ffffffffffffffffffffffffffffffffffffffff1681526020019081526020016000208190555060006008549050611ecf611857565b8373ffffffffffffffffffffffffffffffffffffffff167f6381ea17a5324d29cc015352644672ead5185c1c61a0d3a521eda97e35cec97e868484600854611f168a610c66565b604051808681526020018581526020018481526020018381526020018281526020019550505050505060405180910390a2611f4f612187565b50506001600081905550505050565b80600d60008473ffffffffffffffffffffffffffffffffffffffff1673ffffffffffffffffffffffffffffffffffffffff16815260200190815260200160002060006101000a81548160ff0219169083151502179055505050565b6000600560003373ffffffffffffffffffffffffffffffffffffffff1673ffffffffffffffffffffffffffffffffffffffff168152602001908152602001600020905080600001544311612058576040517f08c379a0000000000000000000000000000000000000000000000000000000008152600401808060200182810382526026815260200180612b326026913960400191505060405180910390fd5b6000816001015490506000826001018190555061209633828673ffffffffffffffffffffffffffffffffffffffff166128f39092919063ffffffff16565b60005b835181101561212b5760008360020182815481106120b357fe5b9060005260206000200154905060008460020183815481106120d157fe5b906000526020600020018190555061211d33828785815181106120f057fe5b602002602001015173ffffffffffffffffffffffffffffffffffffffff166128f39092919063ffffffff16565b508080600101915050612099565b507f548aea05c5e3b6ba34acdf7b3ad06c7bb667ed71d1761e2c177167be0a9eb0593382604051808373ffffffffffffffffffffffffffffffffffffffff1681526020018281526020019250505060405180910390a150505050565b60007f000000000000000000000000000000000000000000000000000000000000000073ffffffffffffffffffffffffffffffffffffffff166370a08231306040518263ffffffff1660e01b8152600401808273ffffffffffffffffffffffffffffffffffffffff16815260200191505060206040518083038186803b15801561221057600080fd5b505afa158015612224573d6000803e3d6000fd5b505050506040513d602081101561223a57600080fd5b810190808051906020019092919050505014612494576000612328600b547f000000000000000000000000000000000000000000000000000000000000000073ffffffffffffffffffffffffffffffffffffffff166370a08231306040518263ffffffff1660e01b8152600401808273ffffffffffffffffffffffffffffffffffffffff16815260200191505060206040518083038186803b1580156122df57600080fd5b505afa1580156122f3573d6000803e3d6000fd5b505050506040513d602081101561230957600080fd5b810190808051906020019092919050505061199490919063ffffffff16565b9050612398600760009054906101000a900473ffffffffffffffffffffffffffffffffffffffff1660007f000000000000000000000000000000000000000000000000000000000000000073ffffffffffffffffffffffffffffffffffffffff16611a179092919063ffffffff16565b612405600760009054906101000a900473ffffffffffffffffffffffffffffffffffffffff16827f000000000000000000000000000000000000000000000000000000000000000073ffffffffffffffffffffffffffffffffffffffff16611a179092919063ffffffff16565b600760009054906101000a900473ffffffffffffffffffffffffffffffffffffffff1673ffffffffffffffffffffffffffffffffffffffff1663a694fc3a826040518263ffffffff1660e01b815260040180828152602001915050600060405180830381600087803b15801561247a57600080fd5b505af115801561248e573d6000803e3d6000fd5b50505050505b565b6124a03383612995565b6000600560003373ffffffffffffffffffffffffffffffffffffffff1673ffffffffffffffffffffffffffffffffffffffff16815260200190815260200160002090506124ec84612a42565b816000018190555061250b84826001015461167f90919063ffffffff16565b816001018190555060005b838110156125875761255d83828151811061252d57fe5b602002602001015183600201838154811061254457fe5b906000526020600020015461167f90919063ffffffff16565b82600201828154811061256c57fe5b90600052602060002001819055508080600101915050612516565b507fd9217a461a0f7f84171a8866118c3d92e943ba7c1ba89b819371f729b5cabcbc338260000154604051808373ffffffffffffffffffffffffffffffffffffffff1681526020018281526020019250505060405180910390a150505050565b6126068273ffffffffffffffffffffffffffffffffffffffff16612af8565b612678576040517f08c379a000000000000000000000000000000000000000000000000000000000815260040180806020018281038252601f8152602001807f5361666545524332303a2063616c6c20746f206e6f6e2d636f6e74726163740081525060200191505060405180910390fd5b600060608373ffffffffffffffffffffffffffffffffffffffff16836040518082805190602001908083835b602083106126c757805182526020820191506020810190506020830392506126a4565b6001836020036101000a0380198251168184511680821785525050505050509050019150506000604051808303816000865af19150503d8060008114612729576040519150601f19603f3d011682016040523d82523d6000602084013e61272e565b606091505b5091509150816127a6576040517f08c379a00000000000000000000000000000000000000000000000000000000081526004018080602001828103825260208152602001807f5361666545524332303a206c6f772d6c6576656c2063616c6c206661696c656481525060200191505060405180910390fd5b60008151111561282c578080602001905160208110156127c557600080fd5b810190808051906020019092919050505061282b576040517f08c379a000000000000000000000000000000000000000000000000000000000815260040180806020018281038252602a815260200180612c09602a913960400191505060405180910390fd5b5b50505050565b6128ed846323b872dd60e01b858585604051602401808473ffffffffffffffffffffffffffffffffffffffff1681526020018373ffffffffffffffffffffffffffffffffffffffff1681526020018281526020019350505050604051602081830303815290604052907bffffffffffffffffffffffffffffffffffffffffffffffffffffffff19166020820180517bffffffffffffffffffffffffffffffffffffffffffffffffffffffff83818316178352505050506125e7565b50505050565b6129908363a9059cbb60e01b8484604051602401808373ffffffffffffffffffffffffffffffffffffffff16815260200182815260200192505050604051602081830303815290604052907bffffffffffffffffffffffffffffffffffffffffffffffffffffffff19166020820180517bffffffffffffffffffffffffffffffffffffffffffffffffffffffff83818316178352505050506125e7565b505050565b6000600560008473ffffffffffffffffffffffffffffffffffffffff1673ffffffffffffffffffffffffffffffffffffffff168152602001908152602001600020905081816002018054905014156129ed5750612a3e565b6000816002018054905090505b82811015612a3b57816002016000908060018154018082558091505060019003906000526020600020016000909190919091505580806001019150506129fa565b50505b5050565b6000600154431115612aa1576000600354600154430381612a5f57fe5b069050612a89600354612a7b834361199490919063ffffffff16565b61167f90919063ffffffff16565b60018190555082600281905550600154915050612af3565b612ab68260025461167f90919063ffffffff16565b600281905550600154905060045460025410612af257612ae360035460015461167f90919063ffffffff16565b60018190555060006002819055505b5b919050565b600080823b90506000811191505091905056fe4f776e61626c653a206e6577206f776e657220697320746865207a65726f206164647265737366696e616c697a65457869743a3a547279696e6720746f206578697420746f6f206561726c796f6e6c79556e6c6f636b65643a3a63616e6e6f7420706572666f726d207468697320616374696f6e20756e74696c2074686520656e64206f6620746865206c6f636b536166654d6174683a206d756c7469706c69636174696f6e206f766572666c6f7765786974416e645472616e736665723a3a7265636569766572206973206e6f742077686974656c697374656443616c6c6572206973206e6f742074686520466163746f727920636f6e74726163745361666545524332303a204552433230206f7065726174696f6e20646964206e6f7420737563636565645361666545524332303a20617070726f76652066726f6d206e6f6e2d7a65726f20746f206e6f6e2d7a65726f20616c6c6f77616e6365a26469706673582212205e17d08e728b8658c9824e742c8f62291680c3e3e2e02b2348344e6edfaab45664736f6c634300060c00337365745468726f74746c653a3a7468726f74746c6520726f756e6420636170206d757374206265206d6f7265207468616e20307365745468726f74746c653a3a7468726f74746c6520706172616d6574657273207765726520616c7265616479207365747365745468726f74746c653a3a7468726f74746c6520726f756e6420626c6f636b73206d757374206265206d6f7265207468616e20307365744c6f636b456e643a3a4c6f636b20656e64206e6565647320746f20626520696e2074686520667574757265",
  "source": "// SPDX-License-Identifier: MIT\n\npragma solidity 0.6.12;\n\nimport \"./../autostake-features/StakeTransfererAutoStake.sol\";\n\ncontract AutoStakeTransfererMock is StakeTransfererAutoStake {\n\tconstructor(address token, uint256 _throttleRoundBlocks, uint256 _throttleRoundCap, uint256 stakeEnd) public AutoStake(token, _throttleRoundBlocks, _throttleRoundCap, stakeEnd) {\n\t}\n}",
  "sourcePath": "/home/hellowodl/lmaas-liquidity-staker/contracts/mocks/AutoStakeTransfererMock.sol",
  "compiler": {
    "name": "solc",
    "version": "0.6.12+commit.27d51765.Emscripten.clang",
    "optimizer": false,
    "runs": 200
  },
  "schemaVersion": "2.3.5",
  "updatedAt": "2021-04-27T17:14:31.170Z"
}