{
  "contractName": "AutoStake",
  "abi": [
    {
      "inputs": [
        {
          "internalType": "address",
          "name": "token",
          "type": "address"
        },
        {
          "internalType": "uint256",
          "name": "_throttleRoundBlocks",
          "type": "uint256"
        },
        {
          "internalType": "uint256",
          "name": "_throttleRoundCap",
          "type": "uint256"
        },
        {
          "internalType": "uint256",
          "name": "stakeEnd",
          "type": "uint256"
        }
      ],
      "stateMutability": "nonpayable",
      "type": "constructor"
    },
    {
      "anonymous": false,
      "inputs": [
        {
          "indexed": false,
          "internalType": "address",
          "name": "user",
          "type": "address"
        },
        {
          "indexed": false,
          "internalType": "uint256",
          "name": "stake",
          "type": "uint256"
        }
      ],
      "name": "ExitCompleted",
      "type": "event"
    },
    {
      "anonymous": false,
      "inputs": [
        {
          "indexed": false,
          "internalType": "address",
          "name": "user",
          "type": "address"
        },
        {
          "indexed": false,
          "internalType": "uint256",
          "name": "exitBlock",
          "type": "uint256"
        }
      ],
      "name": "ExitRequested",
      "type": "event"
    },
    {
      "anonymous": false,
      "inputs": [
        {
          "indexed": true,
          "internalType": "address",
          "name": "previousOwner",
          "type": "address"
        },
        {
          "indexed": true,
          "internalType": "address",
          "name": "newOwner",
          "type": "address"
        }
      ],
      "name": "OwnershipTransferred",
      "type": "event"
    },
    {
      "anonymous": false,
      "inputs": [
        {
          "indexed": true,
          "internalType": "address",
          "name": "user",
          "type": "address"
        },
        {
          "indexed": false,
          "internalType": "uint256",
          "name": "amount",
          "type": "uint256"
        },
        {
          "indexed": false,
          "internalType": "uint256",
          "name": "sharesIssued",
          "type": "uint256"
        },
        {
          "indexed": false,
          "internalType": "uint256",
          "name": "oldShareVaule",
          "type": "uint256"
        },
        {
          "indexed": false,
          "internalType": "uint256",
          "name": "newShareValue",
          "type": "uint256"
        },
        {
          "indexed": false,
          "internalType": "uint256",
          "name": "balanceOf",
          "type": "uint256"
        }
      ],
      "name": "Staked",
      "type": "event"
    },
    {
      "inputs": [
        {
          "internalType": "address",
          "name": "",
          "type": "address"
        }
      ],
      "name": "exitInfo",
      "outputs": [
        {
          "internalType": "uint256",
          "name": "exitBlock",
          "type": "uint256"
        },
        {
          "internalType": "uint256",
          "name": "exitStake",
          "type": "uint256"
        }
      ],
      "stateMutability": "view",
      "type": "function"
    },
    {
      "inputs": [],
      "name": "exitStake",
      "outputs": [
        {
          "internalType": "uint256",
          "name": "",
          "type": "uint256"
        }
      ],
      "stateMutability": "view",
      "type": "function"
    },
    {
      "inputs": [],
      "name": "factory",
      "outputs": [
        {
          "internalType": "address",
          "name": "",
          "type": "address"
        }
      ],
      "stateMutability": "view",
      "type": "function"
    },
    {
      "inputs": [
        {
          "internalType": "uint256",
          "name": "tokenIndex",
          "type": "uint256"
        }
      ],
      "name": "getPendingReward",
      "outputs": [
        {
          "internalType": "uint256",
          "name": "",
          "type": "uint256"
        }
      ],
      "stateMutability": "view",
      "type": "function"
    },
    {
      "inputs": [],
      "name": "lockEndBlock",
      "outputs": [
        {
          "internalType": "uint256",
          "name": "",
          "type": "uint256"
        }
      ],
      "stateMutability": "view",
      "type": "function"
    },
    {
      "inputs": [],
      "name": "nextAvailableExitBlock",
      "outputs": [
        {
          "internalType": "uint256",
          "name": "",
          "type": "uint256"
        }
      ],
      "stateMutability": "view",
      "type": "function"
    },
    {
      "inputs": [],
      "name": "nextAvailableRoundExitVolume",
      "outputs": [
        {
          "internalType": "uint256",
          "name": "",
          "type": "uint256"
        }
      ],
      "stateMutability": "view",
      "type": "function"
    },
    {
      "inputs": [],
      "name": "owner",
      "outputs": [
        {
          "internalType": "address",
          "name": "",
          "type": "address"
        }
      ],
      "stateMutability": "view",
      "type": "function"
    },
    {
      "inputs": [],
      "name": "renounceOwnership",
      "outputs": [],
      "stateMutability": "nonpayable",
      "type": "function"
    },
    {
      "inputs": [],
      "name": "rewardPool",
      "outputs": [
        {
          "internalType": "contract IRewardsPoolBase",
          "name": "",
          "type": "address"
        }
      ],
      "stateMutability": "view",
      "type": "function"
    },
    {
      "inputs": [
        {
          "internalType": "address",
          "name": "",
          "type": "address"
        }
      ],
      "name": "share",
      "outputs": [
        {
          "internalType": "uint256",
          "name": "",
          "type": "uint256"
        }
      ],
      "stateMutability": "view",
      "type": "function"
    },
    {
      "inputs": [],
      "name": "stakingToken",
      "outputs": [
        {
          "internalType": "contract IERC20Detailed",
          "name": "",
          "type": "address"
        }
      ],
      "stateMutability": "view",
      "type": "function"
    },
    {
      "inputs": [],
      "name": "throttleRoundBlocks",
      "outputs": [
        {
          "internalType": "uint256",
          "name": "",
          "type": "uint256"
        }
      ],
      "stateMutability": "view",
      "type": "function"
    },
    {
      "inputs": [],
      "name": "throttleRoundCap",
      "outputs": [
        {
          "internalType": "uint256",
          "name": "",
          "type": "uint256"
        }
      ],
      "stateMutability": "view",
      "type": "function"
    },
    {
      "inputs": [],
      "name": "totalShares",
      "outputs": [
        {
          "internalType": "uint256",
          "name": "",
          "type": "uint256"
        }
      ],
      "stateMutability": "view",
      "type": "function"
    },
    {
      "inputs": [],
      "name": "totalValue",
      "outputs": [
        {
          "internalType": "uint256",
          "name": "",
          "type": "uint256"
        }
      ],
      "stateMutability": "view",
      "type": "function"
    },
    {
      "inputs": [
        {
          "internalType": "address",
          "name": "newOwner",
          "type": "address"
        }
      ],
      "name": "transferOwnership",
      "outputs": [],
      "stateMutability": "nonpayable",
      "type": "function"
    },
    {
      "inputs": [],
      "name": "unit",
      "outputs": [
        {
          "internalType": "uint256",
          "name": "",
          "type": "uint256"
        }
      ],
      "stateMutability": "view",
      "type": "function"
    },
    {
      "inputs": [],
      "name": "valuePerShare",
      "outputs": [
        {
          "internalType": "uint256",
          "name": "",
          "type": "uint256"
        }
      ],
      "stateMutability": "view",
      "type": "function"
    },
    {
      "inputs": [
        {
          "internalType": "address",
          "name": "pool",
          "type": "address"
        }
      ],
      "name": "setPool",
      "outputs": [],
      "stateMutability": "nonpayable",
      "type": "function"
    },
    {
      "inputs": [],
      "name": "refreshAutoStake",
      "outputs": [],
      "stateMutability": "nonpayable",
      "type": "function"
    },
    {
      "inputs": [
        {
          "internalType": "uint256",
          "name": "amount",
          "type": "uint256"
        }
      ],
      "name": "stake",
      "outputs": [],
      "stateMutability": "nonpayable",
      "type": "function"
    },
    {
      "inputs": [],
      "name": "exit",
      "outputs": [],
      "stateMutability": "nonpayable",
      "type": "function"
    },
    {
      "inputs": [],
      "name": "completeExit",
      "outputs": [],
      "stateMutability": "nonpayable",
      "type": "function"
    },
    {
      "inputs": [
        {
          "internalType": "address",
          "name": "who",
          "type": "address"
        }
      ],
      "name": "balanceOf",
      "outputs": [
        {
          "internalType": "uint256",
          "name": "",
          "type": "uint256"
        }
      ],
      "stateMutability": "view",
      "type": "function"
    }
  ],
  "bytecode": "0x60e0604052670de0b6b3a76400006008553480156200001d57600080fd5b5060405162002bbd38038062002bbd833981810160405260808110156200004357600080fd5b8101908080519060200190929190805190602001909291908051906020019092919080519060200190929190505050806001600081905550438111620000d5576040517f08c379a000000000000000000000000000000000000000000000000000000000815260040180806020018281038252602e81526020018062002b8f602e913960400191505060405180910390fd5b8060808181525050506000620000f06200021a60201b60201c565b905080600660006101000a81548173ffffffffffffffffffffffffffffffffffffffff021916908373ffffffffffffffffffffffffffffffffffffffff1602179055508073ffffffffffffffffffffffffffffffffffffffff16600073ffffffffffffffffffffffffffffffffffffffff167f8be0079c531659141344cd1fd0a4f28419497f9722a3daafe3b4186f6b6457e060405160405180910390a3503373ffffffffffffffffffffffffffffffffffffffff1660c08173ffffffffffffffffffffffffffffffffffffffff1660601b815250508373ffffffffffffffffffffffffffffffffffffffff1660a08173ffffffffffffffffffffffffffffffffffffffff1660601b81525050620002108383836200022260201b60201c565b5050505062000402565b600033905090565b600083116200027d576040517f08c379a000000000000000000000000000000000000000000000000000000000815260040180806020018281038252603681526020018062002b596036913960400191505060405180910390fd5b60008211620002d8576040517f08c379a000000000000000000000000000000000000000000000000000000000815260040180806020018281038252603381526020018062002af56033913960400191505060405180910390fd5b6000600354148015620002ed57506000600454145b62000344576040517f08c379a000000000000000000000000000000000000000000000000000000000815260040180806020018281038252603181526020018062002b286031913960400191505060405180910390fd5b82600381905550816004819055506200036e600354826200037960201b6200111d1790919060201c565b600181905550505050565b600080828401905083811015620003f8576040517f08c379a000000000000000000000000000000000000000000000000000000000815260040180806020018281038252601b8152602001807f536166654d6174683a206164646974696f6e206f766572666c6f77000000000081525060200191505060405180910390fd5b8091505092915050565b60805160a05160601c60c05160601c6126936200046260003980610cb5525080610a055280610c14528061136152806117a75280611a095280611ad85280611bd25280611c3f525080610a295280610ab65280610cdf52506126936000f3fe608060405234801561001057600080fd5b50600436106101735760003560e01c80638587edbb116100de578063b540652e11610097578063d4c3eea011610071578063d4c3eea014610519578063e9fad8ee14610537578063ee483cdf14610541578063f2fde38b1461055f57610173565b8063b540652e146104bd578063c0a239e3146104c7578063c45a0155146104e557610173565b80638587edbb146103b65780638da5cb5b146103d4578063907af6c01461040857806394f6641714610426578063a694fc3a14610485578063b01eb660146104b357610173565b806366666aa91161013057806366666aa91461028c5780636eb957df146102c057806370a08231146102de578063715018a6146103365780637211bbc91461034057806372f702f31461038257610173565b80631877bb5c146101785780631c1f9cc0146101d05780633882f742146101ee5780633a98ef391461020c5780634437152a1461022a5780634ff3306f1461026e575b600080fd5b6101ba6004803603602081101561018e57600080fd5b81019080803573ffffffffffffffffffffffffffffffffffffffff1690602001909291905050506105a3565b6040518082815260200191505060405180910390f35b6101d86105bb565b6040518082815260200191505060405180910390f35b6101f66105c1565b6040518082815260200191505060405180910390f35b6102146105c7565b6040518082815260200191505060405180910390f35b61026c6004803603602081101561024057600080fd5b81019080803573ffffffffffffffffffffffffffffffffffffffff1690602001909291905050506105cd565b005b610276610784565b6040518082815260200191505060405180910390f35b61029461078a565b604051808273ffffffffffffffffffffffffffffffffffffffff16815260200191505060405180910390f35b6102c86107b0565b6040518082815260200191505060405180910390f35b610320600480360360208110156102f457600080fd5b81019080803573ffffffffffffffffffffffffffffffffffffffff1690602001909291905050506107b6565b6040518082815260200191505060405180910390f35b61033e61082d565b005b61036c6004803603602081101561035657600080fd5b810190808035906020019092919050505061099d565b6040518082815260200191505060405180910390f35b61038a610a03565b604051808273ffffffffffffffffffffffffffffffffffffffff16815260200191505060405180910390f35b6103be610a27565b6040518082815260200191505060405180910390f35b6103dc610a4b565b604051808273ffffffffffffffffffffffffffffffffffffffff16815260200191505060405180910390f35b610410610a75565b6040518082815260200191505060405180910390f35b6104686004803603602081101561043c57600080fd5b81019080803573ffffffffffffffffffffffffffffffffffffffff169060200190929190505050610a81565b604051808381526020018281526020019250505060405180910390f35b6104b16004803603602081101561049b57600080fd5b8101908080359060200190929190505050610aa5565b005b6104bb610ab4565b005b6104c5610c93565b005b6104cf610cad565b6040518082815260200191505060405180910390f35b6104ed610cb3565b604051808273ffffffffffffffffffffffffffffffffffffffff16815260200191505060405180910390f35b610521610cd7565b6040518082815260200191505060405180910390f35b61053f610cdd565b005b610549610f22565b6040518082815260200191505060405180910390f35b6105a16004803603602081101561057557600080fd5b81019080803573ffffffffffffffffffffffffffffffffffffffff169060200190929190505050610f28565b005b600c6020528060005260406000206000915090505481565b60015481565b600b5481565b60095481565b6105d56111a5565b73ffffffffffffffffffffffffffffffffffffffff166105f3610a4b565b73ffffffffffffffffffffffffffffffffffffffff161461067c576040517f08c379a00000000000000000000000000000000000000000000000000000000081526004018080602001828103825260208152602001807f4f776e61626c653a2063616c6c6572206973206e6f7420746865206f776e657281525060200191505060405180910390fd5b600073ffffffffffffffffffffffffffffffffffffffff16600760009054906101000a900473ffffffffffffffffffffffffffffffffffffffff1673ffffffffffffffffffffffffffffffffffffffff1614610740576040517f08c379a00000000000000000000000000000000000000000000000000000000081526004018080602001828103825260178152602001807f52657761726420706f6f6c20616c72656164792073657400000000000000000081525060200191505060405180910390fd5b80600760006101000a81548173ffffffffffffffffffffffffffffffffffffffff021916908373ffffffffffffffffffffffffffffffffffffffff16021790555050565b60045481565b600760009054906101000a900473ffffffffffffffffffffffffffffffffffffffff1681565b60035481565b6000610826670de0b6b3a7640000610818600c60008673ffffffffffffffffffffffffffffffffffffffff1673ffffffffffffffffffffffffffffffffffffffff168152602001908152602001600020546008546111ad90919063ffffffff16565b61123390919063ffffffff16565b9050919050565b6108356111a5565b73ffffffffffffffffffffffffffffffffffffffff16610853610a4b565b73ffffffffffffffffffffffffffffffffffffffff16146108dc576040517f08c379a00000000000000000000000000000000000000000000000000000000081526004018080602001828103825260208152602001807f4f776e61626c653a2063616c6c6572206973206e6f7420746865206f776e657281525060200191505060405180910390fd5b600073ffffffffffffffffffffffffffffffffffffffff16600660009054906101000a900473ffffffffffffffffffffffffffffffffffffffff1673ffffffffffffffffffffffffffffffffffffffff167f8be0079c531659141344cd1fd0a4f28419497f9722a3daafe3b4186f6b6457e060405160405180910390a36000600660006101000a81548173ffffffffffffffffffffffffffffffffffffffff021916908373ffffffffffffffffffffffffffffffffffffffff160217905550565b600080600560003373ffffffffffffffffffffffffffffffffffffffff1673ffffffffffffffffffffffffffffffffffffffff16815260200190815260200160002090508060020183815481106109f057fe5b9060005260206000200154915050919050565b7f000000000000000000000000000000000000000000000000000000000000000081565b7f000000000000000000000000000000000000000000000000000000000000000081565b6000600660009054906101000a900473ffffffffffffffffffffffffffffffffffffffff16905090565b670de0b6b3a764000081565b60056020528060005260406000206000915090508060000154908060010154905082565b610ab1813360016112bc565b50565b7f00000000000000000000000000000000000000000000000000000000000000004311610b2c576040517f08c379a000000000000000000000000000000000000000000000000000000000815260040180806020018281038252604281526020018061259b6042913960600191505060405180910390fd5b60026000541415610ba5576040517f08c379a000000000000000000000000000000000000000000000000000000000815260040180806020018281038252601f8152602001807f5265656e7472616e637947756172643a207265656e7472616e742063616c6c0081525060200191505060405180910390fd5b60026000819055506000600560003373ffffffffffffffffffffffffffffffffffffffff1673ffffffffffffffffffffffffffffffffffffffff1681526020019081526020016000209050610c098160010154600b5461152790919063ffffffff16565b600b81905550610c807f0000000000000000000000000000000000000000000000000000000000000000600067ffffffffffffffff81118015610c4b57600080fd5b50604051908082528060200260200182016040528015610c7a5781602001602082028036833780820191505090505b506115aa565b610c88611778565b506001600081905550565b610c9b6118b5565b610ca3611778565b610cab611a05565b565b60085481565b7f000000000000000000000000000000000000000000000000000000000000000081565b600a5481565b7f00000000000000000000000000000000000000000000000000000000000000004311610d55576040517f08c379a000000000000000000000000000000000000000000000000000000000815260040180806020018281038252604281526020018061259b6042913960600191505060405180910390fd5b60026000541415610dce576040517f08c379a000000000000000000000000000000000000000000000000000000000815260040180806020018281038252601f8152602001807f5265656e7472616e637947756172643a207265656e7472616e742063616c6c0081525060200191505060405180910390fd5b6002600081905550610dde6118b5565b610de6611778565b6000610df1336107b6565b90506000811415610e025750610f18565b610e548160008067ffffffffffffffff81118015610e1f57600080fd5b50604051908082528060200260200182016040528015610e4e5781602001602082028036833780820191505090505b50611d14565b610ea8600c60003373ffffffffffffffffffffffffffffffffffffffff1673ffffffffffffffffffffffffffffffffffffffff1681526020019081526020016000205460095461152790919063ffffffff16565b6009819055506000600c60003373ffffffffffffffffffffffffffffffffffffffff1673ffffffffffffffffffffffffffffffffffffffff16815260200190815260200160002081905550610f0881600b5461111d90919063ffffffff16565b600b81905550610f16611778565b505b6001600081905550565b60025481565b610f306111a5565b73ffffffffffffffffffffffffffffffffffffffff16610f4e610a4b565b73ffffffffffffffffffffffffffffffffffffffff1614610fd7576040517f08c379a00000000000000000000000000000000000000000000000000000000081526004018080602001828103825260208152602001807f4f776e61626c653a2063616c6c6572206973206e6f7420746865206f776e657281525060200191505060405180910390fd5b600073ffffffffffffffffffffffffffffffffffffffff168173ffffffffffffffffffffffffffffffffffffffff16141561105d576040517f08c379a000000000000000000000000000000000000000000000000000000000815260040180806020018281038252602681526020018061254f6026913960400191505060405180910390fd5b8073ffffffffffffffffffffffffffffffffffffffff16600660009054906101000a900473ffffffffffffffffffffffffffffffffffffffff1673ffffffffffffffffffffffffffffffffffffffff167f8be0079c531659141344cd1fd0a4f28419497f9722a3daafe3b4186f6b6457e060405160405180910390a380600660006101000a81548173ffffffffffffffffffffffffffffffffffffffff021916908373ffffffffffffffffffffffffffffffffffffffff16021790555050565b60008082840190508381101561119b576040517f08c379a000000000000000000000000000000000000000000000000000000000815260040180806020018281038252601b8152602001807f536166654d6174683a206164646974696f6e206f766572666c6f77000000000081525060200191505060405180910390fd5b8091505092915050565b600033905090565b6000808314156111c0576000905061122d565b60008284029050828482816111d157fe5b0414611228576040517f08c379a00000000000000000000000000000000000000000000000000000000081526004018080602001828103825260218152602001806125dd6021913960400191505060405180910390fd5b809150505b92915050565b60008082116112aa576040517f08c379a000000000000000000000000000000000000000000000000000000000815260040180806020018281038252601a8152602001807f536166654d6174683a206469766973696f6e206279207a65726f00000000000081525060200191505060405180910390fd5b8183816112b357fe5b04905092915050565b60026000541415611335576040517f08c379a000000000000000000000000000000000000000000000000000000000815260040180806020018281038252601f8152602001807f5265656e7472616e637947756172643a207265656e7472616e742063616c6c0081525060200191505060405180910390fd5b60026000819055506113456118b5565b61134d611778565b6113a68161135b573361135d565b825b30857f000000000000000000000000000000000000000000000000000000000000000073ffffffffffffffffffffffffffffffffffffffff16611e65909392919063ffffffff16565b60006113d76008546113c9670de0b6b3a7640000876111ad90919063ffffffff16565b61123390919063ffffffff16565b90506113ee8160095461111d90919063ffffffff16565b60098190555061144681600c60008673ffffffffffffffffffffffffffffffffffffffff1673ffffffffffffffffffffffffffffffffffffffff1681526020019081526020016000205461111d90919063ffffffff16565b600c60008573ffffffffffffffffffffffffffffffffffffffff1673ffffffffffffffffffffffffffffffffffffffff1681526020019081526020016000208190555060006008549050611498611778565b8373ffffffffffffffffffffffffffffffffffffffff167f6381ea17a5324d29cc015352644672ead5185c1c61a0d3a521eda97e35cec97e8684846008546114df8a6107b6565b604051808681526020018581526020018481526020018381526020018281526020019550505050505060405180910390a2611518611a05565b50506001600081905550505050565b60008282111561159f576040517f08c379a000000000000000000000000000000000000000000000000000000000815260040180806020018281038252601e8152602001807f536166654d6174683a207375627472616374696f6e206f766572666c6f77000081525060200191505060405180910390fd5b818303905092915050565b6000600560003373ffffffffffffffffffffffffffffffffffffffff1673ffffffffffffffffffffffffffffffffffffffff168152602001908152602001600020905080600001544311611649576040517f08c379a00000000000000000000000000000000000000000000000000000000081526004018080602001828103825260268152602001806125756026913960400191505060405180910390fd5b6000816001015490506000826001018190555061168733828673ffffffffffffffffffffffffffffffffffffffff16611f269092919063ffffffff16565b60005b835181101561171c5760008360020182815481106116a457fe5b9060005260206000200154905060008460020183815481106116c257fe5b906000526020600020018190555061170e33828785815181106116e157fe5b602002602001015173ffffffffffffffffffffffffffffffffffffffff16611f269092919063ffffffff16565b50808060010191505061168a565b507f548aea05c5e3b6ba34acdf7b3ad06c7bb667ed71d1761e2c177167be0a9eb0593382604051808373ffffffffffffffffffffffffffffffffffffffff1681526020018281526020019250505060405180910390a150505050565b6000600954141561179f576000600a81905550670de0b6b3a76400006008819055506118b3565b611875600b547f000000000000000000000000000000000000000000000000000000000000000073ffffffffffffffffffffffffffffffffffffffff166370a08231306040518263ffffffff1660e01b8152600401808273ffffffffffffffffffffffffffffffffffffffff16815260200191505060206040518083038186803b15801561182c57600080fd5b505afa158015611840573d6000803e3d6000fd5b505050506040513d602081101561185657600080fd5b810190808051906020019092919050505061152790919063ffffffff16565b600a819055506118ac60095461189e670de0b6b3a7640000600a546111ad90919063ffffffff16565b61123390919063ffffffff16565b6008819055505b565b6000600760009054906101000a900473ffffffffffffffffffffffffffffffffffffffff1673ffffffffffffffffffffffffffffffffffffffff166370a08231306040518263ffffffff1660e01b8152600401808273ffffffffffffffffffffffffffffffffffffffff16815260200191505060206040518083038186803b15801561194057600080fd5b505afa158015611954573d6000803e3d6000fd5b505050506040513d602081101561196a57600080fd5b810190808051906020019092919050505014611a0357600760009054906101000a900473ffffffffffffffffffffffffffffffffffffffff1673ffffffffffffffffffffffffffffffffffffffff1663e9fad8ee6040518163ffffffff1660e01b8152600401600060405180830381600087803b1580156119ea57600080fd5b505af11580156119fe573d6000803e3d6000fd5b505050505b565b60007f000000000000000000000000000000000000000000000000000000000000000073ffffffffffffffffffffffffffffffffffffffff166370a08231306040518263ffffffff1660e01b8152600401808273ffffffffffffffffffffffffffffffffffffffff16815260200191505060206040518083038186803b158015611a8e57600080fd5b505afa158015611aa2573d6000803e3d6000fd5b505050506040513d6020811015611ab857600080fd5b810190808051906020019092919050505014611d12576000611ba6600b547f000000000000000000000000000000000000000000000000000000000000000073ffffffffffffffffffffffffffffffffffffffff166370a08231306040518263ffffffff1660e01b8152600401808273ffffffffffffffffffffffffffffffffffffffff16815260200191505060206040518083038186803b158015611b5d57600080fd5b505afa158015611b71573d6000803e3d6000fd5b505050506040513d6020811015611b8757600080fd5b810190808051906020019092919050505061152790919063ffffffff16565b9050611c16600760009054906101000a900473ffffffffffffffffffffffffffffffffffffffff1660007f000000000000000000000000000000000000000000000000000000000000000073ffffffffffffffffffffffffffffffffffffffff16611fc89092919063ffffffff16565b611c83600760009054906101000a900473ffffffffffffffffffffffffffffffffffffffff16827f000000000000000000000000000000000000000000000000000000000000000073ffffffffffffffffffffffffffffffffffffffff16611fc89092919063ffffffff16565b600760009054906101000a900473ffffffffffffffffffffffffffffffffffffffff1673ffffffffffffffffffffffffffffffffffffffff1663a694fc3a826040518263ffffffff1660e01b815260040180828152602001915050600060405180830381600087803b158015611cf857600080fd5b505af1158015611d0c573d6000803e3d6000fd5b50505050505b565b611d1e338361218d565b6000600560003373ffffffffffffffffffffffffffffffffffffffff1673ffffffffffffffffffffffffffffffffffffffff1681526020019081526020016000209050611d6a8461223a565b8160000181905550611d8984826001015461111d90919063ffffffff16565b816001018190555060005b83811015611e0557611ddb838281518110611dab57fe5b6020026020010151836002018381548110611dc257fe5b906000526020600020015461111d90919063ffffffff16565b826002018281548110611dea57fe5b90600052602060002001819055508080600101915050611d94565b507fd9217a461a0f7f84171a8866118c3d92e943ba7c1ba89b819371f729b5cabcbc338260000154604051808373ffffffffffffffffffffffffffffffffffffffff1681526020018281526020019250505060405180910390a150505050565b611f20846323b872dd60e01b858585604051602401808473ffffffffffffffffffffffffffffffffffffffff1681526020018373ffffffffffffffffffffffffffffffffffffffff1681526020018281526020019350505050604051602081830303815290604052907bffffffffffffffffffffffffffffffffffffffffffffffffffffffff19166020820180517bffffffffffffffffffffffffffffffffffffffffffffffffffffffff83818316178352505050506122f0565b50505050565b611fc38363a9059cbb60e01b8484604051602401808373ffffffffffffffffffffffffffffffffffffffff16815260200182815260200192505050604051602081830303815290604052907bffffffffffffffffffffffffffffffffffffffffffffffffffffffff19166020820180517bffffffffffffffffffffffffffffffffffffffffffffffffffffffff83818316178352505050506122f0565b505050565b6000811480612096575060008373ffffffffffffffffffffffffffffffffffffffff1663dd62ed3e30856040518363ffffffff1660e01b8152600401808373ffffffffffffffffffffffffffffffffffffffff1681526020018273ffffffffffffffffffffffffffffffffffffffff1681526020019250505060206040518083038186803b15801561205957600080fd5b505afa15801561206d573d6000803e3d6000fd5b505050506040513d602081101561208357600080fd5b8101908080519060200190929190505050145b6120eb576040517f08c379a00000000000000000000000000000000000000000000000000000000081526004018080602001828103825260368152602001806126286036913960400191505060405180910390fd5b6121888363095ea7b360e01b8484604051602401808373ffffffffffffffffffffffffffffffffffffffff16815260200182815260200192505050604051602081830303815290604052907bffffffffffffffffffffffffffffffffffffffffffffffffffffffff19166020820180517bffffffffffffffffffffffffffffffffffffffffffffffffffffffff83818316178352505050506122f0565b505050565b6000600560008473ffffffffffffffffffffffffffffffffffffffff1673ffffffffffffffffffffffffffffffffffffffff168152602001908152602001600020905081816002018054905014156121e55750612236565b6000816002018054905090505b8281101561223357816002016000908060018154018082558091505060019003906000526020600020016000909190919091505580806001019150506121f2565b50505b5050565b600060015443111561229957600060035460015443038161225757fe5b069050612281600354612273834361152790919063ffffffff16565b61111d90919063ffffffff16565b600181905550826002819055506001549150506122eb565b6122ae8260025461111d90919063ffffffff16565b6002819055506001549050600454600254106122ea576122db60035460015461111d90919063ffffffff16565b60018190555060006002819055505b5b919050565b61230f8273ffffffffffffffffffffffffffffffffffffffff1661253b565b612381576040517f08c379a000000000000000000000000000000000000000000000000000000000815260040180806020018281038252601f8152602001807f5361666545524332303a2063616c6c20746f206e6f6e2d636f6e74726163740081525060200191505060405180910390fd5b600060608373ffffffffffffffffffffffffffffffffffffffff16836040518082805190602001908083835b602083106123d057805182526020820191506020810190506020830392506123ad565b6001836020036101000a0380198251168184511680821785525050505050509050019150506000604051808303816000865af19150503d8060008114612432576040519150601f19603f3d011682016040523d82523d6000602084013e612437565b606091505b5091509150816124af576040517f08c379a00000000000000000000000000000000000000000000000000000000081526004018080602001828103825260208152602001807f5361666545524332303a206c6f772d6c6576656c2063616c6c206661696c656481525060200191505060405180910390fd5b600081511115612535578080602001905160208110156124ce57600080fd5b8101908080519060200190929190505050612534576040517f08c379a000000000000000000000000000000000000000000000000000000000815260040180806020018281038252602a8152602001806125fe602a913960400191505060405180910390fd5b5b50505050565b600080823b90506000811191505091905056fe4f776e61626c653a206e6577206f776e657220697320746865207a65726f206164647265737366696e616c697a65457869743a3a547279696e6720746f206578697420746f6f206561726c796f6e6c79556e6c6f636b65643a3a63616e6e6f7420706572666f726d207468697320616374696f6e20756e74696c2074686520656e64206f6620746865206c6f636b536166654d6174683a206d756c7469706c69636174696f6e206f766572666c6f775361666545524332303a204552433230206f7065726174696f6e20646964206e6f7420737563636565645361666545524332303a20617070726f76652066726f6d206e6f6e2d7a65726f20746f206e6f6e2d7a65726f20616c6c6f77616e6365a264697066735822122034b847c1430ead74d4d046fd0f7735f74c89c6507e856a9adf28d3574e476a0664736f6c634300060c00337365745468726f74746c653a3a7468726f74746c6520726f756e6420636170206d757374206265206d6f7265207468616e20307365745468726f74746c653a3a7468726f74746c6520706172616d6574657273207765726520616c7265616479207365747365745468726f74746c653a3a7468726f74746c6520726f756e6420626c6f636b73206d757374206265206d6f7265207468616e20307365744c6f636b456e643a3a4c6f636b20656e64206e6565647320746f20626520696e2074686520667574757265",
  "source": "// SPDX-License-Identifier: MIT\n\npragma solidity 0.6.12;\n\nimport \"openzeppelin-solidity/contracts/math/Math.sol\";\nimport \"openzeppelin-solidity/contracts/math/SafeMath.sol\";\nimport \"openzeppelin-solidity/contracts/utils/ReentrancyGuard.sol\";\nimport \"openzeppelin-solidity/contracts/access/Ownable.sol\";\nimport \"./../interfaces/IRewardsPoolBase.sol\";\nimport \"./../interfaces/IERC20Detailed.sol\";\nimport \"./../SafeERC20Detailed.sol\";\nimport \"./../StakeLock.sol\";\nimport \"./../ThrottledExit.sol\";\n\n// Based on ideas here: https://github.com/harvest-finance/harvest/blob/7a455967e40e980d4cfb2115bd000fbd6b201cc1/contracts/AutoStake.sol\n\ncontract AutoStake is ReentrancyGuard, StakeLock, ThrottledExit, Ownable {\n\tusing SafeMath for uint256;\n\tusing SafeERC20Detailed for IERC20Detailed;\n\n\tIRewardsPoolBase public rewardPool;\n\tIERC20Detailed public immutable stakingToken;\n\taddress public immutable factory;\n\tuint256 public constant unit = 1e18;\n\tuint256 public valuePerShare = unit;\n\tuint256 public totalShares; \n\tuint256 public totalValue;\n\tuint256 public exitStake;\n\tmapping(address => uint256) public share;\n\n\tevent Staked(address indexed user, uint256 amount, uint256 sharesIssued, uint256 oldShareVaule, uint256 newShareValue, uint256 balanceOf);\n\n\tconstructor(address token, uint256 _throttleRoundBlocks, uint256 _throttleRoundCap, uint256 stakeEnd) StakeLock(stakeEnd) public {\n\t\tfactory = msg.sender;\n\t\tstakingToken = IERC20Detailed(token);\n\t\tsetThrottleParams(_throttleRoundBlocks, _throttleRoundCap, stakeEnd);\n\t}\n\n\tfunction setPool(address pool) public onlyOwner {\n\t\trequire(address(rewardPool) == address(0x0), \"Reward pool already set\");\n\t\trewardPool = IRewardsPoolBase(pool);\n\t}\n\n\tmodifier onlyFactory() {\n\t\trequire(\n\t\t\tmsg.sender == factory,\n\t\t\t\"Caller is not the Factory contract\"\n\t\t);\n\t\t_;\n\t}\n\n\tfunction refreshAutoStake() external {\n\t\texitRewardPool();\n\t\tupdateValuePerShare();\n\t\trestakeIntoRewardPool();\n\t}\n\n\tfunction stake(uint256 amount) public virtual {\n\t\t_stake(amount, msg.sender, true);\n\t}\n\n\tfunction _stake(uint256 amount, address staker, bool chargeStaker) internal nonReentrant {\n\t\texitRewardPool();\n\t\tupdateValuePerShare();\n\n\t\t// now we can issue shares\n\t\tstakingToken.safeTransferFrom(chargeStaker ? staker : msg.sender, address(this), amount);\n\t\tuint256 sharesToIssue = amount.mul(unit).div(valuePerShare);\n\t\ttotalShares = totalShares.add(sharesToIssue);\n\t\tshare[staker] = share[staker].add(sharesToIssue);\n\n\t\tuint256 oldValuePerShare = valuePerShare;\n\n\t\t// Rate needs to be updated here, otherwise the valuePerShare would be incorrect.\n\t\tupdateValuePerShare();\n\n\t\temit Staked(staker, amount, sharesToIssue, oldValuePerShare, valuePerShare, balanceOf(staker));\n\n\t\trestakeIntoRewardPool();\n\t}\n\n\tfunction exit() public virtual onlyUnlocked nonReentrant {\n\t\texitRewardPool();\n\t\tupdateValuePerShare();\n\n\n\t\tuint256 userStake = balanceOf(msg.sender);\n\n\t\tif(userStake == 0) {\n\t\t\treturn;\n\t\t}\n\n\t\t// now we can transfer funds and burn shares\n\t\tinitiateExit(userStake, 0, new uint256[](0));\n\n\t\ttotalShares = totalShares.sub(share[msg.sender]);\n\t\tshare[msg.sender] = 0;\n\t\texitStake = exitStake.add(userStake);\n\n\t\tupdateValuePerShare();\n\t}\n\n\tfunction completeExit() virtual public onlyUnlocked nonReentrant {\n\t\tExitInfo storage info = exitInfo[msg.sender];\n\t\texitStake = exitStake.sub(info.exitStake);\n\n\t\tfinalizeExit(address(stakingToken), new address[](0));\n\n\t\tupdateValuePerShare();\n\t}\n\n\tfunction balanceOf(address who) public view returns(uint256) {\n\t\treturn valuePerShare.mul(share[who]).div(unit);\n\t}\n\n\tfunction updateValuePerShare() internal {\n\t\tif (totalShares == 0) {\n\t\t\ttotalValue = 0;\n\t\t\tvaluePerShare = unit;\n\t\t\treturn;\n\t\t}\n\t\ttotalValue = stakingToken.balanceOf(address(this)).sub(exitStake);\n\t\tvaluePerShare = totalValue.mul(unit).div(totalShares);\n\t}\n\n\tfunction exitRewardPool() internal {\n\t\tif(rewardPool.balanceOf(address(this)) != 0){\n\t\t\t// exit and do accounting first\n\t\t\trewardPool.exit();\n\t\t}\n\t}\n\n\tfunction restakeIntoRewardPool() internal {\n\t\tif(stakingToken.balanceOf(address(this)) != 0){\n\t\t\t// stake back to the pool\n\n\t\t\tuint256 balanceToRestake = stakingToken.balanceOf(address(this)).sub(exitStake);\n\n\t\t\tstakingToken.safeApprove(address(rewardPool), 0);\n\t\t\tstakingToken.safeApprove(address(rewardPool), balanceToRestake);\n\t\t\trewardPool.stake(balanceToRestake);\n\t\t}\n\t}\n\n}",
  "sourcePath": "/home/hellowodl/lmaas-liquidity-staker/contracts/autostake-features/AutoStake.sol",
  "compiler": {
    "name": "solc",
    "version": "0.6.12+commit.27d51765.Emscripten.clang",
    "optimizer": false,
    "runs": 200
  },
  "schemaVersion": "2.3.5",
  "updatedAt": "2021-04-27T17:14:31.161Z"
}