{
  "contractName": "CompoundingRewardsPoolFactory",
  "abi": [
    {
      "inputs": [
        {
          "internalType": "address",
          "name": "_treasury",
          "type": "address"
        },
        {
          "internalType": "address",
          "name": "_externalRewardToken",
          "type": "address"
        }
      ],
      "stateMutability": "nonpayable",
      "type": "constructor"
    },
    {
      "anonymous": false,
      "inputs": [
        {
          "indexed": true,
          "internalType": "address",
          "name": "_oldOwner",
          "type": "address"
        },
        {
          "indexed": true,
          "internalType": "address",
          "name": "_newOwner",
          "type": "address"
        }
      ],
      "name": "OwnershipTransferProposed",
      "type": "event"
    },
    {
      "anonymous": false,
      "inputs": [
        {
          "indexed": true,
          "internalType": "address",
          "name": "_newOwner",
          "type": "address"
        }
      ],
      "name": "OwnershipTransferred",
      "type": "event"
    },
    {
      "anonymous": false,
      "inputs": [
        {
          "indexed": false,
          "internalType": "address",
          "name": "transferer",
          "type": "address"
        },
        {
          "indexed": false,
          "internalType": "address",
          "name": "receiver",
          "type": "address"
        }
      ],
      "name": "ReceiverEnabled",
      "type": "event"
    },
    {
      "anonymous": false,
      "inputs": [
        {
          "indexed": false,
          "internalType": "address",
          "name": "rewardsToken",
          "type": "address"
        },
        {
          "indexed": false,
          "internalType": "uint256",
          "name": "amount",
          "type": "uint256"
        }
      ],
      "name": "RewardsWithdrawn",
      "type": "event"
    },
    {
      "inputs": [],
      "name": "acceptOwnership",
      "outputs": [],
      "stateMutability": "nonpayable",
      "type": "function"
    },
    {
      "inputs": [
        {
          "internalType": "uint256",
          "name": "_startBlock",
          "type": "uint256"
        },
        {
          "internalType": "uint256",
          "name": "_endBlock",
          "type": "uint256"
        },
        {
          "internalType": "uint256",
          "name": "_rewardPerBlock",
          "type": "uint256"
        }
      ],
      "name": "calculateRewardsAmount",
      "outputs": [
        {
          "internalType": "uint256",
          "name": "",
          "type": "uint256"
        }
      ],
      "stateMutability": "pure",
      "type": "function"
    },
    {
      "inputs": [
        {
          "internalType": "address",
          "name": "transferer",
          "type": "address"
        },
        {
          "internalType": "address[]",
          "name": "receivers",
          "type": "address[]"
        }
      ],
      "name": "enableReceivers",
      "outputs": [],
      "stateMutability": "nonpayable",
      "type": "function"
    },
    {
      "inputs": [],
      "name": "externalRewardToken",
      "outputs": [
        {
          "internalType": "address",
          "name": "",
          "type": "address"
        }
      ],
      "stateMutability": "view",
      "type": "function"
    },
    {
      "inputs": [],
      "name": "getRewardsPoolNumber",
      "outputs": [
        {
          "internalType": "uint256",
          "name": "",
          "type": "uint256"
        }
      ],
      "stateMutability": "view",
      "type": "function"
    },
    {
      "inputs": [],
      "name": "owner",
      "outputs": [
        {
          "internalType": "address",
          "name": "",
          "type": "address"
        }
      ],
      "stateMutability": "view",
      "type": "function"
    },
    {
      "inputs": [
        {
          "internalType": "uint256",
          "name": "",
          "type": "uint256"
        }
      ],
      "name": "rewardsPools",
      "outputs": [
        {
          "internalType": "address",
          "name": "",
          "type": "address"
        }
      ],
      "stateMutability": "view",
      "type": "function"
    },
    {
      "inputs": [
        {
          "internalType": "address",
          "name": "newOwner",
          "type": "address"
        }
      ],
      "name": "transferOwnership",
      "outputs": [],
      "stateMutability": "nonpayable",
      "type": "function"
    },
    {
      "inputs": [],
      "name": "treasury",
      "outputs": [
        {
          "internalType": "address",
          "name": "",
          "type": "address"
        }
      ],
      "stateMutability": "view",
      "type": "function"
    },
    {
      "inputs": [
        {
          "internalType": "address",
          "name": "rewardsPoolAddress",
          "type": "address"
        },
        {
          "internalType": "address",
          "name": "recipient",
          "type": "address"
        },
        {
          "internalType": "address",
          "name": "lpTokenContract",
          "type": "address"
        }
      ],
      "name": "withdrawLPRewards",
      "outputs": [],
      "stateMutability": "nonpayable",
      "type": "function"
    },
    {
      "inputs": [
        {
          "internalType": "address",
          "name": "_rewardsToken",
          "type": "address"
        }
      ],
      "name": "withdrawRewardsLeftovers",
      "outputs": [],
      "stateMutability": "nonpayable",
      "type": "function"
    },
    {
      "inputs": [
        {
          "internalType": "address",
          "name": "_stakingToken",
          "type": "address"
        },
        {
          "internalType": "uint256",
          "name": "_startBlock",
          "type": "uint256"
        },
        {
          "internalType": "uint256",
          "name": "_endBlock",
          "type": "uint256"
        },
        {
          "internalType": "uint256",
          "name": "_rewardPerBlock",
          "type": "uint256"
        },
        {
          "internalType": "uint256",
          "name": "_stakeLimit",
          "type": "uint256"
        },
        {
          "internalType": "uint256",
          "name": "_throttleRoundBlocks",
          "type": "uint256"
        },
        {
          "internalType": "uint256",
          "name": "_throttleRoundCap",
          "type": "uint256"
        },
        {
          "internalType": "uint256",
          "name": "_contractStakeLimit",
          "type": "uint256"
        }
      ],
      "name": "deploy",
      "outputs": [],
      "stateMutability": "nonpayable",
      "type": "function"
    }
  ],
  "bytecode": "0x60c060405234801561001057600080fd5b5060405162009cba38038062009cba8339818101604052604081101561003557600080fd5b81019080805190602001909291908051906020019092919050505033600160006101000a81548173ffffffffffffffffffffffffffffffffffffffff021916908373ffffffffffffffffffffffffffffffffffffffff160217905550600073ffffffffffffffffffffffffffffffffffffffff168273ffffffffffffffffffffffffffffffffffffffff161415610118576040517f08c379a000000000000000000000000000000000000000000000000000000000815260040180806020018281038252604681526020018062009c746046913960600191505060405180910390fd5b600073ffffffffffffffffffffffffffffffffffffffff168173ffffffffffffffffffffffffffffffffffffffff16141561019f576040517f08c379a000000000000000000000000000000000000000000000000000000000815260040180806020018281038252604d81526020018062009c27604d913960600191505060405180910390fd5b8173ffffffffffffffffffffffffffffffffffffffff1660808173ffffffffffffffffffffffffffffffffffffffff1660601b815250508073ffffffffffffffffffffffffffffffffffffffff1660a08173ffffffffffffffffffffffffffffffffffffffff1660601b81525050505060805160601c60a05160601c6199e462000243600039806109d9528061128b5250806109fd528061126a52506199e46000f3fe60806040523480156200001157600080fd5b5060043610620000c45760003560e01c80638da5cb5b116200007b5780638da5cb5b14620002ff578063a1717c021462000335578063b7b8fbd21462000355578063bc31e544146200039c578063dc8afbc1146200042a578063f2fde38b146200048557620000c4565b80630d50caf214620000c95780632bb4e26914620001a7578063333609b6146200022e57806361d027b3146200026457806379ba5097146200029a5780637f27066714620002a6575b600080fd5b620001a560048036036040811015620000e157600080fd5b81019080803573ffffffffffffffffffffffffffffffffffffffff169060200190929190803590602001906401000000008111156200011f57600080fd5b8201836020820111156200013257600080fd5b803590602001918460208302840111640100000000831117156200015557600080fd5b919080806020026020016040519081016040528093929190818152602001838360200280828437600081840152601f19601f820116905080830192505050505050509192919290505050620004cc565b005b6200022c60048036036060811015620001bf57600080fd5b81019080803573ffffffffffffffffffffffffffffffffffffffff169060200190929190803573ffffffffffffffffffffffffffffffffffffffff169060200190929190803573ffffffffffffffffffffffffffffffffffffffff169060200190929190505050620007df565b005b62000238620009d7565b604051808273ffffffffffffffffffffffffffffffffffffffff16815260200191505060405180910390f35b6200026e620009fb565b604051808273ffffffffffffffffffffffffffffffffffffffff16815260200191505060405180910390f35b620002a462000a1f565b005b620002e960048036036060811015620002be57600080fd5b8101908080359060200190929190803590602001909291908035906020019092919050505062000b91565b6040518082815260200191505060405180910390f35b6200030962000c25565b604051808273ffffffffffffffffffffffffffffffffffffffff16815260200191505060405180910390f35b6200033f62000c4b565b6040518082815260200191505060405180910390f35b6200039a600480360360208110156200036d57600080fd5b81019080803573ffffffffffffffffffffffffffffffffffffffff16906020019092919050505062000c57565b005b620004286004803603610100811015620003b557600080fd5b81019080803573ffffffffffffffffffffffffffffffffffffffff1690602001909291908035906020019092919080359060200190929190803590602001909291908035906020019092919080359060200190929190803590602001909291908035906020019092919050505062000e2e565b005b62000459600480360360208110156200044257600080fd5b810190808035906020019092919050505062001533565b604051808273ffffffffffffffffffffffffffffffffffffffff16815260200191505060405180910390f35b620004ca600480360360208110156200049d57600080fd5b81019080803573ffffffffffffffffffffffffffffffffffffffff16906020019092919050505062001570565b005b600160009054906101000a900473ffffffffffffffffffffffffffffffffffffffff1673ffffffffffffffffffffffffffffffffffffffff163373ffffffffffffffffffffffffffffffffffffffff161462000574576040517f08c379a0000000000000000000000000000000000000000000000000000000008152600401808060200182810382526027815260200180620098c66027913960400191505060405180910390fd5b600073ffffffffffffffffffffffffffffffffffffffff168273ffffffffffffffffffffffffffffffffffffffff161415620005fc576040517f08c379a0000000000000000000000000000000000000000000000000000000008152600401808060200182810382526027815260200180620097bc6027913960400191505060405180910390fd5b600082905060005b8251811015620007d957600073ffffffffffffffffffffffffffffffffffffffff168382815181106200063357fe5b602002602001015173ffffffffffffffffffffffffffffffffffffffff161415620006aa576040517f08c379a0000000000000000000000000000000000000000000000000000000008152600401808060200182810382526025815260200180620097066025913960400191505060405180910390fd5b8173ffffffffffffffffffffffffffffffffffffffff1663a861a7a3848381518110620006d357fe5b602002602001015160016040518363ffffffff1660e01b8152600401808373ffffffffffffffffffffffffffffffffffffffff168152602001821515815260200192505050600060405180830381600087803b1580156200073357600080fd5b505af115801562000748573d6000803e3d6000fd5b505050507f49564019f9d19850e264e194f9d42848c8324fa8fc4261d7f6b2e7d987d3a0bb848483815181106200077b57fe5b6020026020010151604051808373ffffffffffffffffffffffffffffffffffffffff1681526020018273ffffffffffffffffffffffffffffffffffffffff1681526020019250505060405180910390a1808060010191505062000604565b50505050565b600160009054906101000a900473ffffffffffffffffffffffffffffffffffffffff1673ffffffffffffffffffffffffffffffffffffffff163373ffffffffffffffffffffffffffffffffffffffff161462000887576040517f08c379a0000000000000000000000000000000000000000000000000000000008152600401808060200182810382526027815260200180620098c66027913960400191505060405180910390fd5b600073ffffffffffffffffffffffffffffffffffffffff168373ffffffffffffffffffffffffffffffffffffffff1614156200092b576040517f08c379a000000000000000000000000000000000000000000000000000000000815260040180806020018281038252601b8152602001807f73746172745374616b696e673a3a206e6f74206465706c6f796564000000000081525060200191505060405180910390fd5b60008390508073ffffffffffffffffffffffffffffffffffffffff1663a1002a0f84846040518363ffffffff1660e01b8152600401808373ffffffffffffffffffffffffffffffffffffffff1681526020018273ffffffffffffffffffffffffffffffffffffffff16815260200192505050600060405180830381600087803b158015620009b857600080fd5b505af1158015620009cd573d6000803e3d6000fd5b5050505050505050565b7f000000000000000000000000000000000000000000000000000000000000000081565b7f000000000000000000000000000000000000000000000000000000000000000081565b600260009054906101000a900473ffffffffffffffffffffffffffffffffffffffff1673ffffffffffffffffffffffffffffffffffffffff163373ffffffffffffffffffffffffffffffffffffffff161462000ac7576040517f08c379a00000000000000000000000000000000000000000000000000000000081526004018080602001828103825260278152602001806200989f6027913960400191505060405180910390fd5b600260009054906101000a900473ffffffffffffffffffffffffffffffffffffffff16600160006101000a81548173ffffffffffffffffffffffffffffffffffffffff021916908373ffffffffffffffffffffffffffffffffffffffff160217905550600160009054906101000a900473ffffffffffffffffffffffffffffffffffffffff1673ffffffffffffffffffffffffffffffffffffffff167f04dba622d284ed0014ee4b9a6a68386be1a4c08a4913ae272de89199cc68616360405160405180910390a2565b600080821162000bed576040517f08c379a0000000000000000000000000000000000000000000000000000000008152600401808060200182810382526044815260200180620097786044913960600191505060405180910390fd5b600062000c0485856200177c90919063ffffffff16565b905062000c1b81846200180090919063ffffffff16565b9150509392505050565b600160009054906101000a900473ffffffffffffffffffffffffffffffffffffffff1681565b60008080549050905090565b600160009054906101000a900473ffffffffffffffffffffffffffffffffffffffff1673ffffffffffffffffffffffffffffffffffffffff163373ffffffffffffffffffffffffffffffffffffffff161462000cff576040517f08c379a0000000000000000000000000000000000000000000000000000000008152600401808060200182810382526027815260200180620098c66027913960400191505060405180910390fd5b60008173ffffffffffffffffffffffffffffffffffffffff166370a08231306040518263ffffffff1660e01b8152600401808273ffffffffffffffffffffffffffffffffffffffff16815260200191505060206040518083038186803b15801562000d6957600080fd5b505afa15801562000d7e573d6000803e3d6000fd5b505050506040513d602081101562000d9557600080fd5b8101908080519060200190929190505050905062000dd533828473ffffffffffffffffffffffffffffffffffffffff166200188b9092919063ffffffff16565b7f8a43c4352486ec339f487f64af78ca5cbf06cd47833f073d3baf3a193e5031618282604051808373ffffffffffffffffffffffffffffffffffffffff1681526020018281526020019250505060405180910390a15050565b600160009054906101000a900473ffffffffffffffffffffffffffffffffffffffff1673ffffffffffffffffffffffffffffffffffffffff163373ffffffffffffffffffffffffffffffffffffffff161462000ed6576040517f08c379a0000000000000000000000000000000000000000000000000000000008152600401808060200182810382526027815260200180620098c66027913960400191505060405180910390fd5b600073ffffffffffffffffffffffffffffffffffffffff168873ffffffffffffffffffffffffffffffffffffffff16141562000f5e576040517f08c379a00000000000000000000000000000000000000000000000000000000081526004018080602001828103825260528152602001806200995d6052913960600191505060405180910390fd5b600085141562000fba576040517f08c379a000000000000000000000000000000000000000000000000000000000815260040180806020018281038252604b81526020018062009833604b913960600191505060405180910390fd5b600084141562001016576040517f08c379a0000000000000000000000000000000000000000000000000000000008152600401808060200182810382526046815260200180620099176046913960600191505060405180910390fd5b600083141562001072576040517f08c379a0000000000000000000000000000000000000000000000000000000008152600401808060200182810382526050815260200180620097e36050913960600191505060405180910390fd5b6000821415620010ce576040517f08c379a000000000000000000000000000000000000000000000000000000000815260040180806020018281038252604d8152602001806200972b604d913960600191505060405180910390fd5b60008884848988604051620010e39062001b99565b808673ffffffffffffffffffffffffffffffffffffffff16815260200185815260200184815260200183815260200182815260200195505050505050604051809103906000f0801580156200113c573d6000803e3d6000fd5b5090506060600167ffffffffffffffff811180156200115a57600080fd5b506040519080825280602002602001820160405280156200118a5781602001602082028036833780820191505090505b50905089816000815181106200119c57fe5b602002602001019073ffffffffffffffffffffffffffffffffffffffff16908173ffffffffffffffffffffffffffffffffffffffff16815250506060600167ffffffffffffffff81118015620011f157600080fd5b50604051908082528060200260200182016040528015620012215781602001602082028036833780820191505090505b50905087816000815181106200123357fe5b60200260200101818152505060008b8b8b85857fffffffffffffffffffffffffffffffffffffffffffffffffffffffffffffffff897f00000000000000000000000000000000000000000000000000000000000000007f00000000000000000000000000000000000000000000000000000000000000008d604051620012b99062001ba7565b808b73ffffffffffffffffffffffffffffffffffffffff1681526020018a815260200189815260200180602001806020018881526020018773ffffffffffffffffffffffffffffffffffffffff1681526020018673ffffffffffffffffffffffffffffffffffffffff1681526020018573ffffffffffffffffffffffffffffffffffffffff16815260200184815260200183810383528a818151815260200191508051906020019060200280838360005b83811015620013875780820151818401526020810190506200136a565b50505050905001838103825289818151815260200191508051906020019060200280838360005b83811015620013cb578082015181840152602081019050620013ae565b505050509050019c50505050505050505050505050604051809103906000f080158015620013fd573d6000803e3d6000fd5b5090508373ffffffffffffffffffffffffffffffffffffffff16634437152a826040518263ffffffff1660e01b8152600401808273ffffffffffffffffffffffffffffffffffffffff168152602001915050600060405180830381600087803b1580156200146a57600080fd5b505af11580156200147f573d6000803e3d6000fd5b505050506000620014928c8c8c62000b91565b9050620014c182828f73ffffffffffffffffffffffffffffffffffffffff166200188b9092919063ffffffff16565b6000859080600181540180825580915050600190039060005260206000200160009091909190916101000a81548173ffffffffffffffffffffffffffffffffffffffff021916908373ffffffffffffffffffffffffffffffffffffffff16021790555050505050505050505050505050565b600081815481106200154157fe5b906000526020600020016000915054906101000a900473ffffffffffffffffffffffffffffffffffffffff1681565b600160009054906101000a900473ffffffffffffffffffffffffffffffffffffffff1673ffffffffffffffffffffffffffffffffffffffff163373ffffffffffffffffffffffffffffffffffffffff161462001618576040517f08c379a0000000000000000000000000000000000000000000000000000000008152600401808060200182810382526027815260200180620098c66027913960400191505060405180910390fd5b600073ffffffffffffffffffffffffffffffffffffffff168173ffffffffffffffffffffffffffffffffffffffff161415620016bc576040517f08c379a000000000000000000000000000000000000000000000000000000000815260040180806020018281038252601d8152602001807f43616e6e6f7420736574206f776e657220746f2030206164647265737300000081525060200191505060405180910390fd5b80600260006101000a81548173ffffffffffffffffffffffffffffffffffffffff021916908373ffffffffffffffffffffffffffffffffffffffff160217905550600160009054906101000a900473ffffffffffffffffffffffffffffffffffffffff1673ffffffffffffffffffffffffffffffffffffffff163373ffffffffffffffffffffffffffffffffffffffff167ff4e75b79500ab730f8a026ed3cba6d55331bcb64c9e9f60c548e371356e5e3c060405160405180910390a350565b600082821115620017f5576040517f08c379a000000000000000000000000000000000000000000000000000000000815260040180806020018281038252601e8152602001807f536166654d6174683a207375627472616374696f6e206f766572666c6f77000081525060200191505060405180910390fd5b818303905092915050565b60008083141562001815576000905062001885565b60008284029050828482816200182757fe5b041462001880576040517f08c379a00000000000000000000000000000000000000000000000000000000081526004018080602001828103825260218152602001806200987e6021913960400191505060405180910390fd5b809150505b92915050565b6200192a8363a9059cbb60e01b8484604051602401808373ffffffffffffffffffffffffffffffffffffffff16815260200182815260200192505050604051602081830303815290604052907bffffffffffffffffffffffffffffffffffffffffffffffffffffffff19166020820180517bffffffffffffffffffffffffffffffffffffffffffffffffffffffff83818316178352505050506200192f565b505050565b620019508273ffffffffffffffffffffffffffffffffffffffff1662001b86565b620019c3576040517f08c379a000000000000000000000000000000000000000000000000000000000815260040180806020018281038252601f8152602001807f5361666545524332303a2063616c6c20746f206e6f6e2d636f6e74726163740081525060200191505060405180910390fd5b600060608373ffffffffffffffffffffffffffffffffffffffff16836040518082805190602001908083835b6020831062001a145780518252602082019150602081019050602083039250620019ef565b6001836020036101000a0380198251168184511680821785525050505050509050019150506000604051808303816000865af19150503d806000811462001a78576040519150601f19603f3d011682016040523d82523d6000602084013e62001a7d565b606091505b50915091508162001af6576040517f08c379a00000000000000000000000000000000000000000000000000000000081526004018080602001828103825260208152602001807f5361666545524332303a206c6f772d6c6576656c2063616c6c206661696c656481525060200191505060405180910390fd5b60008151111562001b805780806020019051602081101562001b1757600080fd5b810190808051906020019092919050505062001b7f576040517f08c379a000000000000000000000000000000000000000000000000000000000815260040180806020018281038252602a815260200180620098ed602a913960400191505060405180910390fd5b5b50505050565b600080823b905060008111915050919050565b6135fc8062001bb683390190565b61455480620051b28339019056fe610100604052670de0b6b3a76400006008553480156200001e57600080fd5b50604051620035fc380380620035fc833981810160405260a08110156200004457600080fd5b810190808051906020019092919080519060200190929190805190602001909291908051906020019092919080519060200190929190505050848484848484848484806001600081905550438111620000e9576040517f08c379a000000000000000000000000000000000000000000000000000000000815260040180806020018281038252602e81526020018062003595602e913960400191505060405180910390fd5b8060808181525050506000620001046200029c60201b60201c565b905080600660006101000a81548173ffffffffffffffffffffffffffffffffffffffff021916908373ffffffffffffffffffffffffffffffffffffffff1602179055508073ffffffffffffffffffffffffffffffffffffffff16600073ffffffffffffffffffffffffffffffffffffffff167f8be0079c531659141344cd1fd0a4f28419497f9722a3daafe3b4186f6b6457e060405160405180910390a3503373ffffffffffffffffffffffffffffffffffffffff1660c08173ffffffffffffffffffffffffffffffffffffffff1660601b815250508373ffffffffffffffffffffffffffffffffffffffff1660a08173ffffffffffffffffffffffffffffffffffffffff1660601b8152505062000224838383620002a460201b60201c565b50505050600081141562000284576040517f08c379a0000000000000000000000000000000000000000000000000000000008152600401808060200182810382526039815260200180620035c36039913960400191505060405180910390fd5b8060e081815250505050505050505050505062000484565b600033905090565b60008311620002ff576040517f08c379a00000000000000000000000000000000000000000000000000000000081526004018080602001828103825260368152602001806200355f6036913960400191505060405180910390fd5b600082116200035a576040517f08c379a0000000000000000000000000000000000000000000000000000000008152600401808060200182810382526033815260200180620034fb6033913960400191505060405180910390fd5b60006003541480156200036f57506000600454145b620003c6576040517f08c379a00000000000000000000000000000000000000000000000000000000081526004018080602001828103825260318152602001806200352e6031913960400191505060405180910390fd5b8260038190555081600481905550620003f060035482620003fb60201b620017cd1790919060201c565b600181905550505050565b6000808284019050838110156200047a576040517f08c379a000000000000000000000000000000000000000000000000000000000815260040180806020018281038252601b8152602001807f536166654d6174683a206164646974696f6e206f766572666c6f77000000000081525060200191505060405180910390fd5b8091505092915050565b60805160a05160601c60c05160601c60e051612ff56200050660003980610b105280610d635280611f7b5250806110b452806113655250806109f0528061100652806112c452806119d45280612240528061230f52806124095280612476528061298c525080610827528061102a5280611166528061138f5250612ff56000f3fe608060405234801561001057600080fd5b50600436106101da5760003560e01c806372f702f311610104578063b01eb660116100a2578063d4c3eea011610071578063d4c3eea0146106da578063e9fad8ee146106f8578063ee483cdf14610702578063f2fde38b14610720576101da565b8063b01eb66014610674578063b540652e1461067e578063c0a239e314610688578063c45a0155146106a6576101da565b8063907af6c0116100de578063907af6c01461057957806394f6641714610597578063a694fc3a146105f6578063a861a7a314610624576101da565b806372f702f3146104f35780638587edbb146105275780638da5cb5b14610545576101da565b80634437152a1161017c5780636eb957df1161014b5780636eb957df1461043157806370a082311461044f578063715018a6146104a75780637211bbc9146104b1576101da565b80634437152a1461037d57806345ef79af146103c15780634ff3306f146103df57806366666aa9146103fd576101da565b8063363291dc116101b8578063363291dc146102995780633882f742146102f35780633a98ef39146103115780633c323a1b1461032f576101da565b80631877bb5c146101df5780631c1f9cc0146102375780632240e63c14610255575b600080fd5b610221600480360360208110156101f557600080fd5b81019080803573ffffffffffffffffffffffffffffffffffffffff169060200190929190505050610764565b6040518082815260200191505060405180910390f35b61023f61077c565b6040518082815260200191505060405180910390f35b6102976004803603602081101561026b57600080fd5b81019080803573ffffffffffffffffffffffffffffffffffffffff169060200190929190505050610782565b005b6102db600480360360208110156102af57600080fd5b81019080803573ffffffffffffffffffffffffffffffffffffffff169060200190929190505050610ad3565b60405180821515815260200191505060405180910390f35b6102fb610af3565b6040518082815260200191505060405180910390f35b610319610af9565b6040518082815260200191505060405180910390f35b61037b6004803603604081101561034557600080fd5b81019080803573ffffffffffffffffffffffffffffffffffffffff16906020019092919080359060200190929190505050610aff565b005b6103bf6004803603602081101561039357600080fd5b81019080803573ffffffffffffffffffffffffffffffffffffffff169060200190929190505050610baa565b005b6103c9610d61565b6040518082815260200191505060405180910390f35b6103e7610d85565b6040518082815260200191505060405180910390f35b610405610d8b565b604051808273ffffffffffffffffffffffffffffffffffffffff16815260200191505060405180910390f35b610439610db1565b6040518082815260200191505060405180910390f35b6104916004803603602081101561046557600080fd5b81019080803573ffffffffffffffffffffffffffffffffffffffff169060200190929190505050610db7565b6040518082815260200191505060405180910390f35b6104af610e2e565b005b6104dd600480360360208110156104c757600080fd5b8101908080359060200190929190505050610f9e565b6040518082815260200191505060405180910390f35b6104fb611004565b604051808273ffffffffffffffffffffffffffffffffffffffff16815260200191505060405180910390f35b61052f611028565b6040518082815260200191505060405180910390f35b61054d61104c565b604051808273ffffffffffffffffffffffffffffffffffffffff16815260200191505060405180910390f35b610581611076565b6040518082815260200191505060405180910390f35b6105d9600480360360208110156105ad57600080fd5b81019080803573ffffffffffffffffffffffffffffffffffffffff169060200190929190505050611082565b604051808381526020018281526020019250505060405180910390f35b6106226004803603602081101561060c57600080fd5b81019080803590602001909291905050506110a6565b005b6106726004803603604081101561063a57600080fd5b81019080803573ffffffffffffffffffffffffffffffffffffffff1690602001909291908035151590602001909291905050506110b2565b005b61067c611164565b005b610686611343565b005b61069061135d565b6040518082815260200191505060405180910390f35b6106ae611363565b604051808273ffffffffffffffffffffffffffffffffffffffff16815260200191505060405180910390f35b6106e2611387565b6040518082815260200191505060405180910390f35b61070061138d565b005b61070a6115d2565b6040518082815260200191505060405180910390f35b6107626004803603602081101561073657600080fd5b81019080803573ffffffffffffffffffffffffffffffffffffffff1690602001909291905050506115d8565b005b600c6020528060005260406000206000915090505481565b60015481565b80600d60008273ffffffffffffffffffffffffffffffffffffffff1673ffffffffffffffffffffffffffffffffffffffff16815260200190815260200160002060009054906101000a900460ff16610825576040517f08c379a000000000000000000000000000000000000000000000000000000000815260040180806020018281038252602c815260200180612f12602c913960400191505060405180910390fd5b7f0000000000000000000000000000000000000000000000000000000000000000431161089d576040517f08c379a0000000000000000000000000000000000000000000000000000000008152600401808060200182810382526042815260200180612e876042913960600191505060405180910390fd5b60026000541415610916576040517f08c379a000000000000000000000000000000000000000000000000000000000815260040180806020018281038252601f8152602001807f5265656e7472616e637947756172643a207265656e7472616e742063616c6c0081525060200191505060405180910390fd5b6002600081905550610926611855565b61092e6119a5565b600061093933610db7565b9050600081141561094a5750610ac7565b61099e600c60003373ffffffffffffffffffffffffffffffffffffffff1673ffffffffffffffffffffffffffffffffffffffff16815260200190815260200160002054600954611ae290919063ffffffff16565b6009819055506000600c60003373ffffffffffffffffffffffffffffffffffffffff1673ffffffffffffffffffffffffffffffffffffffff16815260200190815260200160002081905550610a3483827f000000000000000000000000000000000000000000000000000000000000000073ffffffffffffffffffffffffffffffffffffffff16611b659092919063ffffffff16565b8273ffffffffffffffffffffffffffffffffffffffff16633c323a1b33836040518363ffffffff1660e01b8152600401808373ffffffffffffffffffffffffffffffffffffffff16815260200182815260200192505050600060405180830381600087803b158015610aa557600080fd5b505af1158015610ab9573d6000803e3d6000fd5b50505050610ac56119a5565b505b60016000819055505050565b600d6020528060005260406000206000915054906101000a900460ff1681565b600b5481565b60095481565b81816000610b0c83610db7565b90507f0000000000000000000000000000000000000000000000000000000000000000610b4283836117cd90919063ffffffff16565b1115610b99576040517f08c379a0000000000000000000000000000000000000000000000000000000008152600401808060200182810382526028815260200180612ec96028913960400191505060405180910390fd5b610ba38585611d2a565b5050505050565b610bb2611e53565b73ffffffffffffffffffffffffffffffffffffffff16610bd061104c565b73ffffffffffffffffffffffffffffffffffffffff1614610c59576040517f08c379a00000000000000000000000000000000000000000000000000000000081526004018080602001828103825260208152602001807f4f776e61626c653a2063616c6c6572206973206e6f7420746865206f776e657281525060200191505060405180910390fd5b600073ffffffffffffffffffffffffffffffffffffffff16600760009054906101000a900473ffffffffffffffffffffffffffffffffffffffff1673ffffffffffffffffffffffffffffffffffffffff1614610d1d576040517f08c379a00000000000000000000000000000000000000000000000000000000081526004018080602001828103825260178152602001807f52657761726420706f6f6c20616c72656164792073657400000000000000000081525060200191505060405180910390fd5b80600760006101000a81548173ffffffffffffffffffffffffffffffffffffffff021916908373ffffffffffffffffffffffffffffffffffffffff16021790555050565b7f000000000000000000000000000000000000000000000000000000000000000081565b60045481565b600760009054906101000a900473ffffffffffffffffffffffffffffffffffffffff1681565b60035481565b6000610e27670de0b6b3a7640000610e19600c60008673ffffffffffffffffffffffffffffffffffffffff1673ffffffffffffffffffffffffffffffffffffffff16815260200190815260200160002054600854611e5b90919063ffffffff16565b611ee190919063ffffffff16565b9050919050565b610e36611e53565b73ffffffffffffffffffffffffffffffffffffffff16610e5461104c565b73ffffffffffffffffffffffffffffffffffffffff1614610edd576040517f08c379a00000000000000000000000000000000000000000000000000000000081526004018080602001828103825260208152602001807f4f776e61626c653a2063616c6c6572206973206e6f7420746865206f776e657281525060200191505060405180910390fd5b600073ffffffffffffffffffffffffffffffffffffffff16600660009054906101000a900473ffffffffffffffffffffffffffffffffffffffff1673ffffffffffffffffffffffffffffffffffffffff167f8be0079c531659141344cd1fd0a4f28419497f9722a3daafe3b4186f6b6457e060405160405180910390a36000600660006101000a81548173ffffffffffffffffffffffffffffffffffffffff021916908373ffffffffffffffffffffffffffffffffffffffff160217905550565b600080600560003373ffffffffffffffffffffffffffffffffffffffff1673ffffffffffffffffffffffffffffffffffffffff1681526020019081526020016000209050806002018381548110610ff157fe5b9060005260206000200154915050919050565b7f000000000000000000000000000000000000000000000000000000000000000081565b7f000000000000000000000000000000000000000000000000000000000000000081565b6000600660009054906101000a900473ffffffffffffffffffffffffffffffffffffffff16905090565b670de0b6b3a764000081565b60056020528060005260406000206000915090508060000154908060010154905082565b6110af81611f6a565b50565b7f000000000000000000000000000000000000000000000000000000000000000073ffffffffffffffffffffffffffffffffffffffff163373ffffffffffffffffffffffffffffffffffffffff1614611156576040517f08c379a0000000000000000000000000000000000000000000000000000000008152600401808060200182810382526022815260200180612f3e6022913960400191505060405180910390fd5b6111608282612013565b5050565b7f000000000000000000000000000000000000000000000000000000000000000043116111dc576040517f08c379a0000000000000000000000000000000000000000000000000000000008152600401808060200182810382526042815260200180612e876042913960600191505060405180910390fd5b60026000541415611255576040517f08c379a000000000000000000000000000000000000000000000000000000000815260040180806020018281038252601f8152602001807f5265656e7472616e637947756172643a207265656e7472616e742063616c6c0081525060200191505060405180910390fd5b60026000819055506000600560003373ffffffffffffffffffffffffffffffffffffffff1673ffffffffffffffffffffffffffffffffffffffff16815260200190815260200160002090506112b98160010154600b54611ae290919063ffffffff16565b600b819055506113307f0000000000000000000000000000000000000000000000000000000000000000600067ffffffffffffffff811180156112fb57600080fd5b5060405190808252806020026020018201604052801561132a5781602001602082028036833780820191505090505b5061206e565b6113386119a5565b506001600081905550565b61134b611855565b6113536119a5565b61135b61223c565b565b60085481565b7f000000000000000000000000000000000000000000000000000000000000000081565b600a5481565b7f00000000000000000000000000000000000000000000000000000000000000004311611405576040517f08c379a0000000000000000000000000000000000000000000000000000000008152600401808060200182810382526042815260200180612e876042913960600191505060405180910390fd5b6002600054141561147e576040517f08c379a000000000000000000000000000000000000000000000000000000000815260040180806020018281038252601f8152602001807f5265656e7472616e637947756172643a207265656e7472616e742063616c6c0081525060200191505060405180910390fd5b600260008190555061148e611855565b6114966119a5565b60006114a133610db7565b905060008114156114b257506115c8565b6115048160008067ffffffffffffffff811180156114cf57600080fd5b506040519080825280602002602001820160405280156114fe5781602001602082028036833780820191505090505b5061254b565b611558600c60003373ffffffffffffffffffffffffffffffffffffffff1673ffffffffffffffffffffffffffffffffffffffff16815260200190815260200160002054600954611ae290919063ffffffff16565b6009819055506000600c60003373ffffffffffffffffffffffffffffffffffffffff1673ffffffffffffffffffffffffffffffffffffffff168152602001908152602001600020819055506115b881600b546117cd90919063ffffffff16565b600b819055506115c66119a5565b505b6001600081905550565b60025481565b6115e0611e53565b73ffffffffffffffffffffffffffffffffffffffff166115fe61104c565b73ffffffffffffffffffffffffffffffffffffffff1614611687576040517f08c379a00000000000000000000000000000000000000000000000000000000081526004018080602001828103825260208152602001807f4f776e61626c653a2063616c6c6572206973206e6f7420746865206f776e657281525060200191505060405180910390fd5b600073ffffffffffffffffffffffffffffffffffffffff168173ffffffffffffffffffffffffffffffffffffffff16141561170d576040517f08c379a0000000000000000000000000000000000000000000000000000000008152600401808060200182810382526026815260200180612e3b6026913960400191505060405180910390fd5b8073ffffffffffffffffffffffffffffffffffffffff16600660009054906101000a900473ffffffffffffffffffffffffffffffffffffffff1673ffffffffffffffffffffffffffffffffffffffff167f8be0079c531659141344cd1fd0a4f28419497f9722a3daafe3b4186f6b6457e060405160405180910390a380600660006101000a81548173ffffffffffffffffffffffffffffffffffffffff021916908373ffffffffffffffffffffffffffffffffffffffff16021790555050565b60008082840190508381101561184b576040517f08c379a000000000000000000000000000000000000000000000000000000000815260040180806020018281038252601b8152602001807f536166654d6174683a206164646974696f6e206f766572666c6f77000000000081525060200191505060405180910390fd5b8091505092915050565b6000600760009054906101000a900473ffffffffffffffffffffffffffffffffffffffff1673ffffffffffffffffffffffffffffffffffffffff166370a08231306040518263ffffffff1660e01b8152600401808273ffffffffffffffffffffffffffffffffffffffff16815260200191505060206040518083038186803b1580156118e057600080fd5b505afa1580156118f4573d6000803e3d6000fd5b505050506040513d602081101561190a57600080fd5b8101908080519060200190929190505050146119a357600760009054906101000a900473ffffffffffffffffffffffffffffffffffffffff1673ffffffffffffffffffffffffffffffffffffffff1663e9fad8ee6040518163ffffffff1660e01b8152600401600060405180830381600087803b15801561198a57600080fd5b505af115801561199e573d6000803e3d6000fd5b505050505b565b600060095414156119cc576000600a81905550670de0b6b3a7640000600881905550611ae0565b611aa2600b547f000000000000000000000000000000000000000000000000000000000000000073ffffffffffffffffffffffffffffffffffffffff166370a08231306040518263ffffffff1660e01b8152600401808273ffffffffffffffffffffffffffffffffffffffff16815260200191505060206040518083038186803b158015611a5957600080fd5b505afa158015611a6d573d6000803e3d6000fd5b505050506040513d6020811015611a8357600080fd5b8101908080519060200190929190505050611ae290919063ffffffff16565b600a81905550611ad9600954611acb670de0b6b3a7640000600a54611e5b90919063ffffffff16565b611ee190919063ffffffff16565b6008819055505b565b600082821115611b5a576040517f08c379a000000000000000000000000000000000000000000000000000000000815260040180806020018281038252601e8152602001807f536166654d6174683a207375627472616374696f6e206f766572666c6f77000081525060200191505060405180910390fd5b818303905092915050565b6000811480611c33575060008373ffffffffffffffffffffffffffffffffffffffff1663dd62ed3e30856040518363ffffffff1660e01b8152600401808373ffffffffffffffffffffffffffffffffffffffff1681526020018273ffffffffffffffffffffffffffffffffffffffff1681526020019250505060206040518083038186803b158015611bf657600080fd5b505afa158015611c0a573d6000803e3d6000fd5b505050506040513d6020811015611c2057600080fd5b8101908080519060200190929190505050145b611c88576040517f08c379a0000000000000000000000000000000000000000000000000000000008152600401808060200182810382526036815260200180612f8a6036913960400191505060405180910390fd5b611d258363095ea7b360e01b8484604051602401808373ffffffffffffffffffffffffffffffffffffffff16815260200182815260200192505050604051602081830303815290604052907bffffffffffffffffffffffffffffffffffffffffffffffffffffffff19166020820180517bffffffffffffffffffffffffffffffffffffffffffffffffffffffff838183161783525050505061269c565b505050565b60008111611da0576040517f08c379a000000000000000000000000000000000000000000000000000000000815260040180806020018281038252601c8152602001807f64656c65676174655374616b653a3a4e6f207374616b652073656e740000000081525060200191505060405180910390fd5b600073ffffffffffffffffffffffffffffffffffffffff168273ffffffffffffffffffffffffffffffffffffffff161415611e43576040517f08c379a000000000000000000000000000000000000000000000000000000000815260040180806020018281038252601d8152602001807f64656c65676174655374616b653a3a496e76616c6964207374616b657200000081525060200191505060405180910390fd5b611e4f818360006128e7565b5050565b600033905090565b600080831415611e6e5760009050611edb565b6000828402905082848281611e7f57fe5b0414611ed6576040517f08c379a0000000000000000000000000000000000000000000000000000000008152600401808060200182810382526021815260200180612ef16021913960400191505060405180910390fd5b809150505b92915050565b6000808211611f58576040517f08c379a000000000000000000000000000000000000000000000000000000000815260040180806020018281038252601a8152602001807f536166654d6174683a206469766973696f6e206279207a65726f00000000000081525060200191505060405180910390fd5b818381611f6157fe5b04905092915050565b33816000611f7783610db7565b90507f0000000000000000000000000000000000000000000000000000000000000000611fad83836117cd90919063ffffffff16565b1115612004576040517f08c379a0000000000000000000000000000000000000000000000000000000008152600401808060200182810382526028815260200180612ec96028913960400191505060405180910390fd5b61200d84612b52565b50505050565b80600d60008473ffffffffffffffffffffffffffffffffffffffff1673ffffffffffffffffffffffffffffffffffffffff16815260200190815260200160002060006101000a81548160ff0219169083151502179055505050565b6000600560003373ffffffffffffffffffffffffffffffffffffffff1673ffffffffffffffffffffffffffffffffffffffff16815260200190815260200160002090508060000154431161210d576040517f08c379a0000000000000000000000000000000000000000000000000000000008152600401808060200182810382526026815260200180612e616026913960400191505060405180910390fd5b6000816001015490506000826001018190555061214b33828673ffffffffffffffffffffffffffffffffffffffff16612b619092919063ffffffff16565b60005b83518110156121e057600083600201828154811061216857fe5b90600052602060002001549050600084600201838154811061218657fe5b90600052602060002001819055506121d233828785815181106121a557fe5b602002602001015173ffffffffffffffffffffffffffffffffffffffff16612b619092919063ffffffff16565b50808060010191505061214e565b507f548aea05c5e3b6ba34acdf7b3ad06c7bb667ed71d1761e2c177167be0a9eb0593382604051808373ffffffffffffffffffffffffffffffffffffffff1681526020018281526020019250505060405180910390a150505050565b60007f000000000000000000000000000000000000000000000000000000000000000073ffffffffffffffffffffffffffffffffffffffff166370a08231306040518263ffffffff1660e01b8152600401808273ffffffffffffffffffffffffffffffffffffffff16815260200191505060206040518083038186803b1580156122c557600080fd5b505afa1580156122d9573d6000803e3d6000fd5b505050506040513d60208110156122ef57600080fd5b8101908080519060200190929190505050146125495760006123dd600b547f000000000000000000000000000000000000000000000000000000000000000073ffffffffffffffffffffffffffffffffffffffff166370a08231306040518263ffffffff1660e01b8152600401808273ffffffffffffffffffffffffffffffffffffffff16815260200191505060206040518083038186803b15801561239457600080fd5b505afa1580156123a8573d6000803e3d6000fd5b505050506040513d60208110156123be57600080fd5b8101908080519060200190929190505050611ae290919063ffffffff16565b905061244d600760009054906101000a900473ffffffffffffffffffffffffffffffffffffffff1660007f000000000000000000000000000000000000000000000000000000000000000073ffffffffffffffffffffffffffffffffffffffff16611b659092919063ffffffff16565b6124ba600760009054906101000a900473ffffffffffffffffffffffffffffffffffffffff16827f000000000000000000000000000000000000000000000000000000000000000073ffffffffffffffffffffffffffffffffffffffff16611b659092919063ffffffff16565b600760009054906101000a900473ffffffffffffffffffffffffffffffffffffffff1673ffffffffffffffffffffffffffffffffffffffff1663a694fc3a826040518263ffffffff1660e01b815260040180828152602001915050600060405180830381600087803b15801561252f57600080fd5b505af1158015612543573d6000803e3d6000fd5b50505050505b565b6125553383612c03565b6000600560003373ffffffffffffffffffffffffffffffffffffffff1673ffffffffffffffffffffffffffffffffffffffff16815260200190815260200160002090506125a184612cb0565b81600001819055506125c08482600101546117cd90919063ffffffff16565b816001018190555060005b8381101561263c576126128382815181106125e257fe5b60200260200101518360020183815481106125f957fe5b90600052602060002001546117cd90919063ffffffff16565b82600201828154811061262157fe5b906000526020600020018190555080806001019150506125cb565b507fd9217a461a0f7f84171a8866118c3d92e943ba7c1ba89b819371f729b5cabcbc338260000154604051808373ffffffffffffffffffffffffffffffffffffffff1681526020018281526020019250505060405180910390a150505050565b6126bb8273ffffffffffffffffffffffffffffffffffffffff16612d66565b61272d576040517f08c379a000000000000000000000000000000000000000000000000000000000815260040180806020018281038252601f8152602001807f5361666545524332303a2063616c6c20746f206e6f6e2d636f6e74726163740081525060200191505060405180910390fd5b600060608373ffffffffffffffffffffffffffffffffffffffff16836040518082805190602001908083835b6020831061277c5780518252602082019150602081019050602083039250612759565b6001836020036101000a0380198251168184511680821785525050505050509050019150506000604051808303816000865af19150503d80600081146127de576040519150601f19603f3d011682016040523d82523d6000602084013e6127e3565b606091505b50915091508161285b576040517f08c379a00000000000000000000000000000000000000000000000000000000081526004018080602001828103825260208152602001807f5361666545524332303a206c6f772d6c6576656c2063616c6c206661696c656481525060200191505060405180910390fd5b6000815111156128e15780806020019051602081101561287a57600080fd5b81019080805190602001909291905050506128e0576040517f08c379a000000000000000000000000000000000000000000000000000000000815260040180806020018281038252602a815260200180612f60602a913960400191505060405180910390fd5b5b50505050565b60026000541415612960576040517f08c379a000000000000000000000000000000000000000000000000000000000815260040180806020018281038252601f8152602001807f5265656e7472616e637947756172643a207265656e7472616e742063616c6c0081525060200191505060405180910390fd5b6002600081905550612970611855565b6129786119a5565b6129d1816129865733612988565b825b30857f000000000000000000000000000000000000000000000000000000000000000073ffffffffffffffffffffffffffffffffffffffff16612d79909392919063ffffffff16565b6000612a026008546129f4670de0b6b3a764000087611e5b90919063ffffffff16565b611ee190919063ffffffff16565b9050612a19816009546117cd90919063ffffffff16565b600981905550612a7181600c60008673ffffffffffffffffffffffffffffffffffffffff1673ffffffffffffffffffffffffffffffffffffffff168152602001908152602001600020546117cd90919063ffffffff16565b600c60008573ffffffffffffffffffffffffffffffffffffffff1673ffffffffffffffffffffffffffffffffffffffff1681526020019081526020016000208190555060006008549050612ac36119a5565b8373ffffffffffffffffffffffffffffffffffffffff167f6381ea17a5324d29cc015352644672ead5185c1c61a0d3a521eda97e35cec97e868484600854612b0a8a610db7565b604051808681526020018581526020018481526020018381526020018281526020019550505050505060405180910390a2612b4361223c565b50506001600081905550505050565b612b5e813360016128e7565b50565b612bfe8363a9059cbb60e01b8484604051602401808373ffffffffffffffffffffffffffffffffffffffff16815260200182815260200192505050604051602081830303815290604052907bffffffffffffffffffffffffffffffffffffffffffffffffffffffff19166020820180517bffffffffffffffffffffffffffffffffffffffffffffffffffffffff838183161783525050505061269c565b505050565b6000600560008473ffffffffffffffffffffffffffffffffffffffff1673ffffffffffffffffffffffffffffffffffffffff16815260200190815260200160002090508181600201805490501415612c5b5750612cac565b6000816002018054905090505b82811015612ca95781600201600090806001815401808255809150506001900390600052602060002001600090919091909150558080600101915050612c68565b50505b5050565b6000600154431115612d0f576000600354600154430381612ccd57fe5b069050612cf7600354612ce98343611ae290919063ffffffff16565b6117cd90919063ffffffff16565b60018190555082600281905550600154915050612d61565b612d24826002546117cd90919063ffffffff16565b600281905550600154905060045460025410612d6057612d516003546001546117cd90919063ffffffff16565b60018190555060006002819055505b5b919050565b600080823b905060008111915050919050565b612e34846323b872dd60e01b858585604051602401808473ffffffffffffffffffffffffffffffffffffffff1681526020018373ffffffffffffffffffffffffffffffffffffffff1681526020018281526020019350505050604051602081830303815290604052907bffffffffffffffffffffffffffffffffffffffffffffffffffffffff19166020820180517bffffffffffffffffffffffffffffffffffffffffffffffffffffffff838183161783525050505061269c565b5050505056fe4f776e61626c653a206e6577206f776e657220697320746865207a65726f206164647265737366696e616c697a65457869743a3a547279696e6720746f206578697420746f6f206561726c796f6e6c79556e6c6f636b65643a3a63616e6e6f7420706572666f726d207468697320616374696f6e20756e74696c2074686520656e64206f6620746865206c6f636b6f6e6c79556e6465725374616b654c696d69743a3a5374616b65206c696d69742072656163686564536166654d6174683a206d756c7469706c69636174696f6e206f766572666c6f7765786974416e645472616e736665723a3a7265636569766572206973206e6f742077686974656c697374656443616c6c6572206973206e6f742074686520466163746f727920636f6e74726163745361666545524332303a204552433230206f7065726174696f6e20646964206e6f7420737563636565645361666545524332303a20617070726f76652066726f6d206e6f6e2d7a65726f20746f206e6f6e2d7a65726f20616c6c6f77616e6365a26469706673582212208de02bcc42df70768fc566a1b36cc2b7124ec62035228daea3739186e83e8ab364736f6c634300060c00337365745468726f74746c653a3a7468726f74746c6520726f756e6420636170206d757374206265206d6f7265207468616e20307365745468726f74746c653a3a7468726f74746c6520706172616d6574657273207765726520616c7265616479207365747365745468726f74746c653a3a7468726f74746c6520726f756e6420626c6f636b73206d757374206265206d6f7265207468616e20307365744c6f636b456e643a3a4c6f636b20656e64206e6565647320746f20626520696e20746865206675747572654c696d697465644175746f5374616b653a636f6e7374727563746f723a3a7374616b65206c696d69742073686f756c64206e6f74206265203060e06040523480156200001157600080fd5b50604051620045543803806200455483398181016040526101408110156200003857600080fd5b81019080805190602001909291908051906020019092919080519060200190929190805160405193929190846401000000008211156200007757600080fd5b838201915060208201858111156200008e57600080fd5b8251866020820283011164010000000082111715620000ac57600080fd5b8083526020830192505050908051906020019060200280838360005b83811015620000e5578082015181840152602081019050620000c8565b50505050905001604052602001805160405193929190846401000000008211156200010f57600080fd5b838201915060208201858111156200012657600080fd5b82518660208202830111640100000000821117156200014457600080fd5b8083526020830192505050908051906020019060200280838360005b838110156200017d57808201518184015260208101905062000160565b505050509050016040526020018051906020019092919080519060200190929190805190602001909291908051906020019092919080519060200190929190505050818380868d8d8d8d8d8d8a6001600081905550620001e2620006ab60201b60201c565b86116200023b576040517f08c379a00000000000000000000000000000000000000000000000000000000081526004018080602001828103825260368152602001806200451e6036913960400191505060405180910390fd5b6200024b620006ab60201b60201c565b8511620002a4576040517f08c379a0000000000000000000000000000000000000000000000000000000008152600401808060200182810382526031815260200180620044646031913960400191505060405180910390fd5b835183511462000300576040517f08c379a000000000000000000000000000000000000000000000000000000000815260040180806020018281038252604f81526020018062004495604f913960600191505060405180910390fd5b60008214156200035c576040517f08c379a0000000000000000000000000000000000000000000000000000000008152600401808060200182810382526030815260200180620043e56030913960400191505060405180910390fd5b6000811415620003b8576040517f08c379a000000000000000000000000000000000000000000000000000000000815260040180806020018281038252603a815260200180620044e4603a913960400191505060405180910390fd5b86600460006101000a81548173ffffffffffffffffffffffffffffffffffffffff021916908373ffffffffffffffffffffffffffffffffffffffff160217905550826002908051906020019062000411929190620006b3565b50856005819055508460068190555083600390805190602001906200043892919062000705565b5060055460078190555033600960006101000a81548173ffffffffffffffffffffffffffffffffffffffff021916908373ffffffffffffffffffffffffffffffffffffffff16021790555081600a8190555080600b8190555060005b600380549050811015620004da57600860009080600181540180825580915050600190039060005260206000200160009091909190915055808060010191505062000494565b5050505050505050600073ffffffffffffffffffffffffffffffffffffffff168173ffffffffffffffffffffffffffffffffffffffff1614156200056a576040517f08c379a000000000000000000000000000000000000000000000000000000000815260040180806020018281038252604f81526020018062004415604f913960600191505060405180910390fd5b8073ffffffffffffffffffffffffffffffffffffffff1660808173ffffffffffffffffffffffffffffffffffffffff1660601b8152505050600073ffffffffffffffffffffffffffffffffffffffff168173ffffffffffffffffffffffffffffffffffffffff1614156200062a576040517f08c379a0000000000000000000000000000000000000000000000000000000008152600401808060200182810382526021815260200180620043c46021913960400191505060405180910390fd5b8073ffffffffffffffffffffffffffffffffffffffff1660a08173ffffffffffffffffffffffffffffffffffffffff1660601b81525050508173ffffffffffffffffffffffffffffffffffffffff1660c08173ffffffffffffffffffffffffffffffffffffffff1660601b81525050505050505050505050505050620007f0565b600043905090565b828054828255906000526020600020908101928215620006f2579160200282015b82811115620006f1578251825591602001919060010190620006d4565b5b50905062000701919062000794565b5090565b82805482825590600052602060002090810192821562000781579160200282015b82811115620007805782518260006101000a81548173ffffffffffffffffffffffffffffffffffffffff021916908373ffffffffffffffffffffffffffffffffffffffff1602179055509160200191906001019062000726565b5b509050620007909190620007b3565b5090565b5b80821115620007af57600081600090555060010162000795565b5090565b5b80821115620007ec57600081816101000a81549073ffffffffffffffffffffffffffffffffffffffff021916905550600101620007b4565b5090565b60805160601c60a05160601c60c05160601c613b806200084460003980611101528061126c525080610f415280610fe852806111c552806112f452806120c25250806112d052806127855250613b806000f3fe608060405234801561001057600080fd5b50600436106101fa5760003560e01c806361d027b31161011a578063a694fc3a116100ad578063dd2da2201161007c578063dd2da220146109c0578063df9d777f146109ca578063e9fad8ee14610a2c578063f27d026414610a36578063fb58cad114610a98576101fa565b8063a694fc3a146108ba578063a9f8d181146108e8578063b6d0dcd814610906578063ce4153021461095e576101fa565b8063817b1cd2116100e9578063817b1cd2146107885780639c3705c7146107a6578063a1002a0f146107fe578063a1292aea14610862576101fa565b806361d027b31461068657806370a08231146106ba57806372f702f314610712578063791f39cd14610746576101fa565b8063333609b61161019257806350afa34b1161016157806350afa34b146105d057806356409b81146105fe57806357b4f01f146106325780635ebaf1db14610652576101fa565b8063333609b61461055657806345ef79af1461058a57806348cd4cb1146105a85780634e71d92d146105c6576101fa565b806320e67c76116101ce57806320e67c76146102f257806325d5971f146104dc5780632d9e88e11461050a5780632e1a7d4d14610528576101fa565b806284c927146101ff57806303d1dae014610257578063083c6323146102755780631959a00214610293575b600080fd5b6102416004803603602081101561021557600080fd5b81019080803573ffffffffffffffffffffffffffffffffffffffff169060200190929190505050610ada565b6040518082815260200191505060405180910390f35b61025f610bb4565b6040518082815260200191505060405180910390f35b61027d610bba565b6040518082815260200191505060405180910390f35b6102d5600480360360208110156102a957600080fd5b81019080803573ffffffffffffffffffffffffffffffffffffffff169060200190929190505050610bc0565b604051808381526020018281526020019250505060405180910390f35b6104da6004803603608081101561030857600080fd5b81019080803590602001909291908035906020019064010000000081111561032f57600080fd5b82018360208201111561034157600080fd5b8035906020019184602083028401116401000000008311171561036357600080fd5b919080806020026020016040519081016040528093929190818152602001838360200280828437600081840152601f19601f820116905080830192505050505050509192919290803590602001906401000000008111156103c357600080fd5b8201836020820111156103d557600080fd5b803590602001918460208302840111640100000000831117156103f757600080fd5b919080806020026020016040519081016040528093929190818152602001838360200280828437600081840152601f19601f8201169050808301925050505050505091929192908035906020019064010000000081111561045757600080fd5b82018360208201111561046957600080fd5b8035906020019184602083028401116401000000008311171561048b57600080fd5b919080806020026020016040519081016040528093929190818152602001838360200280828437600081840152601f19601f820116905080830192505050505050509192919290505050610be4565b005b610508600480360360208110156104f257600080fd5b8101908080359060200190929190505050610f3f565b005b61051261105c565b6040518082815260200191505060405180910390f35b6105546004803603602081101561053e57600080fd5b8101908080359060200190929190505050611069565b005b61055e6110ff565b604051808273ffffffffffffffffffffffffffffffffffffffff16815260200191505060405180910390f35b610592611123565b6040518082815260200191505060405180910390f35b6105b0611129565b6040518082815260200191505060405180910390f35b6105ce61112f565b005b6105fc600480360360208110156105e657600080fd5b81019080803590602001909291905050506111c3565b005b610606611294565b604051808273ffffffffffffffffffffffffffffffffffffffff16815260200191505060405180910390f35b61063a6112ba565b60405180821515815260200191505060405180910390f35b61065a6112ce565b604051808273ffffffffffffffffffffffffffffffffffffffff16815260200191505060405180910390f35b61068e6112f2565b604051808273ffffffffffffffffffffffffffffffffffffffff16815260200191505060405180910390f35b6106fc600480360360208110156106d057600080fd5b81019080803573ffffffffffffffffffffffffffffffffffffffff169060200190929190505050611316565b6040518082815260200191505060405180910390f35b61071a611367565b604051808273ffffffffffffffffffffffffffffffffffffffff16815260200191505060405180910390f35b6107726004803603602081101561075c57600080fd5b810190808035906020019092919050505061138d565b6040518082815260200191505060405180910390f35b6107906113ae565b6040518082815260200191505060405180910390f35b6107e8600480360360208110156107bc57600080fd5b81019080803573ffffffffffffffffffffffffffffffffffffffff1690602001909291905050506113b4565b6040518082815260200191505060405180910390f35b6108606004803603604081101561081457600080fd5b81019080803573ffffffffffffffffffffffffffffffffffffffff169060200190929190803573ffffffffffffffffffffffffffffffffffffffff1690602001909291905050506113cc565b005b6108a46004803603602081101561087857600080fd5b81019080803573ffffffffffffffffffffffffffffffffffffffff1690602001909291905050506117f5565b6040518082815260200191505060405180910390f35b6108e6600480360360208110156108d057600080fd5b81019080803590602001909291905050506118cf565b005b6108f06118db565b6040518082815260200191505060405180910390f35b6109326004803603602081101561091c57600080fd5b81019080803590602001909291905050506118e1565b604051808273ffffffffffffffffffffffffffffffffffffffff16815260200191505060405180910390f35b6109aa6004803603604081101561097457600080fd5b81019080803573ffffffffffffffffffffffffffffffffffffffff1690602001909291908035906020019092919050505061191d565b6040518082815260200191505060405180910390f35b6109c8611a0a565b005b610a16600480360360408110156109e057600080fd5b81019080803573ffffffffffffffffffffffffffffffffffffffff16906020019092919080359060200190929190505050611c0a565b6040518082815260200191505060405180910390f35b610a34611e74565b005b610a8260048036036040811015610a4c57600080fd5b81019080803573ffffffffffffffffffffffffffffffffffffffff16906020019092919080359060200190929190505050611f08565b6040518082815260200191505060405180910390f35b610ac460048036036020811015610aae57600080fd5b8101908080359060200190929190505050611ff5565b6040518082815260200191505060405180910390f35b60008073ffffffffffffffffffffffffffffffffffffffff168273ffffffffffffffffffffffffffffffffffffffff161415610b61576040517f08c379a000000000000000000000000000000000000000000000000000000000815260040180806020018281038252602d815260200180613855602d913960400191505060405180910390fd5b6000600c60008473ffffffffffffffffffffffffffffffffffffffff1673ffffffffffffffffffffffffffffffffffffffff16815260200190815260200160002090508060020180549050915050919050565b600b5481565b60065481565b600c6020528060005260406000206000915090508060000154908060010154905082565b600960009054906101000a900473ffffffffffffffffffffffffffffffffffffffff1673ffffffffffffffffffffffffffffffffffffffff163373ffffffffffffffffffffffffffffffffffffffff1614610c8a576040517f08c379a0000000000000000000000000000000000000000000000000000000008152600401808060200182810382526029815260200180613b226029913960400191505060405180910390fd5b610c92612016565b8411610ce9576040517f08c379a0000000000000000000000000000000000000000000000000000000008152600401808060200182810382526027815260200180613ad16027913960400191505060405180910390fd5b600654841015610d44576040517f08c379a00000000000000000000000000000000000000000000000000000000081526004018080602001828103825260358152602001806138d16035913960400191505060405180910390fd5b600380549050835114610da2576040517f08c379a00000000000000000000000000000000000000000000000000000000081526004018080602001828103825260348152602001806139f76034913960400191505060405180910390fd5b610daa611a0a565b60005b8351811015610eb157600060038281548110610dc557fe5b9060005260206000200160009054906101000a900473ffffffffffffffffffffffffffffffffffffffff169050828281518110610dfe57fe5b6020026020010151848381518110610e1257fe5b60200260200101511115610e7457610e7333848481518110610e3057fe5b6020026020010151868581518110610e4457fe5b6020026020010151038373ffffffffffffffffffffffffffffffffffffffff1661201e9092919063ffffffff16565b5b848281518110610e8057fe5b602002602001015160028381548110610e9557fe5b9060005260206000200181905550508080600101915050610dad565b50836006819055507f137c92cc7579cc4d6a2b109467cd475c205d1c136363ca854cc46d72f840d5de84846040518083815260200180602001828103825283818151815260200191508051906020019060200280838360005b83811015610f25578082015181840152602081019050610f0a565b50505050905001935050505060405180910390a150505050565b7f000000000000000000000000000000000000000000000000000000000000000073ffffffffffffffffffffffffffffffffffffffff163373ffffffffffffffffffffffffffffffffffffffff1614610fe3576040517f08c379a00000000000000000000000000000000000000000000000000000000081526004018080602001828103825260288152602001806138a96028913960400191505060405180910390fd5b6110507f000000000000000000000000000000000000000000000000000000000000000082600460009054906101000a900473ffffffffffffffffffffffffffffffffffffffff1673ffffffffffffffffffffffffffffffffffffffff1661201e9092919063ffffffff16565b611059816120c0565b50565b6000600380549050905090565b600260005414156110e2576040517f08c379a000000000000000000000000000000000000000000000000000000000815260040180806020018281038252601f8152602001807f5265656e7472616e637947756172643a207265656e7472616e742063616c6c0081525060200191505060405180910390fd5b60026000819055506110f4813361219e565b600160008190555050565b7f000000000000000000000000000000000000000000000000000000000000000081565b600a5481565b60055481565b600260005414156111a8576040517f08c379a000000000000000000000000000000000000000000000000000000000815260040180806020018281038252601f8152602001807f5265656e7472616e637947756172643a207265656e7472616e742063616c6c0081525060200191505060405180910390fd5b60026000819055506111b933612492565b6001600081905550565b7f000000000000000000000000000000000000000000000000000000000000000073ffffffffffffffffffffffffffffffffffffffff163373ffffffffffffffffffffffffffffffffffffffff1614611267576040517f08c379a00000000000000000000000000000000000000000000000000000000081526004018080602001828103825260288152602001806138a96028913960400191505060405180910390fd5b6112917f000000000000000000000000000000000000000000000000000000000000000082612651565b50565b600960009054906101000a900473ffffffffffffffffffffffffffffffffffffffff1681565b60006005546112c7612016565b1015905090565b7f000000000000000000000000000000000000000000000000000000000000000081565b7f000000000000000000000000000000000000000000000000000000000000000081565b600080600c60008473ffffffffffffffffffffffffffffffffffffffff1673ffffffffffffffffffffffffffffffffffffffff16815260200190815260200160002090508060010154915050919050565b600460009054906101000a900473ffffffffffffffffffffffffffffffffffffffff1681565b6002818154811061139a57fe5b906000526020600020016000915090505481565b60015481565b600d6020528060005260406000206000915090505481565b60026000541415611445576040517f08c379a000000000000000000000000000000000000000000000000000000000815260040180806020018281038252601f8152602001807f5265656e7472616e637947756172643a207265656e7472616e742063616c6c0081525060200191505060405180910390fd5b6002600081905550600960009054906101000a900473ffffffffffffffffffffffffffffffffffffffff1673ffffffffffffffffffffffffffffffffffffffff163373ffffffffffffffffffffffffffffffffffffffff16146114f3576040517f08c379a0000000000000000000000000000000000000000000000000000000008152600401808060200182810382526029815260200180613b226029913960400191505060405180910390fd5b60008173ffffffffffffffffffffffffffffffffffffffff166370a08231306040518263ffffffff1660e01b8152600401808273ffffffffffffffffffffffffffffffffffffffff16815260200191505060206040518083038186803b15801561155c57600080fd5b505afa158015611570573d6000803e3d6000fd5b505050506040513d602081101561158657600080fd5b81019080805190602001909291905050509050600081116115f2576040517f08c379a000000000000000000000000000000000000000000000000000000000815260040180806020018281038252603c815260200180613a95603c913960400191505060405180910390fd5b600460009054906101000a900473ffffffffffffffffffffffffffffffffffffffff1673ffffffffffffffffffffffffffffffffffffffff168273ffffffffffffffffffffffffffffffffffffffff161415611699576040517f08c379a00000000000000000000000000000000000000000000000000000000081526004018080602001828103825260368152602001806139066036913960400191505060405180910390fd5b6000600380549050905060005b8181101561177757600381815481106116bb57fe5b9060005260206000200160009054906101000a900473ffffffffffffffffffffffffffffffffffffffff1673ffffffffffffffffffffffffffffffffffffffff168473ffffffffffffffffffffffffffffffffffffffff16141561176a576040517f08c379a000000000000000000000000000000000000000000000000000000000815260040180806020018281038252603581526020018061393c6035913960400191505060405180910390fd5b80806001019150506116a6565b506117a384838573ffffffffffffffffffffffffffffffffffffffff1661201e9092919063ffffffff16565b8373ffffffffffffffffffffffffffffffffffffffff16827fdf1b625465761dd1a4330a9b3a21d4943183f301036528a3544f8d891fdce2c260405160405180910390a3505060016000819055505050565b60008073ffffffffffffffffffffffffffffffffffffffff168273ffffffffffffffffffffffffffffffffffffffff16141561187c576040517f08c379a000000000000000000000000000000000000000000000000000000000815260040180806020018281038252602d815260200180613971602d913960400191505060405180910390fd5b6000600c60008473ffffffffffffffffffffffffffffffffffffffff1673ffffffffffffffffffffffffffffffffffffffff16815260200190815260200160002090508060030180549050915050919050565b6118d881612783565b50565b60075481565b600381815481106118ee57fe5b906000526020600020016000915054906101000a900473ffffffffffffffffffffffffffffffffffffffff1681565b60008073ffffffffffffffffffffffffffffffffffffffff168373ffffffffffffffffffffffffffffffffffffffff1614156119a4576040517f08c379a0000000000000000000000000000000000000000000000000000000008152600401808060200182810382526027815260200180613a6e6027913960400191505060405180910390fd5b6000600c60008573ffffffffffffffffffffffffffffffffffffffff1673ffffffffffffffffffffffffffffffffffffffff16815260200190815260200160002090508060030183815481106119f657fe5b906000526020600020015491505092915050565b6000611a14612016565b90506007548111611a255750611c08565b60006006548210611a3857600654611a3a565b815b90506000600754820390506000811415611a5657505050611c08565b60006001541415611a705781600781905550505050611c08565b6000600380549050905060005b81811015611bfb57600060038281548110611a9457fe5b9060005260206000200160009054906101000a900473ffffffffffffffffffffffffffffffffffffffff1673ffffffffffffffffffffffffffffffffffffffff1663313ce5676040518163ffffffff1660e01b815260040160206040518083038186803b158015611b0457600080fd5b505afa158015611b18573d6000803e3d6000fd5b505050506040513d6020811015611b2e57600080fd5b810190808051906020019092919050505060ff169050600081600a0a90506000611b7860028581548110611b5e57fe5b90600052602060002001548761285090919063ffffffff16565b90506000611ba3600154611b95858561285090919063ffffffff16565b6128d690919063ffffffff16565b9050611bcf8160088781548110611bb657fe5b906000526020600020015461295f90919063ffffffff16565b60088681548110611bdc57fe5b9060005260206000200181905550505050508080600101915050611a7d565b5082600781905550505050505b565b600080611c15612016565b905060006006548210611c2a57600654611c2c565b815b90506000611c45600754836129e790919063ffffffff16565b9050600060038681548110611c5657fe5b9060005260206000200160009054906101000a900473ffffffffffffffffffffffffffffffffffffffff1673ffffffffffffffffffffffffffffffffffffffff1663313ce5676040518163ffffffff1660e01b815260040160206040518083038186803b158015611cc657600080fd5b505afa158015611cda573d6000803e3d6000fd5b505050506040513d6020811015611cf057600080fd5b810190808051906020019092919050505060ff169050600081600a0a90506000611d3a60028981548110611d2057fe5b90600052602060002001548561285090919063ffffffff16565b90506000611d65600154611d57858561285090919063ffffffff16565b6128d690919063ffffffff16565b90506000611d938260088c81548110611d7a57fe5b906000526020600020015461295f90919063ffffffff16565b90506000600c60008d73ffffffffffffffffffffffffffffffffffffffff1673ffffffffffffffffffffffffffffffffffffffff16815260200190815260200160002090506000611e0386611df585856001015461285090919063ffffffff16565b6128d690919063ffffffff16565b90506000611e33836002018e81548110611e1957fe5b9060005260206000200154836129e790919063ffffffff16565b9050611e6181846003018f81548110611e4857fe5b906000526020600020015461295f90919063ffffffff16565b9b50505050505050505050505092915050565b60026000541415611eed576040517f08c379a000000000000000000000000000000000000000000000000000000000815260040180806020018281038252601f8152602001807f5265656e7472616e637947756172643a207265656e7472616e742063616c6c0081525060200191505060405180910390fd5b6002600081905550611efe33612a6a565b6001600081905550565b60008073ffffffffffffffffffffffffffffffffffffffff168373ffffffffffffffffffffffffffffffffffffffff161415611f8f576040517f08c379a00000000000000000000000000000000000000000000000000000000081526004018080602001828103825260278152602001806138826027913960400191505060405180910390fd5b6000600c60008573ffffffffffffffffffffffffffffffffffffffff1673ffffffffffffffffffffffffffffffffffffffff1681526020019081526020016000209050806002018381548110611fe157fe5b906000526020600020015491505092915050565b6008818154811061200257fe5b906000526020600020016000915090505481565b600043905090565b6120bb8363a9059cbb60e01b8484604051602401808373ffffffffffffffffffffffffffffffffffffffff16815260200182815260200192505050604051602081830303815290604052907bffffffffffffffffffffffffffffffffffffffffffffffffffffffff19166020820180517bffffffffffffffffffffffffffffffffffffffffffffffffffffffff8381831617835250505050612b1a565b505050565b7f000000000000000000000000000000000000000000000000000000000000000073ffffffffffffffffffffffffffffffffffffffff163373ffffffffffffffffffffffffffffffffffffffff1614612164576040517f08c379a00000000000000000000000000000000000000000000000000000000081526004018080602001828103825260288152602001806138a96028913960400191505060405180910390fd5b7fa78b9f12a7da0df7ced737c5f83d0c05723bb5f43aab37e233b8627104148472816040518082815260200191505060405180910390a150565b60008211612214576040517f08c379a000000000000000000000000000000000000000000000000000000000815260040180806020018281038252601b8152602001807f57697468647261773a3a43616e6e6f742077697468647261772030000000000081525060200191505060405180910390fd5b6000600c60008373ffffffffffffffffffffffffffffffffffffffff1673ffffffffffffffffffffffffffffffffffffffff168152602001908152602001600020905061225f611a0a565b61226882612d65565b61227f8382600101546129e790919063ffffffff16565b816001018190555061229c836001546129e790919063ffffffff16565b6001819055506000600380549050905060005b818110156123f0576000600382815481106122c657fe5b9060005260206000200160009054906101000a900473ffffffffffffffffffffffffffffffffffffffff1673ffffffffffffffffffffffffffffffffffffffff1663313ce5676040518163ffffffff1660e01b815260040160206040518083038186803b15801561233657600080fd5b505afa15801561234a573d6000803e3d6000fd5b505050506040513d602081101561236057600080fd5b810190808051906020019092919050505060ff169050600081600a0a905060006123c0826123b26008878154811061239457fe5b9060005260206000200154896001015461285090919063ffffffff16565b6128d690919063ffffffff16565b9050808660020185815481106123d257fe5b906000526020600020018190555050505080806001019150506122af565b5061243e8385600460009054906101000a900473ffffffffffffffffffffffffffffffffffffffff1673ffffffffffffffffffffffffffffffffffffffff1661201e9092919063ffffffff16565b8273ffffffffffffffffffffffffffffffffffffffff167f7084f5476618d8e60b11ef0d7d3f06914655adb8793e28ff7f018d4c76d505d5856040518082815260200191505060405180910390a250505050565b6000600c60008373ffffffffffffffffffffffffffffffffffffffff1673ffffffffffffffffffffffffffffffffffffffff16815260200190815260200160002090506124dd611a0a565b6124e682612d65565b6000600380549050905060005b8181101561264b57600083600301828154811061250c57fe5b90600052602060002001549050600084600301838154811061252a57fe5b906000526020600020018190555061259a85826003858154811061254a57fe5b9060005260206000200160009054906101000a900473ffffffffffffffffffffffffffffffffffffffff1673ffffffffffffffffffffffffffffffffffffffff1661201e9092919063ffffffff16565b8473ffffffffffffffffffffffffffffffffffffffff167f7e6632ca16a0ac6cf28448500b1a17d96c8b8163ad4c4a9b44ef5386cc02779e82600385815481106125e057fe5b9060005260206000200160009054906101000a900473ffffffffffffffffffffffffffffffffffffffff16604051808381526020018273ffffffffffffffffffffffffffffffffffffffff1681526020019250505060405180910390a25080806001019150506124f3565b50505050565b61267e3330838573ffffffffffffffffffffffffffffffffffffffff16612e00909392919063ffffffff16565b6126d081600d60008573ffffffffffffffffffffffffffffffffffffffff1673ffffffffffffffffffffffffffffffffffffffff1681526020019081526020016000205461295f90919063ffffffff16565b600d60008473ffffffffffffffffffffffffffffffffffffffff1673ffffffffffffffffffffffffffffffffffffffff168152602001908152602001600020819055503373ffffffffffffffffffffffffffffffffffffffff167f3ca3e2b750b23b0fb33120646ef2418edd82a6576afaa67069cfb626f08ca7dc8383604051808373ffffffffffffffffffffffffffffffffffffffff1681526020018281526020019250505060405180910390a25050565b7f000000000000000000000000000000000000000000000000000000000000000073ffffffffffffffffffffffffffffffffffffffff163373ffffffffffffffffffffffffffffffffffffffff1614612844576040517f08c379a000000000000000000000000000000000000000000000000000000000815260040180806020018281038252601c8152602001807f6f6e6c795374616b65723a3a696e636f7272656374207374616b65720000000081525060200191505060405180910390fd5b61284d81612ec1565b50565b60008083141561286357600090506128d0565b600082840290508284828161287457fe5b04146128cb576040517f08c379a0000000000000000000000000000000000000000000000000000000008152600401808060200182810382526021815260200180613a4d6021913960400191505060405180910390fd5b809150505b92915050565b600080821161294d576040517f08c379a000000000000000000000000000000000000000000000000000000000815260040180806020018281038252601a8152602001807f536166654d6174683a206469766973696f6e206279207a65726f00000000000081525060200191505060405180910390fd5b81838161295657fe5b04905092915050565b6000808284019050838110156129dd576040517f08c379a000000000000000000000000000000000000000000000000000000000815260040180806020018281038252601b8152602001807f536166654d6174683a206164646974696f6e206f766572666c6f77000000000081525060200191505060405180910390fd5b8091505092915050565b600082821115612a5f576040517f08c379a000000000000000000000000000000000000000000000000000000000815260040180806020018281038252601e8152602001807f536166654d6174683a207375627472616374696f6e206f766572666c6f77000081525060200191505060405180910390fd5b818303905092915050565b6000600c60008373ffffffffffffffffffffffffffffffffffffffff1673ffffffffffffffffffffffffffffffffffffffff1681526020019081526020016000209050612ab682612492565b612ac481600101548361219e565b8173ffffffffffffffffffffffffffffffffffffffff167f920bb94eb3842a728db98228c375ff6b00c5bc5a54fac6736155517a0a20a61a82600101546040518082815260200191505060405180910390a25050565b612b398273ffffffffffffffffffffffffffffffffffffffff16612f59565b612bab576040517f08c379a000000000000000000000000000000000000000000000000000000000815260040180806020018281038252601f8152602001807f5361666545524332303a2063616c6c20746f206e6f6e2d636f6e74726163740081525060200191505060405180910390fd5b600060608373ffffffffffffffffffffffffffffffffffffffff16836040518082805190602001908083835b60208310612bfa5780518252602082019150602081019050602083039250612bd7565b6001836020036101000a0380198251168184511680821785525050505050509050019150506000604051808303816000865af19150503d8060008114612c5c576040519150601f19603f3d011682016040523d82523d6000602084013e612c61565b606091505b509150915081612cd9576040517f08c379a00000000000000000000000000000000000000000000000000000000081526004018080602001828103825260208152602001807f5361666545524332303a206c6f772d6c6576656c2063616c6c206661696c656481525060200191505060405180910390fd5b600081511115612d5f57808060200190516020811015612cf857600080fd5b8101908080519060200190929190505050612d5e576040517f08c379a000000000000000000000000000000000000000000000000000000000815260040180806020018281038252602a815260200180613af8602a913960400191505060405180910390fd5b5b50505050565b6000600c60008373ffffffffffffffffffffffffffffffffffffffff1673ffffffffffffffffffffffffffffffffffffffff1681526020019081526020016000209050612db182612f6c565b612dba82613028565b600081600101541415612dcd5750612dfd565b6000600380549050905060005b81811015612df957612dec84826130e4565b8080600101915050612dda565b5050505b50565b612ebb846323b872dd60e01b858585604051602401808473ffffffffffffffffffffffffffffffffffffffff1681526020018373ffffffffffffffffffffffffffffffffffffffff1681526020018281526020019350505050604051602081830303815290604052907bffffffffffffffffffffffffffffffffffffffffffffffffffffffff19166020820180517bffffffffffffffffffffffffffffffffffffffffffffffffffffffff8381831617835250505050612b1a565b50505050565b60026000541415612f3a576040517f08c379a000000000000000000000000000000000000000000000000000000000815260040180806020018281038252601f8152602001807f5265656e7472616e637947756172643a207265656e7472616e742063616c6c0081525060200191505060405180910390fd5b6002600081905550612f4e813360016132dc565b600160008190555050565b600080823b905060008111915050919050565b6000600c60008373ffffffffffffffffffffffffffffffffffffffff1673ffffffffffffffffffffffffffffffffffffffff168152602001908152602001600020905060038054905081600201805490501415612fc95750613025565b600060038054905090506000826002018054905090505b818110156130215782600201600090806001815401808255809150506001900390600052602060002001600090919091909150558080600101915050612fe0565b5050505b50565b6000600c60008373ffffffffffffffffffffffffffffffffffffffff1673ffffffffffffffffffffffffffffffffffffffff16815260200190815260200160002090506003805490508160030180549050141561308557506130e1565b600060038054905090506000826003018054905090505b818110156130dd578260030160009080600181540180825580915050600190039060005260206000200160009091909190915055808060010191505061309c565b5050505b50565b6000600c60008473ffffffffffffffffffffffffffffffffffffffff1673ffffffffffffffffffffffffffffffffffffffff168152602001908152602001600020905060006003838154811061313657fe5b9060005260206000200160009054906101000a900473ffffffffffffffffffffffffffffffffffffffff1673ffffffffffffffffffffffffffffffffffffffff1663313ce5676040518163ffffffff1660e01b815260040160206040518083038186803b1580156131a657600080fd5b505afa1580156131ba573d6000803e3d6000fd5b505050506040513d60208110156131d057600080fd5b810190808051906020019092919050505060ff169050600081600a0a90506000613230826132226008888154811061320457fe5b9060005260206000200154876001015461285090919063ffffffff16565b6128d690919063ffffffff16565b9050600061326085600201878154811061324657fe5b9060005260206000200154836129e790919063ffffffff16565b905060008111156132d3576132978186600301888154811061327e57fe5b906000526020600020015461295f90919063ffffffff16565b8560030187815481106132a657fe5b9060005260206000200181905550818560020187815481106132c457fe5b90600052602060002001819055505b50505050505050565b60006132e6612016565b90506005548111613342576040517f08c379a0000000000000000000000000000000000000000000000000000000008152600401808060200182810382526022815260200180613a2b6022913960400191505060405180910390fd5b6006548111156133ba576040517f08c379a000000000000000000000000000000000000000000000000000000000815260040180806020018281038252601b8152602001807f5374616b653a3a5374616b696e67206861732066696e6973686564000000000081525060200191505060405180910390fd5b82846000600c60008473ffffffffffffffffffffffffffffffffffffffff1673ffffffffffffffffffffffffffffffffffffffff1681526020019081526020016000209050600a5461341983836001015461295f90919063ffffffff16565b1115613470576040517f08c379a00000000000000000000000000000000000000000000000000000000081526004018080602001828103825260288152602001806139cf6028913960400191505060405180910390fd5b600b546134888360015461295f90919063ffffffff16565b11156134df576040517f08c379a000000000000000000000000000000000000000000000000000000000815260040180806020018281038252603181526020018061399e6031913960400191505060405180910390fd5b60008711613555576040517f08c379a00000000000000000000000000000000000000000000000000000000081526004018080602001828103825260158152602001807f5374616b653a3a43616e6e6f74207374616b652030000000000000000000000081525060200191505060405180910390fd5b6000600c60008873ffffffffffffffffffffffffffffffffffffffff1673ffffffffffffffffffffffffffffffffffffffff16815260200190815260200160002090506000816001015414156135af576135ae876137fd565b5b6135b7611a0a565b6135c087612d65565b6135d788826001015461295f90919063ffffffff16565b81600101819055506135f48860015461295f90919063ffffffff16565b6001819055506000600380549050905060005b818110156137485760006003828154811061361e57fe5b9060005260206000200160009054906101000a900473ffffffffffffffffffffffffffffffffffffffff1673ffffffffffffffffffffffffffffffffffffffff1663313ce5676040518163ffffffff1660e01b815260040160206040518083038186803b15801561368e57600080fd5b505afa1580156136a2573d6000803e3d6000fd5b505050506040513d60208110156136b857600080fd5b810190808051906020019092919050505060ff169050600081600a0a905060006137188261370a600887815481106136ec57fe5b9060005260206000200154896001015461285090919063ffffffff16565b6128d690919063ffffffff16565b90508086600201858154811061372a57fe5b90600052602060002001819055505050508080600101915050613607565b506137a4876137575733613759565b885b308b600460009054906101000a900473ffffffffffffffffffffffffffffffffffffffff1673ffffffffffffffffffffffffffffffffffffffff16612e00909392919063ffffffff16565b8773ffffffffffffffffffffffffffffffffffffffff167f9e71bc8eea02a63969f509818f2dafb9254532904319f9dbda79b67bd34a5f3d8a6040518082815260200191505060405180910390a2505050505050505050565b6000600c60008373ffffffffffffffffffffffffffffffffffffffff1673ffffffffffffffffffffffffffffffffffffffff1681526020019081526020016000209050613848612016565b8160000181905550505056fe47657455736572526577617264446562744c656e6774683a3a496e76616c69642075736572206164647265737347657455736572526577617264446562743a3a496e76616c6964207573657220616464726573736f6e6c7954726561737572793a3a4e6f742063616c6c656420627920746865207472656173757279457874656e643a3a456e6420626c6f636b206d757374206265206166746572207468652063757272656e7420656e6420626c6f636b57697468647261774c50526577617264733a3a2063616e6e6f742077697468647261772066726f6d20746865204c5020746f6b656e7357697468647261774c50526577617264733a3a43616e6e6f742077697468647261772066726f6d20746f6b656e207265776172647347657455736572546f6b656e734f7765644c656e6774683a3a496e76616c6964207573657220616464726573736f6e6c79556e6465725374616b654c696d69743a3a436f6e7472616374205374616b65206c696d697420726561636865646f6e6c79556e6465725374616b654c696d69743a3a5374616b65206c696d69742072656163686564457874656e643a3a5265776172647320616d6f756e7473206c656e677468206973206c657373207468616e2065787065637465645374616b653a3a5374616b696e6720686173206e6f74207965742073746172746564536166654d6174683a206d756c7469706c69636174696f6e206f766572666c6f77476574557365724f776564546f6b656e733a3a496e76616c69642075736572206164647265737357697468647261774c50526577617264733a3a546865726520617265206e6f20726577617264732066726f6d206c697175696469747920706f6f6c73457874656e643a3a456e6420626c6f636b206d75737420626520696e20746865206675747572655361666545524332303a204552433230206f7065726174696f6e20646964206e6f74207375636365656443616c6c6572206973206e6f742052657761726473506f6f6c466163746f727920636f6e7472616374a2646970667358221220db51bc80e2a3181e43614b2f2097a24101a4209224e9e56a3c2115004f7ab03b64736f6c634300060c003373657454726561737572793a3a54726561737572792063616e6e6f742062652030436f6e7374727563746f723a3a5374616b65206c696d6974206e6565647320746f206265206d6f7265207468616e20304f6e655374616b6572466561747572653a3a73657453636f6e7374727563746f7274616b6572206e6577207374616b657220616464726573732063616e2774206265207a65726f2061646472657373436f6e7374727563746f723a3a54686520656e6420626c6f636b206d75737420626520696e20746865206675747572652e436f6e7374727563746f723a3a526577617264732070657220626c6f636b20616e64207265776172647320746f6b656e73206d7573742062652077697468207468652073616d65206c656e6774682e436f6e7374727563746f723a3a20436f6e7472616374205374616b65206c696d6974206e6565647320746f206265206d6f7265207468616e2030436f6e7374727563746f723a3a546865207374617274696e6720626c6f636b206d75737420626520696e20746865206675747572652e656e61626c655265636569766572733a3a52656365697665722063616e6e6f742062652030436f6d706f756e64696e6752657761726473506f6f6c466163746f72793a3a6465706c6f793a205468726f74746c6520726f756e6420636170206d757374206265206d6f7265207468616e203063616c63756c61746552657761726473416d6f756e743a3a20526577617264732070657220626c6f636b206d7573742062652067726561746572207468616e207a65726f656e61626c655265636569766572733a3a5472616e7366657265722063616e6e6f742062652030436f6d706f756e64696e6752657761726473506f6f6c466163746f72793a3a6465706c6f793a205468726f74746c6520726f756e6420626c6f636b73206d757374206265206d6f7265207468616e2030436f6d706f756e64696e6752657761726473506f6f6c466163746f72793a3a6465706c6f793a205265776172642070657220626c6f636b206d757374206265206d6f7265207468616e2030536166654d6174683a206d756c7469706c69636174696f6e206f766572666c6f7753656e64657220697320646966666572656e742066726f6d2070726f706f736564206f776e65726f6e6c794f776e65723a3a205468652063616c6c6572206973206e6f7420746865206f776e65725361666545524332303a204552433230206f7065726174696f6e20646964206e6f742073756363656564436f6d706f756e64696e6752657761726473506f6f6c466163746f72793a3a6465706c6f793a205374616b65206c696d6974206d757374206265206d6f7265207468616e2030436f6d706f756e64696e6752657761726473506f6f6c466163746f72793a3a6465706c6f793a205374616b696e6720746f6b656e20616464726573732063616e2774206265207a65726f2061646472657373a2646970667358221220d2a302670a49263b645911bbc64a18b9cfaece725df3b99ecfddb7dfd91f3a2c64736f6c634300060c0033436f6d706f756e64696e6752657761726473506f6f6c466163746f72793a3a2045787465726e616c2072657761726420616464726573732063616e2774206265207a65726f2061646472657373436f6d706f756e64696e6752657761726473506f6f6c466163746f72793a3a20547265617375727920616464726573732063616e2774206265207a65726f2061646472657373",
  "source": "// SPDX-License-Identifier: MIT\npragma solidity 0.6.12;\n\nimport \"./../../interfaces/IERC20Detailed.sol\";\nimport \"./../../SafeERC20Detailed.sol\";\nimport \"./../CompoundingRewardsPool.sol\";\nimport \"./../CompoundingRewardsPoolStaker.sol\";\nimport \"./StakeTransferEnabledFactory.sol\";\n\ncontract CompoundingRewardsPoolFactory is AbstractPoolsFactory, StakeTransferEnabledFactory {\n\tusing SafeERC20Detailed for IERC20Detailed;\n\n\taddress public immutable treasury;\n\taddress public immutable externalRewardToken;\n\n\tconstructor(address _treasury, address _externalRewardToken) public {\n\t\trequire(\n            _treasury != address(0),\n            \"CompoundingRewardsPoolFactory:: Treasury address can't be zero address\"\n        );\n\n        require(\n            _externalRewardToken != address(0),\n            \"CompoundingRewardsPoolFactory:: External reward address can't be zero address\"\n        );\n\t\ttreasury = _treasury;\n\t\texternalRewardToken = _externalRewardToken;\n\t}\n\n\t/* ========== Permissioned FUNCTIONS ========== */\n\n\tfunction deploy(\n\t\taddress _stakingToken,\n\t\tuint256 _startBlock,\n\t\tuint256 _endBlock,\n\t\tuint256 _rewardPerBlock,\n\t\tuint256 _stakeLimit, \n\t\tuint256 _throttleRoundBlocks, \n\t\tuint256 _throttleRoundCap,\n\t\tuint256 _contractStakeLimit\n\t) external onlyOwner {\n\t\trequire(\n\t\t\t_stakingToken != address(0),\n\t\t\t\"CompoundingRewardsPoolFactory::deploy: Staking token address can't be zero address\"\n\t\t);\n\n\t\trequire(\n\t\t\t_rewardPerBlock != 0,\n\t\t\t\"CompoundingRewardsPoolFactory::deploy: Reward per block must be more than 0\"\n\t\t);\n\n\t\trequire(\n\t\t\t_stakeLimit != 0,\n\t\t\t\"CompoundingRewardsPoolFactory::deploy: Stake limit must be more than 0\"\n\t\t);\n\n\t\trequire(\n\t\t\t_throttleRoundBlocks != 0,\n\t\t\t\"CompoundingRewardsPoolFactory::deploy: Throttle round blocks must be more than 0\"\n\t\t);\n\n\t\trequire(\n\t\t\t_throttleRoundCap != 0,\n\t\t\t\"CompoundingRewardsPoolFactory::deploy: Throttle round cap must be more than 0\"\n\t\t);\n\n\t\tCompoundingRewardsPoolStaker autoStaker = new CompoundingRewardsPoolStaker(\n\t\t\t_stakingToken,\n\t\t\t_throttleRoundBlocks,\n\t\t\t_throttleRoundCap,\n\t\t\t_endBlock,\n\t\t\t_stakeLimit\n\t\t);\n\n\t\taddress[] memory rewardTokens = new address[](1);\n\t\trewardTokens[0] = _stakingToken;\n\n\t\tuint256[] memory rewardsPerBlock = new uint256[](1);\n\t\trewardsPerBlock[0] = _rewardPerBlock;\n\n\t\tCompoundingRewardsPool rewardsPool = new CompoundingRewardsPool(\n\t\t\t\tIERC20Detailed(_stakingToken),\n\t\t\t\t_startBlock,\n\t\t\t\t_endBlock,\n\t\t\t\trewardTokens,\n\t\t\t\trewardsPerBlock,\n\t\t\t\tuint256(-1),\n\t\t\t\taddress(autoStaker),\n\t\t\t\ttreasury,\n\t\t\t\texternalRewardToken,\n\t\t\t\t_contractStakeLimit\n\t\t\t);\n\n\t\tautoStaker.setPool(address(rewardsPool));\n\n\t\tuint256 rewardsAmount = calculateRewardsAmount(_startBlock, _endBlock, _rewardPerBlock);\n\t\tIERC20Detailed(_stakingToken).safeTransfer(address(rewardsPool), rewardsAmount);\n\n\t\trewardsPools.push(address(autoStaker));\n\n\t}\n}\n",
  "sourcePath": "/home/hellowodl/lmaas-liquidity-staker/contracts/V2/factories/CompoundingRewardsPoolFactory.sol",
  "compiler": {
    "name": "solc",
    "version": "0.6.12+commit.27d51765.Emscripten.clang",
    "optimizer": false,
    "runs": 200
  },
  "schemaVersion": "2.3.5",
  "updatedAt": "2021-04-27T17:14:31.158Z"
}