{
  "contractName": "CompoundingRewardsPool",
  "abi": [
    {
      "inputs": [
        {
          "internalType": "contract IERC20Detailed",
          "name": "_stakingToken",
          "type": "address"
        },
        {
          "internalType": "uint256",
          "name": "_startBlock",
          "type": "uint256"
        },
        {
          "internalType": "uint256",
          "name": "_endBlock",
          "type": "uint256"
        },
        {
          "internalType": "address[]",
          "name": "_rewardsTokens",
          "type": "address[]"
        },
        {
          "internalType": "uint256[]",
          "name": "_rewardPerBlock",
          "type": "uint256[]"
        },
        {
          "internalType": "uint256",
          "name": "_stakeLimit",
          "type": "uint256"
        },
        {
          "internalType": "address",
          "name": "_staker",
          "type": "address"
        },
        {
          "internalType": "address",
          "name": "_treasury",
          "type": "address"
        },
        {
          "internalType": "address",
          "name": "_externalRewardToken",
          "type": "address"
        },
        {
          "internalType": "uint256",
          "name": "_contractStakeLimit",
          "type": "uint256"
        }
      ],
      "stateMutability": "nonpayable",
      "type": "constructor"
    },
    {
      "anonymous": false,
      "inputs": [
        {
          "indexed": true,
          "internalType": "address",
          "name": "user",
          "type": "address"
        },
        {
          "indexed": false,
          "internalType": "uint256",
          "name": "amount",
          "type": "uint256"
        },
        {
          "indexed": false,
          "internalType": "address",
          "name": "token",
          "type": "address"
        }
      ],
      "name": "Claimed",
      "type": "event"
    },
    {
      "anonymous": false,
      "inputs": [
        {
          "indexed": true,
          "internalType": "address",
          "name": "user",
          "type": "address"
        },
        {
          "indexed": false,
          "internalType": "uint256",
          "name": "amount",
          "type": "uint256"
        }
      ],
      "name": "Exited",
      "type": "event"
    },
    {
      "anonymous": false,
      "inputs": [
        {
          "indexed": false,
          "internalType": "uint256",
          "name": "newEndBlock",
          "type": "uint256"
        },
        {
          "indexed": false,
          "internalType": "uint256[]",
          "name": "newRewardsPerBlock",
          "type": "uint256[]"
        }
      ],
      "name": "Extended",
      "type": "event"
    },
    {
      "anonymous": false,
      "inputs": [
        {
          "indexed": true,
          "internalType": "address",
          "name": "from",
          "type": "address"
        },
        {
          "indexed": false,
          "internalType": "address",
          "name": "token",
          "type": "address"
        },
        {
          "indexed": false,
          "internalType": "uint256",
          "name": "reward",
          "type": "uint256"
        }
      ],
      "name": "ExternalRewardsAdded",
      "type": "event"
    },
    {
      "anonymous": false,
      "inputs": [
        {
          "indexed": false,
          "internalType": "address",
          "name": "receiver",
          "type": "address"
        }
      ],
      "name": "ExternalRewardsClaimed",
      "type": "event"
    },
    {
      "anonymous": false,
      "inputs": [
        {
          "indexed": false,
          "internalType": "uint256",
          "name": "amount",
          "type": "uint256"
        }
      ],
      "name": "StakeWithdrawn",
      "type": "event"
    },
    {
      "anonymous": false,
      "inputs": [
        {
          "indexed": true,
          "internalType": "address",
          "name": "user",
          "type": "address"
        },
        {
          "indexed": false,
          "internalType": "uint256",
          "name": "amount",
          "type": "uint256"
        }
      ],
      "name": "Staked",
      "type": "event"
    },
    {
      "anonymous": false,
      "inputs": [
        {
          "indexed": true,
          "internalType": "uint256",
          "name": "rewardsAmount",
          "type": "uint256"
        },
        {
          "indexed": true,
          "internalType": "address",
          "name": "recipient",
          "type": "address"
        }
      ],
      "name": "WithdrawLPRewards",
      "type": "event"
    },
    {
      "anonymous": false,
      "inputs": [
        {
          "indexed": true,
          "internalType": "address",
          "name": "user",
          "type": "address"
        },
        {
          "indexed": false,
          "internalType": "uint256",
          "name": "amount",
          "type": "uint256"
        }
      ],
      "name": "Withdrawn",
      "type": "event"
    },
    {
      "inputs": [
        {
          "internalType": "uint256",
          "name": "",
          "type": "uint256"
        }
      ],
      "name": "accumulatedRewardMultiplier",
      "outputs": [
        {
          "internalType": "uint256",
          "name": "",
          "type": "uint256"
        }
      ],
      "stateMutability": "view",
      "type": "function"
    },
    {
      "inputs": [
        {
          "internalType": "address",
          "name": "_userAddress",
          "type": "address"
        }
      ],
      "name": "balanceOf",
      "outputs": [
        {
          "internalType": "uint256",
          "name": "",
          "type": "uint256"
        }
      ],
      "stateMutability": "view",
      "type": "function"
    },
    {
      "inputs": [],
      "name": "claim",
      "outputs": [],
      "stateMutability": "nonpayable",
      "type": "function"
    },
    {
      "inputs": [],
      "name": "contractStakeLimit",
      "outputs": [
        {
          "internalType": "uint256",
          "name": "",
          "type": "uint256"
        }
      ],
      "stateMutability": "view",
      "type": "function"
    },
    {
      "inputs": [],
      "name": "endBlock",
      "outputs": [
        {
          "internalType": "uint256",
          "name": "",
          "type": "uint256"
        }
      ],
      "stateMutability": "view",
      "type": "function"
    },
    {
      "inputs": [],
      "name": "exit",
      "outputs": [],
      "stateMutability": "nonpayable",
      "type": "function"
    },
    {
      "inputs": [
        {
          "internalType": "uint256",
          "name": "_endBlock",
          "type": "uint256"
        },
        {
          "internalType": "uint256[]",
          "name": "_rewardsPerBlock",
          "type": "uint256[]"
        },
        {
          "internalType": "uint256[]",
          "name": "_currentRemainingRewards",
          "type": "uint256[]"
        },
        {
          "internalType": "uint256[]",
          "name": "_newRemainingRewards",
          "type": "uint256[]"
        }
      ],
      "name": "extend",
      "outputs": [],
      "stateMutability": "nonpayable",
      "type": "function"
    },
    {
      "inputs": [],
      "name": "externalRewardToken",
      "outputs": [
        {
          "internalType": "address",
          "name": "",
          "type": "address"
        }
      ],
      "stateMutability": "view",
      "type": "function"
    },
    {
      "inputs": [
        {
          "internalType": "address",
          "name": "",
          "type": "address"
        }
      ],
      "name": "externalRewards",
      "outputs": [
        {
          "internalType": "uint256",
          "name": "",
          "type": "uint256"
        }
      ],
      "stateMutability": "view",
      "type": "function"
    },
    {
      "inputs": [],
      "name": "getRewardTokensCount",
      "outputs": [
        {
          "internalType": "uint256",
          "name": "",
          "type": "uint256"
        }
      ],
      "stateMutability": "view",
      "type": "function"
    },
    {
      "inputs": [
        {
          "internalType": "address",
          "name": "_userAddress",
          "type": "address"
        },
        {
          "internalType": "uint256",
          "name": "tokenIndex",
          "type": "uint256"
        }
      ],
      "name": "getUserAccumulatedReward",
      "outputs": [
        {
          "internalType": "uint256",
          "name": "",
          "type": "uint256"
        }
      ],
      "stateMutability": "view",
      "type": "function"
    },
    {
      "inputs": [
        {
          "internalType": "address",
          "name": "_userAddress",
          "type": "address"
        },
        {
          "internalType": "uint256",
          "name": "_index",
          "type": "uint256"
        }
      ],
      "name": "getUserOwedTokens",
      "outputs": [
        {
          "internalType": "uint256",
          "name": "",
          "type": "uint256"
        }
      ],
      "stateMutability": "view",
      "type": "function"
    },
    {
      "inputs": [
        {
          "internalType": "address",
          "name": "_userAddress",
          "type": "address"
        },
        {
          "internalType": "uint256",
          "name": "_index",
          "type": "uint256"
        }
      ],
      "name": "getUserRewardDebt",
      "outputs": [
        {
          "internalType": "uint256",
          "name": "",
          "type": "uint256"
        }
      ],
      "stateMutability": "view",
      "type": "function"
    },
    {
      "inputs": [
        {
          "internalType": "address",
          "name": "_userAddress",
          "type": "address"
        }
      ],
      "name": "getUserRewardDebtLength",
      "outputs": [
        {
          "internalType": "uint256",
          "name": "",
          "type": "uint256"
        }
      ],
      "stateMutability": "view",
      "type": "function"
    },
    {
      "inputs": [
        {
          "internalType": "address",
          "name": "_userAddress",
          "type": "address"
        }
      ],
      "name": "getUserTokensOwedLength",
      "outputs": [
        {
          "internalType": "uint256",
          "name": "",
          "type": "uint256"
        }
      ],
      "stateMutability": "view",
      "type": "function"
    },
    {
      "inputs": [],
      "name": "hasStakingStarted",
      "outputs": [
        {
          "internalType": "bool",
          "name": "",
          "type": "bool"
        }
      ],
      "stateMutability": "view",
      "type": "function"
    },
    {
      "inputs": [],
      "name": "lastRewardBlock",
      "outputs": [
        {
          "internalType": "uint256",
          "name": "",
          "type": "uint256"
        }
      ],
      "stateMutability": "view",
      "type": "function"
    },
    {
      "inputs": [
        {
          "internalType": "uint256",
          "name": "reward",
          "type": "uint256"
        }
      ],
      "name": "notifyExternalReward",
      "outputs": [],
      "stateMutability": "nonpayable",
      "type": "function"
    },
    {
      "inputs": [
        {
          "internalType": "uint256",
          "name": "",
          "type": "uint256"
        }
      ],
      "name": "rewardPerBlock",
      "outputs": [
        {
          "internalType": "uint256",
          "name": "",
          "type": "uint256"
        }
      ],
      "stateMutability": "view",
      "type": "function"
    },
    {
      "inputs": [],
      "name": "rewardsPoolFactory",
      "outputs": [
        {
          "internalType": "address",
          "name": "",
          "type": "address"
        }
      ],
      "stateMutability": "view",
      "type": "function"
    },
    {
      "inputs": [
        {
          "internalType": "uint256",
          "name": "",
          "type": "uint256"
        }
      ],
      "name": "rewardsTokens",
      "outputs": [
        {
          "internalType": "address",
          "name": "",
          "type": "address"
        }
      ],
      "stateMutability": "view",
      "type": "function"
    },
    {
      "inputs": [],
      "name": "stakeLimit",
      "outputs": [
        {
          "internalType": "uint256",
          "name": "",
          "type": "uint256"
        }
      ],
      "stateMutability": "view",
      "type": "function"
    },
    {
      "inputs": [],
      "name": "staker",
      "outputs": [
        {
          "internalType": "address",
          "name": "",
          "type": "address"
        }
      ],
      "stateMutability": "view",
      "type": "function"
    },
    {
      "inputs": [],
      "name": "stakingToken",
      "outputs": [
        {
          "internalType": "contract IERC20Detailed",
          "name": "",
          "type": "address"
        }
      ],
      "stateMutability": "view",
      "type": "function"
    },
    {
      "inputs": [],
      "name": "startBlock",
      "outputs": [
        {
          "internalType": "uint256",
          "name": "",
          "type": "uint256"
        }
      ],
      "stateMutability": "view",
      "type": "function"
    },
    {
      "inputs": [],
      "name": "totalStaked",
      "outputs": [
        {
          "internalType": "uint256",
          "name": "",
          "type": "uint256"
        }
      ],
      "stateMutability": "view",
      "type": "function"
    },
    {
      "inputs": [],
      "name": "treasury",
      "outputs": [
        {
          "internalType": "address",
          "name": "",
          "type": "address"
        }
      ],
      "stateMutability": "view",
      "type": "function"
    },
    {
      "inputs": [],
      "name": "updateRewardMultipliers",
      "outputs": [],
      "stateMutability": "nonpayable",
      "type": "function"
    },
    {
      "inputs": [
        {
          "internalType": "address",
          "name": "",
          "type": "address"
        }
      ],
      "name": "userInfo",
      "outputs": [
        {
          "internalType": "uint256",
          "name": "firstStakedBlockNumber",
          "type": "uint256"
        },
        {
          "internalType": "uint256",
          "name": "amountStaked",
          "type": "uint256"
        }
      ],
      "stateMutability": "view",
      "type": "function"
    },
    {
      "inputs": [
        {
          "internalType": "uint256",
          "name": "_tokenAmount",
          "type": "uint256"
        }
      ],
      "name": "withdraw",
      "outputs": [],
      "stateMutability": "nonpayable",
      "type": "function"
    },
    {
      "inputs": [
        {
          "internalType": "address",
          "name": "recipient",
          "type": "address"
        },
        {
          "internalType": "address",
          "name": "lpTokenContract",
          "type": "address"
        }
      ],
      "name": "withdrawLPRewards",
      "outputs": [],
      "stateMutability": "nonpayable",
      "type": "function"
    },
    {
      "inputs": [
        {
          "internalType": "uint256",
          "name": "amount",
          "type": "uint256"
        }
      ],
      "name": "withdrawStake",
      "outputs": [],
      "stateMutability": "nonpayable",
      "type": "function"
    },
    {
      "inputs": [
        {
          "internalType": "uint256",
          "name": "_tokenAmount",
          "type": "uint256"
        }
      ],
      "name": "stake",
      "outputs": [],
      "stateMutability": "nonpayable",
      "type": "function"
    }
  ],
  "bytecode": "0x60e06040523480156200001157600080fd5b50604051620045543803806200455483398181016040526101408110156200003857600080fd5b81019080805190602001909291908051906020019092919080519060200190929190805160405193929190846401000000008211156200007757600080fd5b838201915060208201858111156200008e57600080fd5b8251866020820283011164010000000082111715620000ac57600080fd5b8083526020830192505050908051906020019060200280838360005b83811015620000e5578082015181840152602081019050620000c8565b50505050905001604052602001805160405193929190846401000000008211156200010f57600080fd5b838201915060208201858111156200012657600080fd5b82518660208202830111640100000000821117156200014457600080fd5b8083526020830192505050908051906020019060200280838360005b838110156200017d57808201518184015260208101905062000160565b505050509050016040526020018051906020019092919080519060200190929190805190602001909291908051906020019092919080519060200190929190505050818380868d8d8d8d8d8d8a6001600081905550620001e2620006ab60201b60201c565b86116200023b576040517f08c379a00000000000000000000000000000000000000000000000000000000081526004018080602001828103825260368152602001806200451e6036913960400191505060405180910390fd5b6200024b620006ab60201b60201c565b8511620002a4576040517f08c379a0000000000000000000000000000000000000000000000000000000008152600401808060200182810382526031815260200180620044646031913960400191505060405180910390fd5b835183511462000300576040517f08c379a000000000000000000000000000000000000000000000000000000000815260040180806020018281038252604f81526020018062004495604f913960600191505060405180910390fd5b60008214156200035c576040517f08c379a0000000000000000000000000000000000000000000000000000000008152600401808060200182810382526030815260200180620043e56030913960400191505060405180910390fd5b6000811415620003b8576040517f08c379a000000000000000000000000000000000000000000000000000000000815260040180806020018281038252603a815260200180620044e4603a913960400191505060405180910390fd5b86600460006101000a81548173ffffffffffffffffffffffffffffffffffffffff021916908373ffffffffffffffffffffffffffffffffffffffff160217905550826002908051906020019062000411929190620006b3565b50856005819055508460068190555083600390805190602001906200043892919062000705565b5060055460078190555033600960006101000a81548173ffffffffffffffffffffffffffffffffffffffff021916908373ffffffffffffffffffffffffffffffffffffffff16021790555081600a8190555080600b8190555060005b600380549050811015620004da57600860009080600181540180825580915050600190039060005260206000200160009091909190915055808060010191505062000494565b5050505050505050600073ffffffffffffffffffffffffffffffffffffffff168173ffffffffffffffffffffffffffffffffffffffff1614156200056a576040517f08c379a000000000000000000000000000000000000000000000000000000000815260040180806020018281038252604f81526020018062004415604f913960600191505060405180910390fd5b8073ffffffffffffffffffffffffffffffffffffffff1660808173ffffffffffffffffffffffffffffffffffffffff1660601b8152505050600073ffffffffffffffffffffffffffffffffffffffff168173ffffffffffffffffffffffffffffffffffffffff1614156200062a576040517f08c379a0000000000000000000000000000000000000000000000000000000008152600401808060200182810382526021815260200180620043c46021913960400191505060405180910390fd5b8073ffffffffffffffffffffffffffffffffffffffff1660a08173ffffffffffffffffffffffffffffffffffffffff1660601b81525050508173ffffffffffffffffffffffffffffffffffffffff1660c08173ffffffffffffffffffffffffffffffffffffffff1660601b81525050505050505050505050505050620007f0565b600043905090565b828054828255906000526020600020908101928215620006f2579160200282015b82811115620006f1578251825591602001919060010190620006d4565b5b50905062000701919062000794565b5090565b82805482825590600052602060002090810192821562000781579160200282015b82811115620007805782518260006101000a81548173ffffffffffffffffffffffffffffffffffffffff021916908373ffffffffffffffffffffffffffffffffffffffff1602179055509160200191906001019062000726565b5b509050620007909190620007b3565b5090565b5b80821115620007af57600081600090555060010162000795565b5090565b5b80821115620007ec57600081816101000a81549073ffffffffffffffffffffffffffffffffffffffff021916905550600101620007b4565b5090565b60805160601c60a05160601c60c05160601c613b806200084460003980611101528061126c525080610f415280610fe852806111c552806112f452806120c25250806112d052806127855250613b806000f3fe608060405234801561001057600080fd5b50600436106101fa5760003560e01c806361d027b31161011a578063a694fc3a116100ad578063dd2da2201161007c578063dd2da220146109c0578063df9d777f146109ca578063e9fad8ee14610a2c578063f27d026414610a36578063fb58cad114610a98576101fa565b8063a694fc3a146108ba578063a9f8d181146108e8578063b6d0dcd814610906578063ce4153021461095e576101fa565b8063817b1cd2116100e9578063817b1cd2146107885780639c3705c7146107a6578063a1002a0f146107fe578063a1292aea14610862576101fa565b806361d027b31461068657806370a08231146106ba57806372f702f314610712578063791f39cd14610746576101fa565b8063333609b61161019257806350afa34b1161016157806350afa34b146105d057806356409b81146105fe57806357b4f01f146106325780635ebaf1db14610652576101fa565b8063333609b61461055657806345ef79af1461058a57806348cd4cb1146105a85780634e71d92d146105c6576101fa565b806320e67c76116101ce57806320e67c76146102f257806325d5971f146104dc5780632d9e88e11461050a5780632e1a7d4d14610528576101fa565b806284c927146101ff57806303d1dae014610257578063083c6323146102755780631959a00214610293575b600080fd5b6102416004803603602081101561021557600080fd5b81019080803573ffffffffffffffffffffffffffffffffffffffff169060200190929190505050610ada565b6040518082815260200191505060405180910390f35b61025f610bb4565b6040518082815260200191505060405180910390f35b61027d610bba565b6040518082815260200191505060405180910390f35b6102d5600480360360208110156102a957600080fd5b81019080803573ffffffffffffffffffffffffffffffffffffffff169060200190929190505050610bc0565b604051808381526020018281526020019250505060405180910390f35b6104da6004803603608081101561030857600080fd5b81019080803590602001909291908035906020019064010000000081111561032f57600080fd5b82018360208201111561034157600080fd5b8035906020019184602083028401116401000000008311171561036357600080fd5b919080806020026020016040519081016040528093929190818152602001838360200280828437600081840152601f19601f820116905080830192505050505050509192919290803590602001906401000000008111156103c357600080fd5b8201836020820111156103d557600080fd5b803590602001918460208302840111640100000000831117156103f757600080fd5b919080806020026020016040519081016040528093929190818152602001838360200280828437600081840152601f19601f8201169050808301925050505050505091929192908035906020019064010000000081111561045757600080fd5b82018360208201111561046957600080fd5b8035906020019184602083028401116401000000008311171561048b57600080fd5b919080806020026020016040519081016040528093929190818152602001838360200280828437600081840152601f19601f820116905080830192505050505050509192919290505050610be4565b005b610508600480360360208110156104f257600080fd5b8101908080359060200190929190505050610f3f565b005b61051261105c565b6040518082815260200191505060405180910390f35b6105546004803603602081101561053e57600080fd5b8101908080359060200190929190505050611069565b005b61055e6110ff565b604051808273ffffffffffffffffffffffffffffffffffffffff16815260200191505060405180910390f35b610592611123565b6040518082815260200191505060405180910390f35b6105b0611129565b6040518082815260200191505060405180910390f35b6105ce61112f565b005b6105fc600480360360208110156105e657600080fd5b81019080803590602001909291905050506111c3565b005b610606611294565b604051808273ffffffffffffffffffffffffffffffffffffffff16815260200191505060405180910390f35b61063a6112ba565b60405180821515815260200191505060405180910390f35b61065a6112ce565b604051808273ffffffffffffffffffffffffffffffffffffffff16815260200191505060405180910390f35b61068e6112f2565b604051808273ffffffffffffffffffffffffffffffffffffffff16815260200191505060405180910390f35b6106fc600480360360208110156106d057600080fd5b81019080803573ffffffffffffffffffffffffffffffffffffffff169060200190929190505050611316565b6040518082815260200191505060405180910390f35b61071a611367565b604051808273ffffffffffffffffffffffffffffffffffffffff16815260200191505060405180910390f35b6107726004803603602081101561075c57600080fd5b810190808035906020019092919050505061138d565b6040518082815260200191505060405180910390f35b6107906113ae565b6040518082815260200191505060405180910390f35b6107e8600480360360208110156107bc57600080fd5b81019080803573ffffffffffffffffffffffffffffffffffffffff1690602001909291905050506113b4565b6040518082815260200191505060405180910390f35b6108606004803603604081101561081457600080fd5b81019080803573ffffffffffffffffffffffffffffffffffffffff169060200190929190803573ffffffffffffffffffffffffffffffffffffffff1690602001909291905050506113cc565b005b6108a46004803603602081101561087857600080fd5b81019080803573ffffffffffffffffffffffffffffffffffffffff1690602001909291905050506117f5565b6040518082815260200191505060405180910390f35b6108e6600480360360208110156108d057600080fd5b81019080803590602001909291905050506118cf565b005b6108f06118db565b6040518082815260200191505060405180910390f35b6109326004803603602081101561091c57600080fd5b81019080803590602001909291905050506118e1565b604051808273ffffffffffffffffffffffffffffffffffffffff16815260200191505060405180910390f35b6109aa6004803603604081101561097457600080fd5b81019080803573ffffffffffffffffffffffffffffffffffffffff1690602001909291908035906020019092919050505061191d565b6040518082815260200191505060405180910390f35b6109c8611a0a565b005b610a16600480360360408110156109e057600080fd5b81019080803573ffffffffffffffffffffffffffffffffffffffff16906020019092919080359060200190929190505050611c0a565b6040518082815260200191505060405180910390f35b610a34611e74565b005b610a8260048036036040811015610a4c57600080fd5b81019080803573ffffffffffffffffffffffffffffffffffffffff16906020019092919080359060200190929190505050611f08565b6040518082815260200191505060405180910390f35b610ac460048036036020811015610aae57600080fd5b8101908080359060200190929190505050611ff5565b6040518082815260200191505060405180910390f35b60008073ffffffffffffffffffffffffffffffffffffffff168273ffffffffffffffffffffffffffffffffffffffff161415610b61576040517f08c379a000000000000000000000000000000000000000000000000000000000815260040180806020018281038252602d815260200180613855602d913960400191505060405180910390fd5b6000600c60008473ffffffffffffffffffffffffffffffffffffffff1673ffffffffffffffffffffffffffffffffffffffff16815260200190815260200160002090508060020180549050915050919050565b600b5481565b60065481565b600c6020528060005260406000206000915090508060000154908060010154905082565b600960009054906101000a900473ffffffffffffffffffffffffffffffffffffffff1673ffffffffffffffffffffffffffffffffffffffff163373ffffffffffffffffffffffffffffffffffffffff1614610c8a576040517f08c379a0000000000000000000000000000000000000000000000000000000008152600401808060200182810382526029815260200180613b226029913960400191505060405180910390fd5b610c92612016565b8411610ce9576040517f08c379a0000000000000000000000000000000000000000000000000000000008152600401808060200182810382526027815260200180613ad16027913960400191505060405180910390fd5b600654841015610d44576040517f08c379a00000000000000000000000000000000000000000000000000000000081526004018080602001828103825260358152602001806138d16035913960400191505060405180910390fd5b600380549050835114610da2576040517f08c379a00000000000000000000000000000000000000000000000000000000081526004018080602001828103825260348152602001806139f76034913960400191505060405180910390fd5b610daa611a0a565b60005b8351811015610eb157600060038281548110610dc557fe5b9060005260206000200160009054906101000a900473ffffffffffffffffffffffffffffffffffffffff169050828281518110610dfe57fe5b6020026020010151848381518110610e1257fe5b60200260200101511115610e7457610e7333848481518110610e3057fe5b6020026020010151868581518110610e4457fe5b6020026020010151038373ffffffffffffffffffffffffffffffffffffffff1661201e9092919063ffffffff16565b5b848281518110610e8057fe5b602002602001015160028381548110610e9557fe5b9060005260206000200181905550508080600101915050610dad565b50836006819055507f137c92cc7579cc4d6a2b109467cd475c205d1c136363ca854cc46d72f840d5de84846040518083815260200180602001828103825283818151815260200191508051906020019060200280838360005b83811015610f25578082015181840152602081019050610f0a565b50505050905001935050505060405180910390a150505050565b7f000000000000000000000000000000000000000000000000000000000000000073ffffffffffffffffffffffffffffffffffffffff163373ffffffffffffffffffffffffffffffffffffffff1614610fe3576040517f08c379a00000000000000000000000000000000000000000000000000000000081526004018080602001828103825260288152602001806138a96028913960400191505060405180910390fd5b6110507f000000000000000000000000000000000000000000000000000000000000000082600460009054906101000a900473ffffffffffffffffffffffffffffffffffffffff1673ffffffffffffffffffffffffffffffffffffffff1661201e9092919063ffffffff16565b611059816120c0565b50565b6000600380549050905090565b600260005414156110e2576040517f08c379a000000000000000000000000000000000000000000000000000000000815260040180806020018281038252601f8152602001807f5265656e7472616e637947756172643a207265656e7472616e742063616c6c0081525060200191505060405180910390fd5b60026000819055506110f4813361219e565b600160008190555050565b7f000000000000000000000000000000000000000000000000000000000000000081565b600a5481565b60055481565b600260005414156111a8576040517f08c379a000000000000000000000000000000000000000000000000000000000815260040180806020018281038252601f8152602001807f5265656e7472616e637947756172643a207265656e7472616e742063616c6c0081525060200191505060405180910390fd5b60026000819055506111b933612492565b6001600081905550565b7f000000000000000000000000000000000000000000000000000000000000000073ffffffffffffffffffffffffffffffffffffffff163373ffffffffffffffffffffffffffffffffffffffff1614611267576040517f08c379a00000000000000000000000000000000000000000000000000000000081526004018080602001828103825260288152602001806138a96028913960400191505060405180910390fd5b6112917f000000000000000000000000000000000000000000000000000000000000000082612651565b50565b600960009054906101000a900473ffffffffffffffffffffffffffffffffffffffff1681565b60006005546112c7612016565b1015905090565b7f000000000000000000000000000000000000000000000000000000000000000081565b7f000000000000000000000000000000000000000000000000000000000000000081565b600080600c60008473ffffffffffffffffffffffffffffffffffffffff1673ffffffffffffffffffffffffffffffffffffffff16815260200190815260200160002090508060010154915050919050565b600460009054906101000a900473ffffffffffffffffffffffffffffffffffffffff1681565b6002818154811061139a57fe5b906000526020600020016000915090505481565b60015481565b600d6020528060005260406000206000915090505481565b60026000541415611445576040517f08c379a000000000000000000000000000000000000000000000000000000000815260040180806020018281038252601f8152602001807f5265656e7472616e637947756172643a207265656e7472616e742063616c6c0081525060200191505060405180910390fd5b6002600081905550600960009054906101000a900473ffffffffffffffffffffffffffffffffffffffff1673ffffffffffffffffffffffffffffffffffffffff163373ffffffffffffffffffffffffffffffffffffffff16146114f3576040517f08c379a0000000000000000000000000000000000000000000000000000000008152600401808060200182810382526029815260200180613b226029913960400191505060405180910390fd5b60008173ffffffffffffffffffffffffffffffffffffffff166370a08231306040518263ffffffff1660e01b8152600401808273ffffffffffffffffffffffffffffffffffffffff16815260200191505060206040518083038186803b15801561155c57600080fd5b505afa158015611570573d6000803e3d6000fd5b505050506040513d602081101561158657600080fd5b81019080805190602001909291905050509050600081116115f2576040517f08c379a000000000000000000000000000000000000000000000000000000000815260040180806020018281038252603c815260200180613a95603c913960400191505060405180910390fd5b600460009054906101000a900473ffffffffffffffffffffffffffffffffffffffff1673ffffffffffffffffffffffffffffffffffffffff168273ffffffffffffffffffffffffffffffffffffffff161415611699576040517f08c379a00000000000000000000000000000000000000000000000000000000081526004018080602001828103825260368152602001806139066036913960400191505060405180910390fd5b6000600380549050905060005b8181101561177757600381815481106116bb57fe5b9060005260206000200160009054906101000a900473ffffffffffffffffffffffffffffffffffffffff1673ffffffffffffffffffffffffffffffffffffffff168473ffffffffffffffffffffffffffffffffffffffff16141561176a576040517f08c379a000000000000000000000000000000000000000000000000000000000815260040180806020018281038252603581526020018061393c6035913960400191505060405180910390fd5b80806001019150506116a6565b506117a384838573ffffffffffffffffffffffffffffffffffffffff1661201e9092919063ffffffff16565b8373ffffffffffffffffffffffffffffffffffffffff16827fdf1b625465761dd1a4330a9b3a21d4943183f301036528a3544f8d891fdce2c260405160405180910390a3505060016000819055505050565b60008073ffffffffffffffffffffffffffffffffffffffff168273ffffffffffffffffffffffffffffffffffffffff16141561187c576040517f08c379a000000000000000000000000000000000000000000000000000000000815260040180806020018281038252602d815260200180613971602d913960400191505060405180910390fd5b6000600c60008473ffffffffffffffffffffffffffffffffffffffff1673ffffffffffffffffffffffffffffffffffffffff16815260200190815260200160002090508060030180549050915050919050565b6118d881612783565b50565b60075481565b600381815481106118ee57fe5b906000526020600020016000915054906101000a900473ffffffffffffffffffffffffffffffffffffffff1681565b60008073ffffffffffffffffffffffffffffffffffffffff168373ffffffffffffffffffffffffffffffffffffffff1614156119a4576040517f08c379a0000000000000000000000000000000000000000000000000000000008152600401808060200182810382526027815260200180613a6e6027913960400191505060405180910390fd5b6000600c60008573ffffffffffffffffffffffffffffffffffffffff1673ffffffffffffffffffffffffffffffffffffffff16815260200190815260200160002090508060030183815481106119f657fe5b906000526020600020015491505092915050565b6000611a14612016565b90506007548111611a255750611c08565b60006006548210611a3857600654611a3a565b815b90506000600754820390506000811415611a5657505050611c08565b60006001541415611a705781600781905550505050611c08565b6000600380549050905060005b81811015611bfb57600060038281548110611a9457fe5b9060005260206000200160009054906101000a900473ffffffffffffffffffffffffffffffffffffffff1673ffffffffffffffffffffffffffffffffffffffff1663313ce5676040518163ffffffff1660e01b815260040160206040518083038186803b158015611b0457600080fd5b505afa158015611b18573d6000803e3d6000fd5b505050506040513d6020811015611b2e57600080fd5b810190808051906020019092919050505060ff169050600081600a0a90506000611b7860028581548110611b5e57fe5b90600052602060002001548761285090919063ffffffff16565b90506000611ba3600154611b95858561285090919063ffffffff16565b6128d690919063ffffffff16565b9050611bcf8160088781548110611bb657fe5b906000526020600020015461295f90919063ffffffff16565b60088681548110611bdc57fe5b9060005260206000200181905550505050508080600101915050611a7d565b5082600781905550505050505b565b600080611c15612016565b905060006006548210611c2a57600654611c2c565b815b90506000611c45600754836129e790919063ffffffff16565b9050600060038681548110611c5657fe5b9060005260206000200160009054906101000a900473ffffffffffffffffffffffffffffffffffffffff1673ffffffffffffffffffffffffffffffffffffffff1663313ce5676040518163ffffffff1660e01b815260040160206040518083038186803b158015611cc657600080fd5b505afa158015611cda573d6000803e3d6000fd5b505050506040513d6020811015611cf057600080fd5b810190808051906020019092919050505060ff169050600081600a0a90506000611d3a60028981548110611d2057fe5b90600052602060002001548561285090919063ffffffff16565b90506000611d65600154611d57858561285090919063ffffffff16565b6128d690919063ffffffff16565b90506000611d938260088c81548110611d7a57fe5b906000526020600020015461295f90919063ffffffff16565b90506000600c60008d73ffffffffffffffffffffffffffffffffffffffff1673ffffffffffffffffffffffffffffffffffffffff16815260200190815260200160002090506000611e0386611df585856001015461285090919063ffffffff16565b6128d690919063ffffffff16565b90506000611e33836002018e81548110611e1957fe5b9060005260206000200154836129e790919063ffffffff16565b9050611e6181846003018f81548110611e4857fe5b906000526020600020015461295f90919063ffffffff16565b9b50505050505050505050505092915050565b60026000541415611eed576040517f08c379a000000000000000000000000000000000000000000000000000000000815260040180806020018281038252601f8152602001807f5265656e7472616e637947756172643a207265656e7472616e742063616c6c0081525060200191505060405180910390fd5b6002600081905550611efe33612a6a565b6001600081905550565b60008073ffffffffffffffffffffffffffffffffffffffff168373ffffffffffffffffffffffffffffffffffffffff161415611f8f576040517f08c379a00000000000000000000000000000000000000000000000000000000081526004018080602001828103825260278152602001806138826027913960400191505060405180910390fd5b6000600c60008573ffffffffffffffffffffffffffffffffffffffff1673ffffffffffffffffffffffffffffffffffffffff1681526020019081526020016000209050806002018381548110611fe157fe5b906000526020600020015491505092915050565b6008818154811061200257fe5b906000526020600020016000915090505481565b600043905090565b6120bb8363a9059cbb60e01b8484604051602401808373ffffffffffffffffffffffffffffffffffffffff16815260200182815260200192505050604051602081830303815290604052907bffffffffffffffffffffffffffffffffffffffffffffffffffffffff19166020820180517bffffffffffffffffffffffffffffffffffffffffffffffffffffffff8381831617835250505050612b1a565b505050565b7f000000000000000000000000000000000000000000000000000000000000000073ffffffffffffffffffffffffffffffffffffffff163373ffffffffffffffffffffffffffffffffffffffff1614612164576040517f08c379a00000000000000000000000000000000000000000000000000000000081526004018080602001828103825260288152602001806138a96028913960400191505060405180910390fd5b7fa78b9f12a7da0df7ced737c5f83d0c05723bb5f43aab37e233b8627104148472816040518082815260200191505060405180910390a150565b60008211612214576040517f08c379a000000000000000000000000000000000000000000000000000000000815260040180806020018281038252601b8152602001807f57697468647261773a3a43616e6e6f742077697468647261772030000000000081525060200191505060405180910390fd5b6000600c60008373ffffffffffffffffffffffffffffffffffffffff1673ffffffffffffffffffffffffffffffffffffffff168152602001908152602001600020905061225f611a0a565b61226882612d65565b61227f8382600101546129e790919063ffffffff16565b816001018190555061229c836001546129e790919063ffffffff16565b6001819055506000600380549050905060005b818110156123f0576000600382815481106122c657fe5b9060005260206000200160009054906101000a900473ffffffffffffffffffffffffffffffffffffffff1673ffffffffffffffffffffffffffffffffffffffff1663313ce5676040518163ffffffff1660e01b815260040160206040518083038186803b15801561233657600080fd5b505afa15801561234a573d6000803e3d6000fd5b505050506040513d602081101561236057600080fd5b810190808051906020019092919050505060ff169050600081600a0a905060006123c0826123b26008878154811061239457fe5b9060005260206000200154896001015461285090919063ffffffff16565b6128d690919063ffffffff16565b9050808660020185815481106123d257fe5b906000526020600020018190555050505080806001019150506122af565b5061243e8385600460009054906101000a900473ffffffffffffffffffffffffffffffffffffffff1673ffffffffffffffffffffffffffffffffffffffff1661201e9092919063ffffffff16565b8273ffffffffffffffffffffffffffffffffffffffff167f7084f5476618d8e60b11ef0d7d3f06914655adb8793e28ff7f018d4c76d505d5856040518082815260200191505060405180910390a250505050565b6000600c60008373ffffffffffffffffffffffffffffffffffffffff1673ffffffffffffffffffffffffffffffffffffffff16815260200190815260200160002090506124dd611a0a565b6124e682612d65565b6000600380549050905060005b8181101561264b57600083600301828154811061250c57fe5b90600052602060002001549050600084600301838154811061252a57fe5b906000526020600020018190555061259a85826003858154811061254a57fe5b9060005260206000200160009054906101000a900473ffffffffffffffffffffffffffffffffffffffff1673ffffffffffffffffffffffffffffffffffffffff1661201e9092919063ffffffff16565b8473ffffffffffffffffffffffffffffffffffffffff167f7e6632ca16a0ac6cf28448500b1a17d96c8b8163ad4c4a9b44ef5386cc02779e82600385815481106125e057fe5b9060005260206000200160009054906101000a900473ffffffffffffffffffffffffffffffffffffffff16604051808381526020018273ffffffffffffffffffffffffffffffffffffffff1681526020019250505060405180910390a25080806001019150506124f3565b50505050565b61267e3330838573ffffffffffffffffffffffffffffffffffffffff16612e00909392919063ffffffff16565b6126d081600d60008573ffffffffffffffffffffffffffffffffffffffff1673ffffffffffffffffffffffffffffffffffffffff1681526020019081526020016000205461295f90919063ffffffff16565b600d60008473ffffffffffffffffffffffffffffffffffffffff1673ffffffffffffffffffffffffffffffffffffffff168152602001908152602001600020819055503373ffffffffffffffffffffffffffffffffffffffff167f3ca3e2b750b23b0fb33120646ef2418edd82a6576afaa67069cfb626f08ca7dc8383604051808373ffffffffffffffffffffffffffffffffffffffff1681526020018281526020019250505060405180910390a25050565b7f000000000000000000000000000000000000000000000000000000000000000073ffffffffffffffffffffffffffffffffffffffff163373ffffffffffffffffffffffffffffffffffffffff1614612844576040517f08c379a000000000000000000000000000000000000000000000000000000000815260040180806020018281038252601c8152602001807f6f6e6c795374616b65723a3a696e636f7272656374207374616b65720000000081525060200191505060405180910390fd5b61284d81612ec1565b50565b60008083141561286357600090506128d0565b600082840290508284828161287457fe5b04146128cb576040517f08c379a0000000000000000000000000000000000000000000000000000000008152600401808060200182810382526021815260200180613a4d6021913960400191505060405180910390fd5b809150505b92915050565b600080821161294d576040517f08c379a000000000000000000000000000000000000000000000000000000000815260040180806020018281038252601a8152602001807f536166654d6174683a206469766973696f6e206279207a65726f00000000000081525060200191505060405180910390fd5b81838161295657fe5b04905092915050565b6000808284019050838110156129dd576040517f08c379a000000000000000000000000000000000000000000000000000000000815260040180806020018281038252601b8152602001807f536166654d6174683a206164646974696f6e206f766572666c6f77000000000081525060200191505060405180910390fd5b8091505092915050565b600082821115612a5f576040517f08c379a000000000000000000000000000000000000000000000000000000000815260040180806020018281038252601e8152602001807f536166654d6174683a207375627472616374696f6e206f766572666c6f77000081525060200191505060405180910390fd5b818303905092915050565b6000600c60008373ffffffffffffffffffffffffffffffffffffffff1673ffffffffffffffffffffffffffffffffffffffff1681526020019081526020016000209050612ab682612492565b612ac481600101548361219e565b8173ffffffffffffffffffffffffffffffffffffffff167f920bb94eb3842a728db98228c375ff6b00c5bc5a54fac6736155517a0a20a61a82600101546040518082815260200191505060405180910390a25050565b612b398273ffffffffffffffffffffffffffffffffffffffff16612f59565b612bab576040517f08c379a000000000000000000000000000000000000000000000000000000000815260040180806020018281038252601f8152602001807f5361666545524332303a2063616c6c20746f206e6f6e2d636f6e74726163740081525060200191505060405180910390fd5b600060608373ffffffffffffffffffffffffffffffffffffffff16836040518082805190602001908083835b60208310612bfa5780518252602082019150602081019050602083039250612bd7565b6001836020036101000a0380198251168184511680821785525050505050509050019150506000604051808303816000865af19150503d8060008114612c5c576040519150601f19603f3d011682016040523d82523d6000602084013e612c61565b606091505b509150915081612cd9576040517f08c379a00000000000000000000000000000000000000000000000000000000081526004018080602001828103825260208152602001807f5361666545524332303a206c6f772d6c6576656c2063616c6c206661696c656481525060200191505060405180910390fd5b600081511115612d5f57808060200190516020811015612cf857600080fd5b8101908080519060200190929190505050612d5e576040517f08c379a000000000000000000000000000000000000000000000000000000000815260040180806020018281038252602a815260200180613af8602a913960400191505060405180910390fd5b5b50505050565b6000600c60008373ffffffffffffffffffffffffffffffffffffffff1673ffffffffffffffffffffffffffffffffffffffff1681526020019081526020016000209050612db182612f6c565b612dba82613028565b600081600101541415612dcd5750612dfd565b6000600380549050905060005b81811015612df957612dec84826130e4565b8080600101915050612dda565b5050505b50565b612ebb846323b872dd60e01b858585604051602401808473ffffffffffffffffffffffffffffffffffffffff1681526020018373ffffffffffffffffffffffffffffffffffffffff1681526020018281526020019350505050604051602081830303815290604052907bffffffffffffffffffffffffffffffffffffffffffffffffffffffff19166020820180517bffffffffffffffffffffffffffffffffffffffffffffffffffffffff8381831617835250505050612b1a565b50505050565b60026000541415612f3a576040517f08c379a000000000000000000000000000000000000000000000000000000000815260040180806020018281038252601f8152602001807f5265656e7472616e637947756172643a207265656e7472616e742063616c6c0081525060200191505060405180910390fd5b6002600081905550612f4e813360016132dc565b600160008190555050565b600080823b905060008111915050919050565b6000600c60008373ffffffffffffffffffffffffffffffffffffffff1673ffffffffffffffffffffffffffffffffffffffff168152602001908152602001600020905060038054905081600201805490501415612fc95750613025565b600060038054905090506000826002018054905090505b818110156130215782600201600090806001815401808255809150506001900390600052602060002001600090919091909150558080600101915050612fe0565b5050505b50565b6000600c60008373ffffffffffffffffffffffffffffffffffffffff1673ffffffffffffffffffffffffffffffffffffffff16815260200190815260200160002090506003805490508160030180549050141561308557506130e1565b600060038054905090506000826003018054905090505b818110156130dd578260030160009080600181540180825580915050600190039060005260206000200160009091909190915055808060010191505061309c565b5050505b50565b6000600c60008473ffffffffffffffffffffffffffffffffffffffff1673ffffffffffffffffffffffffffffffffffffffff168152602001908152602001600020905060006003838154811061313657fe5b9060005260206000200160009054906101000a900473ffffffffffffffffffffffffffffffffffffffff1673ffffffffffffffffffffffffffffffffffffffff1663313ce5676040518163ffffffff1660e01b815260040160206040518083038186803b1580156131a657600080fd5b505afa1580156131ba573d6000803e3d6000fd5b505050506040513d60208110156131d057600080fd5b810190808051906020019092919050505060ff169050600081600a0a90506000613230826132226008888154811061320457fe5b9060005260206000200154876001015461285090919063ffffffff16565b6128d690919063ffffffff16565b9050600061326085600201878154811061324657fe5b9060005260206000200154836129e790919063ffffffff16565b905060008111156132d3576132978186600301888154811061327e57fe5b906000526020600020015461295f90919063ffffffff16565b8560030187815481106132a657fe5b9060005260206000200181905550818560020187815481106132c457fe5b90600052602060002001819055505b50505050505050565b60006132e6612016565b90506005548111613342576040517f08c379a0000000000000000000000000000000000000000000000000000000008152600401808060200182810382526022815260200180613a2b6022913960400191505060405180910390fd5b6006548111156133ba576040517f08c379a000000000000000000000000000000000000000000000000000000000815260040180806020018281038252601b8152602001807f5374616b653a3a5374616b696e67206861732066696e6973686564000000000081525060200191505060405180910390fd5b82846000600c60008473ffffffffffffffffffffffffffffffffffffffff1673ffffffffffffffffffffffffffffffffffffffff1681526020019081526020016000209050600a5461341983836001015461295f90919063ffffffff16565b1115613470576040517f08c379a00000000000000000000000000000000000000000000000000000000081526004018080602001828103825260288152602001806139cf6028913960400191505060405180910390fd5b600b546134888360015461295f90919063ffffffff16565b11156134df576040517f08c379a000000000000000000000000000000000000000000000000000000000815260040180806020018281038252603181526020018061399e6031913960400191505060405180910390fd5b60008711613555576040517f08c379a00000000000000000000000000000000000000000000000000000000081526004018080602001828103825260158152602001807f5374616b653a3a43616e6e6f74207374616b652030000000000000000000000081525060200191505060405180910390fd5b6000600c60008873ffffffffffffffffffffffffffffffffffffffff1673ffffffffffffffffffffffffffffffffffffffff16815260200190815260200160002090506000816001015414156135af576135ae876137fd565b5b6135b7611a0a565b6135c087612d65565b6135d788826001015461295f90919063ffffffff16565b81600101819055506135f48860015461295f90919063ffffffff16565b6001819055506000600380549050905060005b818110156137485760006003828154811061361e57fe5b9060005260206000200160009054906101000a900473ffffffffffffffffffffffffffffffffffffffff1673ffffffffffffffffffffffffffffffffffffffff1663313ce5676040518163ffffffff1660e01b815260040160206040518083038186803b15801561368e57600080fd5b505afa1580156136a2573d6000803e3d6000fd5b505050506040513d60208110156136b857600080fd5b810190808051906020019092919050505060ff169050600081600a0a905060006137188261370a600887815481106136ec57fe5b9060005260206000200154896001015461285090919063ffffffff16565b6128d690919063ffffffff16565b90508086600201858154811061372a57fe5b90600052602060002001819055505050508080600101915050613607565b506137a4876137575733613759565b885b308b600460009054906101000a900473ffffffffffffffffffffffffffffffffffffffff1673ffffffffffffffffffffffffffffffffffffffff16612e00909392919063ffffffff16565b8773ffffffffffffffffffffffffffffffffffffffff167f9e71bc8eea02a63969f509818f2dafb9254532904319f9dbda79b67bd34a5f3d8a6040518082815260200191505060405180910390a2505050505050505050565b6000600c60008373ffffffffffffffffffffffffffffffffffffffff1673ffffffffffffffffffffffffffffffffffffffff1681526020019081526020016000209050613848612016565b8160000181905550505056fe47657455736572526577617264446562744c656e6774683a3a496e76616c69642075736572206164647265737347657455736572526577617264446562743a3a496e76616c6964207573657220616464726573736f6e6c7954726561737572793a3a4e6f742063616c6c656420627920746865207472656173757279457874656e643a3a456e6420626c6f636b206d757374206265206166746572207468652063757272656e7420656e6420626c6f636b57697468647261774c50526577617264733a3a2063616e6e6f742077697468647261772066726f6d20746865204c5020746f6b656e7357697468647261774c50526577617264733a3a43616e6e6f742077697468647261772066726f6d20746f6b656e207265776172647347657455736572546f6b656e734f7765644c656e6774683a3a496e76616c6964207573657220616464726573736f6e6c79556e6465725374616b654c696d69743a3a436f6e7472616374205374616b65206c696d697420726561636865646f6e6c79556e6465725374616b654c696d69743a3a5374616b65206c696d69742072656163686564457874656e643a3a5265776172647320616d6f756e7473206c656e677468206973206c657373207468616e2065787065637465645374616b653a3a5374616b696e6720686173206e6f74207965742073746172746564536166654d6174683a206d756c7469706c69636174696f6e206f766572666c6f77476574557365724f776564546f6b656e733a3a496e76616c69642075736572206164647265737357697468647261774c50526577617264733a3a546865726520617265206e6f20726577617264732066726f6d206c697175696469747920706f6f6c73457874656e643a3a456e6420626c6f636b206d75737420626520696e20746865206675747572655361666545524332303a204552433230206f7065726174696f6e20646964206e6f74207375636365656443616c6c6572206973206e6f742052657761726473506f6f6c466163746f727920636f6e7472616374a2646970667358221220db51bc80e2a3181e43614b2f2097a24101a4209224e9e56a3c2115004f7ab03b64736f6c634300060c003373657454726561737572793a3a54726561737572792063616e6e6f742062652030436f6e7374727563746f723a3a5374616b65206c696d6974206e6565647320746f206265206d6f7265207468616e20304f6e655374616b6572466561747572653a3a73657453636f6e7374727563746f7274616b6572206e6577207374616b657220616464726573732063616e2774206265207a65726f2061646472657373436f6e7374727563746f723a3a54686520656e6420626c6f636b206d75737420626520696e20746865206675747572652e436f6e7374727563746f723a3a526577617264732070657220626c6f636b20616e64207265776172647320746f6b656e73206d7573742062652077697468207468652073616d65206c656e6774682e436f6e7374727563746f723a3a20436f6e7472616374205374616b65206c696d6974206e6565647320746f206265206d6f7265207468616e2030436f6e7374727563746f723a3a546865207374617274696e6720626c6f636b206d75737420626520696e20746865206675747572652e",
  "source": "// SPDX-License-Identifier: MIT\n\npragma solidity 0.6.12;\n\nimport \"./../RewardsPoolBase.sol\";\nimport \"./../pool-features/OneStakerFeature.sol\";\nimport \"./../pool-features/TreasuryOperatedFeature.sol\";\n\ncontract CompoundingRewardsPool is RewardsPoolBase, OneStakerFeature, TreasuryOperatedFeature {\n\tconstructor(\n\t\tIERC20Detailed _stakingToken,\n\t\tuint256 _startBlock,\n\t\tuint256 _endBlock,\n\t\taddress[] memory _rewardsTokens,\n\t\tuint256[] memory _rewardPerBlock,\n\t\tuint256 _stakeLimit,\n\t\taddress _staker,\n\t\taddress _treasury,\n\t\taddress _externalRewardToken,\n\t\tuint256 _contractStakeLimit\n\t) public RewardsPoolBase(_stakingToken, _startBlock, _endBlock, _rewardsTokens, _rewardPerBlock, _stakeLimit, _contractStakeLimit) OneStakerFeature(_staker) TreasuryOperatedFeature(_externalRewardToken, _treasury) {\n\t}\n\n\tfunction stake(uint256 _tokenAmount) public override(RewardsPoolBase, OneStakerFeature) {\n\t\tOneStakerFeature.stake(_tokenAmount);\n\t}\n}",
  "sourcePath": "/home/hellowodl/lmaas-liquidity-staker/contracts/V2/CompoundingRewardsPool.sol",
  "compiler": {
    "name": "solc",
    "version": "0.6.12+commit.27d51765.Emscripten.clang",
    "optimizer": false,
    "runs": 200
  },
  "schemaVersion": "2.3.5",
  "updatedAt": "2021-04-27T17:14:31.155Z"
}