{
  "contractName": "LimitedAutoStake",
  "abi": [
    {
      "inputs": [
        {
          "internalType": "address",
          "name": "token",
          "type": "address"
        },
        {
          "internalType": "uint256",
          "name": "_throttleRoundBlocks",
          "type": "uint256"
        },
        {
          "internalType": "uint256",
          "name": "_throttleRoundCap",
          "type": "uint256"
        },
        {
          "internalType": "uint256",
          "name": "stakeEnd",
          "type": "uint256"
        },
        {
          "internalType": "uint256",
          "name": "_stakeLimit",
          "type": "uint256"
        }
      ],
      "stateMutability": "nonpayable",
      "type": "constructor"
    },
    {
      "anonymous": false,
      "inputs": [
        {
          "indexed": false,
          "internalType": "address",
          "name": "user",
          "type": "address"
        },
        {
          "indexed": false,
          "internalType": "uint256",
          "name": "stake",
          "type": "uint256"
        }
      ],
      "name": "ExitCompleted",
      "type": "event"
    },
    {
      "anonymous": false,
      "inputs": [
        {
          "indexed": false,
          "internalType": "address",
          "name": "user",
          "type": "address"
        },
        {
          "indexed": false,
          "internalType": "uint256",
          "name": "exitBlock",
          "type": "uint256"
        }
      ],
      "name": "ExitRequested",
      "type": "event"
    },
    {
      "anonymous": false,
      "inputs": [
        {
          "indexed": true,
          "internalType": "address",
          "name": "previousOwner",
          "type": "address"
        },
        {
          "indexed": true,
          "internalType": "address",
          "name": "newOwner",
          "type": "address"
        }
      ],
      "name": "OwnershipTransferred",
      "type": "event"
    },
    {
      "anonymous": false,
      "inputs": [
        {
          "indexed": true,
          "internalType": "address",
          "name": "user",
          "type": "address"
        },
        {
          "indexed": false,
          "internalType": "uint256",
          "name": "amount",
          "type": "uint256"
        },
        {
          "indexed": false,
          "internalType": "uint256",
          "name": "sharesIssued",
          "type": "uint256"
        },
        {
          "indexed": false,
          "internalType": "uint256",
          "name": "oldShareVaule",
          "type": "uint256"
        },
        {
          "indexed": false,
          "internalType": "uint256",
          "name": "newShareValue",
          "type": "uint256"
        },
        {
          "indexed": false,
          "internalType": "uint256",
          "name": "balanceOf",
          "type": "uint256"
        }
      ],
      "name": "Staked",
      "type": "event"
    },
    {
      "inputs": [
        {
          "internalType": "address",
          "name": "who",
          "type": "address"
        }
      ],
      "name": "balanceOf",
      "outputs": [
        {
          "internalType": "uint256",
          "name": "",
          "type": "uint256"
        }
      ],
      "stateMutability": "view",
      "type": "function"
    },
    {
      "inputs": [],
      "name": "completeExit",
      "outputs": [],
      "stateMutability": "nonpayable",
      "type": "function"
    },
    {
      "inputs": [],
      "name": "exit",
      "outputs": [],
      "stateMutability": "nonpayable",
      "type": "function"
    },
    {
      "inputs": [
        {
          "internalType": "address",
          "name": "",
          "type": "address"
        }
      ],
      "name": "exitInfo",
      "outputs": [
        {
          "internalType": "uint256",
          "name": "exitBlock",
          "type": "uint256"
        },
        {
          "internalType": "uint256",
          "name": "exitStake",
          "type": "uint256"
        }
      ],
      "stateMutability": "view",
      "type": "function"
    },
    {
      "inputs": [],
      "name": "exitStake",
      "outputs": [
        {
          "internalType": "uint256",
          "name": "",
          "type": "uint256"
        }
      ],
      "stateMutability": "view",
      "type": "function"
    },
    {
      "inputs": [],
      "name": "factory",
      "outputs": [
        {
          "internalType": "address",
          "name": "",
          "type": "address"
        }
      ],
      "stateMutability": "view",
      "type": "function"
    },
    {
      "inputs": [
        {
          "internalType": "uint256",
          "name": "tokenIndex",
          "type": "uint256"
        }
      ],
      "name": "getPendingReward",
      "outputs": [
        {
          "internalType": "uint256",
          "name": "",
          "type": "uint256"
        }
      ],
      "stateMutability": "view",
      "type": "function"
    },
    {
      "inputs": [],
      "name": "lockEndBlock",
      "outputs": [
        {
          "internalType": "uint256",
          "name": "",
          "type": "uint256"
        }
      ],
      "stateMutability": "view",
      "type": "function"
    },
    {
      "inputs": [],
      "name": "nextAvailableExitBlock",
      "outputs": [
        {
          "internalType": "uint256",
          "name": "",
          "type": "uint256"
        }
      ],
      "stateMutability": "view",
      "type": "function"
    },
    {
      "inputs": [],
      "name": "nextAvailableRoundExitVolume",
      "outputs": [
        {
          "internalType": "uint256",
          "name": "",
          "type": "uint256"
        }
      ],
      "stateMutability": "view",
      "type": "function"
    },
    {
      "inputs": [],
      "name": "owner",
      "outputs": [
        {
          "internalType": "address",
          "name": "",
          "type": "address"
        }
      ],
      "stateMutability": "view",
      "type": "function"
    },
    {
      "inputs": [],
      "name": "refreshAutoStake",
      "outputs": [],
      "stateMutability": "nonpayable",
      "type": "function"
    },
    {
      "inputs": [],
      "name": "renounceOwnership",
      "outputs": [],
      "stateMutability": "nonpayable",
      "type": "function"
    },
    {
      "inputs": [],
      "name": "rewardPool",
      "outputs": [
        {
          "internalType": "contract IRewardsPoolBase",
          "name": "",
          "type": "address"
        }
      ],
      "stateMutability": "view",
      "type": "function"
    },
    {
      "inputs": [
        {
          "internalType": "address",
          "name": "pool",
          "type": "address"
        }
      ],
      "name": "setPool",
      "outputs": [],
      "stateMutability": "nonpayable",
      "type": "function"
    },
    {
      "inputs": [
        {
          "internalType": "address",
          "name": "",
          "type": "address"
        }
      ],
      "name": "share",
      "outputs": [
        {
          "internalType": "uint256",
          "name": "",
          "type": "uint256"
        }
      ],
      "stateMutability": "view",
      "type": "function"
    },
    {
      "inputs": [],
      "name": "stakeLimit",
      "outputs": [
        {
          "internalType": "uint256",
          "name": "",
          "type": "uint256"
        }
      ],
      "stateMutability": "view",
      "type": "function"
    },
    {
      "inputs": [],
      "name": "stakingToken",
      "outputs": [
        {
          "internalType": "contract IERC20Detailed",
          "name": "",
          "type": "address"
        }
      ],
      "stateMutability": "view",
      "type": "function"
    },
    {
      "inputs": [],
      "name": "throttleRoundBlocks",
      "outputs": [
        {
          "internalType": "uint256",
          "name": "",
          "type": "uint256"
        }
      ],
      "stateMutability": "view",
      "type": "function"
    },
    {
      "inputs": [],
      "name": "throttleRoundCap",
      "outputs": [
        {
          "internalType": "uint256",
          "name": "",
          "type": "uint256"
        }
      ],
      "stateMutability": "view",
      "type": "function"
    },
    {
      "inputs": [],
      "name": "totalShares",
      "outputs": [
        {
          "internalType": "uint256",
          "name": "",
          "type": "uint256"
        }
      ],
      "stateMutability": "view",
      "type": "function"
    },
    {
      "inputs": [],
      "name": "totalValue",
      "outputs": [
        {
          "internalType": "uint256",
          "name": "",
          "type": "uint256"
        }
      ],
      "stateMutability": "view",
      "type": "function"
    },
    {
      "inputs": [
        {
          "internalType": "address",
          "name": "newOwner",
          "type": "address"
        }
      ],
      "name": "transferOwnership",
      "outputs": [],
      "stateMutability": "nonpayable",
      "type": "function"
    },
    {
      "inputs": [],
      "name": "unit",
      "outputs": [
        {
          "internalType": "uint256",
          "name": "",
          "type": "uint256"
        }
      ],
      "stateMutability": "view",
      "type": "function"
    },
    {
      "inputs": [],
      "name": "valuePerShare",
      "outputs": [
        {
          "internalType": "uint256",
          "name": "",
          "type": "uint256"
        }
      ],
      "stateMutability": "view",
      "type": "function"
    },
    {
      "inputs": [
        {
          "internalType": "uint256",
          "name": "amount",
          "type": "uint256"
        }
      ],
      "name": "stake",
      "outputs": [],
      "stateMutability": "nonpayable",
      "type": "function"
    }
  ],
  "bytecode": "0x610100604052670de0b6b3a76400006008553480156200001e57600080fd5b5060405162002daa38038062002daa833981810160405260a08110156200004457600080fd5b81019080805190602001909291908051906020019092919080519060200190929190805190602001909291908051906020019092919050505084848484806001600081905550438111620000e4576040517f08c379a000000000000000000000000000000000000000000000000000000000815260040180806020018281038252602e81526020018062002d43602e913960400191505060405180910390fd5b8060808181525050506000620000ff6200029260201b60201c565b905080600660006101000a81548173ffffffffffffffffffffffffffffffffffffffff021916908373ffffffffffffffffffffffffffffffffffffffff1602179055508073ffffffffffffffffffffffffffffffffffffffff16600073ffffffffffffffffffffffffffffffffffffffff167f8be0079c531659141344cd1fd0a4f28419497f9722a3daafe3b4186f6b6457e060405160405180910390a3503373ffffffffffffffffffffffffffffffffffffffff1660c08173ffffffffffffffffffffffffffffffffffffffff1660601b815250508373ffffffffffffffffffffffffffffffffffffffff1660a08173ffffffffffffffffffffffffffffffffffffffff1660601b815250506200021f8383836200029a60201b60201c565b5050505060008114156200027f576040517f08c379a000000000000000000000000000000000000000000000000000000000815260040180806020018281038252603981526020018062002d716039913960400191505060405180910390fd5b8060e0818152505050505050506200047a565b600033905090565b60008311620002f5576040517f08c379a000000000000000000000000000000000000000000000000000000000815260040180806020018281038252603681526020018062002d0d6036913960400191505060405180910390fd5b6000821162000350576040517f08c379a000000000000000000000000000000000000000000000000000000000815260040180806020018281038252603381526020018062002ca96033913960400191505060405180910390fd5b60006003541480156200036557506000600454145b620003bc576040517f08c379a000000000000000000000000000000000000000000000000000000000815260040180806020018281038252603181526020018062002cdc6031913960400191505060405180910390fd5b8260038190555081600481905550620003e660035482620003f160201b620012141790919060201c565b600181905550505050565b60008082840190508381101562000470576040517f08c379a000000000000000000000000000000000000000000000000000000000815260040180806020018281038252601b8152602001807f536166654d6174683a206164646974696f6e206f766572666c6f77000000000081525060200191505060405180910390fd5b8091505092915050565b60805160a05160601c60c05160601c60e0516127c1620004e8600039806107bf5280610b13525080610dac525080610a625280610d0b528061164252806118a452806119735280611a6d5280611ada5280611da5525080610a865280610bad5280610dd652506127c16000f3fe608060405234801561001057600080fd5b506004361061018e5760003560e01c80638587edbb116100de578063b540652e11610097578063d4c3eea011610071578063d4c3eea014610552578063e9fad8ee14610570578063ee483cdf1461057a578063f2fde38b146105985761018e565b8063b540652e146104f6578063c0a239e314610500578063c45a01551461051e5761018e565b80638587edbb146103ef5780638da5cb5b1461040d578063907af6c01461044157806394f664171461045f578063a694fc3a146104be578063b01eb660146104ec5761018e565b80634ff3306f1161014b57806370a082311161012557806370a0823114610317578063715018a61461036f5780637211bbc91461037957806372f702f3146103bb5761018e565b80634ff3306f146102a757806366666aa9146102c55780636eb957df146102f95761018e565b80631877bb5c146101935780631c1f9cc0146101eb5780633882f742146102095780633a98ef39146102275780634437152a1461024557806345ef79af14610289575b600080fd5b6101d5600480360360208110156101a957600080fd5b81019080803573ffffffffffffffffffffffffffffffffffffffff1690602001909291905050506105dc565b6040518082815260200191505060405180910390f35b6101f36105f4565b6040518082815260200191505060405180910390f35b6102116105fa565b6040518082815260200191505060405180910390f35b61022f610600565b6040518082815260200191505060405180910390f35b6102876004803603602081101561025b57600080fd5b81019080803573ffffffffffffffffffffffffffffffffffffffff169060200190929190505050610606565b005b6102916107bd565b6040518082815260200191505060405180910390f35b6102af6107e1565b6040518082815260200191505060405180910390f35b6102cd6107e7565b604051808273ffffffffffffffffffffffffffffffffffffffff16815260200191505060405180910390f35b61030161080d565b6040518082815260200191505060405180910390f35b6103596004803603602081101561032d57600080fd5b81019080803573ffffffffffffffffffffffffffffffffffffffff169060200190929190505050610813565b6040518082815260200191505060405180910390f35b61037761088a565b005b6103a56004803603602081101561038f57600080fd5b81019080803590602001909291905050506109fa565b6040518082815260200191505060405180910390f35b6103c3610a60565b604051808273ffffffffffffffffffffffffffffffffffffffff16815260200191505060405180910390f35b6103f7610a84565b6040518082815260200191505060405180910390f35b610415610aa8565b604051808273ffffffffffffffffffffffffffffffffffffffff16815260200191505060405180910390f35b610449610ad2565b6040518082815260200191505060405180910390f35b6104a16004803603602081101561047557600080fd5b81019080803573ffffffffffffffffffffffffffffffffffffffff169060200190929190505050610ade565b604051808381526020018281526020019250505060405180910390f35b6104ea600480360360208110156104d457600080fd5b8101908080359060200190929190505050610b02565b005b6104f4610bab565b005b6104fe610d8a565b005b610508610da4565b6040518082815260200191505060405180910390f35b610526610daa565b604051808273ffffffffffffffffffffffffffffffffffffffff16815260200191505060405180910390f35b61055a610dce565b6040518082815260200191505060405180910390f35b610578610dd4565b005b610582611019565b6040518082815260200191505060405180910390f35b6105da600480360360208110156105ae57600080fd5b81019080803573ffffffffffffffffffffffffffffffffffffffff16906020019092919050505061101f565b005b600c6020528060005260406000206000915090505481565b60015481565b600b5481565b60095481565b61060e61129c565b73ffffffffffffffffffffffffffffffffffffffff1661062c610aa8565b73ffffffffffffffffffffffffffffffffffffffff16146106b5576040517f08c379a00000000000000000000000000000000000000000000000000000000081526004018080602001828103825260208152602001807f4f776e61626c653a2063616c6c6572206973206e6f7420746865206f776e657281525060200191505060405180910390fd5b600073ffffffffffffffffffffffffffffffffffffffff16600760009054906101000a900473ffffffffffffffffffffffffffffffffffffffff1673ffffffffffffffffffffffffffffffffffffffff1614610779576040517f08c379a00000000000000000000000000000000000000000000000000000000081526004018080602001828103825260178152602001807f52657761726420706f6f6c20616c72656164792073657400000000000000000081525060200191505060405180910390fd5b80600760006101000a81548173ffffffffffffffffffffffffffffffffffffffff021916908373ffffffffffffffffffffffffffffffffffffffff16021790555050565b7f000000000000000000000000000000000000000000000000000000000000000081565b60045481565b600760009054906101000a900473ffffffffffffffffffffffffffffffffffffffff1681565b60035481565b6000610883670de0b6b3a7640000610875600c60008673ffffffffffffffffffffffffffffffffffffffff1673ffffffffffffffffffffffffffffffffffffffff168152602001908152602001600020546008546112a490919063ffffffff16565b61132a90919063ffffffff16565b9050919050565b61089261129c565b73ffffffffffffffffffffffffffffffffffffffff166108b0610aa8565b73ffffffffffffffffffffffffffffffffffffffff1614610939576040517f08c379a00000000000000000000000000000000000000000000000000000000081526004018080602001828103825260208152602001807f4f776e61626c653a2063616c6c6572206973206e6f7420746865206f776e657281525060200191505060405180910390fd5b600073ffffffffffffffffffffffffffffffffffffffff16600660009054906101000a900473ffffffffffffffffffffffffffffffffffffffff1673ffffffffffffffffffffffffffffffffffffffff167f8be0079c531659141344cd1fd0a4f28419497f9722a3daafe3b4186f6b6457e060405160405180910390a36000600660006101000a81548173ffffffffffffffffffffffffffffffffffffffff021916908373ffffffffffffffffffffffffffffffffffffffff160217905550565b600080600560003373ffffffffffffffffffffffffffffffffffffffff1673ffffffffffffffffffffffffffffffffffffffff1681526020019081526020016000209050806002018381548110610a4d57fe5b9060005260206000200154915050919050565b7f000000000000000000000000000000000000000000000000000000000000000081565b7f000000000000000000000000000000000000000000000000000000000000000081565b6000600660009054906101000a900473ffffffffffffffffffffffffffffffffffffffff16905090565b670de0b6b3a764000081565b60056020528060005260406000206000915090508060000154908060010154905082565b33816000610b0f83610813565b90507f0000000000000000000000000000000000000000000000000000000000000000610b45838361121490919063ffffffff16565b1115610b9c576040517f08c379a00000000000000000000000000000000000000000000000000000000081526004018080602001828103825260288152602001806126e36028913960400191505060405180910390fd5b610ba5846113b3565b50505050565b7f00000000000000000000000000000000000000000000000000000000000000004311610c23576040517f08c379a00000000000000000000000000000000000000000000000000000000081526004018080602001828103825260428152602001806126a16042913960600191505060405180910390fd5b60026000541415610c9c576040517f08c379a000000000000000000000000000000000000000000000000000000000815260040180806020018281038252601f8152602001807f5265656e7472616e637947756172643a207265656e7472616e742063616c6c0081525060200191505060405180910390fd5b60026000819055506000600560003373ffffffffffffffffffffffffffffffffffffffff1673ffffffffffffffffffffffffffffffffffffffff1681526020019081526020016000209050610d008160010154600b546113c290919063ffffffff16565b600b81905550610d777f0000000000000000000000000000000000000000000000000000000000000000600067ffffffffffffffff81118015610d4257600080fd5b50604051908082528060200260200182016040528015610d715781602001602082028036833780820191505090505b50611445565b610d7f611613565b506001600081905550565b610d92611750565b610d9a611613565b610da26118a0565b565b60085481565b7f000000000000000000000000000000000000000000000000000000000000000081565b600a5481565b7f00000000000000000000000000000000000000000000000000000000000000004311610e4c576040517f08c379a00000000000000000000000000000000000000000000000000000000081526004018080602001828103825260428152602001806126a16042913960600191505060405180910390fd5b60026000541415610ec5576040517f08c379a000000000000000000000000000000000000000000000000000000000815260040180806020018281038252601f8152602001807f5265656e7472616e637947756172643a207265656e7472616e742063616c6c0081525060200191505060405180910390fd5b6002600081905550610ed5611750565b610edd611613565b6000610ee833610813565b90506000811415610ef9575061100f565b610f4b8160008067ffffffffffffffff81118015610f1657600080fd5b50604051908082528060200260200182016040528015610f455781602001602082028036833780820191505090505b50611baf565b610f9f600c60003373ffffffffffffffffffffffffffffffffffffffff1673ffffffffffffffffffffffffffffffffffffffff168152602001908152602001600020546009546113c290919063ffffffff16565b6009819055506000600c60003373ffffffffffffffffffffffffffffffffffffffff1673ffffffffffffffffffffffffffffffffffffffff16815260200190815260200160002081905550610fff81600b5461121490919063ffffffff16565b600b8190555061100d611613565b505b6001600081905550565b60025481565b61102761129c565b73ffffffffffffffffffffffffffffffffffffffff16611045610aa8565b73ffffffffffffffffffffffffffffffffffffffff16146110ce576040517f08c379a00000000000000000000000000000000000000000000000000000000081526004018080602001828103825260208152602001807f4f776e61626c653a2063616c6c6572206973206e6f7420746865206f776e657281525060200191505060405180910390fd5b600073ffffffffffffffffffffffffffffffffffffffff168173ffffffffffffffffffffffffffffffffffffffff161415611154576040517f08c379a00000000000000000000000000000000000000000000000000000000081526004018080602001828103825260268152602001806126556026913960400191505060405180910390fd5b8073ffffffffffffffffffffffffffffffffffffffff16600660009054906101000a900473ffffffffffffffffffffffffffffffffffffffff1673ffffffffffffffffffffffffffffffffffffffff167f8be0079c531659141344cd1fd0a4f28419497f9722a3daafe3b4186f6b6457e060405160405180910390a380600660006101000a81548173ffffffffffffffffffffffffffffffffffffffff021916908373ffffffffffffffffffffffffffffffffffffffff16021790555050565b600080828401905083811015611292576040517f08c379a000000000000000000000000000000000000000000000000000000000815260040180806020018281038252601b8152602001807f536166654d6174683a206164646974696f6e206f766572666c6f77000000000081525060200191505060405180910390fd5b8091505092915050565b600033905090565b6000808314156112b75760009050611324565b60008284029050828482816112c857fe5b041461131f576040517f08c379a000000000000000000000000000000000000000000000000000000000815260040180806020018281038252602181526020018061270b6021913960400191505060405180910390fd5b809150505b92915050565b60008082116113a1576040517f08c379a000000000000000000000000000000000000000000000000000000000815260040180806020018281038252601a8152602001807f536166654d6174683a206469766973696f6e206279207a65726f00000000000081525060200191505060405180910390fd5b8183816113aa57fe5b04905092915050565b6113bf81336001611d00565b50565b60008282111561143a576040517f08c379a000000000000000000000000000000000000000000000000000000000815260040180806020018281038252601e8152602001807f536166654d6174683a207375627472616374696f6e206f766572666c6f77000081525060200191505060405180910390fd5b818303905092915050565b6000600560003373ffffffffffffffffffffffffffffffffffffffff1673ffffffffffffffffffffffffffffffffffffffff1681526020019081526020016000209050806000015443116114e4576040517f08c379a000000000000000000000000000000000000000000000000000000000815260040180806020018281038252602681526020018061267b6026913960400191505060405180910390fd5b6000816001015490506000826001018190555061152233828673ffffffffffffffffffffffffffffffffffffffff16611f6b9092919063ffffffff16565b60005b83518110156115b757600083600201828154811061153f57fe5b90600052602060002001549050600084600201838154811061155d57fe5b90600052602060002001819055506115a9338287858151811061157c57fe5b602002602001015173ffffffffffffffffffffffffffffffffffffffff16611f6b9092919063ffffffff16565b508080600101915050611525565b507f548aea05c5e3b6ba34acdf7b3ad06c7bb667ed71d1761e2c177167be0a9eb0593382604051808373ffffffffffffffffffffffffffffffffffffffff1681526020018281526020019250505060405180910390a150505050565b6000600954141561163a576000600a81905550670de0b6b3a764000060088190555061174e565b611710600b547f000000000000000000000000000000000000000000000000000000000000000073ffffffffffffffffffffffffffffffffffffffff166370a08231306040518263ffffffff1660e01b8152600401808273ffffffffffffffffffffffffffffffffffffffff16815260200191505060206040518083038186803b1580156116c757600080fd5b505afa1580156116db573d6000803e3d6000fd5b505050506040513d60208110156116f157600080fd5b81019080805190602001909291905050506113c290919063ffffffff16565b600a81905550611747600954611739670de0b6b3a7640000600a546112a490919063ffffffff16565b61132a90919063ffffffff16565b6008819055505b565b6000600760009054906101000a900473ffffffffffffffffffffffffffffffffffffffff1673ffffffffffffffffffffffffffffffffffffffff166370a08231306040518263ffffffff1660e01b8152600401808273ffffffffffffffffffffffffffffffffffffffff16815260200191505060206040518083038186803b1580156117db57600080fd5b505afa1580156117ef573d6000803e3d6000fd5b505050506040513d602081101561180557600080fd5b81019080805190602001909291905050501461189e57600760009054906101000a900473ffffffffffffffffffffffffffffffffffffffff1673ffffffffffffffffffffffffffffffffffffffff1663e9fad8ee6040518163ffffffff1660e01b8152600401600060405180830381600087803b15801561188557600080fd5b505af1158015611899573d6000803e3d6000fd5b505050505b565b60007f000000000000000000000000000000000000000000000000000000000000000073ffffffffffffffffffffffffffffffffffffffff166370a08231306040518263ffffffff1660e01b8152600401808273ffffffffffffffffffffffffffffffffffffffff16815260200191505060206040518083038186803b15801561192957600080fd5b505afa15801561193d573d6000803e3d6000fd5b505050506040513d602081101561195357600080fd5b810190808051906020019092919050505014611bad576000611a41600b547f000000000000000000000000000000000000000000000000000000000000000073ffffffffffffffffffffffffffffffffffffffff166370a08231306040518263ffffffff1660e01b8152600401808273ffffffffffffffffffffffffffffffffffffffff16815260200191505060206040518083038186803b1580156119f857600080fd5b505afa158015611a0c573d6000803e3d6000fd5b505050506040513d6020811015611a2257600080fd5b81019080805190602001909291905050506113c290919063ffffffff16565b9050611ab1600760009054906101000a900473ffffffffffffffffffffffffffffffffffffffff1660007f000000000000000000000000000000000000000000000000000000000000000073ffffffffffffffffffffffffffffffffffffffff1661200d9092919063ffffffff16565b611b1e600760009054906101000a900473ffffffffffffffffffffffffffffffffffffffff16827f000000000000000000000000000000000000000000000000000000000000000073ffffffffffffffffffffffffffffffffffffffff1661200d9092919063ffffffff16565b600760009054906101000a900473ffffffffffffffffffffffffffffffffffffffff1673ffffffffffffffffffffffffffffffffffffffff1663a694fc3a826040518263ffffffff1660e01b815260040180828152602001915050600060405180830381600087803b158015611b9357600080fd5b505af1158015611ba7573d6000803e3d6000fd5b50505050505b565b611bb933836121d2565b6000600560003373ffffffffffffffffffffffffffffffffffffffff1673ffffffffffffffffffffffffffffffffffffffff1681526020019081526020016000209050611c058461227f565b8160000181905550611c2484826001015461121490919063ffffffff16565b816001018190555060005b83811015611ca057611c76838281518110611c4657fe5b6020026020010151836002018381548110611c5d57fe5b906000526020600020015461121490919063ffffffff16565b826002018281548110611c8557fe5b90600052602060002001819055508080600101915050611c2f565b507fd9217a461a0f7f84171a8866118c3d92e943ba7c1ba89b819371f729b5cabcbc338260000154604051808373ffffffffffffffffffffffffffffffffffffffff1681526020018281526020019250505060405180910390a150505050565b60026000541415611d79576040517f08c379a000000000000000000000000000000000000000000000000000000000815260040180806020018281038252601f8152602001807f5265656e7472616e637947756172643a207265656e7472616e742063616c6c0081525060200191505060405180910390fd5b6002600081905550611d89611750565b611d91611613565b611dea81611d9f5733611da1565b825b30857f000000000000000000000000000000000000000000000000000000000000000073ffffffffffffffffffffffffffffffffffffffff16612335909392919063ffffffff16565b6000611e1b600854611e0d670de0b6b3a7640000876112a490919063ffffffff16565b61132a90919063ffffffff16565b9050611e328160095461121490919063ffffffff16565b600981905550611e8a81600c60008673ffffffffffffffffffffffffffffffffffffffff1673ffffffffffffffffffffffffffffffffffffffff1681526020019081526020016000205461121490919063ffffffff16565b600c60008573ffffffffffffffffffffffffffffffffffffffff1673ffffffffffffffffffffffffffffffffffffffff1681526020019081526020016000208190555060006008549050611edc611613565b8373ffffffffffffffffffffffffffffffffffffffff167f6381ea17a5324d29cc015352644672ead5185c1c61a0d3a521eda97e35cec97e868484600854611f238a610813565b604051808681526020018581526020018481526020018381526020018281526020019550505050505060405180910390a2611f5c6118a0565b50506001600081905550505050565b6120088363a9059cbb60e01b8484604051602401808373ffffffffffffffffffffffffffffffffffffffff16815260200182815260200192505050604051602081830303815290604052907bffffffffffffffffffffffffffffffffffffffffffffffffffffffff19166020820180517bffffffffffffffffffffffffffffffffffffffffffffffffffffffff83818316178352505050506123f6565b505050565b60008114806120db575060008373ffffffffffffffffffffffffffffffffffffffff1663dd62ed3e30856040518363ffffffff1660e01b8152600401808373ffffffffffffffffffffffffffffffffffffffff1681526020018273ffffffffffffffffffffffffffffffffffffffff1681526020019250505060206040518083038186803b15801561209e57600080fd5b505afa1580156120b2573d6000803e3d6000fd5b505050506040513d60208110156120c857600080fd5b8101908080519060200190929190505050145b612130576040517f08c379a00000000000000000000000000000000000000000000000000000000081526004018080602001828103825260368152602001806127566036913960400191505060405180910390fd5b6121cd8363095ea7b360e01b8484604051602401808373ffffffffffffffffffffffffffffffffffffffff16815260200182815260200192505050604051602081830303815290604052907bffffffffffffffffffffffffffffffffffffffffffffffffffffffff19166020820180517bffffffffffffffffffffffffffffffffffffffffffffffffffffffff83818316178352505050506123f6565b505050565b6000600560008473ffffffffffffffffffffffffffffffffffffffff1673ffffffffffffffffffffffffffffffffffffffff1681526020019081526020016000209050818160020180549050141561222a575061227b565b6000816002018054905090505b828110156122785781600201600090806001815401808255809150506001900390600052602060002001600090919091909150558080600101915050612237565b50505b5050565b60006001544311156122de57600060035460015443038161229c57fe5b0690506122c66003546122b883436113c290919063ffffffff16565b61121490919063ffffffff16565b60018190555082600281905550600154915050612330565b6122f38260025461121490919063ffffffff16565b60028190555060015490506004546002541061232f5761232060035460015461121490919063ffffffff16565b60018190555060006002819055505b5b919050565b6123f0846323b872dd60e01b858585604051602401808473ffffffffffffffffffffffffffffffffffffffff1681526020018373ffffffffffffffffffffffffffffffffffffffff1681526020018281526020019350505050604051602081830303815290604052907bffffffffffffffffffffffffffffffffffffffffffffffffffffffff19166020820180517bffffffffffffffffffffffffffffffffffffffffffffffffffffffff83818316178352505050506123f6565b50505050565b6124158273ffffffffffffffffffffffffffffffffffffffff16612641565b612487576040517f08c379a000000000000000000000000000000000000000000000000000000000815260040180806020018281038252601f8152602001807f5361666545524332303a2063616c6c20746f206e6f6e2d636f6e74726163740081525060200191505060405180910390fd5b600060608373ffffffffffffffffffffffffffffffffffffffff16836040518082805190602001908083835b602083106124d657805182526020820191506020810190506020830392506124b3565b6001836020036101000a0380198251168184511680821785525050505050509050019150506000604051808303816000865af19150503d8060008114612538576040519150601f19603f3d011682016040523d82523d6000602084013e61253d565b606091505b5091509150816125b5576040517f08c379a00000000000000000000000000000000000000000000000000000000081526004018080602001828103825260208152602001807f5361666545524332303a206c6f772d6c6576656c2063616c6c206661696c656481525060200191505060405180910390fd5b60008151111561263b578080602001905160208110156125d457600080fd5b810190808051906020019092919050505061263a576040517f08c379a000000000000000000000000000000000000000000000000000000000815260040180806020018281038252602a81526020018061272c602a913960400191505060405180910390fd5b5b50505050565b600080823b90506000811191505091905056fe4f776e61626c653a206e6577206f776e657220697320746865207a65726f206164647265737366696e616c697a65457869743a3a547279696e6720746f206578697420746f6f206561726c796f6e6c79556e6c6f636b65643a3a63616e6e6f7420706572666f726d207468697320616374696f6e20756e74696c2074686520656e64206f6620746865206c6f636b6f6e6c79556e6465725374616b654c696d69743a3a5374616b65206c696d69742072656163686564536166654d6174683a206d756c7469706c69636174696f6e206f766572666c6f775361666545524332303a204552433230206f7065726174696f6e20646964206e6f7420737563636565645361666545524332303a20617070726f76652066726f6d206e6f6e2d7a65726f20746f206e6f6e2d7a65726f20616c6c6f77616e6365a2646970667358221220ca93c8f28ce5a506ecf5eb8003171389d5972e6654a2734bc8c591a216ceceff64736f6c634300060c00337365745468726f74746c653a3a7468726f74746c6520726f756e6420636170206d757374206265206d6f7265207468616e20307365745468726f74746c653a3a7468726f74746c6520706172616d6574657273207765726520616c7265616479207365747365745468726f74746c653a3a7468726f74746c6520726f756e6420626c6f636b73206d757374206265206d6f7265207468616e20307365744c6f636b456e643a3a4c6f636b20656e64206e6565647320746f20626520696e20746865206675747572654c696d697465644175746f5374616b653a636f6e7374727563746f723a3a7374616b65206c696d69742073686f756c64206e6f742062652030",
  "source": "// SPDX-License-Identifier: MIT\n\npragma solidity 0.6.12;\n\nimport \"openzeppelin-solidity/contracts/math/SafeMath.sol\";\nimport \"./AutoStake.sol\";\n\ncontract LimitedAutoStake is AutoStake {\n\tusing SafeMath for uint256;\n\n\tuint256 public immutable stakeLimit;\n\n\tconstructor(address token, uint256 _throttleRoundBlocks, uint256 _throttleRoundCap, uint256 stakeEnd, uint256 _stakeLimit) public AutoStake(token, _throttleRoundBlocks, _throttleRoundCap, stakeEnd) {\n\t\trequire(_stakeLimit != 0 , \"LimitedAutoStake:constructor::stake limit should not be 0\");\n\t\tstakeLimit = _stakeLimit;\n\t}\n\n\tmodifier onlyUnderStakeLimit(address staker, uint256 newStake) {\n\t\tuint256 currentStake = balanceOf(staker);\n\t\trequire(currentStake.add(newStake) <= stakeLimit, \"onlyUnderStakeLimit::Stake limit reached\");\n\t\t_;\n\t}\n\n\tfunction stake(uint256 amount) public virtual override(AutoStake) onlyUnderStakeLimit(msg.sender, amount) {\n\t\tAutoStake.stake(amount);\n\t}\n\n}",
  "sourcePath": "/home/hellowodl/lmaas-liquidity-staker/contracts/autostake-features/LimitedAutoStake.sol",
  "compiler": {
    "name": "solc",
    "version": "0.6.12+commit.27d51765.Emscripten.clang",
    "optimizer": false,
    "runs": 200
  },
  "schemaVersion": "2.3.5",
  "updatedAt": "2021-04-27T17:14:31.163Z"
}