{
  "contractName": "LiquidityMiningCampaignFactory",
  "abi": [
    {
      "anonymous": false,
      "inputs": [
        {
          "indexed": true,
          "internalType": "address",
          "name": "_oldOwner",
          "type": "address"
        },
        {
          "indexed": true,
          "internalType": "address",
          "name": "_newOwner",
          "type": "address"
        }
      ],
      "name": "OwnershipTransferProposed",
      "type": "event"
    },
    {
      "anonymous": false,
      "inputs": [
        {
          "indexed": true,
          "internalType": "address",
          "name": "_newOwner",
          "type": "address"
        }
      ],
      "name": "OwnershipTransferred",
      "type": "event"
    },
    {
      "anonymous": false,
      "inputs": [
        {
          "indexed": false,
          "internalType": "address",
          "name": "transferer",
          "type": "address"
        },
        {
          "indexed": false,
          "internalType": "address",
          "name": "receiver",
          "type": "address"
        }
      ],
      "name": "ReceiverEnabled",
      "type": "event"
    },
    {
      "anonymous": false,
      "inputs": [
        {
          "indexed": true,
          "internalType": "address",
          "name": "rewardsPoolAddress",
          "type": "address"
        },
        {
          "indexed": true,
          "internalType": "address",
          "name": "stakingToken",
          "type": "address"
        }
      ],
      "name": "RewardsPoolDeployed",
      "type": "event"
    },
    {
      "anonymous": false,
      "inputs": [
        {
          "indexed": false,
          "internalType": "address",
          "name": "rewardsToken",
          "type": "address"
        },
        {
          "indexed": false,
          "internalType": "uint256",
          "name": "amount",
          "type": "uint256"
        }
      ],
      "name": "RewardsWithdrawn",
      "type": "event"
    },
    {
      "inputs": [],
      "name": "acceptOwnership",
      "outputs": [],
      "stateMutability": "nonpayable",
      "type": "function"
    },
    {
      "inputs": [
        {
          "internalType": "uint256",
          "name": "_startBlock",
          "type": "uint256"
        },
        {
          "internalType": "uint256",
          "name": "_endBlock",
          "type": "uint256"
        },
        {
          "internalType": "uint256",
          "name": "_rewardPerBlock",
          "type": "uint256"
        }
      ],
      "name": "calculateRewardsAmount",
      "outputs": [
        {
          "internalType": "uint256",
          "name": "",
          "type": "uint256"
        }
      ],
      "stateMutability": "pure",
      "type": "function"
    },
    {
      "inputs": [
        {
          "internalType": "address",
          "name": "transferer",
          "type": "address"
        },
        {
          "internalType": "address[]",
          "name": "receivers",
          "type": "address[]"
        }
      ],
      "name": "enableReceivers",
      "outputs": [],
      "stateMutability": "nonpayable",
      "type": "function"
    },
    {
      "inputs": [],
      "name": "getRewardsPoolNumber",
      "outputs": [
        {
          "internalType": "uint256",
          "name": "",
          "type": "uint256"
        }
      ],
      "stateMutability": "view",
      "type": "function"
    },
    {
      "inputs": [],
      "name": "owner",
      "outputs": [
        {
          "internalType": "address",
          "name": "",
          "type": "address"
        }
      ],
      "stateMutability": "view",
      "type": "function"
    },
    {
      "inputs": [
        {
          "internalType": "uint256",
          "name": "",
          "type": "uint256"
        }
      ],
      "name": "rewardsPools",
      "outputs": [
        {
          "internalType": "address",
          "name": "",
          "type": "address"
        }
      ],
      "stateMutability": "view",
      "type": "function"
    },
    {
      "inputs": [
        {
          "internalType": "address",
          "name": "newOwner",
          "type": "address"
        }
      ],
      "name": "transferOwnership",
      "outputs": [],
      "stateMutability": "nonpayable",
      "type": "function"
    },
    {
      "inputs": [
        {
          "internalType": "address",
          "name": "rewardsPoolAddress",
          "type": "address"
        },
        {
          "internalType": "address",
          "name": "recipient",
          "type": "address"
        },
        {
          "internalType": "address",
          "name": "lpTokenContract",
          "type": "address"
        }
      ],
      "name": "withdrawLPRewards",
      "outputs": [],
      "stateMutability": "nonpayable",
      "type": "function"
    },
    {
      "inputs": [
        {
          "internalType": "address",
          "name": "_rewardsToken",
          "type": "address"
        }
      ],
      "name": "withdrawRewardsLeftovers",
      "outputs": [],
      "stateMutability": "nonpayable",
      "type": "function"
    },
    {
      "inputs": [
        {
          "internalType": "address",
          "name": "_stakingToken",
          "type": "address"
        },
        {
          "internalType": "uint256",
          "name": "_startBlock",
          "type": "uint256"
        },
        {
          "internalType": "uint256",
          "name": "_endBlock",
          "type": "uint256"
        },
        {
          "internalType": "address[]",
          "name": "_rewardsTokens",
          "type": "address[]"
        },
        {
          "internalType": "uint256[]",
          "name": "_rewardPerBlock",
          "type": "uint256[]"
        },
        {
          "internalType": "address",
          "name": "_albtAddress",
          "type": "address"
        },
        {
          "internalType": "uint256",
          "name": "_stakeLimit",
          "type": "uint256"
        },
        {
          "internalType": "uint256",
          "name": "_contractStakeLimit",
          "type": "uint256"
        }
      ],
      "name": "deploy",
      "outputs": [],
      "stateMutability": "nonpayable",
      "type": "function"
    },
    {
      "inputs": [
        {
          "internalType": "uint256",
          "name": "_endBlock",
          "type": "uint256"
        },
        {
          "internalType": "uint256[]",
          "name": "_rewardsPerBlock",
          "type": "uint256[]"
        },
        {
          "internalType": "address",
          "name": "_rewardsPoolAddress",
          "type": "address"
        }
      ],
      "name": "extendRewardPool",
      "outputs": [],
      "stateMutability": "nonpayable",
      "type": "function"
    },
    {
      "inputs": [
        {
          "internalType": "address[]",
          "name": "_lockSchemes",
          "type": "address[]"
        },
        {
          "internalType": "address",
          "name": "_rewardsPoolAddress",
          "type": "address"
        }
      ],
      "name": "setLockSchemesToLMC",
      "outputs": [],
      "stateMutability": "nonpayable",
      "type": "function"
    }
  ],
  "bytecode": "0x608060405234801561001057600080fd5b5033600160006101000a81548173ffffffffffffffffffffffffffffffffffffffff021916908373ffffffffffffffffffffffffffffffffffffffff160217905550617ce6806100616000396000f3fe60806040523480156200001157600080fd5b5060043610620000c45760003560e01c8063986c1d0e116200007b578063986c1d0e1462000409578063a1717c0214620004b2578063b7b8fbd214620004d2578063d093410b1462000519578063dc8afbc114620005f7578063f2fde38b146200065257620000c4565b80630d50caf214620000c95780630febf47914620001a75780632bb4e26914620002e757806379ba5097146200036e5780637f270667146200037a5780638da5cb5b14620003d3575b600080fd5b620001a560048036036040811015620000e157600080fd5b81019080803573ffffffffffffffffffffffffffffffffffffffff169060200190929190803590602001906401000000008111156200011f57600080fd5b8201836020820111156200013257600080fd5b803590602001918460208302840111640100000000831117156200015557600080fd5b919080806020026020016040519081016040528093929190818152602001838360200280828437600081840152601f19601f82011690508083019250505050505050919291929050505062000699565b005b620002e56004803603610100811015620001c057600080fd5b81019080803573ffffffffffffffffffffffffffffffffffffffff1690602001909291908035906020019092919080359060200190929190803590602001906401000000008111156200021257600080fd5b8201836020820111156200022557600080fd5b803590602001918460208302840111640100000000831117156200024857600080fd5b9091929391929390803590602001906401000000008111156200026a57600080fd5b8201836020820111156200027d57600080fd5b80359060200191846020830284011164010000000083111715620002a057600080fd5b9091929391929390803573ffffffffffffffffffffffffffffffffffffffff1690602001909291908035906020019092919080359060200190929190505050620009ac565b005b6200036c60048036036060811015620002ff57600080fd5b81019080803573ffffffffffffffffffffffffffffffffffffffff169060200190929190803573ffffffffffffffffffffffffffffffffffffffff169060200190929190803573ffffffffffffffffffffffffffffffffffffffff16906020019092919050505062000f77565b005b620003786200116f565b005b620003bd600480360360608110156200039257600080fd5b81019080803590602001909291908035906020019092919080359060200190929190505050620012e1565b6040518082815260200191505060405180910390f35b620003dd62001375565b604051808273ffffffffffffffffffffffffffffffffffffffff16815260200191505060405180910390f35b620004b0600480360360608110156200042157600080fd5b8101908080359060200190929190803590602001906401000000008111156200044957600080fd5b8201836020820111156200045c57600080fd5b803590602001918460208302840111640100000000831117156200047f57600080fd5b9091929391929390803573ffffffffffffffffffffffffffffffffffffffff1690602001909291905050506200139b565b005b620004bc620018dc565b6040518082815260200191505060405180910390f35b6200051760048036036020811015620004ea57600080fd5b81019080803573ffffffffffffffffffffffffffffffffffffffff169060200190929190505050620018e8565b005b620005f5600480360360408110156200053157600080fd5b81019080803590602001906401000000008111156200054f57600080fd5b8201836020820111156200056257600080fd5b803590602001918460208302840111640100000000831117156200058557600080fd5b919080806020026020016040519081016040528093929190818152602001838360200280828437600081840152601f19601f820116905080830192505050505050509192919290803573ffffffffffffffffffffffffffffffffffffffff16906020019092919050505062001abf565b005b62000626600480360360208110156200060f57600080fd5b810190808035906020019092919050505062001d06565b604051808273ffffffffffffffffffffffffffffffffffffffff16815260200191505060405180910390f35b62000697600480360360208110156200066a57600080fd5b81019080803573ffffffffffffffffffffffffffffffffffffffff16906020019092919050505062001d43565b005b600160009054906101000a900473ffffffffffffffffffffffffffffffffffffffff1673ffffffffffffffffffffffffffffffffffffffff163373ffffffffffffffffffffffffffffffffffffffff161462000741576040517f08c379a000000000000000000000000000000000000000000000000000000000815260040180806020018281038252602781526020018062007c2a6027913960400191505060405180910390fd5b600073ffffffffffffffffffffffffffffffffffffffff168273ffffffffffffffffffffffffffffffffffffffff161415620007c9576040517f08c379a000000000000000000000000000000000000000000000000000000000815260040180806020018281038252602781526020018062007b2d6027913960400191505060405180910390fd5b600082905060005b8251811015620009a657600073ffffffffffffffffffffffffffffffffffffffff168382815181106200080057fe5b602002602001015173ffffffffffffffffffffffffffffffffffffffff16141562000877576040517f08c379a0000000000000000000000000000000000000000000000000000000008152600401808060200182810382526025815260200180620079d36025913960400191505060405180910390fd5b8173ffffffffffffffffffffffffffffffffffffffff1663a861a7a3848381518110620008a057fe5b602002602001015160016040518363ffffffff1660e01b8152600401808373ffffffffffffffffffffffffffffffffffffffff168152602001821515815260200192505050600060405180830381600087803b1580156200090057600080fd5b505af115801562000915573d6000803e3d6000fd5b505050507f49564019f9d19850e264e194f9d42848c8324fa8fc4261d7f6b2e7d987d3a0bb848483815181106200094857fe5b6020026020010151604051808373ffffffffffffffffffffffffffffffffffffffff1681526020018273ffffffffffffffffffffffffffffffffffffffff1681526020019250505060405180910390a18080600101915050620007d1565b50505050565b600160009054906101000a900473ffffffffffffffffffffffffffffffffffffffff1673ffffffffffffffffffffffffffffffffffffffff163373ffffffffffffffffffffffffffffffffffffffff161462000a54576040517f08c379a000000000000000000000000000000000000000000000000000000000815260040180806020018281038252602781526020018062007c2a6027913960400191505060405180910390fd5b600073ffffffffffffffffffffffffffffffffffffffff168a73ffffffffffffffffffffffffffffffffffffffff16141562000adc576040517f08c379a0000000000000000000000000000000000000000000000000000000008152600401808060200182810382526053815260200180620079396053913960600191505060405180910390fd5b600087879050141562000b3b576040517f08c379a000000000000000000000000000000000000000000000000000000000815260040180806020018281038252604e81526020018062007a49604e913960600191505060405180910390fd5b84849050878790501462000b9b576040517f08c379a000000000000000000000000000000000000000000000000000000000815260040180806020018281038252606581526020018062007bc56065913960800191505060405180910390fd5b600082141562000bf7576040517f08c379a00000000000000000000000000000000000000000000000000000000081526004018080602001828103825260478152602001806200798c6047913960600191505060405180910390fd5b60008a8a8a8a8a8a8a8a8a8a60405162000c11906200236c565b808b73ffffffffffffffffffffffffffffffffffffffff1681526020018a815260200189815260200180602001806020018673ffffffffffffffffffffffffffffffffffffffff16815260200185815260200184815260200183810383528a8a82818152602001925060200280828437600081840152601f19601f8201169050808301925050508381038252888882818152602001925060200280828437600081840152601f19601f8201169050808301925050509c50505050505050505050505050604051809103906000f08015801562000cf1573d6000803e3d6000fd5b50905060005b8888905081101562000eac57600073ffffffffffffffffffffffffffffffffffffffff1689898381811062000d2857fe5b9050602002013573ffffffffffffffffffffffffffffffffffffffff1673ffffffffffffffffffffffffffffffffffffffff16141562000db4576040517f08c379a0000000000000000000000000000000000000000000000000000000008152600401808060200182810382526051815260200180620079f86051913960600191505060405180910390fd5b600087878381811062000dc357fe5b90506020020135141562000e23576040517f08c379a000000000000000000000000000000000000000000000000000000000815260040180806020018281038252605281526020018062007a976052913960600191505060405180910390fd5b600062000e458c8c8a8a8681811062000e3857fe5b90506020020135620012e1565b905062000e9d83828c8c8681811062000e5a57fe5b9050602002013573ffffffffffffffffffffffffffffffffffffffff1673ffffffffffffffffffffffffffffffffffffffff1662001f4f9092919063ffffffff16565b50808060010191505062000cf7565b506000819080600181540180825580915050600190039060005260206000200160009091909190916101000a81548173ffffffffffffffffffffffffffffffffffffffff021916908373ffffffffffffffffffffffffffffffffffffffff1602179055508a73ffffffffffffffffffffffffffffffffffffffff168173ffffffffffffffffffffffffffffffffffffffff167f0beb358d424af29f69271ee3de8255f28779b3af5cd0b8f8e785aa39c766770060405160405180910390a35050505050505050505050565b600160009054906101000a900473ffffffffffffffffffffffffffffffffffffffff1673ffffffffffffffffffffffffffffffffffffffff163373ffffffffffffffffffffffffffffffffffffffff16146200101f576040517f08c379a000000000000000000000000000000000000000000000000000000000815260040180806020018281038252602781526020018062007c2a6027913960400191505060405180910390fd5b600073ffffffffffffffffffffffffffffffffffffffff168373ffffffffffffffffffffffffffffffffffffffff161415620010c3576040517f08c379a000000000000000000000000000000000000000000000000000000000815260040180806020018281038252601b8152602001807f73746172745374616b696e673a3a206e6f74206465706c6f796564000000000081525060200191505060405180910390fd5b60008390508073ffffffffffffffffffffffffffffffffffffffff1663a1002a0f84846040518363ffffffff1660e01b8152600401808373ffffffffffffffffffffffffffffffffffffffff1681526020018273ffffffffffffffffffffffffffffffffffffffff16815260200192505050600060405180830381600087803b1580156200115057600080fd5b505af115801562001165573d6000803e3d6000fd5b5050505050505050565b600260009054906101000a900473ffffffffffffffffffffffffffffffffffffffff1673ffffffffffffffffffffffffffffffffffffffff163373ffffffffffffffffffffffffffffffffffffffff161462001217576040517f08c379a000000000000000000000000000000000000000000000000000000000815260040180806020018281038252602781526020018062007b9e6027913960400191505060405180910390fd5b600260009054906101000a900473ffffffffffffffffffffffffffffffffffffffff16600160006101000a81548173ffffffffffffffffffffffffffffffffffffffff021916908373ffffffffffffffffffffffffffffffffffffffff160217905550600160009054906101000a900473ffffffffffffffffffffffffffffffffffffffff1673ffffffffffffffffffffffffffffffffffffffff167f04dba622d284ed0014ee4b9a6a68386be1a4c08a4913ae272de89199cc68616360405160405180910390a2565b60008082116200133d576040517f08c379a000000000000000000000000000000000000000000000000000000000815260040180806020018281038252604481526020018062007ae96044913960600191505060405180910390fd5b600062001354858562001ff390919063ffffffff16565b90506200136b81846200207790919063ffffffff16565b9150509392505050565b600160009054906101000a900473ffffffffffffffffffffffffffffffffffffffff1681565b600160009054906101000a900473ffffffffffffffffffffffffffffffffffffffff1673ffffffffffffffffffffffffffffffffffffffff163373ffffffffffffffffffffffffffffffffffffffff161462001443576040517f08c379a000000000000000000000000000000000000000000000000000000000815260040180806020018281038252602781526020018062007c2a6027913960400191505060405180910390fd5b600081905060008173ffffffffffffffffffffffffffffffffffffffff1663083c63236040518163ffffffff1660e01b815260040160206040518083038186803b1580156200149157600080fd5b505afa158015620014a6573d6000803e3d6000fd5b505050506040513d6020811015620014bd57600080fd5b8101908080519060200190929190505050905060608585905067ffffffffffffffff81118015620014ed57600080fd5b506040519080825280602002602001820160405280156200151d5781602001602082028036833780820191505090505b50905060608686905067ffffffffffffffff811180156200153d57600080fd5b506040519080825280602002602001820160405280156200156d5781602001602082028036833780820191505090505b50905060005b8787905081101562001797576200161a43858773ffffffffffffffffffffffffffffffffffffffff1663791f39cd856040518263ffffffff1660e01b81526004018082815260200191505060206040518083038186803b158015620015d757600080fd5b505afa158015620015ec573d6000803e3d6000fd5b505050506040513d60208110156200160357600080fd5b8101908080519060200190929190505050620012e1565b8382815181106200162757fe5b60200260200101818152505062001653438a8a8a858181106200164657fe5b90506020020135620012e1565b8282815181106200166057fe5b60200260200101818152505060008673ffffffffffffffffffffffffffffffffffffffff1663b6d0dcd8836040518263ffffffff1660e01b81526004018082815260200191505060206040518083038186803b158015620016c057600080fd5b505afa158015620016d5573d6000803e3d6000fd5b505050506040513d6020811015620016ec57600080fd5b810190808051906020019092919050505090508382815181106200170c57fe5b60200260200101518383815181106200172157fe5b60200260200101511115620017885762001787878584815181106200174257fe5b60200260200101518585815181106200175757fe5b6020026020010151038373ffffffffffffffffffffffffffffffffffffffff1662001f4f9092919063ffffffff16565b5b50808060010191505062001573565b508473ffffffffffffffffffffffffffffffffffffffff166320e67c7689898986866040518663ffffffff1660e01b8152600401808681526020018060200180602001806020018481038452888882818152602001925060200280828437600081840152601f19601f820116905080830192505050848103835286818151815260200191508051906020019060200280838360005b83811015620018495780820151818401526020810190506200182c565b50505050905001848103825285818151815260200191508051906020019060200280838360005b838110156200188d57808201518184015260208101905062001870565b5050505090500198505050505050505050600060405180830381600087803b158015620018b957600080fd5b505af1158015620018ce573d6000803e3d6000fd5b505050505050505050505050565b60008080549050905090565b600160009054906101000a900473ffffffffffffffffffffffffffffffffffffffff1673ffffffffffffffffffffffffffffffffffffffff163373ffffffffffffffffffffffffffffffffffffffff161462001990576040517f08c379a000000000000000000000000000000000000000000000000000000000815260040180806020018281038252602781526020018062007c2a6027913960400191505060405180910390fd5b60008173ffffffffffffffffffffffffffffffffffffffff166370a08231306040518263ffffffff1660e01b8152600401808273ffffffffffffffffffffffffffffffffffffffff16815260200191505060206040518083038186803b158015620019fa57600080fd5b505afa15801562001a0f573d6000803e3d6000fd5b505050506040513d602081101562001a2657600080fd5b8101908080519060200190929190505050905062001a6633828473ffffffffffffffffffffffffffffffffffffffff1662001f4f9092919063ffffffff16565b7f8a43c4352486ec339f487f64af78ca5cbf06cd47833f073d3baf3a193e5031618282604051808373ffffffffffffffffffffffffffffffffffffffff1681526020018281526020019250505060405180910390a15050565b600160009054906101000a900473ffffffffffffffffffffffffffffffffffffffff1673ffffffffffffffffffffffffffffffffffffffff163373ffffffffffffffffffffffffffffffffffffffff161462001b67576040517f08c379a000000000000000000000000000000000000000000000000000000000815260040180806020018281038252602781526020018062007c2a6027913960400191505060405180910390fd5b600073ffffffffffffffffffffffffffffffffffffffff168173ffffffffffffffffffffffffffffffffffffffff16141562001bef576040517f08c379a000000000000000000000000000000000000000000000000000000000815260040180806020018281038252602981526020018062007b546029913960400191505060405180910390fd5b60008251141562001c4c576040517f08c379a000000000000000000000000000000000000000000000000000000000815260040180806020018281038252603681526020018062007c516036913960400191505060405180910390fd5b60008190508073ffffffffffffffffffffffffffffffffffffffff1663c8523c1d846040518263ffffffff1660e01b81526004018080602001828103825283818151815260200191508051906020019060200280838360005b8381101562001cc257808201518184015260208101905062001ca5565b5050505090500192505050600060405180830381600087803b15801562001ce857600080fd5b505af115801562001cfd573d6000803e3d6000fd5b50505050505050565b6000818154811062001d1457fe5b906000526020600020016000915054906101000a900473ffffffffffffffffffffffffffffffffffffffff1681565b600160009054906101000a900473ffffffffffffffffffffffffffffffffffffffff1673ffffffffffffffffffffffffffffffffffffffff163373ffffffffffffffffffffffffffffffffffffffff161462001deb576040517f08c379a000000000000000000000000000000000000000000000000000000000815260040180806020018281038252602781526020018062007c2a6027913960400191505060405180910390fd5b600073ffffffffffffffffffffffffffffffffffffffff168173ffffffffffffffffffffffffffffffffffffffff16141562001e8f576040517f08c379a000000000000000000000000000000000000000000000000000000000815260040180806020018281038252601d8152602001807f43616e6e6f7420736574206f776e657220746f2030206164647265737300000081525060200191505060405180910390fd5b80600260006101000a81548173ffffffffffffffffffffffffffffffffffffffff021916908373ffffffffffffffffffffffffffffffffffffffff160217905550600160009054906101000a900473ffffffffffffffffffffffffffffffffffffffff1673ffffffffffffffffffffffffffffffffffffffff163373ffffffffffffffffffffffffffffffffffffffff167ff4e75b79500ab730f8a026ed3cba6d55331bcb64c9e9f60c548e371356e5e3c060405160405180910390a350565b62001fee8363a9059cbb60e01b8484604051602401808373ffffffffffffffffffffffffffffffffffffffff16815260200182815260200192505050604051602081830303815290604052907bffffffffffffffffffffffffffffffffffffffffffffffffffffffff19166020820180517bffffffffffffffffffffffffffffffffffffffffffffffffffffffff838183161783525050505062002102565b505050565b6000828211156200206c576040517f08c379a000000000000000000000000000000000000000000000000000000000815260040180806020018281038252601e8152602001807f536166654d6174683a207375627472616374696f6e206f766572666c6f77000081525060200191505060405180910390fd5b818303905092915050565b6000808314156200208c5760009050620020fc565b60008284029050828482816200209e57fe5b0414620020f7576040517f08c379a000000000000000000000000000000000000000000000000000000000815260040180806020018281038252602181526020018062007b7d6021913960400191505060405180910390fd5b809150505b92915050565b620021238273ffffffffffffffffffffffffffffffffffffffff1662002359565b62002196576040517f08c379a000000000000000000000000000000000000000000000000000000000815260040180806020018281038252601f8152602001807f5361666545524332303a2063616c6c20746f206e6f6e2d636f6e74726163740081525060200191505060405180910390fd5b600060608373ffffffffffffffffffffffffffffffffffffffff16836040518082805190602001908083835b60208310620021e75780518252602082019150602081019050602083039250620021c2565b6001836020036101000a0380198251168184511680821785525050505050509050019150506000604051808303816000865af19150503d80600081146200224b576040519150601f19603f3d011682016040523d82523d6000602084013e62002250565b606091505b509150915081620022c9576040517f08c379a00000000000000000000000000000000000000000000000000000000081526004018080602001828103825260208152602001807f5361666545524332303a206c6f772d6c6576656c2063616c6c206661696c656481525060200191505060405180910390fd5b6000815111156200235357808060200190516020811015620022ea57600080fd5b810190808051906020019092919050505062002352576040517f08c379a000000000000000000000000000000000000000000000000000000000815260040180806020018281038252602a81526020018062007c87602a913960400191505060405180910390fd5b5b50505050565b600080823b905060008111915050919050565b6155be806200237b8339019056fe60a06040523480156200001157600080fd5b50604051620055be380380620055be83398181016040526101008110156200003857600080fd5b81019080805190602001909291908051906020019092919080519060200190929190805160405193929190846401000000008211156200007757600080fd5b838201915060208201858111156200008e57600080fd5b8251866020820283011164010000000082111715620000ac57600080fd5b8083526020830192505050908051906020019060200280838360005b83811015620000e5578082015181840152602081019050620000c8565b50505050905001604052602001805160405193929190846401000000008211156200010f57600080fd5b838201915060208201858111156200012657600080fd5b82518660208202830111640100000000821117156200014457600080fd5b8083526020830192505050908051906020019060200280838360005b838110156200017d57808201518184015260208101905062000160565b505050509050016040526020018051906020019092919080519060200190929190805190602001909291905050508787878787868660018081905550620001c9620005be60201b60201c565b861162000222576040517f08c379a0000000000000000000000000000000000000000000000000000000008152600401808060200182810382526036815260200180620055476036913960400191505060405180910390fd5b62000232620005be60201b60201c565b85116200028b576040517f08c379a00000000000000000000000000000000000000000000000000000000081526004018080602001828103825260318152602001806200548d6031913960400191505060405180910390fd5b8351835114620002e7576040517f08c379a000000000000000000000000000000000000000000000000000000000815260040180806020018281038252604f815260200180620054be604f913960600191505060405180910390fd5b600082141562000343576040517f08c379a00000000000000000000000000000000000000000000000000000000081526004018080602001828103825260308152602001806200545d6030913960400191505060405180910390fd5b60008114156200039f576040517f08c379a000000000000000000000000000000000000000000000000000000000815260040180806020018281038252603a8152602001806200550d603a913960400191505060405180910390fd5b86600560006101000a81548173ffffffffffffffffffffffffffffffffffffffff021916908373ffffffffffffffffffffffffffffffffffffffff1602179055508260039080519060200190620003f8929190620005c6565b50856006819055508460078190555083600490805190602001906200041f92919062000618565b5060065460088190555033600a60006101000a81548173ffffffffffffffffffffffffffffffffffffffff021916908373ffffffffffffffffffffffffffffffffffffffff16021790555081600b8190555080600c8190555060005b600480549050811015620004c15760096000908060018154018082558091505060019003906000526020600020016000909190919091505580806001019150506200047b565b505050505050505084600081518110620004d757fe5b602002602001015173ffffffffffffffffffffffffffffffffffffffff168373ffffffffffffffffffffffffffffffffffffffff161462000564576040517f08c379a00000000000000000000000000000000000000000000000000000000081526004018080602001828103825260418152602001806200557d6041913960600191505060405180910390fd5b846000815181106200057257fe5b602002602001015173ffffffffffffffffffffffffffffffffffffffff1660808173ffffffffffffffffffffffffffffffffffffffff1660601b81525050505050505050505062000703565b600043905090565b82805482825590600052602060002090810192821562000605579160200282015b8281111562000604578251825591602001919060010190620005e7565b5b509050620006149190620006a7565b5090565b82805482825590600052602060002090810192821562000694579160200282015b82811115620006935782518260006101000a81548173ffffffffffffffffffffffffffffffffffffffff021916908373ffffffffffffffffffffffffffffffffffffffff1602179055509160200191906001019062000639565b5b509050620006a39190620006c6565b5090565b5b80821115620006c2576000816000905550600101620006a8565b5090565b5b80821115620006ff57600081816101000a81549073ffffffffffffffffffffffffffffffffffffffff021916905550600101620006c7565b5090565b60805160601c614d326200072b600039806122b2528061268152806130155250614d326000f3fe608060405234801561001057600080fd5b50600436106102265760003560e01c806370a0823111610130578063b6d0dcd8116100b8578063df9d777f1161007c578063df9d777f14610b98578063e9fad8ee14610bfa578063f27d026414610c04578063f7c618c114610c66578063fb58cad114610c9a57610226565b8063b6d0dcd8146109c4578063bb9c9eb414610a1c578063c8523c1d14610a74578063ce41530214610b2c578063dd2da22014610b8e57610226565b8063a1002a0f116100ff578063a1002a0f1461086c578063a1292aea146108d0578063a694fc3a14610928578063a861a7a314610956578063a9f8d181146109a657610226565b806370a082311461078057806372f702f3146107d8578063791f39cd1461080c578063817b1cd21461084e57610226565b8063363291dc116101b357806348cd4cb11161018257806348cd4cb1146106c05780634e71d92d146106de57806356409b81146106e857806357b4f01f1461071c5780635999e4731461073c57610226565b8063363291dc146105a2578063408651be146105fc57806345ef79af146106545780634715a9491461067257610226565b806320e67c76116101fa57806320e67c761461031e5780632240e63c146105085780632d9e88e11461054c5780632e1a7d4d1461056a5780633411ef511461059857610226565b806284c9271461022b57806303d1dae014610283578063083c6323146102a15780631959a002146102bf575b600080fd5b61026d6004803603602081101561024157600080fd5b81019080803573ffffffffffffffffffffffffffffffffffffffff169060200190929190505050610cdc565b6040518082815260200191505060405180910390f35b61028b610db6565b6040518082815260200191505060405180910390f35b6102a9610dbc565b6040518082815260200191505060405180910390f35b610301600480360360208110156102d557600080fd5b81019080803573ffffffffffffffffffffffffffffffffffffffff169060200190929190505050610dc2565b604051808381526020018281526020019250505060405180910390f35b6105066004803603608081101561033457600080fd5b81019080803590602001909291908035906020019064010000000081111561035b57600080fd5b82018360208201111561036d57600080fd5b8035906020019184602083028401116401000000008311171561038f57600080fd5b919080806020026020016040519081016040528093929190818152602001838360200280828437600081840152601f19601f820116905080830192505050505050509192919290803590602001906401000000008111156103ef57600080fd5b82018360208201111561040157600080fd5b8035906020019184602083028401116401000000008311171561042357600080fd5b919080806020026020016040519081016040528093929190818152602001838360200280828437600081840152601f19601f8201169050808301925050505050505091929192908035906020019064010000000081111561048357600080fd5b82018360208201111561049557600080fd5b803590602001918460208302840111640100000000831117156104b757600080fd5b919080806020026020016040519081016040528093929190818152602001838360200280828437600081840152601f19601f820116905080830192505050505050509192919290505050610de6565b005b61054a6004803603602081101561051e57600080fd5b81019080803573ffffffffffffffffffffffffffffffffffffffff169060200190929190505050611141565b005b610554611192565b6040518082815260200191505060405180910390f35b6105966004803603602081101561058057600080fd5b810190808035906020019092919050505061119f565b005b6105a06111f0565b005b6105e4600480360360208110156105b857600080fd5b81019080803573ffffffffffffffffffffffffffffffffffffffff169060200190929190505050611283565b60405180821515815260200191505060405180910390f35b61063e6004803603602081101561061257600080fd5b81019080803573ffffffffffffffffffffffffffffffffffffffff1690602001909291905050506112a3565b6040518082815260200191505060405180910390f35b61065c6112bb565b6040518082815260200191505060405180910390f35b6106be6004803603604081101561068857600080fd5b8101908080359060200190929190803573ffffffffffffffffffffffffffffffffffffffff1690602001909291905050506112c1565b005b6106c8611358565b6040518082815260200191505060405180910390f35b6106e661135e565b005b6106f06113af565b604051808273ffffffffffffffffffffffffffffffffffffffff16815260200191505060405180910390f35b6107246113d5565b60405180821515815260200191505060405180910390f35b61077e6004803603602081101561075257600080fd5b81019080803573ffffffffffffffffffffffffffffffffffffffff1690602001909291905050506113e9565b005b6107c26004803603602081101561079657600080fd5b81019080803573ffffffffffffffffffffffffffffffffffffffff16906020019092919050505061147e565b6040518082815260200191505060405180910390f35b6107e06114cf565b604051808273ffffffffffffffffffffffffffffffffffffffff16815260200191505060405180910390f35b6108386004803603602081101561082257600080fd5b81019080803590602001909291905050506114f5565b6040518082815260200191505060405180910390f35b610856611516565b6040518082815260200191505060405180910390f35b6108ce6004803603604081101561088257600080fd5b81019080803573ffffffffffffffffffffffffffffffffffffffff169060200190929190803573ffffffffffffffffffffffffffffffffffffffff16906020019092919050505061151c565b005b610912600480360360208110156108e657600080fd5b81019080803573ffffffffffffffffffffffffffffffffffffffff169060200190929190505050611944565b6040518082815260200191505060405180910390f35b6109546004803603602081101561093e57600080fd5b8101908080359060200190929190505050611a1e565b005b6109a46004803603604081101561096c57600080fd5b81019080803573ffffffffffffffffffffffffffffffffffffffff169060200190929190803515159060200190929190505050611a6f565b005b6109ae611b23565b6040518082815260200191505060405180910390f35b6109f0600480360360208110156109da57600080fd5b8101908080359060200190929190505050611b29565b604051808273ffffffffffffffffffffffffffffffffffffffff16815260200191505060405180910390f35b610a4860048036036020811015610a3257600080fd5b8101908080359060200190929190505050611b65565b604051808273ffffffffffffffffffffffffffffffffffffffff16815260200191505060405180910390f35b610b2a60048036036020811015610a8a57600080fd5b8101908080359060200190640100000000811115610aa757600080fd5b820183602082011115610ab957600080fd5b80359060200191846020830284011164010000000083111715610adb57600080fd5b919080806020026020016040519081016040528093929190818152602001838360200280828437600081840152601f19601f820116905080830192505050505050509192919290505050611ba1565b005b610b7860048036036040811015610b4257600080fd5b81019080803573ffffffffffffffffffffffffffffffffffffffff16906020019092919080359060200190929190505050611c61565b6040518082815260200191505060405180910390f35b610b96611d4e565b005b610be460048036036040811015610bae57600080fd5b81019080803573ffffffffffffffffffffffffffffffffffffffff16906020019092919080359060200190929190505050611f4e565b6040518082815260200191505060405180910390f35b610c026121b8565b005b610c5060048036036040811015610c1a57600080fd5b81019080803573ffffffffffffffffffffffffffffffffffffffff169060200190929190803590602001909291905050506121c3565b6040518082815260200191505060405180910390f35b610c6e6122b0565b604051808273ffffffffffffffffffffffffffffffffffffffff16815260200191505060405180910390f35b610cc660048036036020811015610cb057600080fd5b81019080803590602001909291905050506122d4565b6040518082815260200191505060405180910390f35b60008073ffffffffffffffffffffffffffffffffffffffff168273ffffffffffffffffffffffffffffffffffffffff161415610d63576040517f08c379a000000000000000000000000000000000000000000000000000000000815260040180806020018281038252602d8152602001806148de602d913960400191505060405180910390fd5b6000600d60008473ffffffffffffffffffffffffffffffffffffffff1673ffffffffffffffffffffffffffffffffffffffff16815260200190815260200160002090508060020180549050915050919050565b600c5481565b60075481565b600d6020528060005260406000206000915090508060000154908060010154905082565b600a60009054906101000a900473ffffffffffffffffffffffffffffffffffffffff1673ffffffffffffffffffffffffffffffffffffffff163373ffffffffffffffffffffffffffffffffffffffff1614610e8c576040517f08c379a0000000000000000000000000000000000000000000000000000000008152600401808060200182810382526029815260200180614c9e6029913960400191505060405180910390fd5b610e946122f5565b8411610eeb576040517f08c379a0000000000000000000000000000000000000000000000000000000008152600401808060200182810382526027815260200180614c4d6027913960400191505060405180910390fd5b600754841015610f46576040517f08c379a00000000000000000000000000000000000000000000000000000000081526004018080602001828103825260358152602001806149696035913960400191505060405180910390fd5b600480549050835114610fa4576040517f08c379a0000000000000000000000000000000000000000000000000000000008152600401808060200182810382526034815260200180614b476034913960400191505060405180910390fd5b610fac611d4e565b60005b83518110156110b357600060048281548110610fc757fe5b9060005260206000200160009054906101000a900473ffffffffffffffffffffffffffffffffffffffff16905082828151811061100057fe5b602002602001015184838151811061101457fe5b60200260200101511115611076576110753384848151811061103257fe5b602002602001015186858151811061104657fe5b6020026020010151038373ffffffffffffffffffffffffffffffffffffffff166122fd9092919063ffffffff16565b5b84828151811061108257fe5b60200260200101516003838154811061109757fe5b9060005260206000200181905550508080600101915050610faf565b50836007819055507f137c92cc7579cc4d6a2b109467cd475c205d1c136363ca854cc46d72f840d5de84846040518083815260200180602001828103825283818151815260200191508051906020019060200280838360005b8381101561112757808201518184015260208101905061110c565b50505050905001935050505060405180910390a150505050565b6040517f08c379a00000000000000000000000000000000000000000000000000000000081526004018080602001828103825260378152602001806149326037913960400191505060405180910390fd5b6000600480549050905090565b6040517f08c379a000000000000000000000000000000000000000000000000000000000815260040180806020018281038252603f815260200180614a36603f913960400191505060405180910390fd5b60026001541415611269576040517f08c379a000000000000000000000000000000000000000000000000000000000815260040180806020018281038252601f8152602001807f5265656e7472616e637947756172643a207265656e7472616e742063616c6c0081525060200191505060405180910390fd5b600260018190555061127a3361239f565b60018081905550565b60006020528060005260406000206000915054906101000a900460ff1681565b600f6020528060005260406000206000915090505481565b600b5481565b6002600154141561133a576040517f08c379a000000000000000000000000000000000000000000000000000000000815260040180806020018281038252601f8152602001807f5265656e7472616e637947756172643a207265656e7472616e742063616c6c0081525060200191505060405180910390fd5b600260018190555061134d33838361276d565b600180819055505050565b60065481565b6040517f08c379a000000000000000000000000000000000000000000000000000000000815260040180806020018281038252603c815260200180614ace603c913960400191505060405180910390fd5b600a60009054906101000a900473ffffffffffffffffffffffffffffffffffffffff1681565b60006006546113e26122f5565b1015905090565b60026001541415611462576040517f08c379a000000000000000000000000000000000000000000000000000000000815260040180806020018281038252601f8152602001807f5265656e7472616e637947756172643a207265656e7472616e742063616c6c0081525060200191505060405180910390fd5b60026001819055506114743382612bc1565b6001808190555050565b600080600d60008473ffffffffffffffffffffffffffffffffffffffff1673ffffffffffffffffffffffffffffffffffffffff16815260200190815260200160002090508060010154915050919050565b600560009054906101000a900473ffffffffffffffffffffffffffffffffffffffff1681565b6003818154811061150257fe5b906000526020600020016000915090505481565b60025481565b60026001541415611595576040517f08c379a000000000000000000000000000000000000000000000000000000000815260040180806020018281038252601f8152602001807f5265656e7472616e637947756172643a207265656e7472616e742063616c6c0081525060200191505060405180910390fd5b6002600181905550600a60009054906101000a900473ffffffffffffffffffffffffffffffffffffffff1673ffffffffffffffffffffffffffffffffffffffff163373ffffffffffffffffffffffffffffffffffffffff1614611643576040517f08c379a0000000000000000000000000000000000000000000000000000000008152600401808060200182810382526029815260200180614c9e6029913960400191505060405180910390fd5b60008173ffffffffffffffffffffffffffffffffffffffff166370a08231306040518263ffffffff1660e01b8152600401808273ffffffffffffffffffffffffffffffffffffffff16815260200191505060206040518083038186803b1580156116ac57600080fd5b505afa1580156116c0573d6000803e3d6000fd5b505050506040513d60208110156116d657600080fd5b8101908080519060200190929190505050905060008111611742576040517f08c379a000000000000000000000000000000000000000000000000000000000815260040180806020018281038252603c815260200180614c11603c913960400191505060405180910390fd5b600560009054906101000a900473ffffffffffffffffffffffffffffffffffffffff1673ffffffffffffffffffffffffffffffffffffffff168273ffffffffffffffffffffffffffffffffffffffff1614156117e9576040517f08c379a000000000000000000000000000000000000000000000000000000000815260040180806020018281038252603681526020018061499e6036913960400191505060405180910390fd5b6000600480549050905060005b818110156118c7576004818154811061180b57fe5b9060005260206000200160009054906101000a900473ffffffffffffffffffffffffffffffffffffffff1673ffffffffffffffffffffffffffffffffffffffff168473ffffffffffffffffffffffffffffffffffffffff1614156118ba576040517f08c379a00000000000000000000000000000000000000000000000000000000081526004018080602001828103825260358152602001806149d46035913960400191505060405180910390fd5b80806001019150506117f6565b506118f384838573ffffffffffffffffffffffffffffffffffffffff166122fd9092919063ffffffff16565b8373ffffffffffffffffffffffffffffffffffffffff16827fdf1b625465761dd1a4330a9b3a21d4943183f301036528a3544f8d891fdce2c260405160405180910390a35050600180819055505050565b60008073ffffffffffffffffffffffffffffffffffffffff168273ffffffffffffffffffffffffffffffffffffffff1614156119cb576040517f08c379a000000000000000000000000000000000000000000000000000000000815260040180806020018281038252602d815260200180614a09602d913960400191505060405180910390fd5b6000600d60008473ffffffffffffffffffffffffffffffffffffffff1673ffffffffffffffffffffffffffffffffffffffff16815260200190815260200160002090508060030180549050915050919050565b6040517f08c379a000000000000000000000000000000000000000000000000000000000815260040180806020018281038252603d815260200180614b0a603d913960400191505060405180910390fd5b600a60009054906101000a900473ffffffffffffffffffffffffffffffffffffffff1673ffffffffffffffffffffffffffffffffffffffff163373ffffffffffffffffffffffffffffffffffffffff1614611b15576040517f08c379a0000000000000000000000000000000000000000000000000000000008152600401808060200182810382526029815260200180614c9e6029913960400191505060405180910390fd5b611b1f82826130ed565b5050565b60085481565b60048181548110611b3657fe5b906000526020600020016000915054906101000a900473ffffffffffffffffffffffffffffffffffffffff1681565b600e8181548110611b7257fe5b906000526020600020016000915054906101000a900473ffffffffffffffffffffffffffffffffffffffff1681565b600a60009054906101000a900473ffffffffffffffffffffffffffffffffffffffff1673ffffffffffffffffffffffffffffffffffffffff163373ffffffffffffffffffffffffffffffffffffffff1614611c47576040517f08c379a0000000000000000000000000000000000000000000000000000000008152600401808060200182810382526029815260200180614c9e6029913960400191505060405180910390fd5b80600e9080519060200190611c5d929190614818565b5050565b60008073ffffffffffffffffffffffffffffffffffffffff168373ffffffffffffffffffffffffffffffffffffffff161415611ce8576040517f08c379a0000000000000000000000000000000000000000000000000000000008152600401808060200182810382526027815260200180614bea6027913960400191505060405180910390fd5b6000600d60008573ffffffffffffffffffffffffffffffffffffffff1673ffffffffffffffffffffffffffffffffffffffff1681526020019081526020016000209050806003018381548110611d3a57fe5b906000526020600020015491505092915050565b6000611d586122f5565b90506008548111611d695750611f4c565b60006007548210611d7c57600754611d7e565b815b90506000600854820390506000811415611d9a57505050611f4c565b60006002541415611db45781600881905550505050611f4c565b6000600480549050905060005b81811015611f3f57600060048281548110611dd857fe5b9060005260206000200160009054906101000a900473ffffffffffffffffffffffffffffffffffffffff1673ffffffffffffffffffffffffffffffffffffffff1663313ce5676040518163ffffffff1660e01b815260040160206040518083038186803b158015611e4857600080fd5b505afa158015611e5c573d6000803e3d6000fd5b505050506040513d6020811015611e7257600080fd5b810190808051906020019092919050505060ff169050600081600a0a90506000611ebc60038581548110611ea257fe5b90600052602060002001548761314790919063ffffffff16565b90506000611ee7600254611ed9858561314790919063ffffffff16565b6131cd90919063ffffffff16565b9050611f138160098781548110611efa57fe5b906000526020600020015461325690919063ffffffff16565b60098681548110611f2057fe5b9060005260206000200181905550505050508080600101915050611dc1565b5082600881905550505050505b565b600080611f596122f5565b905060006007548210611f6e57600754611f70565b815b90506000611f89600854836132de90919063ffffffff16565b9050600060048681548110611f9a57fe5b9060005260206000200160009054906101000a900473ffffffffffffffffffffffffffffffffffffffff1673ffffffffffffffffffffffffffffffffffffffff1663313ce5676040518163ffffffff1660e01b815260040160206040518083038186803b15801561200a57600080fd5b505afa15801561201e573d6000803e3d6000fd5b505050506040513d602081101561203457600080fd5b810190808051906020019092919050505060ff169050600081600a0a9050600061207e6003898154811061206457fe5b90600052602060002001548561314790919063ffffffff16565b905060006120a960025461209b858561314790919063ffffffff16565b6131cd90919063ffffffff16565b905060006120d78260098c815481106120be57fe5b906000526020600020015461325690919063ffffffff16565b90506000600d60008d73ffffffffffffffffffffffffffffffffffffffff1673ffffffffffffffffffffffffffffffffffffffff168152602001908152602001600020905060006121478661213985856001015461314790919063ffffffff16565b6131cd90919063ffffffff16565b90506000612177836002018e8154811061215d57fe5b9060005260206000200154836132de90919063ffffffff16565b90506121a581846003018f8154811061218c57fe5b906000526020600020015461325690919063ffffffff16565b9b50505050505050505050505092915050565b6121c13361239f565b565b60008073ffffffffffffffffffffffffffffffffffffffff168373ffffffffffffffffffffffffffffffffffffffff16141561224a576040517f08c379a000000000000000000000000000000000000000000000000000000000815260040180806020018281038252602781526020018061490b6027913960400191505060405180910390fd5b6000600d60008573ffffffffffffffffffffffffffffffffffffffff1673ffffffffffffffffffffffffffffffffffffffff168152602001908152602001600020905080600201838154811061229c57fe5b906000526020600020015491505092915050565b7f000000000000000000000000000000000000000000000000000000000000000081565b600981815481106122e157fe5b906000526020600020016000915090505481565b600043905090565b61239a8363a9059cbb60e01b8484604051602401808373ffffffffffffffffffffffffffffffffffffffff16815260200182815260200192505050604051602081830303815290604052907bffffffffffffffffffffffffffffffffffffffffffffffffffffffff19166020820180517bffffffffffffffffffffffffffffffffffffffffffffffffffffffff8381831617835250505050613361565b505050565b6000600d60008373ffffffffffffffffffffffffffffffffffffffff1673ffffffffffffffffffffffffffffffffffffffff16815260200190815260200160002090506000816001015414156123f5575061276a565b6123fd611d4e565b612406826135ac565b6000612474600f60008573ffffffffffffffffffffffffffffffffffffffff1673ffffffffffffffffffffffffffffffffffffffff168152602001908152602001600020548360030160008154811061245b57fe5b90600052602060002001546132de90919063ffffffff16565b90506000600e80549050905060005b818110156126d45760006124cf8685600e858154811061249f57fe5b9060005260206000200160009054906101000a900473ffffffffffffffffffffffffffffffffffffffff16613647565b9050600081111561259b57600e82815481106124e757fe5b9060005260206000200160009054906101000a900473ffffffffffffffffffffffffffffffffffffffff1673ffffffffffffffffffffffffffffffffffffffff16638c6cf61187836040518363ffffffff1660e01b8152600401808373ffffffffffffffffffffffffffffffffffffffff16815260200182815260200192505050600060405180830381600087803b15801561258257600080fd5b505af1158015612596573d6000803e3d6000fd5b505050505b6000600e83815481106125aa57fe5b9060005260206000200160009054906101000a900473ffffffffffffffffffffffffffffffffffffffff1673ffffffffffffffffffffffffffffffffffffffff1663b42652e9886040518263ffffffff1660e01b8152600401808273ffffffffffffffffffffffffffffffffffffffff168152602001915050602060405180830381600087803b15801561263d57600080fd5b505af1158015612651573d6000803e3d6000fd5b505050506040513d602081101561266757600080fd5b810190808051906020019092919050505090506126c587827f000000000000000000000000000000000000000000000000000000000000000073ffffffffffffffffffffffffffffffffffffffff166122fd9092919063ffffffff16565b50508080600101915050612483565b506126de84613734565b6000600f60008673ffffffffffffffffffffffffffffffffffffffff1673ffffffffffffffffffffffffffffffffffffffff168152602001908152602001600020819055508373ffffffffffffffffffffffffffffffffffffffff167f73d36a08b171571d289bbb4c400b9c74176d5be660fae67a23ed20ba1120d58360405160405180910390a25050505b50565b600073ffffffffffffffffffffffffffffffffffffffff168373ffffffffffffffffffffffffffffffffffffffff161415612810576040517f08c379a000000000000000000000000000000000000000000000000000000000815260040180806020018281038252601d8152602001807f5f7374616b65416e644c6f636b3a3a496e76616c6964207374616b657200000081525060200191505060405180910390fd5b60008211612886576040517f08c379a000000000000000000000000000000000000000000000000000000000815260040180806020018281038252601c8152602001807f7374616b65416e644c6f636b3a3a43616e6e6f74207374616b6520300000000081525060200191505060405180910390fd5b6000600d60008573ffffffffffffffffffffffffffffffffffffffff1673ffffffffffffffffffffffffffffffffffffffff168152602001908152602001600020905060006128d3611d4e565b6128dc856135ac565b816003016000815481106128ec57fe5b906000526020600020015490506000600e80549050905060005b81811015612a735760006129a388612966600f60008c73ffffffffffffffffffffffffffffffffffffffff1673ffffffffffffffffffffffffffffffffffffffff16815260200190815260200160002054876132de90919063ffffffff16565b600e858154811061297357fe5b9060005260206000200160009054906101000a900473ffffffffffffffffffffffffffffffffffffffff16613647565b9050600e82815481106129b257fe5b9060005260206000200160009054906101000a900473ffffffffffffffffffffffffffffffffffffffff1673ffffffffffffffffffffffffffffffffffffffff16638c6cf61189836040518363ffffffff1660e01b8152600401808373ffffffffffffffffffffffffffffffffffffffff16815260200182815260200192505050600060405180830381600087803b158015612a4d57600080fd5b505af1158015612a61573d6000803e3d6000fd5b50505050508080600101915050612906565b5081600f60008873ffffffffffffffffffffffffffffffffffffffff1673ffffffffffffffffffffffffffffffffffffffff16815260200190815260200160002081905550612ac4858760016137e4565b8373ffffffffffffffffffffffffffffffffffffffff1663282d3fdf87876040518363ffffffff1660e01b8152600401808373ffffffffffffffffffffffffffffffffffffffff16815260200182815260200192505050600060405180830381600087803b158015612b3557600080fd5b505af1158015612b49573d6000803e3d6000fd5b505050508573ffffffffffffffffffffffffffffffffffffffff167f5ae9eac9eae389addf073e8e829ae488ab31d186b6234575446951ba6e53390e8686604051808381526020018273ffffffffffffffffffffffffffffffffffffffff1681526020019250505060405180910390a2505050505050565b806000808273ffffffffffffffffffffffffffffffffffffffff1673ffffffffffffffffffffffffffffffffffffffff16815260200190815260200160002060009054906101000a900460ff16612c63576040517f08c379a000000000000000000000000000000000000000000000000000000000815260040180806020018281038252602c815260200180614bbe602c913960400191505060405180910390fd5b6000600d60008573ffffffffffffffffffffffffffffffffffffffff1673ffffffffffffffffffffffffffffffffffffffff1681526020019081526020016000209050600081600101541415612cb957506130e8565b612cc1611d4e565b612cca846135ac565b6000612d38600f60008773ffffffffffffffffffffffffffffffffffffffff1673ffffffffffffffffffffffffffffffffffffffff1681526020019081526020016000205483600301600081548110612d1f57fe5b90600052602060002001546132de90919063ffffffff16565b90506000600e8054905090506000600f60008873ffffffffffffffffffffffffffffffffffffffff1673ffffffffffffffffffffffffffffffffffffffff1681526020019081526020016000208190555060008060005b83811015612fa7576000612ddb8a87600e8581548110612dab57fe5b9060005260206000200160009054906101000a900473ffffffffffffffffffffffffffffffffffffffff16613647565b90506000811115612ea757600e8281548110612df357fe5b9060005260206000200160009054906101000a900473ffffffffffffffffffffffffffffffffffffffff1673ffffffffffffffffffffffffffffffffffffffff16638c6cf6118b836040518363ffffffff1660e01b8152600401808373ffffffffffffffffffffffffffffffffffffffff16815260200182815260200192505050600060405180830381600087803b158015612e8e57600080fd5b505af1158015612ea2573d6000803e3d6000fd5b505050505b600e8281548110612eb457fe5b9060005260206000200160009054906101000a900473ffffffffffffffffffffffffffffffffffffffff1673ffffffffffffffffffffffffffffffffffffffff1663b42652e98b6040518263ffffffff1660e01b8152600401808273ffffffffffffffffffffffffffffffffffffffff168152602001915050602060405180830381600087803b158015612f4757600080fd5b505af1158015612f5b573d6000803e3d6000fd5b505050506040513d6020811015612f7157600080fd5b81019080805190602001909291905050509350612f97848461325690919063ffffffff16565b9250508080600101915050612d8f565b50612fd585600301600081548110612fbb57fe5b90600052602060002001548261325690919063ffffffff16565b9050612fe5856001015489613d05565b600085600301600081548110612ff757fe5b906000526020600020018190555061300e88613ff9565b61305987827f000000000000000000000000000000000000000000000000000000000000000073ffffffffffffffffffffffffffffffffffffffff166141b89092919063ffffffff16565b8673ffffffffffffffffffffffffffffffffffffffff16633c323a1b89836040518363ffffffff1660e01b8152600401808373ffffffffffffffffffffffffffffffffffffffff16815260200182815260200192505050600060405180830381600087803b1580156130ca57600080fd5b505af11580156130de573d6000803e3d6000fd5b5050505050505050505b505050565b806000808473ffffffffffffffffffffffffffffffffffffffff1673ffffffffffffffffffffffffffffffffffffffff16815260200190815260200160002060006101000a81548160ff0219169083151502179055505050565b60008083141561315a57600090506131c7565b600082840290508284828161316b57fe5b04146131c2576040517f08c379a0000000000000000000000000000000000000000000000000000000008152600401808060200182810382526021815260200180614b9d6021913960400191505060405180910390fd5b809150505b92915050565b6000808211613244576040517f08c379a000000000000000000000000000000000000000000000000000000000815260040180806020018281038252601a8152602001807f536166654d6174683a206469766973696f6e206279207a65726f00000000000081525060200191505060405180910390fd5b81838161324d57fe5b04905092915050565b6000808284019050838110156132d4576040517f08c379a000000000000000000000000000000000000000000000000000000000815260040180806020018281038252601b8152602001807f536166654d6174683a206164646974696f6e206f766572666c6f77000000000081525060200191505060405180910390fd5b8091505092915050565b600082821115613356576040517f08c379a000000000000000000000000000000000000000000000000000000000815260040180806020018281038252601e8152602001807f536166654d6174683a207375627472616374696f6e206f766572666c6f77000081525060200191505060405180910390fd5b818303905092915050565b6133808273ffffffffffffffffffffffffffffffffffffffff1661437d565b6133f2576040517f08c379a000000000000000000000000000000000000000000000000000000000815260040180806020018281038252601f8152602001807f5361666545524332303a2063616c6c20746f206e6f6e2d636f6e74726163740081525060200191505060405180910390fd5b600060608373ffffffffffffffffffffffffffffffffffffffff16836040518082805190602001908083835b60208310613441578051825260208201915060208101905060208303925061341e565b6001836020036101000a0380198251168184511680821785525050505050509050019150506000604051808303816000865af19150503d80600081146134a3576040519150601f19603f3d011682016040523d82523d6000602084013e6134a8565b606091505b509150915081613520576040517f08c379a00000000000000000000000000000000000000000000000000000000081526004018080602001828103825260208152602001807f5361666545524332303a206c6f772d6c6576656c2063616c6c206661696c656481525060200191505060405180910390fd5b6000815111156135a65780806020019051602081101561353f57600080fd5b81019080805190602001909291905050506135a5576040517f08c379a000000000000000000000000000000000000000000000000000000000815260040180806020018281038252602a815260200180614c74602a913960400191505060405180910390fd5b5b50505050565b6000600d60008373ffffffffffffffffffffffffffffffffffffffff1673ffffffffffffffffffffffffffffffffffffffff16815260200190815260200160002090506135f882614390565b6136018261444c565b6000816001015414156136145750613644565b6000600480549050905060005b81811015613640576136338482614508565b8080600101915050613621565b5050505b50565b600080600254141561365c576000905061372d565b60008273ffffffffffffffffffffffffffffffffffffffff166322b0039a866040518263ffffffff1660e01b8152600401808273ffffffffffffffffffffffffffffffffffffffff16815260200191505060206040518083038186803b1580156136c557600080fd5b505afa1580156136d9573d6000803e3d6000fd5b505050506040513d60208110156136ef57600080fd5b8101908080519060200190929190505050905061372960025461371b838761314790919063ffffffff16565b6131cd90919063ffffffff16565b9150505b9392505050565b6000600d60008373ffffffffffffffffffffffffffffffffffffffff1673ffffffffffffffffffffffffffffffffffffffff168152602001908152602001600020905061378082613ff9565b61378e816001015483613d05565b8173ffffffffffffffffffffffffffffffffffffffff167f920bb94eb3842a728db98228c375ff6b00c5bc5a54fac6736155517a0a20a61a82600101546040518082815260200191505060405180910390a25050565b60006137ee6122f5565b9050600654811161384a576040517f08c379a0000000000000000000000000000000000000000000000000000000008152600401808060200182810382526022815260200180614b7b6022913960400191505060405180910390fd5b6007548111156138c2576040517f08c379a000000000000000000000000000000000000000000000000000000000815260040180806020018281038252601b8152602001807f5374616b653a3a5374616b696e67206861732066696e6973686564000000000081525060200191505060405180910390fd5b82846000600d60008473ffffffffffffffffffffffffffffffffffffffff1673ffffffffffffffffffffffffffffffffffffffff1681526020019081526020016000209050600b5461392183836001015461325690919063ffffffff16565b1115613978576040517f08c379a0000000000000000000000000000000000000000000000000000000008152600401808060200182810382526028815260200180614aa66028913960400191505060405180910390fd5b600c546139908360025461325690919063ffffffff16565b11156139e7576040517f08c379a0000000000000000000000000000000000000000000000000000000008152600401808060200182810382526031815260200180614a756031913960400191505060405180910390fd5b60008711613a5d576040517f08c379a00000000000000000000000000000000000000000000000000000000081526004018080602001828103825260158152602001807f5374616b653a3a43616e6e6f74207374616b652030000000000000000000000081525060200191505060405180910390fd5b6000600d60008873ffffffffffffffffffffffffffffffffffffffff1673ffffffffffffffffffffffffffffffffffffffff1681526020019081526020016000209050600081600101541415613ab757613ab687614700565b5b613abf611d4e565b613ac8876135ac565b613adf88826001015461325690919063ffffffff16565b8160010181905550613afc8860025461325690919063ffffffff16565b6002819055506000600480549050905060005b81811015613c5057600060048281548110613b2657fe5b9060005260206000200160009054906101000a900473ffffffffffffffffffffffffffffffffffffffff1673ffffffffffffffffffffffffffffffffffffffff1663313ce5676040518163ffffffff1660e01b815260040160206040518083038186803b158015613b9657600080fd5b505afa158015613baa573d6000803e3d6000fd5b505050506040513d6020811015613bc057600080fd5b810190808051906020019092919050505060ff169050600081600a0a90506000613c2082613c1260098781548110613bf457fe5b9060005260206000200154896001015461314790919063ffffffff16565b6131cd90919063ffffffff16565b905080866002018581548110613c3257fe5b90600052602060002001819055505050508080600101915050613b0f565b50613cac87613c5f5733613c61565b885b308b600560009054906101000a900473ffffffffffffffffffffffffffffffffffffffff1673ffffffffffffffffffffffffffffffffffffffff16614757909392919063ffffffff16565b8773ffffffffffffffffffffffffffffffffffffffff167f9e71bc8eea02a63969f509818f2dafb9254532904319f9dbda79b67bd34a5f3d8a6040518082815260200191505060405180910390a2505050505050505050565b60008211613d7b576040517f08c379a000000000000000000000000000000000000000000000000000000000815260040180806020018281038252601b8152602001807f57697468647261773a3a43616e6e6f742077697468647261772030000000000081525060200191505060405180910390fd5b6000600d60008373ffffffffffffffffffffffffffffffffffffffff1673ffffffffffffffffffffffffffffffffffffffff1681526020019081526020016000209050613dc6611d4e565b613dcf826135ac565b613de68382600101546132de90919063ffffffff16565b8160010181905550613e03836002546132de90919063ffffffff16565b6002819055506000600480549050905060005b81811015613f5757600060048281548110613e2d57fe5b9060005260206000200160009054906101000a900473ffffffffffffffffffffffffffffffffffffffff1673ffffffffffffffffffffffffffffffffffffffff1663313ce5676040518163ffffffff1660e01b815260040160206040518083038186803b158015613e9d57600080fd5b505afa158015613eb1573d6000803e3d6000fd5b505050506040513d6020811015613ec757600080fd5b810190808051906020019092919050505060ff169050600081600a0a90506000613f2782613f1960098781548110613efb57fe5b9060005260206000200154896001015461314790919063ffffffff16565b6131cd90919063ffffffff16565b905080866002018581548110613f3957fe5b90600052602060002001819055505050508080600101915050613e16565b50613fa58385600560009054906101000a900473ffffffffffffffffffffffffffffffffffffffff1673ffffffffffffffffffffffffffffffffffffffff166122fd9092919063ffffffff16565b8273ffffffffffffffffffffffffffffffffffffffff167f7084f5476618d8e60b11ef0d7d3f06914655adb8793e28ff7f018d4c76d505d5856040518082815260200191505060405180910390a250505050565b6000600d60008373ffffffffffffffffffffffffffffffffffffffff1673ffffffffffffffffffffffffffffffffffffffff1681526020019081526020016000209050614044611d4e565b61404d826135ac565b6000600480549050905060005b818110156141b257600083600301828154811061407357fe5b90600052602060002001549050600084600301838154811061409157fe5b90600052602060002001819055506141018582600485815481106140b157fe5b9060005260206000200160009054906101000a900473ffffffffffffffffffffffffffffffffffffffff1673ffffffffffffffffffffffffffffffffffffffff166122fd9092919063ffffffff16565b8473ffffffffffffffffffffffffffffffffffffffff167f7e6632ca16a0ac6cf28448500b1a17d96c8b8163ad4c4a9b44ef5386cc02779e826004858154811061414757fe5b9060005260206000200160009054906101000a900473ffffffffffffffffffffffffffffffffffffffff16604051808381526020018273ffffffffffffffffffffffffffffffffffffffff1681526020019250505060405180910390a250808060010191505061405a565b50505050565b6000811480614286575060008373ffffffffffffffffffffffffffffffffffffffff1663dd62ed3e30856040518363ffffffff1660e01b8152600401808373ffffffffffffffffffffffffffffffffffffffff1681526020018273ffffffffffffffffffffffffffffffffffffffff1681526020019250505060206040518083038186803b15801561424957600080fd5b505afa15801561425d573d6000803e3d6000fd5b505050506040513d602081101561427357600080fd5b8101908080519060200190929190505050145b6142db576040517f08c379a0000000000000000000000000000000000000000000000000000000008152600401808060200182810382526036815260200180614cc76036913960400191505060405180910390fd5b6143788363095ea7b360e01b8484604051602401808373ffffffffffffffffffffffffffffffffffffffff16815260200182815260200192505050604051602081830303815290604052907bffffffffffffffffffffffffffffffffffffffffffffffffffffffff19166020820180517bffffffffffffffffffffffffffffffffffffffffffffffffffffffff8381831617835250505050613361565b505050565b600080823b905060008111915050919050565b6000600d60008373ffffffffffffffffffffffffffffffffffffffff1673ffffffffffffffffffffffffffffffffffffffff1681526020019081526020016000209050600480549050816002018054905014156143ed5750614449565b600060048054905090506000826002018054905090505b818110156144455782600201600090806001815401808255809150506001900390600052602060002001600090919091909150558080600101915050614404565b5050505b50565b6000600d60008373ffffffffffffffffffffffffffffffffffffffff1673ffffffffffffffffffffffffffffffffffffffff1681526020019081526020016000209050600480549050816003018054905014156144a95750614505565b600060048054905090506000826003018054905090505b8181101561450157826003016000908060018154018082558091505060019003906000526020600020016000909190919091505580806001019150506144c0565b5050505b50565b6000600d60008473ffffffffffffffffffffffffffffffffffffffff1673ffffffffffffffffffffffffffffffffffffffff168152602001908152602001600020905060006004838154811061455a57fe5b9060005260206000200160009054906101000a900473ffffffffffffffffffffffffffffffffffffffff1673ffffffffffffffffffffffffffffffffffffffff1663313ce5676040518163ffffffff1660e01b815260040160206040518083038186803b1580156145ca57600080fd5b505afa1580156145de573d6000803e3d6000fd5b505050506040513d60208110156145f457600080fd5b810190808051906020019092919050505060ff169050600081600a0a90506000614654826146466009888154811061462857fe5b9060005260206000200154876001015461314790919063ffffffff16565b6131cd90919063ffffffff16565b9050600061468485600201878154811061466a57fe5b9060005260206000200154836132de90919063ffffffff16565b905060008111156146f7576146bb818660030188815481106146a257fe5b906000526020600020015461325690919063ffffffff16565b8560030187815481106146ca57fe5b9060005260206000200181905550818560020187815481106146e857fe5b90600052602060002001819055505b50505050505050565b6000600d60008373ffffffffffffffffffffffffffffffffffffffff1673ffffffffffffffffffffffffffffffffffffffff168152602001908152602001600020905061474b6122f5565b81600001819055505050565b614812846323b872dd60e01b858585604051602401808473ffffffffffffffffffffffffffffffffffffffff1681526020018373ffffffffffffffffffffffffffffffffffffffff1681526020018281526020019350505050604051602081830303815290604052907bffffffffffffffffffffffffffffffffffffffffffffffffffffffff19166020820180517bffffffffffffffffffffffffffffffffffffffffffffffffffffffff8381831617835250505050613361565b50505050565b828054828255906000526020600020908101928215614891579160200282015b828111156148905782518260006101000a81548173ffffffffffffffffffffffffffffffffffffffff021916908373ffffffffffffffffffffffffffffffffffffffff16021790555091602001919060010190614838565b5b50905061489e91906148a2565b5090565b5b808211156148d957600081816101000a81549073ffffffffffffffffffffffffffffffffffffffff0219169055506001016148a3565b509056fe47657455736572526577617264446562744c656e6774683a3a496e76616c69642075736572206164647265737347657455736572526577617264446562743a3a496e76616c6964207573657220616464726573734c69717569646974794d696e696e6743616d706169676e3a3a6578697420616e64207472616e7366657220697320666f7262696464656e457874656e643a3a456e6420626c6f636b206d757374206265206166746572207468652063757272656e7420656e6420626c6f636b57697468647261774c50526577617264733a3a2063616e6e6f742077697468647261772066726f6d20746865204c5020746f6b656e7357697468647261774c50526577617264733a3a43616e6e6f742077697468647261772066726f6d20746f6b656e207265776172647347657455736572546f6b656e734f7765644c656e6774683a3a496e76616c6964207573657220616464726573734f6e6c7945786974466561747572653a3a63616e6e6f742077697468647261772066726f6d207468697320636f6e74726163742e204f6e6c7920657869742e6f6e6c79556e6465725374616b654c696d69743a3a436f6e7472616374205374616b65206c696d697420726561636865646f6e6c79556e6465725374616b654c696d69743a3a5374616b65206c696d697420726561636865644f6e6c7945786974466561747572653a3a63616e6e6f7420636c61696d2066726f6d207468697320636f6e74726163742e204f6e6c7920657869742e4c69717569646974794d696e696e6743616d706169676e3a3a7374616b696e6720776974686f7574206c6f636b696e6720697320666f7262696464656e457874656e643a3a5265776172647320616d6f756e7473206c656e677468206973206c657373207468616e2065787065637465645374616b653a3a5374616b696e6720686173206e6f74207965742073746172746564536166654d6174683a206d756c7469706c69636174696f6e206f766572666c6f7765786974416e645472616e736665723a3a7265636569766572206973206e6f742077686974656c6973746564476574557365724f776564546f6b656e733a3a496e76616c69642075736572206164647265737357697468647261774c50526577617264733a3a546865726520617265206e6f20726577617264732066726f6d206c697175696469747920706f6f6c73457874656e643a3a456e6420626c6f636b206d75737420626520696e20746865206675747572655361666545524332303a204552433230206f7065726174696f6e20646964206e6f74207375636365656443616c6c6572206973206e6f742052657761726473506f6f6c466163746f727920636f6e74726163745361666545524332303a20617070726f76652066726f6d206e6f6e2d7a65726f20746f206e6f6e2d7a65726f20616c6c6f77616e6365a2646970667358221220ba1435314e45f41e3ff351dc4ea2dd65cf49665072b9856b0211550c3147334464736f6c634300060c0033436f6e7374727563746f723a3a5374616b65206c696d6974206e6565647320746f206265206d6f7265207468616e2030436f6e7374727563746f723a3a54686520656e6420626c6f636b206d75737420626520696e20746865206675747572652e436f6e7374727563746f723a3a526577617264732070657220626c6f636b20616e64207265776172647320746f6b656e73206d7573742062652077697468207468652073616d65206c656e6774682e436f6e7374727563746f723a3a20436f6e7472616374205374616b65206c696d6974206e6565647320746f206265206d6f7265207468616e2030436f6e7374727563746f723a3a546865207374617274696e6720626c6f636b206d75737420626520696e20746865206675747572652e636f6e7374727563746f723a3a2054686520666972737420726577617264206164647265737320697320646966666572656e742066726f6d2074686520414c42544c69717569646974794d696e696e6743616d706169676e466163746f72793a3a6465706c6f793a205374616b696e6720746f6b656e20616464726573732063616e2774206265207a65726f20616464726573734c69717569646974794d696e696e6743616d706169676e466163746f72793a3a6465706c6f793a205374616b65206c696d6974206d757374206265206d6f7265207468616e2030656e61626c655265636569766572733a3a52656365697665722063616e6e6f7420626520304c69717569646974794d696e696e6743616d706169676e466163746f72793a3a6465706c6f793a2052657761726420746f6b656e206164647265737320636f756c64206e6f7420626520696e76616c69644c69717569646974794d696e696e6743616d706169676e466163746f72793a3a6465706c6f793a2052657761726473546f6b656e7320617272617920636f756c64206e6f7420626520656d7074794c69717569646974794d696e696e6743616d706169676e466163746f72793a3a6465706c6f793a205265776172642070657220626c6f636b206d7573742062652067726561746572207468616e207a65726f63616c63756c61746552657761726473416d6f756e743a3a20526577617264732070657220626c6f636b206d7573742062652067726561746572207468616e207a65726f656e61626c655265636569766572733a3a5472616e7366657265722063616e6e6f7420626520307365744c6f636b536368656d6573546f4c4d433a3a20496e76616c6964204c4d432061646472657373536166654d6174683a206d756c7469706c69636174696f6e206f766572666c6f7753656e64657220697320646966666572656e742066726f6d2070726f706f736564206f776e65724c69717569646974794d696e696e6743616d706169676e466163746f72793a3a6465706c6f793a2052657761726473546f6b656e7320616e6420526577617264506572426c6f636b2073686f756c6420686176652061206d61746368696e672073697a65736f6e6c794f776e65723a3a205468652063616c6c6572206973206e6f7420746865206f776e65727365744c6f636b536368656d6573546f4c4d433a3a204c6f636b536368656d65732061727261792063616e277420626520656d7074795361666545524332303a204552433230206f7065726174696f6e20646964206e6f742073756363656564a2646970667358221220a240c56164a82c4b0b593f2b2c3b6d93cbd051778932e27dbb0e78719da68eb864736f6c634300060c0033",
  "source": "// SPDX-License-Identifier: MIT\npragma solidity 0.6.12;\n\nimport \"openzeppelin-solidity/contracts/math/Math.sol\";\nimport \"openzeppelin-solidity/contracts/math/SafeMath.sol\";\nimport \"./interfaces/IERC20Detailed.sol\";\nimport \"./SafeERC20Detailed.sol\";\nimport \"./AbstractPoolsFactory.sol\";\nimport \"./V2/factories/StakeTransferEnabledFactory.sol\";\nimport \"./LiquidityMiningCampaign.sol\";\n\n\ncontract LiquidityMiningCampaignFactory is AbstractPoolsFactory, StakeTransferEnabledFactory {\n\n\n\tusing SafeMath for uint256;\n\tusing SafeERC20Detailed for IERC20Detailed;\n\n\tevent RewardsPoolDeployed(\n\t\taddress indexed rewardsPoolAddress,\n\t\taddress indexed stakingToken\n\t);\n\t\n\n\t/* ========== Permissioned FUNCTIONS ========== */\n\n\t/** @dev Deploy a reward pool base contract for the staking token, with the given parameters.\n\t * @param _stakingToken The address of the token being staked\n\t * @param _startBlock The start block of the rewards pool\n\t * @param _endBlock The end block of the rewards pool\n\t * @param _rewardsTokens The addresses of the tokens the rewards will be paid in\n\t * @param _rewardPerBlock Rewards per block\n\t * @param _stakeLimit The stake limit per user\n\t */\n\tfunction deploy(\n\t\taddress _stakingToken,\n\t\tuint256 _startBlock,\n\t\tuint256 _endBlock,\n\t\taddress[] calldata _rewardsTokens,\n\t\tuint256[] calldata _rewardPerBlock,\n\t\taddress _albtAddress,\n\t\tuint256 _stakeLimit,\n\t\tuint256 _contractStakeLimit\n\t) external onlyOwner {\n\t\trequire(\n\t\t\t_stakingToken != address(0),\n\t\t\t\"LiquidityMiningCampaignFactory::deploy: Staking token address can't be zero address\"\n\t\t);\n\t\trequire(\n\t\t\t_rewardsTokens.length != 0,\n\t\t\t\"LiquidityMiningCampaignFactory::deploy: RewardsTokens array could not be empty\"\n\t\t);\n\t\trequire(\n\t\t\t_rewardsTokens.length == _rewardPerBlock.length,\n\t\t\t\"LiquidityMiningCampaignFactory::deploy: RewardsTokens and RewardPerBlock should have a matching sizes\"\n\t\t);\n\n\t\trequire(\n\t\t\t_stakeLimit != 0,\n\t\t\t\"LiquidityMiningCampaignFactory::deploy: Stake limit must be more than 0\"\n\t\t);\n\n\t\taddress rewardsPoolBase =\n\t\t\taddress(\n\t\t\t\tnew LiquidityMiningCampaign(\n\t\t\t\t\tIERC20Detailed(_stakingToken),\n\t\t\t\t\t_startBlock,\n\t\t\t\t\t_endBlock,\n\t\t\t\t\t_rewardsTokens,\n\t\t\t\t\t_rewardPerBlock,\n\t\t\t\t\t_albtAddress,\n\t\t\t\t\t_stakeLimit,\n\t\t\t\t\t_contractStakeLimit\n\t\t\t\t)\n\t\t\t);\n\n\t\tfor (uint256 i = 0; i < _rewardsTokens.length; i++) {\n\n\t\t\trequire(\n\t\t\t\t_rewardsTokens[i] != address(0),\n\t\t\t\t\"LiquidityMiningCampaignFactory::deploy: Reward token address could not be invalid\"\n\t\t\t);\n\t\t\trequire(\n\t\t\t\t_rewardPerBlock[i] != 0,\n\t\t\t\t\"LiquidityMiningCampaignFactory::deploy: Reward per block must be greater than zero\"\n\t\t\t);\n\n\t\t\tuint256 rewardsAmount =\n\t\t\t\tcalculateRewardsAmount(\n\t\t\t\t\t_startBlock,\n\t\t\t\t\t_endBlock,\n\t\t\t\t\t_rewardPerBlock[i]\n\t\t\t\t);\n\t\t\tIERC20Detailed(_rewardsTokens[i]).safeTransfer(\n\t\t\t\trewardsPoolBase,\n\t\t\t\trewardsAmount\n\t\t\t);\n\t\t}\n\t\trewardsPools.push(rewardsPoolBase);\n\n\t\temit RewardsPoolDeployed(rewardsPoolBase, _stakingToken);\n\t}\n\n\t/** @dev Function that will extend the rewards period, but not change the reward rate, for a given staking contract.\n\t * @param _endBlock The new endblock for the rewards pool.\n\t * @param _rewardsPerBlock Rewards per block .\n\t * @param _rewardsPoolAddress The address of the RewardsPoolBase contract.\n\t */\n\tfunction extendRewardPool(\n\t\tuint256 _endBlock,\n\t\tuint256[] calldata _rewardsPerBlock,\n\t\taddress _rewardsPoolAddress\n\t) external onlyOwner {\n\n\t\tRewardsPoolBase pool = RewardsPoolBase(_rewardsPoolAddress);\n\t\tuint256 currentEndBlock = pool.endBlock();\n\t\tuint256[] memory currentRemainingRewards = new uint256[](_rewardsPerBlock.length);\n\t\tuint256[] memory newRemainingRewards = new uint256[](_rewardsPerBlock.length);\n\n\t\tfor (uint256 i = 0; i < _rewardsPerBlock.length; i++) {\n\n\t\t\tcurrentRemainingRewards[i] = calculateRewardsAmount(block.number, currentEndBlock, pool.rewardPerBlock(i));\n\t\t\tnewRemainingRewards[i] = calculateRewardsAmount(block.number, _endBlock, _rewardsPerBlock[i]);\n\n\t\t\taddress rewardsToken = RewardsPoolBase(_rewardsPoolAddress).rewardsTokens(i);\n\n\t\t\tif (newRemainingRewards[i] > currentRemainingRewards[i]) {\n\t\t\t\t// Some more reward needs to be transferred to the rewards pool contract\n\t\t\t\tIERC20Detailed(rewardsToken).safeTransfer(_rewardsPoolAddress, (newRemainingRewards[i] - currentRemainingRewards[i]));\n\t\t\t}\n\t\t}\n\n\t\tRewardsPoolBase(_rewardsPoolAddress).extend(\n\t\t\t_endBlock,\n\t\t\t_rewardsPerBlock,\n\t\t\tcurrentRemainingRewards,\n\t\t\tnewRemainingRewards\n\t\t);\n\n\t}\n\n\tfunction setLockSchemesToLMC(address[] memory _lockSchemes, address _rewardsPoolAddress) external onlyOwner() {\n\t\trequire(_rewardsPoolAddress != address(0x0), \"setLockSchemesToLMC:: Invalid LMC address\");\n\t\trequire(_lockSchemes.length != 0, \"setLockSchemesToLMC:: LockSchemes array can't be empty\");\n\t\tLiquidityMiningCampaign pool = LiquidityMiningCampaign(_rewardsPoolAddress);\n\n\t\tpool.setLockSchemes(_lockSchemes);\n\t}\n\n}",
  "sourcePath": "/home/hellowodl/lmaas-liquidity-staker/contracts/LiquidityMiningCampaignFactory.sol",
  "compiler": {
    "name": "solc",
    "version": "0.6.12+commit.27d51765.Emscripten.clang",
    "optimizer": false,
    "runs": 200
  },
  "schemaVersion": "2.3.5",
  "updatedAt": "2021-04-27T17:14:31.116Z"
}