{
  "contractName": "LockScheme",
  "abi": [
    {
      "inputs": [
        {
          "internalType": "uint256",
          "name": "_lockPeriod",
          "type": "uint256"
        },
        {
          "internalType": "uint256",
          "name": "_rampUpPeriod",
          "type": "uint256"
        },
        {
          "internalType": "uint256",
          "name": "_bonusPercent",
          "type": "uint256"
        },
        {
          "internalType": "address",
          "name": "_lmcContract",
          "type": "address"
        }
      ],
      "stateMutability": "nonpayable",
      "type": "constructor"
    },
    {
      "anonymous": false,
      "inputs": [
        {
          "indexed": true,
          "internalType": "address",
          "name": "_userAddress",
          "type": "address"
        },
        {
          "indexed": false,
          "internalType": "uint256",
          "name": "bonus",
          "type": "uint256"
        },
        {
          "indexed": false,
          "internalType": "bool",
          "name": "isBonusForreied",
          "type": "bool"
        }
      ],
      "name": "Exit",
      "type": "event"
    },
    {
      "anonymous": false,
      "inputs": [
        {
          "indexed": true,
          "internalType": "address",
          "name": "_userAddress",
          "type": "address"
        },
        {
          "indexed": false,
          "internalType": "uint256",
          "name": "_amountLocked",
          "type": "uint256"
        },
        {
          "indexed": false,
          "internalType": "uint256",
          "name": "_additionalReward",
          "type": "uint256"
        }
      ],
      "name": "Lock",
      "type": "event"
    },
    {
      "inputs": [],
      "name": "bonusPercent",
      "outputs": [
        {
          "internalType": "uint256",
          "name": "",
          "type": "uint256"
        }
      ],
      "stateMutability": "view",
      "type": "function"
    },
    {
      "inputs": [],
      "name": "forfeitedBonuses",
      "outputs": [
        {
          "internalType": "uint256",
          "name": "",
          "type": "uint256"
        }
      ],
      "stateMutability": "view",
      "type": "function"
    },
    {
      "inputs": [],
      "name": "lmcContract",
      "outputs": [
        {
          "internalType": "address",
          "name": "",
          "type": "address"
        }
      ],
      "stateMutability": "view",
      "type": "function"
    },
    {
      "inputs": [],
      "name": "lockPeriod",
      "outputs": [
        {
          "internalType": "uint256",
          "name": "",
          "type": "uint256"
        }
      ],
      "stateMutability": "view",
      "type": "function"
    },
    {
      "inputs": [],
      "name": "rampUpPeriod",
      "outputs": [
        {
          "internalType": "uint256",
          "name": "",
          "type": "uint256"
        }
      ],
      "stateMutability": "view",
      "type": "function"
    },
    {
      "inputs": [
        {
          "internalType": "address",
          "name": "",
          "type": "address"
        }
      ],
      "name": "userInfo",
      "outputs": [
        {
          "internalType": "uint256",
          "name": "balance",
          "type": "uint256"
        },
        {
          "internalType": "uint256",
          "name": "accruedReward",
          "type": "uint256"
        },
        {
          "internalType": "uint256",
          "name": "lockInitialStakeBlock",
          "type": "uint256"
        }
      ],
      "stateMutability": "view",
      "type": "function"
    },
    {
      "inputs": [
        {
          "internalType": "address",
          "name": "_userAddress",
          "type": "address"
        },
        {
          "internalType": "uint256",
          "name": "_amountToLock",
          "type": "uint256"
        }
      ],
      "name": "lock",
      "outputs": [],
      "stateMutability": "nonpayable",
      "type": "function"
    },
    {
      "inputs": [
        {
          "internalType": "address",
          "name": "_userAddress",
          "type": "address"
        }
      ],
      "name": "exit",
      "outputs": [
        {
          "internalType": "uint256",
          "name": "bonus",
          "type": "uint256"
        }
      ],
      "stateMutability": "nonpayable",
      "type": "function"
    },
    {
      "inputs": [
        {
          "internalType": "address",
          "name": "_userAddress",
          "type": "address"
        },
        {
          "internalType": "uint256",
          "name": "_rewards",
          "type": "uint256"
        }
      ],
      "name": "updateUserAccruedRewards",
      "outputs": [],
      "stateMutability": "nonpayable",
      "type": "function"
    },
    {
      "inputs": [
        {
          "internalType": "address",
          "name": "_userAddress",
          "type": "address"
        }
      ],
      "name": "getUserBonus",
      "outputs": [
        {
          "internalType": "uint256",
          "name": "bonus",
          "type": "uint256"
        }
      ],
      "stateMutability": "view",
      "type": "function"
    },
    {
      "inputs": [
        {
          "internalType": "address",
          "name": "_userAddress",
          "type": "address"
        }
      ],
      "name": "getUserAccruedReward",
      "outputs": [
        {
          "internalType": "uint256",
          "name": "",
          "type": "uint256"
        }
      ],
      "stateMutability": "view",
      "type": "function"
    },
    {
      "inputs": [
        {
          "internalType": "address",
          "name": "_userAddress",
          "type": "address"
        }
      ],
      "name": "getUserLockedStake",
      "outputs": [
        {
          "internalType": "uint256",
          "name": "",
          "type": "uint256"
        }
      ],
      "stateMutability": "view",
      "type": "function"
    },
    {
      "inputs": [
        {
          "internalType": "address",
          "name": "_userAddress",
          "type": "address"
        }
      ],
      "name": "hasUserRampUpEnded",
      "outputs": [
        {
          "internalType": "bool",
          "name": "",
          "type": "bool"
        }
      ],
      "stateMutability": "view",
      "type": "function"
    }
  ],
  "bytecode": "0x61010060405234801561001157600080fd5b506040516111043803806111048339818101604052608081101561003457600080fd5b81019080805190602001909291908051906020019092919080519060200190929190805190602001909291905050506001600081905550600073ffffffffffffffffffffffffffffffffffffffff168173ffffffffffffffffffffffffffffffffffffffff1614156100f1576040517f08c379a00000000000000000000000000000000000000000000000000000000081526004018080602001828103825260218152602001806110e36021913960400191505060405180910390fd5b8383111561014a576040517f08c379a000000000000000000000000000000000000000000000000000000000815260040180806020018281038252602a8152602001806110b9602a913960400191505060405180910390fd5b83608081815250508260a081815250508160c081815250508073ffffffffffffffffffffffffffffffffffffffff1660e08173ffffffffffffffffffffffffffffffffffffffff1660601b815250505050505060805160a05160c05160e05160601c610eb7610202600039806104b952806106dd52806107d352806108fc525080610a1b5280610b9a5280610d0e5250806105b95280610bbe5280610c285250806106b95280610ab95280610ca65250610eb76000f3fe608060405234801561001057600080fd5b50600436106100cf5760003560e01c80638c6cf6111161008c578063becf3add11610066578063becf3add1461034e578063d10791111461036c578063f884b5c91461038a578063ff3fa15b146103e4576100cf565b80638c6cf6111461028a578063a94d1f50146102d8578063b42652e9146102f6576100cf565b80631959a002146100d457806322b0039a1461013a578063282d3fdf146101925780633fd8b02f146101e05780637005e21f146101fe57806383a4377214610232575b600080fd5b610116600480360360208110156100ea57600080fd5b81019080803573ffffffffffffffffffffffffffffffffffffffff16906020019092919050505061043c565b60405180848152602001838152602001828152602001935050505060405180910390f35b61017c6004803603602081101561015057600080fd5b81019080803573ffffffffffffffffffffffffffffffffffffffff169060200190929190505050610466565b6040518082815260200191505060405180910390f35b6101de600480360360408110156101a857600080fd5b81019080803573ffffffffffffffffffffffffffffffffffffffff169060200190929190803590602001909291905050506104b7565b005b6101e86106b7565b6040518082815260200191505060405180910390f35b6102066106db565b604051808273ffffffffffffffffffffffffffffffffffffffff16815260200191505060405180910390f35b6102746004803603602081101561024857600080fd5b81019080803573ffffffffffffffffffffffffffffffffffffffff1690602001909291905050506106ff565b6040518082815260200191505060405180910390f35b6102d6600480360360408110156102a057600080fd5b81019080803573ffffffffffffffffffffffffffffffffffffffff16906020019092919080359060200190929190505050610750565b005b6102e06108f2565b6040518082815260200191505060405180910390f35b6103386004803603602081101561030c57600080fd5b81019080803573ffffffffffffffffffffffffffffffffffffffff1690602001909291905050506108f8565b6040518082815260200191505060405180910390f35b610356610b98565b6040518082815260200191505060405180910390f35b610374610bbc565b6040518082815260200191505060405180910390f35b6103cc600480360360208110156103a057600080fd5b81019080803573ffffffffffffffffffffffffffffffffffffffff169060200190929190505050610be0565b60405180821515815260200191505060405180910390f35b610426600480360360208110156103fa57600080fd5b81019080803573ffffffffffffffffffffffffffffffffffffffff169060200190929190505050610c5b565b6040518082815260200191505060405180910390f35b60026020528060005260406000206000915090508060000154908060010154908060020154905083565b600080600260008473ffffffffffffffffffffffffffffffffffffffff1673ffffffffffffffffffffffffffffffffffffffff16815260200190815260200160002090508060000154915050919050565b7f000000000000000000000000000000000000000000000000000000000000000073ffffffffffffffffffffffffffffffffffffffff163373ffffffffffffffffffffffffffffffffffffffff161461055b576040517f08c379a0000000000000000000000000000000000000000000000000000000008152600401808060200182810382526027815260200180610e366027913960400191505060405180910390fd5b6000600260008473ffffffffffffffffffffffffffffffffffffffff1673ffffffffffffffffffffffffffffffffffffffff16815260200190815260200160002090506000816002015414156105b5574381600201819055505b60007f00000000000000000000000000000000000000000000000000000000000000008260020154019050438111610638576040517f08c379a0000000000000000000000000000000000000000000000000000000008152600401808060200182810382526025815260200180610e5d6025913960400191505060405180910390fd5b61064f838360000154610dad90919063ffffffff16565b82600001819055508373ffffffffffffffffffffffffffffffffffffffff167f49eaf4942f1237055eb4cfa5f31c9dfe50d5b4ade01e021f7de8be2fbbde557b848460010154604051808381526020018281526020019250505060405180910390a250505050565b7f000000000000000000000000000000000000000000000000000000000000000081565b7f000000000000000000000000000000000000000000000000000000000000000081565b600080600260008473ffffffffffffffffffffffffffffffffffffffff1673ffffffffffffffffffffffffffffffffffffffff16815260200190815260200160002090508060010154915050919050565b600260005414156107c9576040517f08c379a000000000000000000000000000000000000000000000000000000000815260040180806020018281038252601f8152602001807f5265656e7472616e637947756172643a207265656e7472616e742063616c6c0081525060200191505060405180910390fd5b60026000819055507f000000000000000000000000000000000000000000000000000000000000000073ffffffffffffffffffffffffffffffffffffffff163373ffffffffffffffffffffffffffffffffffffffff1614610875576040517f08c379a0000000000000000000000000000000000000000000000000000000008152600401808060200182810382526027815260200180610e366027913960400191505060405180910390fd5b6000600260008473ffffffffffffffffffffffffffffffffffffffff1673ffffffffffffffffffffffffffffffffffffffff16815260200190815260200160002090506000816000015411156108e5576108dc828260010154610dad90919063ffffffff16565b81600101819055505b5060016000819055505050565b60015481565b60007f000000000000000000000000000000000000000000000000000000000000000073ffffffffffffffffffffffffffffffffffffffff163373ffffffffffffffffffffffffffffffffffffffff161461099e576040517f08c379a0000000000000000000000000000000000000000000000000000000008152600401808060200182810382526027815260200180610e366027913960400191505060405180910390fd5b600080600260008573ffffffffffffffffffffffffffffffffffffffff1673ffffffffffffffffffffffffffffffffffffffff16815260200190815260200160002090506000816000015414156109fa57600092505050610b93565b73__PercentageCalculator__________________6354b4c28182600101547f00000000000000000000000000000000000000000000000000000000000000006040518363ffffffff1660e01b8152600401808381526020018281526020019250505060206040518083038186803b158015610a7557600080fd5b505af4158015610a89573d6000803e3d6000fd5b505050506040513d6020811015610a9f57600080fd5b810190808051906020019092919050505092506000610aeb7f00000000000000000000000000000000000000000000000000000000000000008360020154610dad90919063ffffffff16565b905080431015610b1957610b0a84600154610dad90919063ffffffff16565b60018190555060009350600192505b6000826001018190555060008260000181905550600082600201819055508473ffffffffffffffffffffffffffffffffffffffff167f50b652bf9592103738226e458011e77a50cee8c4d8cd0fb5191b13e7404cbc8d85856040518083815260200182151581526020019250505060405180910390a25050505b919050565b7f000000000000000000000000000000000000000000000000000000000000000081565b7f000000000000000000000000000000000000000000000000000000000000000081565b600080600260008473ffffffffffffffffffffffffffffffffffffffff1673ffffffffffffffffffffffffffffffffffffffff168152602001908152602001600020905060007f0000000000000000000000000000000000000000000000000000000000000000826002015401905043811092505050919050565b600080600260008473ffffffffffffffffffffffffffffffffffffffff1673ffffffffffffffffffffffffffffffffffffffff16815260200190815260200160002090506000610cd87f00000000000000000000000000000000000000000000000000000000000000008360020154610dad90919063ffffffff16565b905080431015610ced57600092505050610da8565b73__PercentageCalculator__________________6354b4c28183600101547f00000000000000000000000000000000000000000000000000000000000000006040518363ffffffff1660e01b8152600401808381526020018281526020019250505060206040518083038186803b158015610d6857600080fd5b505af4158015610d7c573d6000803e3d6000fd5b505050506040513d6020811015610d9257600080fd5b8101908080519060200190929190505050925050505b919050565b600080828401905083811015610e2b576040517f08c379a000000000000000000000000000000000000000000000000000000000815260040180806020018281038252601b8152602001807f536166654d6174683a206164646974696f6e206f766572666c6f77000000000081525060200191505060405180910390fd5b809150509291505056fe6f6e6c794c6d633a3a43616c6c6572206973206e6f7420746865204c4d4320636f6e74726163746c6f636b3a3a5468652072616d7020757020706572696f64206861732066696e6973686564a2646970667358221220b22287fcbb9bac357825f0ef0bde997837e9e2507a2b254fd931d8e6e4eb8ec264736f6c634300060c0033636f6e7374727563746f723a3a20506572696f647320617265206e6f742070726f7065726c7920736574636f6e7374727563746f723a3a20496e76616c6964204c4d432061646472657373",
  "source": "// SPDX-License-Identifier: MIT\npragma solidity 0.6.12;\n\nimport \"openzeppelin-solidity/contracts/math/Math.sol\";\nimport \"openzeppelin-solidity/contracts/math/SafeMath.sol\";\nimport \"./interfaces/IERC20Detailed.sol\";\nimport \"./SafeERC20Detailed.sol\";\nimport \"./PercentageCalculator.sol\";\nimport \"openzeppelin-solidity/contracts/utils/ReentrancyGuard.sol\";\n\ncontract LockScheme is ReentrancyGuard {\n\n\tusing SafeMath for uint256;\n\tusing SafeERC20Detailed for IERC20Detailed;\n\n\tuint256 public immutable lockPeriod; // The period of blocks that the stake is locked for this contract\n\tuint256 public immutable rampUpPeriod; // The period since the beginning of the lock that additions can be considered the same position.Might be 0 for the 0% lock periods\n\tuint256 public immutable bonusPercent; // saved in thousands = ex 3% = 3000\n\taddress public immutable lmcContract; // The address of the lmc contract\n\tuint256 public forfeitedBonuses;\n\n\tstruct UserInfo {\n\t\tuint256 balance; // IOU Balance for this lock contract\n\t\tuint256 accruedReward; // Reward accrued by an address from previous additions\n\t\tuint256 lockInitialStakeBlock;\n\t}\n\n\tmapping(address => UserInfo) public userInfo;\n\n\tevent Lock(address indexed _userAddress, uint256 _amountLocked, uint256 _additionalReward);\n\tevent Exit(address indexed _userAddress, uint256 bonus, bool isBonusForreied);\n\n\tmodifier onlyLmc() {\n\t\t  require(\n\t\t\tmsg.sender == lmcContract,\n\t\t\t\"onlyLmc::Caller is not the LMC contract\"\n\t\t);\n\t\t_;\n\t}\n\n\tconstructor(\n\t\tuint256 _lockPeriod,\n\t\tuint256 _rampUpPeriod,\n\t\tuint256 _bonusPercent,\n\t\taddress _lmcContract\n\t) public {\n\n\t\trequire(_lmcContract != address(0x0), \"constructor:: Invalid LMC address\");\n\t\trequire(_rampUpPeriod <= _lockPeriod, \"constructor:: Periods are not properly set\");\n\t\tlockPeriod = _lockPeriod;\n\t\trampUpPeriod = _rampUpPeriod;\n\t\tbonusPercent = _bonusPercent;\n\t\tlmcContract = _lmcContract;\n\t}\n\n\t/** @dev Locks the tokens into the current scheme, and updates user information\n\t@param _userAddress address of the staker\n\t@param _amountToLock the amount to be locked\n\t */\n\tfunction lock(address _userAddress, uint256 _amountToLock) public onlyLmc {\n\n\t\tUserInfo storage user = userInfo[_userAddress];\n\n\t\tif(user.lockInitialStakeBlock == 0) {\n\t\t\tuser.lockInitialStakeBlock = block.number;\n\t\t}\n\t\t\n\t\tuint256 userLockStartBlock = user.lockInitialStakeBlock + rampUpPeriod;\n\n\t\trequire(userLockStartBlock > block.number , \"lock::The ramp up period has finished\");\n\n\t\tuser.balance = user.balance.add(_amountToLock);\n\n\t\temit Lock(_userAddress, _amountToLock, user.accruedReward);\n\t}\n\n\t/** @dev Exits the current lock scheme, calculates the bonus, updates user information\n\t@param _userAddress address of the user\n\t@return bonus the bonus of the user\n\t */\n\tfunction exit(address _userAddress) public onlyLmc returns(uint256 bonus) {\n\n\t\tbool isBonusForfeited = false;\n\t\tUserInfo storage user = userInfo[_userAddress];\n\t\tif(user.balance == 0) {\n\t\t\treturn 0;\n\t\t \n\t\t}\n\t\tbonus = PercentageCalculator.percentageCalc(user.accruedReward,bonusPercent);\n\t\tuint256 userLockEnd = user.lockInitialStakeBlock.add(lockPeriod);\n\n\t\tif(block.number < userLockEnd) {\n\t\t\tforfeitedBonuses = forfeitedBonuses.add(bonus);\n\t\t\tbonus = 0;\n\t\t\tisBonusForfeited = true;\n\n\t\t}\n\n\t\tuser.accruedReward = 0;\n\t\tuser.balance = 0;\n\t\tuser.lockInitialStakeBlock = 0;\n\t\n\t\temit Exit(_userAddress, bonus, isBonusForfeited);\n\n\t\treturn bonus;\n\t}\n\t\t\n\t/** @dev Updates the accrued rewards of the user\n\t@param _userAddress address of the user\n\t@param _rewards the rewards that will be added\n\t */\n\tfunction updateUserAccruedRewards(address _userAddress, uint256 _rewards) public nonReentrant onlyLmc {\n\t\tUserInfo storage user = userInfo[_userAddress];\n\t\tif(user.balance > 0) {\n\t\t\tuser.accruedReward = user.accruedReward.add(_rewards);\n\t\t}\n\t}\n\n\tfunction getUserBonus(address _userAddress) public view returns(uint256 bonus) {\n\t\tUserInfo storage user = userInfo[_userAddress];\n\t\tuint256 userLockEnd = user.lockInitialStakeBlock.add(lockPeriod);\n\n\t\tif(block.number < userLockEnd) {\n\t\t\treturn 0;\n\t\t}\n\n\t\treturn PercentageCalculator.percentageCalc(user.accruedReward,bonusPercent);\n\t}\n\n\tfunction getUserAccruedReward(address _userAddress) public view returns( uint256 ) {\n\t\tUserInfo storage user = userInfo[_userAddress];\n\t\treturn user.accruedReward;\n\t}\n\n\tfunction getUserLockedStake(address _userAddress) public view returns(uint256) {\n\t\tUserInfo storage user = userInfo[_userAddress];\n\t\treturn user.balance;\n\t}\n\n\t/** @dev Returns whether the rampup period for a given user has ended\n\t@param _userAddress address of the user\n\t@return has the rapm up period has ended or not\n\t */\n\tfunction hasUserRampUpEnded(address _userAddress) public view returns(bool) {\n\t\tUserInfo storage user = userInfo[_userAddress];\n\t\tuint256 userLockStartBlock = user.lockInitialStakeBlock + rampUpPeriod;\n\t\treturn userLockStartBlock < block.number;\n\t}\n\n}\n",
  "sourcePath": "/home/hellowodl/lmaas-liquidity-staker/contracts/LockScheme.sol",
  "compiler": {
    "name": "solc",
    "version": "0.6.12+commit.27d51765.Emscripten.clang",
    "optimizer": false,
    "runs": 200
  },
  "schemaVersion": "2.3.5",
  "updatedAt": "2021-04-27T17:14:31.118Z"
}