{
  "contractName": "NonCompoundingRewardsPool",
  "abi": [
    {
      "inputs": [
        {
          "internalType": "contract IERC20Detailed",
          "name": "_stakingToken",
          "type": "address"
        },
        {
          "internalType": "uint256",
          "name": "_startBlock",
          "type": "uint256"
        },
        {
          "internalType": "uint256",
          "name": "_endBlock",
          "type": "uint256"
        },
        {
          "internalType": "address[]",
          "name": "_rewardsTokens",
          "type": "address[]"
        },
        {
          "internalType": "uint256[]",
          "name": "_rewardPerBlock",
          "type": "uint256[]"
        },
        {
          "internalType": "uint256",
          "name": "_stakeLimit",
          "type": "uint256"
        },
        {
          "internalType": "uint256",
          "name": "_throttleRoundBlocks",
          "type": "uint256"
        },
        {
          "internalType": "uint256",
          "name": "_throttleRoundCap",
          "type": "uint256"
        },
        {
          "internalType": "address",
          "name": "_treasury",
          "type": "address"
        },
        {
          "internalType": "address",
          "name": "_externalRewardToken",
          "type": "address"
        },
        {
          "internalType": "uint256",
          "name": "_contractStakeLimit",
          "type": "uint256"
        }
      ],
      "stateMutability": "nonpayable",
      "type": "constructor"
    },
    {
      "anonymous": false,
      "inputs": [
        {
          "indexed": true,
          "internalType": "address",
          "name": "user",
          "type": "address"
        },
        {
          "indexed": false,
          "internalType": "uint256",
          "name": "amount",
          "type": "uint256"
        },
        {
          "indexed": false,
          "internalType": "address",
          "name": "token",
          "type": "address"
        }
      ],
      "name": "Claimed",
      "type": "event"
    },
    {
      "anonymous": false,
      "inputs": [
        {
          "indexed": false,
          "internalType": "address",
          "name": "user",
          "type": "address"
        },
        {
          "indexed": false,
          "internalType": "uint256",
          "name": "stake",
          "type": "uint256"
        }
      ],
      "name": "ExitCompleted",
      "type": "event"
    },
    {
      "anonymous": false,
      "inputs": [
        {
          "indexed": false,
          "internalType": "address",
          "name": "user",
          "type": "address"
        },
        {
          "indexed": false,
          "internalType": "uint256",
          "name": "exitBlock",
          "type": "uint256"
        }
      ],
      "name": "ExitRequested",
      "type": "event"
    },
    {
      "anonymous": false,
      "inputs": [
        {
          "indexed": true,
          "internalType": "address",
          "name": "user",
          "type": "address"
        },
        {
          "indexed": false,
          "internalType": "uint256",
          "name": "amount",
          "type": "uint256"
        }
      ],
      "name": "Exited",
      "type": "event"
    },
    {
      "anonymous": false,
      "inputs": [
        {
          "indexed": false,
          "internalType": "uint256",
          "name": "newEndBlock",
          "type": "uint256"
        },
        {
          "indexed": false,
          "internalType": "uint256[]",
          "name": "newRewardsPerBlock",
          "type": "uint256[]"
        }
      ],
      "name": "Extended",
      "type": "event"
    },
    {
      "anonymous": false,
      "inputs": [
        {
          "indexed": true,
          "internalType": "address",
          "name": "from",
          "type": "address"
        },
        {
          "indexed": false,
          "internalType": "address",
          "name": "token",
          "type": "address"
        },
        {
          "indexed": false,
          "internalType": "uint256",
          "name": "reward",
          "type": "uint256"
        }
      ],
      "name": "ExternalRewardsAdded",
      "type": "event"
    },
    {
      "anonymous": false,
      "inputs": [
        {
          "indexed": false,
          "internalType": "address",
          "name": "receiver",
          "type": "address"
        }
      ],
      "name": "ExternalRewardsClaimed",
      "type": "event"
    },
    {
      "anonymous": false,
      "inputs": [
        {
          "indexed": false,
          "internalType": "uint256",
          "name": "amount",
          "type": "uint256"
        }
      ],
      "name": "StakeWithdrawn",
      "type": "event"
    },
    {
      "anonymous": false,
      "inputs": [
        {
          "indexed": true,
          "internalType": "address",
          "name": "user",
          "type": "address"
        },
        {
          "indexed": false,
          "internalType": "uint256",
          "name": "amount",
          "type": "uint256"
        }
      ],
      "name": "Staked",
      "type": "event"
    },
    {
      "anonymous": false,
      "inputs": [
        {
          "indexed": true,
          "internalType": "uint256",
          "name": "rewardsAmount",
          "type": "uint256"
        },
        {
          "indexed": true,
          "internalType": "address",
          "name": "recipient",
          "type": "address"
        }
      ],
      "name": "WithdrawLPRewards",
      "type": "event"
    },
    {
      "anonymous": false,
      "inputs": [
        {
          "indexed": true,
          "internalType": "address",
          "name": "user",
          "type": "address"
        },
        {
          "indexed": false,
          "internalType": "uint256",
          "name": "amount",
          "type": "uint256"
        }
      ],
      "name": "Withdrawn",
      "type": "event"
    },
    {
      "inputs": [
        {
          "internalType": "uint256",
          "name": "",
          "type": "uint256"
        }
      ],
      "name": "accumulatedRewardMultiplier",
      "outputs": [
        {
          "internalType": "uint256",
          "name": "",
          "type": "uint256"
        }
      ],
      "stateMutability": "view",
      "type": "function"
    },
    {
      "inputs": [
        {
          "internalType": "address",
          "name": "_userAddress",
          "type": "address"
        }
      ],
      "name": "balanceOf",
      "outputs": [
        {
          "internalType": "uint256",
          "name": "",
          "type": "uint256"
        }
      ],
      "stateMutability": "view",
      "type": "function"
    },
    {
      "inputs": [],
      "name": "contractStakeLimit",
      "outputs": [
        {
          "internalType": "uint256",
          "name": "",
          "type": "uint256"
        }
      ],
      "stateMutability": "view",
      "type": "function"
    },
    {
      "inputs": [
        {
          "internalType": "address",
          "name": "staker",
          "type": "address"
        },
        {
          "internalType": "uint256",
          "name": "stake",
          "type": "uint256"
        }
      ],
      "name": "delegateStake",
      "outputs": [],
      "stateMutability": "nonpayable",
      "type": "function"
    },
    {
      "inputs": [],
      "name": "endBlock",
      "outputs": [
        {
          "internalType": "uint256",
          "name": "",
          "type": "uint256"
        }
      ],
      "stateMutability": "view",
      "type": "function"
    },
    {
      "inputs": [
        {
          "internalType": "address",
          "name": "",
          "type": "address"
        }
      ],
      "name": "exitInfo",
      "outputs": [
        {
          "internalType": "uint256",
          "name": "exitBlock",
          "type": "uint256"
        },
        {
          "internalType": "uint256",
          "name": "exitStake",
          "type": "uint256"
        }
      ],
      "stateMutability": "view",
      "type": "function"
    },
    {
      "inputs": [
        {
          "internalType": "uint256",
          "name": "_endBlock",
          "type": "uint256"
        },
        {
          "internalType": "uint256[]",
          "name": "_rewardsPerBlock",
          "type": "uint256[]"
        },
        {
          "internalType": "uint256[]",
          "name": "_currentRemainingRewards",
          "type": "uint256[]"
        },
        {
          "internalType": "uint256[]",
          "name": "_newRemainingRewards",
          "type": "uint256[]"
        }
      ],
      "name": "extend",
      "outputs": [],
      "stateMutability": "nonpayable",
      "type": "function"
    },
    {
      "inputs": [],
      "name": "externalRewardToken",
      "outputs": [
        {
          "internalType": "address",
          "name": "",
          "type": "address"
        }
      ],
      "stateMutability": "view",
      "type": "function"
    },
    {
      "inputs": [
        {
          "internalType": "address",
          "name": "",
          "type": "address"
        }
      ],
      "name": "externalRewards",
      "outputs": [
        {
          "internalType": "uint256",
          "name": "",
          "type": "uint256"
        }
      ],
      "stateMutability": "view",
      "type": "function"
    },
    {
      "inputs": [
        {
          "internalType": "uint256",
          "name": "tokenIndex",
          "type": "uint256"
        }
      ],
      "name": "getPendingReward",
      "outputs": [
        {
          "internalType": "uint256",
          "name": "",
          "type": "uint256"
        }
      ],
      "stateMutability": "view",
      "type": "function"
    },
    {
      "inputs": [],
      "name": "getRewardTokensCount",
      "outputs": [
        {
          "internalType": "uint256",
          "name": "",
          "type": "uint256"
        }
      ],
      "stateMutability": "view",
      "type": "function"
    },
    {
      "inputs": [
        {
          "internalType": "address",
          "name": "_userAddress",
          "type": "address"
        },
        {
          "internalType": "uint256",
          "name": "tokenIndex",
          "type": "uint256"
        }
      ],
      "name": "getUserAccumulatedReward",
      "outputs": [
        {
          "internalType": "uint256",
          "name": "",
          "type": "uint256"
        }
      ],
      "stateMutability": "view",
      "type": "function"
    },
    {
      "inputs": [
        {
          "internalType": "address",
          "name": "_userAddress",
          "type": "address"
        },
        {
          "internalType": "uint256",
          "name": "_index",
          "type": "uint256"
        }
      ],
      "name": "getUserOwedTokens",
      "outputs": [
        {
          "internalType": "uint256",
          "name": "",
          "type": "uint256"
        }
      ],
      "stateMutability": "view",
      "type": "function"
    },
    {
      "inputs": [
        {
          "internalType": "address",
          "name": "_userAddress",
          "type": "address"
        },
        {
          "internalType": "uint256",
          "name": "_index",
          "type": "uint256"
        }
      ],
      "name": "getUserRewardDebt",
      "outputs": [
        {
          "internalType": "uint256",
          "name": "",
          "type": "uint256"
        }
      ],
      "stateMutability": "view",
      "type": "function"
    },
    {
      "inputs": [
        {
          "internalType": "address",
          "name": "_userAddress",
          "type": "address"
        }
      ],
      "name": "getUserRewardDebtLength",
      "outputs": [
        {
          "internalType": "uint256",
          "name": "",
          "type": "uint256"
        }
      ],
      "stateMutability": "view",
      "type": "function"
    },
    {
      "inputs": [
        {
          "internalType": "address",
          "name": "_userAddress",
          "type": "address"
        }
      ],
      "name": "getUserTokensOwedLength",
      "outputs": [
        {
          "internalType": "uint256",
          "name": "",
          "type": "uint256"
        }
      ],
      "stateMutability": "view",
      "type": "function"
    },
    {
      "inputs": [],
      "name": "hasStakingStarted",
      "outputs": [
        {
          "internalType": "bool",
          "name": "",
          "type": "bool"
        }
      ],
      "stateMutability": "view",
      "type": "function"
    },
    {
      "inputs": [],
      "name": "lastRewardBlock",
      "outputs": [
        {
          "internalType": "uint256",
          "name": "",
          "type": "uint256"
        }
      ],
      "stateMutability": "view",
      "type": "function"
    },
    {
      "inputs": [],
      "name": "lockEndBlock",
      "outputs": [
        {
          "internalType": "uint256",
          "name": "",
          "type": "uint256"
        }
      ],
      "stateMutability": "view",
      "type": "function"
    },
    {
      "inputs": [],
      "name": "nextAvailableExitBlock",
      "outputs": [
        {
          "internalType": "uint256",
          "name": "",
          "type": "uint256"
        }
      ],
      "stateMutability": "view",
      "type": "function"
    },
    {
      "inputs": [],
      "name": "nextAvailableRoundExitVolume",
      "outputs": [
        {
          "internalType": "uint256",
          "name": "",
          "type": "uint256"
        }
      ],
      "stateMutability": "view",
      "type": "function"
    },
    {
      "inputs": [
        {
          "internalType": "uint256",
          "name": "reward",
          "type": "uint256"
        }
      ],
      "name": "notifyExternalReward",
      "outputs": [],
      "stateMutability": "nonpayable",
      "type": "function"
    },
    {
      "inputs": [
        {
          "internalType": "address",
          "name": "",
          "type": "address"
        }
      ],
      "name": "receiversWhitelist",
      "outputs": [
        {
          "internalType": "bool",
          "name": "",
          "type": "bool"
        }
      ],
      "stateMutability": "view",
      "type": "function"
    },
    {
      "inputs": [
        {
          "internalType": "uint256",
          "name": "",
          "type": "uint256"
        }
      ],
      "name": "rewardPerBlock",
      "outputs": [
        {
          "internalType": "uint256",
          "name": "",
          "type": "uint256"
        }
      ],
      "stateMutability": "view",
      "type": "function"
    },
    {
      "inputs": [],
      "name": "rewardsPoolFactory",
      "outputs": [
        {
          "internalType": "address",
          "name": "",
          "type": "address"
        }
      ],
      "stateMutability": "view",
      "type": "function"
    },
    {
      "inputs": [
        {
          "internalType": "uint256",
          "name": "",
          "type": "uint256"
        }
      ],
      "name": "rewardsTokens",
      "outputs": [
        {
          "internalType": "address",
          "name": "",
          "type": "address"
        }
      ],
      "stateMutability": "view",
      "type": "function"
    },
    {
      "inputs": [
        {
          "internalType": "address",
          "name": "receiver",
          "type": "address"
        },
        {
          "internalType": "bool",
          "name": "whitelisted",
          "type": "bool"
        }
      ],
      "name": "setReceiverWhitelisted",
      "outputs": [],
      "stateMutability": "nonpayable",
      "type": "function"
    },
    {
      "inputs": [
        {
          "internalType": "uint256",
          "name": "_tokenAmount",
          "type": "uint256"
        }
      ],
      "name": "stake",
      "outputs": [],
      "stateMutability": "nonpayable",
      "type": "function"
    },
    {
      "inputs": [],
      "name": "stakeLimit",
      "outputs": [
        {
          "internalType": "uint256",
          "name": "",
          "type": "uint256"
        }
      ],
      "stateMutability": "view",
      "type": "function"
    },
    {
      "inputs": [],
      "name": "stakingToken",
      "outputs": [
        {
          "internalType": "contract IERC20Detailed",
          "name": "",
          "type": "address"
        }
      ],
      "stateMutability": "view",
      "type": "function"
    },
    {
      "inputs": [],
      "name": "startBlock",
      "outputs": [
        {
          "internalType": "uint256",
          "name": "",
          "type": "uint256"
        }
      ],
      "stateMutability": "view",
      "type": "function"
    },
    {
      "inputs": [],
      "name": "throttleRoundBlocks",
      "outputs": [
        {
          "internalType": "uint256",
          "name": "",
          "type": "uint256"
        }
      ],
      "stateMutability": "view",
      "type": "function"
    },
    {
      "inputs": [],
      "name": "throttleRoundCap",
      "outputs": [
        {
          "internalType": "uint256",
          "name": "",
          "type": "uint256"
        }
      ],
      "stateMutability": "view",
      "type": "function"
    },
    {
      "inputs": [],
      "name": "totalStaked",
      "outputs": [
        {
          "internalType": "uint256",
          "name": "",
          "type": "uint256"
        }
      ],
      "stateMutability": "view",
      "type": "function"
    },
    {
      "inputs": [],
      "name": "treasury",
      "outputs": [
        {
          "internalType": "address",
          "name": "",
          "type": "address"
        }
      ],
      "stateMutability": "view",
      "type": "function"
    },
    {
      "inputs": [],
      "name": "updateRewardMultipliers",
      "outputs": [],
      "stateMutability": "nonpayable",
      "type": "function"
    },
    {
      "inputs": [
        {
          "internalType": "address",
          "name": "",
          "type": "address"
        }
      ],
      "name": "userInfo",
      "outputs": [
        {
          "internalType": "uint256",
          "name": "firstStakedBlockNumber",
          "type": "uint256"
        },
        {
          "internalType": "uint256",
          "name": "amountStaked",
          "type": "uint256"
        }
      ],
      "stateMutability": "view",
      "type": "function"
    },
    {
      "inputs": [
        {
          "internalType": "address",
          "name": "recipient",
          "type": "address"
        },
        {
          "internalType": "address",
          "name": "lpTokenContract",
          "type": "address"
        }
      ],
      "name": "withdrawLPRewards",
      "outputs": [],
      "stateMutability": "nonpayable",
      "type": "function"
    },
    {
      "inputs": [
        {
          "internalType": "uint256",
          "name": "amount",
          "type": "uint256"
        }
      ],
      "name": "withdrawStake",
      "outputs": [],
      "stateMutability": "nonpayable",
      "type": "function"
    },
    {
      "inputs": [
        {
          "internalType": "uint256",
          "name": "_tokenAmount",
          "type": "uint256"
        }
      ],
      "name": "withdraw",
      "outputs": [],
      "stateMutability": "nonpayable",
      "type": "function"
    },
    {
      "inputs": [],
      "name": "claim",
      "outputs": [],
      "stateMutability": "nonpayable",
      "type": "function"
    },
    {
      "inputs": [],
      "name": "exit",
      "outputs": [],
      "stateMutability": "nonpayable",
      "type": "function"
    },
    {
      "inputs": [],
      "name": "completeExit",
      "outputs": [],
      "stateMutability": "nonpayable",
      "type": "function"
    },
    {
      "inputs": [
        {
          "internalType": "address",
          "name": "transferTo",
          "type": "address"
        }
      ],
      "name": "exitAndTransfer",
      "outputs": [],
      "stateMutability": "nonpayable",
      "type": "function"
    }
  ],
  "bytecode": "0x60e06040523480156200001157600080fd5b5060405162005a4c38038062005a4c83398181016040526101608110156200003857600080fd5b81019080805190602001909291908051906020019092919080519060200190929190805160405193929190846401000000008211156200007757600080fd5b838201915060208201858111156200008e57600080fd5b8251866020820283011164010000000082111715620000ac57600080fd5b8083526020830192505050908051906020019060200280838360005b83811015620000e5578082015181840152602081019050620000c8565b50505050905001604052602001805160405193929190846401000000008211156200010f57600080fd5b838201915060208201858111156200012657600080fd5b82518660208202830111640100000000821117156200014457600080fd5b8083526020830192505050908051906020019060200280838360005b838110156200017d57808201518184015260208101905062000160565b505050509050016040526020018051906020019092919080519060200190929190805190602001909291908051906020019092919080519060200190929190805190602001909291905050508183808b8e8e8e8e8e8e8a6001600081905550620001ec6200066c60201b60201c565b861162000245576040517f08c379a000000000000000000000000000000000000000000000000000000000815260040180806020018281038252603681526020018062005a166036913960400191505060405180910390fd5b620002556200066c60201b60201c565b8511620002ae576040517f08c379a0000000000000000000000000000000000000000000000000000000008152600401808060200182810382526031815260200180620058f86031913960400191505060405180910390fd5b83518351146200030a576040517f08c379a000000000000000000000000000000000000000000000000000000000815260040180806020018281038252604f81526020018062005929604f913960600191505060405180910390fd5b600082141562000366576040517f08c379a0000000000000000000000000000000000000000000000000000000008152600401808060200182810382526030815260200180620058976030913960400191505060405180910390fd5b6000811415620003c2576040517f08c379a000000000000000000000000000000000000000000000000000000000815260040180806020018281038252603a815260200180620059dc603a913960400191505060405180910390fd5b86600460006101000a81548173ffffffffffffffffffffffffffffffffffffffff021916908373ffffffffffffffffffffffffffffffffffffffff16021790555082600290805190602001906200041b92919062000854565b508560058190555084600681905550836003908051906020019062000442929190620008a6565b5060055460078190555033600960006101000a81548173ffffffffffffffffffffffffffffffffffffffff021916908373ffffffffffffffffffffffffffffffffffffffff16021790555081600a8190555080600b8190555060005b600380549050811015620004e45760086000908060018154018082558091505060019003906000526020600020016000909190919091505580806001019150506200049e565b505050505050505043811162000546576040517f08c379a000000000000000000000000000000000000000000000000000000000815260040180806020018281038252602e815260200180620059ae602e913960400191505060405180910390fd5b806080818152505050600073ffffffffffffffffffffffffffffffffffffffff168173ffffffffffffffffffffffffffffffffffffffff161415620005d7576040517f08c379a0000000000000000000000000000000000000000000000000000000008152600401808060200182810382526021815260200180620058766021913960400191505060405180910390fd5b8073ffffffffffffffffffffffffffffffffffffffff1660a08173ffffffffffffffffffffffffffffffffffffffff1660601b81525050508173ffffffffffffffffffffffffffffffffffffffff1660c08173ffffffffffffffffffffffffffffffffffffffff1660601b8152505050506200065b85858b6200067460201b60201c565b505050505050505050505062000991565b600043905090565b60008311620006cf576040517f08c379a0000000000000000000000000000000000000000000000000000000008152600401808060200182810382526036815260200180620059786036913960400191505060405180910390fd5b600082116200072a576040517f08c379a0000000000000000000000000000000000000000000000000000000008152600401808060200182810382526033815260200180620058436033913960400191505060405180910390fd5b6000600f541480156200073f57506000601054145b62000796576040517f08c379a0000000000000000000000000000000000000000000000000000000008152600401808060200182810382526031815260200180620058c76031913960400191505060405180910390fd5b82600f8190555081601081905550620007c0600f5482620007cb60201b620026401790919060201c565b600d81905550505050565b6000808284019050838110156200084a576040517f08c379a000000000000000000000000000000000000000000000000000000000815260040180806020018281038252601b8152602001807f536166654d6174683a206164646974696f6e206f766572666c6f77000000000081525060200191505060405180910390fd5b8091505092915050565b82805482825590600052602060002090810192821562000893579160200282015b828111156200089257825182559160200191906001019062000875565b5b509050620008a2919062000935565b5090565b82805482825590600052602060002090810192821562000922579160200282015b82811115620009215782518260006101000a81548173ffffffffffffffffffffffffffffffffffffffff021916908373ffffffffffffffffffffffffffffffffffffffff16021790555091602001919060010190620008c7565b5b50905062000931919062000954565b5090565b5b808211156200095057600081600090555060010162000936565b5090565b5b808211156200098d57600081816101000a81549073ffffffffffffffffffffffffffffffffffffffff02191690555060010162000955565b5090565b60805160a05160601c60c05160601c614e4362000a00600039806113c352806115f352806132ab528061333a52806133a8528061340c52508061128d5280611334528061154c52806116575280612a775250806112095280611785528061346052806137a75250614e436000f3fe608060405234801561001057600080fd5b50600436106102735760003560e01c806370a0823111610151578063a861a7a3116100c3578063dd2da22011610087578063dd2da22014610c64578063df9d777f14610c6e578063e9fad8ee14610cd0578063ee483cdf14610cda578063f27d026414610cf8578063fb58cad114610d5a57610273565b8063a861a7a314610b32578063a9f8d18114610b82578063b01eb66014610ba0578063b6d0dcd814610baa578063ce41530214610c0257610273565b80638587edbb116101155780638587edbb1461097357806394f66417146109915780639c3705c7146109f0578063a1002a0f14610a48578063a1292aea14610aac578063a694fc3a14610b0457610273565b806370a08231146108455780637211bbc91461089d57806372f702f3146108df578063791f39cd14610913578063817b1cd21461095557610273565b8063363291dc116101ea5780634ff3306f116101ae5780634ff3306f1461075357806350afa34b1461077157806356409b811461079f57806357b4f01f146107d357806361d027b3146107f35780636eb957df1461082757610273565b8063363291dc146106655780633c323a1b146106bf57806345ef79af1461070d57806348cd4cb11461072b5780634e71d92d1461074957610273565b806320e67c761161023c57806320e67c76146103895780632240e63c1461057357806325d5971f146105b75780632d9e88e1146105e55780632e1a7d4d14610603578063333609b61461063157610273565b806284c9271461027857806303d1dae0146102d0578063083c6323146102ee5780631959a0021461030c5780631c1f9cc01461036b575b600080fd5b6102ba6004803603602081101561028e57600080fd5b81019080803573ffffffffffffffffffffffffffffffffffffffff169060200190929190505050610d9c565b6040518082815260200191505060405180910390f35b6102d8610e76565b6040518082815260200191505060405180910390f35b6102f6610e7c565b6040518082815260200191505060405180910390f35b61034e6004803603602081101561032257600080fd5b81019080803573ffffffffffffffffffffffffffffffffffffffff169060200190929190505050610e82565b604051808381526020018281526020019250505060405180910390f35b610373610ea6565b6040518082815260200191505060405180910390f35b6105716004803603608081101561039f57600080fd5b8101908080359060200190929190803590602001906401000000008111156103c657600080fd5b8201836020820111156103d857600080fd5b803590602001918460208302840111640100000000831117156103fa57600080fd5b919080806020026020016040519081016040528093929190818152602001838360200280828437600081840152601f19601f8201169050808301925050505050505091929192908035906020019064010000000081111561045a57600080fd5b82018360208201111561046c57600080fd5b8035906020019184602083028401116401000000008311171561048e57600080fd5b919080806020026020016040519081016040528093929190818152602001838360200280828437600081840152601f19601f820116905080830192505050505050509192919290803590602001906401000000008111156104ee57600080fd5b82018360208201111561050057600080fd5b8035906020019184602083028401116401000000008311171561052257600080fd5b919080806020026020016040519081016040528093929190818152602001838360200280828437600081840152601f19601f820116905080830192505050505050509192919290505050610eac565b005b6105b56004803603602081101561058957600080fd5b81019080803573ffffffffffffffffffffffffffffffffffffffff169060200190929190505050611207565b005b6105e3600480360360208110156105cd57600080fd5b810190808035906020019092919050505061128b565b005b6105ed6113a8565b6040518082815260200191505060405180910390f35b61062f6004803603602081101561061957600080fd5b81019080803590602001909291905050506113b5565b005b6106396113c1565b604051808273ffffffffffffffffffffffffffffffffffffffff16815260200191505060405180910390f35b6106a76004803603602081101561067b57600080fd5b81019080803573ffffffffffffffffffffffffffffffffffffffff1690602001909291905050506113e5565b60405180821515815260200191505060405180910390f35b61070b600480360360408110156106d557600080fd5b81019080803573ffffffffffffffffffffffffffffffffffffffff16906020019092919080359060200190929190505050611405565b005b61071561152e565b6040518082815260200191505060405180910390f35b610733611534565b6040518082815260200191505060405180910390f35b61075161153a565b005b61075b611544565b6040518082815260200191505060405180910390f35b61079d6004803603602081101561078757600080fd5b810190808035906020019092919050505061154a565b005b6107a761161b565b604051808273ffffffffffffffffffffffffffffffffffffffff16815260200191505060405180910390f35b6107db611641565b60405180821515815260200191505060405180910390f35b6107fb611655565b604051808273ffffffffffffffffffffffffffffffffffffffff16815260200191505060405180910390f35b61082f611679565b6040518082815260200191505060405180910390f35b6108876004803603602081101561085b57600080fd5b81019080803573ffffffffffffffffffffffffffffffffffffffff16906020019092919050505061167f565b6040518082815260200191505060405180910390f35b6108c9600480360360208110156108b357600080fd5b81019080803590602001909291905050506116d0565b6040518082815260200191505060405180910390f35b6108e7611736565b604051808273ffffffffffffffffffffffffffffffffffffffff16815260200191505060405180910390f35b61093f6004803603602081101561092957600080fd5b810190808035906020019092919050505061175c565b6040518082815260200191505060405180910390f35b61095d61177d565b6040518082815260200191505060405180910390f35b61097b611783565b6040518082815260200191505060405180910390f35b6109d3600480360360208110156109a757600080fd5b81019080803573ffffffffffffffffffffffffffffffffffffffff1690602001909291905050506117a7565b604051808381526020018281526020019250505060405180910390f35b610a3260048036036020811015610a0657600080fd5b81019080803573ffffffffffffffffffffffffffffffffffffffff1690602001909291905050506117cb565b6040518082815260200191505060405180910390f35b610aaa60048036036040811015610a5e57600080fd5b81019080803573ffffffffffffffffffffffffffffffffffffffff169060200190929190803573ffffffffffffffffffffffffffffffffffffffff1690602001909291905050506117e3565b005b610aee60048036036020811015610ac257600080fd5b81019080803573ffffffffffffffffffffffffffffffffffffffff169060200190929190505050611c0c565b6040518082815260200191505060405180910390f35b610b3060048036036020811015610b1a57600080fd5b8101908080359060200190929190505050611ce6565b005b610b8060048036036040811015610b4857600080fd5b81019080803573ffffffffffffffffffffffffffffffffffffffff169060200190929190803515159060200190929190505050611d7e565b005b610b8a611e32565b6040518082815260200191505060405180910390f35b610ba8611e38565b005b610bd660048036036020811015610bc057600080fd5b8101908080359060200190929190505050611f8f565b604051808273ffffffffffffffffffffffffffffffffffffffff16815260200191505060405180910390f35b610c4e60048036036040811015610c1857600080fd5b81019080803573ffffffffffffffffffffffffffffffffffffffff16906020019092919080359060200190929190505050611fcb565b6040518082815260200191505060405180910390f35b610c6c6120b8565b005b610cba60048036036040811015610c8457600080fd5b81019080803573ffffffffffffffffffffffffffffffffffffffff169060200190929190803590602001909291905050506122b8565b6040518082815260200191505060405180910390f35b610cd8612522565b005b610ce261252c565b6040518082815260200191505060405180910390f35b610d4460048036036040811015610d0e57600080fd5b81019080803573ffffffffffffffffffffffffffffffffffffffff16906020019092919080359060200190929190505050612532565b6040518082815260200191505060405180910390f35b610d8660048036036020811015610d7057600080fd5b810190808035906020019092919050505061261f565b6040518082815260200191505060405180910390f35b60008073ffffffffffffffffffffffffffffffffffffffff168273ffffffffffffffffffffffffffffffffffffffff161415610e23576040517f08c379a000000000000000000000000000000000000000000000000000000000815260040180806020018281038252602d8152602001806149d3602d913960400191505060405180910390fd5b6000600c60008473ffffffffffffffffffffffffffffffffffffffff1673ffffffffffffffffffffffffffffffffffffffff16815260200190815260200160002090508060020180549050915050919050565b600b5481565b60065481565b600c6020528060005260406000206000915090508060000154908060010154905082565b600d5481565b600960009054906101000a900473ffffffffffffffffffffffffffffffffffffffff1673ffffffffffffffffffffffffffffffffffffffff163373ffffffffffffffffffffffffffffffffffffffff1614610f52576040517f08c379a0000000000000000000000000000000000000000000000000000000008152600401808060200182810382526029815260200180614daf6029913960400191505060405180910390fd5b610f5a6126c8565b8411610fb1576040517f08c379a0000000000000000000000000000000000000000000000000000000008152600401808060200182810382526027815260200180614d5e6027913960400191505060405180910390fd5b60065484101561100c576040517f08c379a0000000000000000000000000000000000000000000000000000000008152600401808060200182810382526035815260200180614a4f6035913960400191505060405180910390fd5b60038054905083511461106a576040517f08c379a0000000000000000000000000000000000000000000000000000000008152600401808060200182810382526034815260200180614c586034913960400191505060405180910390fd5b6110726120b8565b60005b83518110156111795760006003828154811061108d57fe5b9060005260206000200160009054906101000a900473ffffffffffffffffffffffffffffffffffffffff1690508282815181106110c657fe5b60200260200101518483815181106110da57fe5b6020026020010151111561113c5761113b338484815181106110f857fe5b602002602001015186858151811061110c57fe5b6020026020010151038373ffffffffffffffffffffffffffffffffffffffff166126d09092919063ffffffff16565b5b84828151811061114857fe5b60200260200101516002838154811061115d57fe5b9060005260206000200181905550508080600101915050611075565b50836006819055507f137c92cc7579cc4d6a2b109467cd475c205d1c136363ca854cc46d72f840d5de84846040518083815260200180602001828103825283818151815260200191508051906020019060200280838360005b838110156111ed5780820151818401526020810190506111d2565b50505050905001935050505060405180910390a150505050565b7f0000000000000000000000000000000000000000000000000000000000000000431161127f576040517f08c379a0000000000000000000000000000000000000000000000000000000008152600401808060200182810382526042815260200180614b156042913960600191505060405180910390fd5b61128881612772565b50565b7f000000000000000000000000000000000000000000000000000000000000000073ffffffffffffffffffffffffffffffffffffffff163373ffffffffffffffffffffffffffffffffffffffff161461132f576040517f08c379a0000000000000000000000000000000000000000000000000000000008152600401808060200182810382526028815260200180614a276028913960400191505060405180910390fd5b61139c7f000000000000000000000000000000000000000000000000000000000000000082600460009054906101000a900473ffffffffffffffffffffffffffffffffffffffff1673ffffffffffffffffffffffffffffffffffffffff166126d09092919063ffffffff16565b6113a581612a75565b50565b6000600380549050905090565b6113be81612b53565b50565b7f000000000000000000000000000000000000000000000000000000000000000081565b60126020528060005260406000206000915054906101000a900460ff1681565b6000811161147b576040517f08c379a000000000000000000000000000000000000000000000000000000000815260040180806020018281038252601c8152602001807f64656c65676174655374616b653a3a4e6f207374616b652073656e740000000081525060200191505060405180910390fd5b600073ffffffffffffffffffffffffffffffffffffffff168273ffffffffffffffffffffffffffffffffffffffff16141561151e576040517f08c379a000000000000000000000000000000000000000000000000000000000815260040180806020018281038252601d8152602001807f64656c65676174655374616b653a3a496e76616c6964207374616b657200000081525060200191505060405180910390fd5b61152a81836000612ba4565b5050565b600a5481565b60055481565b6115426130c5565b565b60105481565b7f000000000000000000000000000000000000000000000000000000000000000073ffffffffffffffffffffffffffffffffffffffff163373ffffffffffffffffffffffffffffffffffffffff16146115ee576040517f08c379a0000000000000000000000000000000000000000000000000000000008152600401808060200182810382526028815260200180614a276028913960400191505060405180910390fd5b6116187f000000000000000000000000000000000000000000000000000000000000000082613116565b50565b600960009054906101000a900473ffffffffffffffffffffffffffffffffffffffff1681565b600060055461164e6126c8565b1015905090565b7f000000000000000000000000000000000000000000000000000000000000000081565b600f5481565b600080600c60008473ffffffffffffffffffffffffffffffffffffffff1673ffffffffffffffffffffffffffffffffffffffff16815260200190815260200160002090508060010154915050919050565b600080601160003373ffffffffffffffffffffffffffffffffffffffff1673ffffffffffffffffffffffffffffffffffffffff168152602001908152602001600020905080600201838154811061172357fe5b9060005260206000200154915050919050565b600460009054906101000a900473ffffffffffffffffffffffffffffffffffffffff1681565b6002818154811061176957fe5b906000526020600020016000915090505481565b60015481565b7f000000000000000000000000000000000000000000000000000000000000000081565b60116020528060005260406000206000915090508060000154908060010154905082565b60136020528060005260406000206000915090505481565b6002600054141561185c576040517f08c379a000000000000000000000000000000000000000000000000000000000815260040180806020018281038252601f8152602001807f5265656e7472616e637947756172643a207265656e7472616e742063616c6c0081525060200191505060405180910390fd5b6002600081905550600960009054906101000a900473ffffffffffffffffffffffffffffffffffffffff1673ffffffffffffffffffffffffffffffffffffffff163373ffffffffffffffffffffffffffffffffffffffff161461190a576040517f08c379a0000000000000000000000000000000000000000000000000000000008152600401808060200182810382526029815260200180614daf6029913960400191505060405180910390fd5b60008173ffffffffffffffffffffffffffffffffffffffff166370a08231306040518263ffffffff1660e01b8152600401808273ffffffffffffffffffffffffffffffffffffffff16815260200191505060206040518083038186803b15801561197357600080fd5b505afa158015611987573d6000803e3d6000fd5b505050506040513d602081101561199d57600080fd5b8101908080519060200190929190505050905060008111611a09576040517f08c379a000000000000000000000000000000000000000000000000000000000815260040180806020018281038252603c815260200180614d22603c913960400191505060405180910390fd5b600460009054906101000a900473ffffffffffffffffffffffffffffffffffffffff1673ffffffffffffffffffffffffffffffffffffffff168273ffffffffffffffffffffffffffffffffffffffff161415611ab0576040517f08c379a0000000000000000000000000000000000000000000000000000000008152600401808060200182810382526036815260200180614aaa6036913960400191505060405180910390fd5b6000600380549050905060005b81811015611b8e5760038181548110611ad257fe5b9060005260206000200160009054906101000a900473ffffffffffffffffffffffffffffffffffffffff1673ffffffffffffffffffffffffffffffffffffffff168473ffffffffffffffffffffffffffffffffffffffff161415611b81576040517f08c379a0000000000000000000000000000000000000000000000000000000008152600401808060200182810382526035815260200180614ae06035913960400191505060405180910390fd5b8080600101915050611abd565b50611bba84838573ffffffffffffffffffffffffffffffffffffffff166126d09092919063ffffffff16565b8373ffffffffffffffffffffffffffffffffffffffff16827fdf1b625465761dd1a4330a9b3a21d4943183f301036528a3544f8d891fdce2c260405160405180910390a3505060016000819055505050565b60008073ffffffffffffffffffffffffffffffffffffffff168273ffffffffffffffffffffffffffffffffffffffff161415611c93576040517f08c379a000000000000000000000000000000000000000000000000000000000815260040180806020018281038252602d815260200180614b57602d913960400191505060405180910390fd5b6000600c60008473ffffffffffffffffffffffffffffffffffffffff1673ffffffffffffffffffffffffffffffffffffffff16815260200190815260200160002090508060030180549050915050919050565b60026000541415611d5f576040517f08c379a000000000000000000000000000000000000000000000000000000000815260040180806020018281038252601f8152602001807f5265656e7472616e637947756172643a207265656e7472616e742063616c6c0081525060200191505060405180910390fd5b6002600081905550611d7381336001612ba4565b600160008190555050565b600960009054906101000a900473ffffffffffffffffffffffffffffffffffffffff1673ffffffffffffffffffffffffffffffffffffffff163373ffffffffffffffffffffffffffffffffffffffff1614611e24576040517f08c379a0000000000000000000000000000000000000000000000000000000008152600401808060200182810382526029815260200180614daf6029913960400191505060405180910390fd5b611e2e8282613248565b5050565b60075481565b6000601160003373ffffffffffffffffffffffffffffffffffffffff1673ffffffffffffffffffffffffffffffffffffffff1681526020019081526020016000209050600081600201600081548110611e8d57fe5b9060005260206000200154905060006003600081548110611eaa57fe5b9060005260206000200160009054906101000a900473ffffffffffffffffffffffffffffffffffffffff1673ffffffffffffffffffffffffffffffffffffffff166370a08231306040518263ffffffff1660e01b8152600401808273ffffffffffffffffffffffffffffffffffffffff16815260200191505060206040518083038186803b158015611f3b57600080fd5b505afa158015611f4f573d6000803e3d6000fd5b505050506040513d6020811015611f6557600080fd5b81019080805190602001909291905050509050611f8282826132a3565b611f8a61345e565b505050565b60038181548110611f9c57fe5b906000526020600020016000915054906101000a900473ffffffffffffffffffffffffffffffffffffffff1681565b60008073ffffffffffffffffffffffffffffffffffffffff168373ffffffffffffffffffffffffffffffffffffffff161415612052576040517f08c379a0000000000000000000000000000000000000000000000000000000008152600401808060200182810382526027815260200180614cfb6027913960400191505060405180910390fd5b6000600c60008573ffffffffffffffffffffffffffffffffffffffff1673ffffffffffffffffffffffffffffffffffffffff16815260200190815260200160002090508060030183815481106120a457fe5b906000526020600020015491505092915050565b60006120c26126c8565b905060075481116120d357506122b6565b600060065482106120e6576006546120e8565b815b90506000600754820390506000811415612104575050506122b6565b6000600154141561211e57816007819055505050506122b6565b6000600380549050905060005b818110156122a95760006003828154811061214257fe5b9060005260206000200160009054906101000a900473ffffffffffffffffffffffffffffffffffffffff1673ffffffffffffffffffffffffffffffffffffffff1663313ce5676040518163ffffffff1660e01b815260040160206040518083038186803b1580156121b257600080fd5b505afa1580156121c6573d6000803e3d6000fd5b505050506040513d60208110156121dc57600080fd5b810190808051906020019092919050505060ff169050600081600a0a905060006122266002858154811061220c57fe5b90600052602060002001548761361390919063ffffffff16565b90506000612251600154612243858561361390919063ffffffff16565b61369990919063ffffffff16565b905061227d816008878154811061226457fe5b906000526020600020015461264090919063ffffffff16565b6008868154811061228a57fe5b906000526020600020018190555050505050808060010191505061212b565b5082600781905550505050505b565b6000806122c36126c8565b9050600060065482106122d8576006546122da565b815b905060006122f36007548361372290919063ffffffff16565b905060006003868154811061230457fe5b9060005260206000200160009054906101000a900473ffffffffffffffffffffffffffffffffffffffff1673ffffffffffffffffffffffffffffffffffffffff1663313ce5676040518163ffffffff1660e01b815260040160206040518083038186803b15801561237457600080fd5b505afa158015612388573d6000803e3d6000fd5b505050506040513d602081101561239e57600080fd5b810190808051906020019092919050505060ff169050600081600a0a905060006123e8600289815481106123ce57fe5b90600052602060002001548561361390919063ffffffff16565b90506000612413600154612405858561361390919063ffffffff16565b61369990919063ffffffff16565b905060006124418260088c8154811061242857fe5b906000526020600020015461264090919063ffffffff16565b90506000600c60008d73ffffffffffffffffffffffffffffffffffffffff1673ffffffffffffffffffffffffffffffffffffffff168152602001908152602001600020905060006124b1866124a385856001015461361390919063ffffffff16565b61369990919063ffffffff16565b905060006124e1836002018e815481106124c757fe5b90600052602060002001548361372290919063ffffffff16565b905061250f81846003018f815481106124f657fe5b906000526020600020015461264090919063ffffffff16565b9b50505050505050505050505092915050565b61252a6137a5565b565b600e5481565b60008073ffffffffffffffffffffffffffffffffffffffff168373ffffffffffffffffffffffffffffffffffffffff1614156125b9576040517f08c379a0000000000000000000000000000000000000000000000000000000008152600401808060200182810382526027815260200180614a006027913960400191505060405180910390fd5b6000600c60008573ffffffffffffffffffffffffffffffffffffffff1673ffffffffffffffffffffffffffffffffffffffff168152602001908152602001600020905080600201838154811061260b57fe5b906000526020600020015491505092915050565b6008818154811061262c57fe5b906000526020600020016000915090505481565b6000808284019050838110156126be576040517f08c379a000000000000000000000000000000000000000000000000000000000815260040180806020018281038252601b8152602001807f536166654d6174683a206164646974696f6e206f766572666c6f77000000000081525060200191505060405180910390fd5b8091505092915050565b600043905090565b61276d8363a9059cbb60e01b8484604051602401808373ffffffffffffffffffffffffffffffffffffffff16815260200182815260200192505050604051602081830303815290604052907bffffffffffffffffffffffffffffffffffffffffffffffffffffffff19166020820180517bffffffffffffffffffffffffffffffffffffffffffffffffffffffff83818316178352505050506139fc565b505050565b80601260008273ffffffffffffffffffffffffffffffffffffffff1673ffffffffffffffffffffffffffffffffffffffff16815260200190815260200160002060009054906101000a900460ff16612815576040517f08c379a000000000000000000000000000000000000000000000000000000000815260040180806020018281038252602c815260200180614ccf602c913960400191505060405180910390fd5b6002600054141561288e576040517f08c379a000000000000000000000000000000000000000000000000000000000815260040180806020018281038252601f8152602001807f5265656e7472616e637947756172643a207265656e7472616e742063616c6c0081525060200191505060405180910390fd5b60026000819055506000600c60003373ffffffffffffffffffffffffffffffffffffffff1673ffffffffffffffffffffffffffffffffffffffff16815260200190815260200160002090506000816001015414156128ec5750612a69565b6128f46120b8565b60008160010154905061290633613c47565b61290f33613ce2565b600082600101819055506129668482600460009054906101000a900473ffffffffffffffffffffffffffffffffffffffff1673ffffffffffffffffffffffffffffffffffffffff16613ea19092919063ffffffff16565b8373ffffffffffffffffffffffffffffffffffffffff16633c323a1b33836040518363ffffffff1660e01b8152600401808373ffffffffffffffffffffffffffffffffffffffff16815260200182815260200192505050600060405180830381600087803b1580156129d757600080fd5b505af11580156129eb573d6000803e3d6000fd5b50505050612a048160015461372290919063ffffffff16565b60018190555060005b600380549050811015612a65576000836003018281548110612a2b57fe5b90600052602060002001819055506000836002018281548110612a4a57fe5b90600052602060002001819055508080600101915050612a0d565b5050505b60016000819055505050565b7f000000000000000000000000000000000000000000000000000000000000000073ffffffffffffffffffffffffffffffffffffffff163373ffffffffffffffffffffffffffffffffffffffff1614612b19576040517f08c379a0000000000000000000000000000000000000000000000000000000008152600401808060200182810382526028815260200180614a276028913960400191505060405180910390fd5b7fa78b9f12a7da0df7ced737c5f83d0c05723bb5f43aab37e233b8627104148472816040518082815260200191505060405180910390a150565b6040517f08c379a000000000000000000000000000000000000000000000000000000000815260040180806020018281038252603f815260200180614b84603f913960400191505060405180910390fd5b6000612bae6126c8565b90506005548111612c0a576040517f08c379a0000000000000000000000000000000000000000000000000000000008152600401808060200182810382526022815260200180614c8c6022913960400191505060405180910390fd5b600654811115612c82576040517f08c379a000000000000000000000000000000000000000000000000000000000815260040180806020018281038252601b8152602001807f5374616b653a3a5374616b696e67206861732066696e6973686564000000000081525060200191505060405180910390fd5b82846000600c60008473ffffffffffffffffffffffffffffffffffffffff1673ffffffffffffffffffffffffffffffffffffffff1681526020019081526020016000209050600a54612ce183836001015461264090919063ffffffff16565b1115612d38576040517f08c379a0000000000000000000000000000000000000000000000000000000008152600401808060200182810382526028815260200180614bf46028913960400191505060405180910390fd5b600b54612d508360015461264090919063ffffffff16565b1115612da7576040517f08c379a0000000000000000000000000000000000000000000000000000000008152600401808060200182810382526031815260200180614bc36031913960400191505060405180910390fd5b60008711612e1d576040517f08c379a00000000000000000000000000000000000000000000000000000000081526004018080602001828103825260158152602001807f5374616b653a3a43616e6e6f74207374616b652030000000000000000000000081525060200191505060405180910390fd5b6000600c60008873ffffffffffffffffffffffffffffffffffffffff1673ffffffffffffffffffffffffffffffffffffffff1681526020019081526020016000209050600081600101541415612e7757612e7687614066565b5b612e7f6120b8565b612e8887613c47565b612e9f88826001015461264090919063ffffffff16565b8160010181905550612ebc8860015461264090919063ffffffff16565b6001819055506000600380549050905060005b8181101561301057600060038281548110612ee657fe5b9060005260206000200160009054906101000a900473ffffffffffffffffffffffffffffffffffffffff1673ffffffffffffffffffffffffffffffffffffffff1663313ce5676040518163ffffffff1660e01b815260040160206040518083038186803b158015612f5657600080fd5b505afa158015612f6a573d6000803e3d6000fd5b505050506040513d6020811015612f8057600080fd5b810190808051906020019092919050505060ff169050600081600a0a90506000612fe082612fd260088781548110612fb457fe5b9060005260206000200154896001015461361390919063ffffffff16565b61369990919063ffffffff16565b905080866002018581548110612ff257fe5b90600052602060002001819055505050508080600101915050612ecf565b5061306c8761301f5733613021565b885b308b600460009054906101000a900473ffffffffffffffffffffffffffffffffffffffff1673ffffffffffffffffffffffffffffffffffffffff166140bd909392919063ffffffff16565b8773ffffffffffffffffffffffffffffffffffffffff167f9e71bc8eea02a63969f509818f2dafb9254532904319f9dbda79b67bd34a5f3d8a6040518082815260200191505060405180910390a2505050505050505050565b6040517f08c379a000000000000000000000000000000000000000000000000000000000815260040180806020018281038252603c815260200180614c1c603c913960400191505060405180910390fd5b6131433330838573ffffffffffffffffffffffffffffffffffffffff166140bd909392919063ffffffff16565b61319581601360008573ffffffffffffffffffffffffffffffffffffffff1673ffffffffffffffffffffffffffffffffffffffff1681526020019081526020016000205461264090919063ffffffff16565b601360008473ffffffffffffffffffffffffffffffffffffffff1673ffffffffffffffffffffffffffffffffffffffff168152602001908152602001600020819055503373ffffffffffffffffffffffffffffffffffffffff167f3ca3e2b750b23b0fb33120646ef2418edd82a6576afaa67069cfb626f08ca7dc8383604051808373ffffffffffffffffffffffffffffffffffffffff1681526020018281526020019250505060405180910390a25050565b80601260008473ffffffffffffffffffffffffffffffffffffffff1673ffffffffffffffffffffffffffffffffffffffff16815260200190815260200160002060006101000a81548160ff0219169083151502179055505050565b6000601360007f000000000000000000000000000000000000000000000000000000000000000073ffffffffffffffffffffffffffffffffffffffff1673ffffffffffffffffffffffffffffffffffffffff168152602001908152602001600020549050600061332e83613320848761361390919063ffffffff16565b61369990919063ffffffff16565b90506133a281601360007f000000000000000000000000000000000000000000000000000000000000000073ffffffffffffffffffffffffffffffffffffffff1673ffffffffffffffffffffffffffffffffffffffff1681526020019081526020016000205461372290919063ffffffff16565b601360007f000000000000000000000000000000000000000000000000000000000000000073ffffffffffffffffffffffffffffffffffffffff1673ffffffffffffffffffffffffffffffffffffffff1681526020019081526020016000208190555061345033827f000000000000000000000000000000000000000000000000000000000000000073ffffffffffffffffffffffffffffffffffffffff166126d09092919063ffffffff16565b61345861417e565b50505050565b7f000000000000000000000000000000000000000000000000000000000000000043116134d6576040517f08c379a0000000000000000000000000000000000000000000000000000000008152600401808060200182810382526042815260200180614b156042913960600191505060405180910390fd5b6002600054141561354f576040517f08c379a000000000000000000000000000000000000000000000000000000000815260040180806020018281038252601f8152602001807f5265656e7472616e637947756172643a207265656e7472616e742063616c6c0081525060200191505060405180910390fd5b6002600081905550613609600460009054906101000a900473ffffffffffffffffffffffffffffffffffffffff1660038054806020026020016040519081016040528092919081815260200182805480156135ff57602002820191906000526020600020905b8160009054906101000a900473ffffffffffffffffffffffffffffffffffffffff1673ffffffffffffffffffffffffffffffffffffffff16815260200190600101908083116135b5575b50505050506141cd565b6001600081905550565b6000808314156136265760009050613693565b600082840290508284828161363757fe5b041461368e576040517f08c379a0000000000000000000000000000000000000000000000000000000008152600401808060200182810382526021815260200180614cae6021913960400191505060405180910390fd5b809150505b92915050565b6000808211613710576040517f08c379a000000000000000000000000000000000000000000000000000000000815260040180806020018281038252601a8152602001807f536166654d6174683a206469766973696f6e206279207a65726f00000000000081525060200191505060405180910390fd5b81838161371957fe5b04905092915050565b60008282111561379a576040517f08c379a000000000000000000000000000000000000000000000000000000000815260040180806020018281038252601e8152602001807f536166654d6174683a207375627472616374696f6e206f766572666c6f77000081525060200191505060405180910390fd5b818303905092915050565b7f0000000000000000000000000000000000000000000000000000000000000000431161381d576040517f08c379a0000000000000000000000000000000000000000000000000000000008152600401808060200182810382526042815260200180614b156042913960600191505060405180910390fd5b60026000541415613896576040517f08c379a000000000000000000000000000000000000000000000000000000000815260040180806020018281038252601f8152602001807f5265656e7472616e637947756172643a207265656e7472616e742063616c6c0081525060200191505060405180910390fd5b60026000819055506000600c60003373ffffffffffffffffffffffffffffffffffffffff1673ffffffffffffffffffffffffffffffffffffffff16815260200190815260200160002090506138e96120b8565b6000816001015414156138fc57506139f2565b61390533613c47565b61396b81600101546003805490508360030180548060200260200160405190810160405280929190818152602001828054801561396157602002820191906000526020600020905b81548152602001906001019080831161394d575b505050505061439b565b613984816001015460015461372290919063ffffffff16565b6001819055506000816001018190555060005b6003805490508110156139ef5760008260030182815481106139b557fe5b906000526020600020018190555060008260020182815481106139d457fe5b90600052602060002001819055508080600101915050613997565b50505b6001600081905550565b613a1b8273ffffffffffffffffffffffffffffffffffffffff166144ec565b613a8d576040517f08c379a000000000000000000000000000000000000000000000000000000000815260040180806020018281038252601f8152602001807f5361666545524332303a2063616c6c20746f206e6f6e2d636f6e74726163740081525060200191505060405180910390fd5b600060608373ffffffffffffffffffffffffffffffffffffffff16836040518082805190602001908083835b60208310613adc5780518252602082019150602081019050602083039250613ab9565b6001836020036101000a0380198251168184511680821785525050505050509050019150506000604051808303816000865af19150503d8060008114613b3e576040519150601f19603f3d011682016040523d82523d6000602084013e613b43565b606091505b509150915081613bbb576040517f08c379a00000000000000000000000000000000000000000000000000000000081526004018080602001828103825260208152602001807f5361666545524332303a206c6f772d6c6576656c2063616c6c206661696c656481525060200191505060405180910390fd5b600081511115613c4157808060200190516020811015613bda57600080fd5b8101908080519060200190929190505050613c40576040517f08c379a000000000000000000000000000000000000000000000000000000000815260040180806020018281038252602a815260200180614d85602a913960400191505060405180910390fd5b5b50505050565b6000600c60008373ffffffffffffffffffffffffffffffffffffffff1673ffffffffffffffffffffffffffffffffffffffff1681526020019081526020016000209050613c93826144ff565b613c9c826145bb565b600081600101541415613caf5750613cdf565b6000600380549050905060005b81811015613cdb57613cce8482614677565b8080600101915050613cbc565b5050505b50565b6000600c60008373ffffffffffffffffffffffffffffffffffffffff1673ffffffffffffffffffffffffffffffffffffffff1681526020019081526020016000209050613d2d6120b8565b613d3682613c47565b6000600380549050905060005b81811015613e9b576000836003018281548110613d5c57fe5b906000526020600020015490506000846003018381548110613d7a57fe5b9060005260206000200181905550613dea858260038581548110613d9a57fe5b9060005260206000200160009054906101000a900473ffffffffffffffffffffffffffffffffffffffff1673ffffffffffffffffffffffffffffffffffffffff166126d09092919063ffffffff16565b8473ffffffffffffffffffffffffffffffffffffffff167f7e6632ca16a0ac6cf28448500b1a17d96c8b8163ad4c4a9b44ef5386cc02779e8260038581548110613e3057fe5b9060005260206000200160009054906101000a900473ffffffffffffffffffffffffffffffffffffffff16604051808381526020018273ffffffffffffffffffffffffffffffffffffffff1681526020019250505060405180910390a2508080600101915050613d43565b50505050565b6000811480613f6f575060008373ffffffffffffffffffffffffffffffffffffffff1663dd62ed3e30856040518363ffffffff1660e01b8152600401808373ffffffffffffffffffffffffffffffffffffffff1681526020018273ffffffffffffffffffffffffffffffffffffffff1681526020019250505060206040518083038186803b158015613f3257600080fd5b505afa158015613f46573d6000803e3d6000fd5b505050506040513d6020811015613f5c57600080fd5b8101908080519060200190929190505050145b613fc4576040517f08c379a0000000000000000000000000000000000000000000000000000000008152600401808060200182810382526036815260200180614dd86036913960400191505060405180910390fd5b6140618363095ea7b360e01b8484604051602401808373ffffffffffffffffffffffffffffffffffffffff16815260200182815260200192505050604051602081830303815290604052907bffffffffffffffffffffffffffffffffffffffffffffffffffffffff19166020820180517bffffffffffffffffffffffffffffffffffffffffffffffffffffffff83818316178352505050506139fc565b505050565b6000600c60008373ffffffffffffffffffffffffffffffffffffffff1673ffffffffffffffffffffffffffffffffffffffff16815260200190815260200160002090506140b16126c8565b81600001819055505050565b614178846323b872dd60e01b858585604051602401808473ffffffffffffffffffffffffffffffffffffffff1681526020018373ffffffffffffffffffffffffffffffffffffffff1681526020018281526020019350505050604051602081830303815290604052907bffffffffffffffffffffffffffffffffffffffffffffffffffffffff19166020820180517bffffffffffffffffffffffffffffffffffffffffffffffffffffffff83818316178352505050506139fc565b50505050565b7fb926cf6e0741528b1fa5617945fc3cf155c845682fe4057a501526892348a6c233604051808273ffffffffffffffffffffffffffffffffffffffff16815260200191505060405180910390a1565b6000601160003373ffffffffffffffffffffffffffffffffffffffff1673ffffffffffffffffffffffffffffffffffffffff16815260200190815260200160002090508060000154431161426c576040517f08c379a0000000000000000000000000000000000000000000000000000000008152600401808060200182810382526026815260200180614a846026913960400191505060405180910390fd5b600081600101549050600082600101819055506142aa33828673ffffffffffffffffffffffffffffffffffffffff166126d09092919063ffffffff16565b60005b835181101561433f5760008360020182815481106142c757fe5b9060005260206000200154905060008460020183815481106142e557fe5b9060005260206000200181905550614331338287858151811061430457fe5b602002602001015173ffffffffffffffffffffffffffffffffffffffff166126d09092919063ffffffff16565b5080806001019150506142ad565b507f548aea05c5e3b6ba34acdf7b3ad06c7bb667ed71d1761e2c177167be0a9eb0593382604051808373ffffffffffffffffffffffffffffffffffffffff1681526020018281526020019250505060405180910390a150505050565b6143a5338361486f565b6000601160003373ffffffffffffffffffffffffffffffffffffffff1673ffffffffffffffffffffffffffffffffffffffff16815260200190815260200160002090506143f18461491c565b816000018190555061441084826001015461264090919063ffffffff16565b816001018190555060005b8381101561448c5761446283828151811061443257fe5b602002602001015183600201838154811061444957fe5b906000526020600020015461264090919063ffffffff16565b82600201828154811061447157fe5b9060005260206000200181905550808060010191505061441b565b507fd9217a461a0f7f84171a8866118c3d92e943ba7c1ba89b819371f729b5cabcbc338260000154604051808373ffffffffffffffffffffffffffffffffffffffff1681526020018281526020019250505060405180910390a150505050565b600080823b905060008111915050919050565b6000600c60008373ffffffffffffffffffffffffffffffffffffffff1673ffffffffffffffffffffffffffffffffffffffff16815260200190815260200160002090506003805490508160020180549050141561455c57506145b8565b600060038054905090506000826002018054905090505b818110156145b45782600201600090806001815401808255809150506001900390600052602060002001600090919091909150558080600101915050614573565b5050505b50565b6000600c60008373ffffffffffffffffffffffffffffffffffffffff1673ffffffffffffffffffffffffffffffffffffffff1681526020019081526020016000209050600380549050816003018054905014156146185750614674565b600060038054905090506000826003018054905090505b81811015614670578260030160009080600181540180825580915050600190039060005260206000200160009091909190915055808060010191505061462f565b5050505b50565b6000600c60008473ffffffffffffffffffffffffffffffffffffffff1673ffffffffffffffffffffffffffffffffffffffff16815260200190815260200160002090506000600383815481106146c957fe5b9060005260206000200160009054906101000a900473ffffffffffffffffffffffffffffffffffffffff1673ffffffffffffffffffffffffffffffffffffffff1663313ce5676040518163ffffffff1660e01b815260040160206040518083038186803b15801561473957600080fd5b505afa15801561474d573d6000803e3d6000fd5b505050506040513d602081101561476357600080fd5b810190808051906020019092919050505060ff169050600081600a0a905060006147c3826147b56008888154811061479757fe5b9060005260206000200154876001015461361390919063ffffffff16565b61369990919063ffffffff16565b905060006147f38560020187815481106147d957fe5b90600052602060002001548361372290919063ffffffff16565b905060008111156148665761482a8186600301888154811061481157fe5b906000526020600020015461264090919063ffffffff16565b85600301878154811061483957fe5b90600052602060002001819055508185600201878154811061485757fe5b90600052602060002001819055505b50505050505050565b6000601160008473ffffffffffffffffffffffffffffffffffffffff1673ffffffffffffffffffffffffffffffffffffffff168152602001908152602001600020905081816002018054905014156148c75750614918565b6000816002018054905090505b8281101561491557816002016000908060018154018082558091505060019003906000526020600020016000909190919091505580806001019150506148d4565b50505b5050565b6000600d5443111561497b576000600f54600d5443038161493957fe5b069050614963600f54614955834361372290919063ffffffff16565b61264090919063ffffffff16565b600d8190555082600e81905550600d549150506149cd565b61499082600e5461264090919063ffffffff16565b600e81905550600d549050601054600e54106149cc576149bd600f54600d5461264090919063ffffffff16565b600d819055506000600e819055505b5b91905056fe47657455736572526577617264446562744c656e6774683a3a496e76616c69642075736572206164647265737347657455736572526577617264446562743a3a496e76616c6964207573657220616464726573736f6e6c7954726561737572793a3a4e6f742063616c6c656420627920746865207472656173757279457874656e643a3a456e6420626c6f636b206d757374206265206166746572207468652063757272656e7420656e6420626c6f636b66696e616c697a65457869743a3a547279696e6720746f206578697420746f6f206561726c7957697468647261774c50526577617264733a3a2063616e6e6f742077697468647261772066726f6d20746865204c5020746f6b656e7357697468647261774c50526577617264733a3a43616e6e6f742077697468647261772066726f6d20746f6b656e20726577617264736f6e6c79556e6c6f636b65643a3a63616e6e6f7420706572666f726d207468697320616374696f6e20756e74696c2074686520656e64206f6620746865206c6f636b47657455736572546f6b656e734f7765644c656e6774683a3a496e76616c6964207573657220616464726573734f6e6c7945786974466561747572653a3a63616e6e6f742077697468647261772066726f6d207468697320636f6e74726163742e204f6e6c7920657869742e6f6e6c79556e6465725374616b654c696d69743a3a436f6e7472616374205374616b65206c696d697420726561636865646f6e6c79556e6465725374616b654c696d69743a3a5374616b65206c696d697420726561636865644f6e6c7945786974466561747572653a3a63616e6e6f7420636c61696d2066726f6d207468697320636f6e74726163742e204f6e6c7920657869742e457874656e643a3a5265776172647320616d6f756e7473206c656e677468206973206c657373207468616e2065787065637465645374616b653a3a5374616b696e6720686173206e6f74207965742073746172746564536166654d6174683a206d756c7469706c69636174696f6e206f766572666c6f7765786974416e645472616e736665723a3a7265636569766572206973206e6f742077686974656c6973746564476574557365724f776564546f6b656e733a3a496e76616c69642075736572206164647265737357697468647261774c50526577617264733a3a546865726520617265206e6f20726577617264732066726f6d206c697175696469747920706f6f6c73457874656e643a3a456e6420626c6f636b206d75737420626520696e20746865206675747572655361666545524332303a204552433230206f7065726174696f6e20646964206e6f74207375636365656443616c6c6572206973206e6f742052657761726473506f6f6c466163746f727920636f6e74726163745361666545524332303a20617070726f76652066726f6d206e6f6e2d7a65726f20746f206e6f6e2d7a65726f20616c6c6f77616e6365a26469706673582212203c04459b133d0f92b2f4628dce91f7dac0f0f60c4b20a2978acf2861f2fae5a964736f6c634300060c00337365745468726f74746c653a3a7468726f74746c6520726f756e6420636170206d757374206265206d6f7265207468616e203073657454726561737572793a3a54726561737572792063616e6e6f742062652030436f6e7374727563746f723a3a5374616b65206c696d6974206e6565647320746f206265206d6f7265207468616e20307365745468726f74746c653a3a7468726f74746c6520706172616d6574657273207765726520616c726561647920736574436f6e7374727563746f723a3a54686520656e6420626c6f636b206d75737420626520696e20746865206675747572652e436f6e7374727563746f723a3a526577617264732070657220626c6f636b20616e64207265776172647320746f6b656e73206d7573742062652077697468207468652073616d65206c656e6774682e7365745468726f74746c653a3a7468726f74746c6520726f756e6420626c6f636b73206d757374206265206d6f7265207468616e20307365744c6f636b456e643a3a4c6f636b20656e64206e6565647320746f20626520696e2074686520667574757265436f6e7374727563746f723a3a20436f6e7472616374205374616b65206c696d6974206e6565647320746f206265206d6f7265207468616e2030436f6e7374727563746f723a3a546865207374617274696e6720626c6f636b206d75737420626520696e20746865206675747572652e",
  "source": "// SPDX-License-Identifier: MIT\n\npragma solidity 0.6.12;\n\nimport \"./../RewardsPoolBase.sol\";\nimport \"./../pool-features/OnlyExitFeature.sol\";\nimport \"./../pool-features/ThrottledExitFeature.sol\";\nimport \"./../pool-features/StakeTransfererFeature.sol\";\nimport \"./../pool-features/StakeReceiverFeature.sol\";\nimport \"./../pool-features/TreasuryOperatedFeature.sol\";\n\ncontract NonCompoundingRewardsPool is RewardsPoolBase, OnlyExitFeature, ThrottledExitFeature, StakeTransfererFeature, StakeReceiverFeature, TreasuryOperatedFeature {\n\tconstructor(\n\t\tIERC20Detailed _stakingToken,\n\t\tuint256 _startBlock,\n\t\tuint256 _endBlock,\n\t\taddress[] memory _rewardsTokens,\n\t\tuint256[] memory _rewardPerBlock,\n\t\tuint256 _stakeLimit,\n\t\tuint256 _throttleRoundBlocks,\n\t\tuint256 _throttleRoundCap,\n\t\taddress _treasury,\n\t\taddress _externalRewardToken,\n\t\tuint256 _contractStakeLimit\n\t) public RewardsPoolBase(_stakingToken, _startBlock, _endBlock, _rewardsTokens, _rewardPerBlock, _stakeLimit, _contractStakeLimit) TreasuryOperatedFeature(_externalRewardToken, _treasury) StakeLock(_endBlock) {\n\t\tsetThrottleParams(_throttleRoundBlocks, _throttleRoundCap, _endBlock);\n\t}\n\n\tfunction withdraw(uint256 _tokenAmount) public override(OnlyExitFeature, RewardsPoolBase) {\n\t\tOnlyExitFeature.withdraw(_tokenAmount);\n\t}\n\n\tfunction claim() public override(OnlyExitFeature, RewardsPoolBase) {\n\t\tOnlyExitFeature.claim();\n\t}\n\n\tfunction exit() public override(ThrottledExitFeature, RewardsPoolBase) {\n\t\tThrottledExitFeature.exit();\n\t}\n\n\tfunction completeExit() virtual override(ThrottledExitFeature) public {\n\t\tExitInfo storage info = exitInfo[msg.sender];\n\t\tuint256 exitReward = info.rewards[0];\n\t\tuint256 balanceOfRewardToken = IERC20Detailed(rewardsTokens[0]).balanceOf(address(this));\n\t\tclaimExternalRewards(exitReward, balanceOfRewardToken);\n\t\tThrottledExitFeature.completeExit();\n\t}\n\n\tfunction exitAndTransfer(address transferTo) virtual override(StakeTransfererFeature) public onlyUnlocked {\n\t\tStakeTransfererFeature.exitAndTransfer(transferTo);\n\t}\n}",
  "sourcePath": "/home/hellowodl/lmaas-liquidity-staker/contracts/V2/NonCompoundingRewardsPool.sol",
  "compiler": {
    "name": "solc",
    "version": "0.6.12+commit.27d51765.Emscripten.clang",
    "optimizer": false,
    "runs": 200
  },
  "schemaVersion": "2.3.5",
  "updatedAt": "2021-04-27T17:14:31.156Z"
}