{
  "contractName": "OnlyExitRewardsPoolMock",
  "abi": [
    {
      "inputs": [
        {
          "internalType": "contract IERC20Detailed",
          "name": "_stakingToken",
          "type": "address"
        },
        {
          "internalType": "uint256",
          "name": "_startBlock",
          "type": "uint256"
        },
        {
          "internalType": "uint256",
          "name": "_endBlock",
          "type": "uint256"
        },
        {
          "internalType": "address[]",
          "name": "_rewardsTokens",
          "type": "address[]"
        },
        {
          "internalType": "uint256[]",
          "name": "_rewardPerBlock",
          "type": "uint256[]"
        },
        {
          "internalType": "uint256",
          "name": "_stakeLimit",
          "type": "uint256"
        },
        {
          "internalType": "uint256",
          "name": "_contractStakeLimit",
          "type": "uint256"
        }
      ],
      "stateMutability": "nonpayable",
      "type": "constructor"
    },
    {
      "anonymous": false,
      "inputs": [
        {
          "indexed": true,
          "internalType": "address",
          "name": "user",
          "type": "address"
        },
        {
          "indexed": false,
          "internalType": "uint256",
          "name": "amount",
          "type": "uint256"
        },
        {
          "indexed": false,
          "internalType": "address",
          "name": "token",
          "type": "address"
        }
      ],
      "name": "Claimed",
      "type": "event"
    },
    {
      "anonymous": false,
      "inputs": [
        {
          "indexed": true,
          "internalType": "address",
          "name": "user",
          "type": "address"
        },
        {
          "indexed": false,
          "internalType": "uint256",
          "name": "amount",
          "type": "uint256"
        }
      ],
      "name": "Exited",
      "type": "event"
    },
    {
      "anonymous": false,
      "inputs": [
        {
          "indexed": false,
          "internalType": "uint256",
          "name": "newEndBlock",
          "type": "uint256"
        },
        {
          "indexed": false,
          "internalType": "uint256[]",
          "name": "newRewardsPerBlock",
          "type": "uint256[]"
        }
      ],
      "name": "Extended",
      "type": "event"
    },
    {
      "anonymous": false,
      "inputs": [
        {
          "indexed": true,
          "internalType": "address",
          "name": "user",
          "type": "address"
        },
        {
          "indexed": false,
          "internalType": "uint256",
          "name": "amount",
          "type": "uint256"
        }
      ],
      "name": "Staked",
      "type": "event"
    },
    {
      "anonymous": false,
      "inputs": [
        {
          "indexed": true,
          "internalType": "uint256",
          "name": "rewardsAmount",
          "type": "uint256"
        },
        {
          "indexed": true,
          "internalType": "address",
          "name": "recipient",
          "type": "address"
        }
      ],
      "name": "WithdrawLPRewards",
      "type": "event"
    },
    {
      "anonymous": false,
      "inputs": [
        {
          "indexed": true,
          "internalType": "address",
          "name": "user",
          "type": "address"
        },
        {
          "indexed": false,
          "internalType": "uint256",
          "name": "amount",
          "type": "uint256"
        }
      ],
      "name": "Withdrawn",
      "type": "event"
    },
    {
      "inputs": [
        {
          "internalType": "uint256",
          "name": "",
          "type": "uint256"
        }
      ],
      "name": "accumulatedRewardMultiplier",
      "outputs": [
        {
          "internalType": "uint256",
          "name": "",
          "type": "uint256"
        }
      ],
      "stateMutability": "view",
      "type": "function"
    },
    {
      "inputs": [
        {
          "internalType": "address",
          "name": "_userAddress",
          "type": "address"
        }
      ],
      "name": "balanceOf",
      "outputs": [
        {
          "internalType": "uint256",
          "name": "",
          "type": "uint256"
        }
      ],
      "stateMutability": "view",
      "type": "function"
    },
    {
      "inputs": [],
      "name": "contractStakeLimit",
      "outputs": [
        {
          "internalType": "uint256",
          "name": "",
          "type": "uint256"
        }
      ],
      "stateMutability": "view",
      "type": "function"
    },
    {
      "inputs": [],
      "name": "endBlock",
      "outputs": [
        {
          "internalType": "uint256",
          "name": "",
          "type": "uint256"
        }
      ],
      "stateMutability": "view",
      "type": "function"
    },
    {
      "inputs": [],
      "name": "exit",
      "outputs": [],
      "stateMutability": "nonpayable",
      "type": "function"
    },
    {
      "inputs": [
        {
          "internalType": "uint256",
          "name": "_endBlock",
          "type": "uint256"
        },
        {
          "internalType": "uint256[]",
          "name": "_rewardsPerBlock",
          "type": "uint256[]"
        },
        {
          "internalType": "uint256[]",
          "name": "_currentRemainingRewards",
          "type": "uint256[]"
        },
        {
          "internalType": "uint256[]",
          "name": "_newRemainingRewards",
          "type": "uint256[]"
        }
      ],
      "name": "extend",
      "outputs": [],
      "stateMutability": "nonpayable",
      "type": "function"
    },
    {
      "inputs": [],
      "name": "getRewardTokensCount",
      "outputs": [
        {
          "internalType": "uint256",
          "name": "",
          "type": "uint256"
        }
      ],
      "stateMutability": "view",
      "type": "function"
    },
    {
      "inputs": [
        {
          "internalType": "address",
          "name": "_userAddress",
          "type": "address"
        },
        {
          "internalType": "uint256",
          "name": "tokenIndex",
          "type": "uint256"
        }
      ],
      "name": "getUserAccumulatedReward",
      "outputs": [
        {
          "internalType": "uint256",
          "name": "",
          "type": "uint256"
        }
      ],
      "stateMutability": "view",
      "type": "function"
    },
    {
      "inputs": [
        {
          "internalType": "address",
          "name": "_userAddress",
          "type": "address"
        },
        {
          "internalType": "uint256",
          "name": "_index",
          "type": "uint256"
        }
      ],
      "name": "getUserOwedTokens",
      "outputs": [
        {
          "internalType": "uint256",
          "name": "",
          "type": "uint256"
        }
      ],
      "stateMutability": "view",
      "type": "function"
    },
    {
      "inputs": [
        {
          "internalType": "address",
          "name": "_userAddress",
          "type": "address"
        },
        {
          "internalType": "uint256",
          "name": "_index",
          "type": "uint256"
        }
      ],
      "name": "getUserRewardDebt",
      "outputs": [
        {
          "internalType": "uint256",
          "name": "",
          "type": "uint256"
        }
      ],
      "stateMutability": "view",
      "type": "function"
    },
    {
      "inputs": [
        {
          "internalType": "address",
          "name": "_userAddress",
          "type": "address"
        }
      ],
      "name": "getUserRewardDebtLength",
      "outputs": [
        {
          "internalType": "uint256",
          "name": "",
          "type": "uint256"
        }
      ],
      "stateMutability": "view",
      "type": "function"
    },
    {
      "inputs": [
        {
          "internalType": "address",
          "name": "_userAddress",
          "type": "address"
        }
      ],
      "name": "getUserTokensOwedLength",
      "outputs": [
        {
          "internalType": "uint256",
          "name": "",
          "type": "uint256"
        }
      ],
      "stateMutability": "view",
      "type": "function"
    },
    {
      "inputs": [],
      "name": "hasStakingStarted",
      "outputs": [
        {
          "internalType": "bool",
          "name": "",
          "type": "bool"
        }
      ],
      "stateMutability": "view",
      "type": "function"
    },
    {
      "inputs": [],
      "name": "lastRewardBlock",
      "outputs": [
        {
          "internalType": "uint256",
          "name": "",
          "type": "uint256"
        }
      ],
      "stateMutability": "view",
      "type": "function"
    },
    {
      "inputs": [
        {
          "internalType": "uint256",
          "name": "",
          "type": "uint256"
        }
      ],
      "name": "rewardPerBlock",
      "outputs": [
        {
          "internalType": "uint256",
          "name": "",
          "type": "uint256"
        }
      ],
      "stateMutability": "view",
      "type": "function"
    },
    {
      "inputs": [],
      "name": "rewardsPoolFactory",
      "outputs": [
        {
          "internalType": "address",
          "name": "",
          "type": "address"
        }
      ],
      "stateMutability": "view",
      "type": "function"
    },
    {
      "inputs": [
        {
          "internalType": "uint256",
          "name": "",
          "type": "uint256"
        }
      ],
      "name": "rewardsTokens",
      "outputs": [
        {
          "internalType": "address",
          "name": "",
          "type": "address"
        }
      ],
      "stateMutability": "view",
      "type": "function"
    },
    {
      "inputs": [
        {
          "internalType": "uint256",
          "name": "_tokenAmount",
          "type": "uint256"
        }
      ],
      "name": "stake",
      "outputs": [],
      "stateMutability": "nonpayable",
      "type": "function"
    },
    {
      "inputs": [],
      "name": "stakeLimit",
      "outputs": [
        {
          "internalType": "uint256",
          "name": "",
          "type": "uint256"
        }
      ],
      "stateMutability": "view",
      "type": "function"
    },
    {
      "inputs": [],
      "name": "stakingToken",
      "outputs": [
        {
          "internalType": "contract IERC20Detailed",
          "name": "",
          "type": "address"
        }
      ],
      "stateMutability": "view",
      "type": "function"
    },
    {
      "inputs": [],
      "name": "startBlock",
      "outputs": [
        {
          "internalType": "uint256",
          "name": "",
          "type": "uint256"
        }
      ],
      "stateMutability": "view",
      "type": "function"
    },
    {
      "inputs": [],
      "name": "totalStaked",
      "outputs": [
        {
          "internalType": "uint256",
          "name": "",
          "type": "uint256"
        }
      ],
      "stateMutability": "view",
      "type": "function"
    },
    {
      "inputs": [],
      "name": "updateRewardMultipliers",
      "outputs": [],
      "stateMutability": "nonpayable",
      "type": "function"
    },
    {
      "inputs": [
        {
          "internalType": "address",
          "name": "",
          "type": "address"
        }
      ],
      "name": "userInfo",
      "outputs": [
        {
          "internalType": "uint256",
          "name": "firstStakedBlockNumber",
          "type": "uint256"
        },
        {
          "internalType": "uint256",
          "name": "amountStaked",
          "type": "uint256"
        }
      ],
      "stateMutability": "view",
      "type": "function"
    },
    {
      "inputs": [
        {
          "internalType": "address",
          "name": "recipient",
          "type": "address"
        },
        {
          "internalType": "address",
          "name": "lpTokenContract",
          "type": "address"
        }
      ],
      "name": "withdrawLPRewards",
      "outputs": [],
      "stateMutability": "nonpayable",
      "type": "function"
    },
    {
      "inputs": [
        {
          "internalType": "uint256",
          "name": "_tokenAmount",
          "type": "uint256"
        }
      ],
      "name": "withdraw",
      "outputs": [],
      "stateMutability": "nonpayable",
      "type": "function"
    },
    {
      "inputs": [],
      "name": "claim",
      "outputs": [],
      "stateMutability": "nonpayable",
      "type": "function"
    }
  ],
  "bytecode": "0x60806040523480156200001157600080fd5b5060405162003ba538038062003ba5833981810160405260e08110156200003757600080fd5b81019080805190602001909291908051906020019092919080519060200190929190805160405193929190846401000000008211156200007657600080fd5b838201915060208201858111156200008d57600080fd5b8251866020820283011164010000000082111715620000ab57600080fd5b8083526020830192505050908051906020019060200280838360005b83811015620000e4578082015181840152602081019050620000c7565b50505050905001604052602001805160405193929190846401000000008211156200010e57600080fd5b838201915060208201858111156200012557600080fd5b82518660208202830111640100000000821117156200014357600080fd5b8083526020830192505050908051906020019060200280838360005b838110156200017c5780820151818401526020810190506200015f565b505050509050016040526020018051906020019092919080519060200190929190505050868686868686866001600081905550620001bf620004cc60201b60201c565b861162000218576040517f08c379a000000000000000000000000000000000000000000000000000000000815260040180806020018281038252603681526020018062003b6f6036913960400191505060405180910390fd5b62000228620004cc60201b60201c565b851162000281576040517f08c379a000000000000000000000000000000000000000000000000000000000815260040180806020018281038252603181526020018062003ab56031913960400191505060405180910390fd5b8351835114620002dd576040517f08c379a000000000000000000000000000000000000000000000000000000000815260040180806020018281038252604f81526020018062003ae6604f913960600191505060405180910390fd5b600082141562000339576040517f08c379a000000000000000000000000000000000000000000000000000000000815260040180806020018281038252603081526020018062003a856030913960400191505060405180910390fd5b600081141562000395576040517f08c379a000000000000000000000000000000000000000000000000000000000815260040180806020018281038252603a81526020018062003b35603a913960400191505060405180910390fd5b86600460006101000a81548173ffffffffffffffffffffffffffffffffffffffff021916908373ffffffffffffffffffffffffffffffffffffffff1602179055508260029080519060200190620003ee929190620004d4565b50856005819055508460068190555083600390805190602001906200041592919062000526565b5060055460078190555033600960006101000a81548173ffffffffffffffffffffffffffffffffffffffff021916908373ffffffffffffffffffffffffffffffffffffffff16021790555081600a8190555080600b8190555060005b600380549050811015620004b757600860009080600181540180825580915050600190039060005260206000200160009091909190915055808060010191505062000471565b50505050505050505050505050505062000611565b600043905090565b82805482825590600052602060002090810192821562000513579160200282015b8281111562000512578251825591602001919060010190620004f5565b5b509050620005229190620005b5565b5090565b828054828255906000526020600020908101928215620005a2579160200282015b82811115620005a15782518260006101000a81548173ffffffffffffffffffffffffffffffffffffffff021916908373ffffffffffffffffffffffffffffffffffffffff1602179055509160200191906001019062000547565b5b509050620005b19190620005d4565b5090565b5b80821115620005d0576000816000905550600101620005b6565b5090565b5b808211156200060d57600081816101000a81549073ffffffffffffffffffffffffffffffffffffffff021916905550600101620005d5565b5090565b61346480620006216000396000f3fe608060405234801561001057600080fd5b50600436106101a85760003560e01c806372f702f3116100f9578063b6d0dcd811610097578063df9d777f11610071578063df9d777f14610828578063e9fad8ee1461088a578063f27d026414610894578063fb58cad1146108f6576101a8565b8063b6d0dcd814610764578063ce415302146107bc578063dd2da2201461081e576101a8565b8063a1002a0f116100d3578063a1002a0f1461065c578063a1292aea146106c0578063a694fc3a14610718578063a9f8d18114610746576101a8565b806372f702f3146105c8578063791f39cd146105fc578063817b1cd21461063e576101a8565b80632e1a7d4d116101665780634e71d92d116101405780634e71d92d1461051257806356409b811461051c57806357b4f01f1461055057806370a0823114610570576101a8565b80632e1a7d4d146104a857806345ef79af146104d657806348cd4cb1146104f4576101a8565b806284c927146101ad57806303d1dae014610205578063083c6323146102235780631959a0021461024157806320e67c76146102a05780632d9e88e11461048a575b600080fd5b6101ef600480360360208110156101c357600080fd5b81019080803573ffffffffffffffffffffffffffffffffffffffff169060200190929190505050610938565b6040518082815260200191505060405180910390f35b61020d610a12565b6040518082815260200191505060405180910390f35b61022b610a18565b6040518082815260200191505060405180910390f35b6102836004803603602081101561025757600080fd5b81019080803573ffffffffffffffffffffffffffffffffffffffff169060200190929190505050610a1e565b604051808381526020018281526020019250505060405180910390f35b610488600480360360808110156102b657600080fd5b8101908080359060200190929190803590602001906401000000008111156102dd57600080fd5b8201836020820111156102ef57600080fd5b8035906020019184602083028401116401000000008311171561031157600080fd5b919080806020026020016040519081016040528093929190818152602001838360200280828437600081840152601f19601f8201169050808301925050505050505091929192908035906020019064010000000081111561037157600080fd5b82018360208201111561038357600080fd5b803590602001918460208302840111640100000000831117156103a557600080fd5b919080806020026020016040519081016040528093929190818152602001838360200280828437600081840152601f19601f8201169050808301925050505050505091929192908035906020019064010000000081111561040557600080fd5b82018360208201111561041757600080fd5b8035906020019184602083028401116401000000008311171561043957600080fd5b919080806020026020016040519081016040528093929190818152602001838360200280828437600081840152601f19601f820116905080830192505050505050509192919290505050610a42565b005b610492610d9d565b6040518082815260200191505060405180910390f35b6104d4600480360360208110156104be57600080fd5b8101908080359060200190929190505050610daa565b005b6104de610db6565b6040518082815260200191505060405180910390f35b6104fc610dbc565b6040518082815260200191505060405180910390f35b61051a610dc2565b005b610524610dcc565b604051808273ffffffffffffffffffffffffffffffffffffffff16815260200191505060405180910390f35b610558610df2565b60405180821515815260200191505060405180910390f35b6105b26004803603602081101561058657600080fd5b81019080803573ffffffffffffffffffffffffffffffffffffffff169060200190929190505050610e06565b6040518082815260200191505060405180910390f35b6105d0610e57565b604051808273ffffffffffffffffffffffffffffffffffffffff16815260200191505060405180910390f35b6106286004803603602081101561061257600080fd5b8101908080359060200190929190505050610e7d565b6040518082815260200191505060405180910390f35b610646610e9e565b6040518082815260200191505060405180910390f35b6106be6004803603604081101561067257600080fd5b81019080803573ffffffffffffffffffffffffffffffffffffffff169060200190929190803573ffffffffffffffffffffffffffffffffffffffff169060200190929190505050610ea4565b005b610702600480360360208110156106d657600080fd5b81019080803573ffffffffffffffffffffffffffffffffffffffff1690602001909291905050506112cd565b6040518082815260200191505060405180910390f35b6107446004803603602081101561072e57600080fd5b81019080803590602001909291905050506113a7565b005b61074e61143f565b6040518082815260200191505060405180910390f35b6107906004803603602081101561077a57600080fd5b8101908080359060200190929190505050611445565b604051808273ffffffffffffffffffffffffffffffffffffffff16815260200191505060405180910390f35b610808600480360360408110156107d257600080fd5b81019080803573ffffffffffffffffffffffffffffffffffffffff16906020019092919080359060200190929190505050611481565b6040518082815260200191505060405180910390f35b61082661156e565b005b6108746004803603604081101561083e57600080fd5b81019080803573ffffffffffffffffffffffffffffffffffffffff1690602001909291908035906020019092919050505061176e565b6040518082815260200191505060405180910390f35b6108926119d8565b005b6108e0600480360360408110156108aa57600080fd5b81019080803573ffffffffffffffffffffffffffffffffffffffff16906020019092919080359060200190929190505050611a6c565b6040518082815260200191505060405180910390f35b6109226004803603602081101561090c57600080fd5b8101908080359060200190929190505050611b59565b6040518082815260200191505060405180910390f35b60008073ffffffffffffffffffffffffffffffffffffffff168273ffffffffffffffffffffffffffffffffffffffff1614156109bf576040517f08c379a000000000000000000000000000000000000000000000000000000000815260040180806020018281038252602d8152602001806130e6602d913960400191505060405180910390fd5b6000600c60008473ffffffffffffffffffffffffffffffffffffffff1673ffffffffffffffffffffffffffffffffffffffff16815260200190815260200160002090508060020180549050915050919050565b600b5481565b60065481565b600c6020528060005260406000206000915090508060000154908060010154905082565b600960009054906101000a900473ffffffffffffffffffffffffffffffffffffffff1673ffffffffffffffffffffffffffffffffffffffff163373ffffffffffffffffffffffffffffffffffffffff1614610ae8576040517f08c379a00000000000000000000000000000000000000000000000000000000081526004018080602001828103825260298152602001806134066029913960400191505060405180910390fd5b610af0611b7a565b8411610b47576040517f08c379a00000000000000000000000000000000000000000000000000000000081526004018080602001828103825260278152602001806133b56027913960400191505060405180910390fd5b600654841015610ba2576040517f08c379a000000000000000000000000000000000000000000000000000000000815260040180806020018281038252603581526020018061313a6035913960400191505060405180910390fd5b600380549050835114610c00576040517f08c379a00000000000000000000000000000000000000000000000000000000081526004018080602001828103825260348152602001806132db6034913960400191505060405180910390fd5b610c0861156e565b60005b8351811015610d0f57600060038281548110610c2357fe5b9060005260206000200160009054906101000a900473ffffffffffffffffffffffffffffffffffffffff169050828281518110610c5c57fe5b6020026020010151848381518110610c7057fe5b60200260200101511115610cd257610cd133848481518110610c8e57fe5b6020026020010151868581518110610ca257fe5b6020026020010151038373ffffffffffffffffffffffffffffffffffffffff16611b829092919063ffffffff16565b5b848281518110610cde57fe5b602002602001015160028381548110610cf357fe5b9060005260206000200181905550508080600101915050610c0b565b50836006819055507f137c92cc7579cc4d6a2b109467cd475c205d1c136363ca854cc46d72f840d5de84846040518083815260200180602001828103825283818151815260200191508051906020019060200280838360005b83811015610d83578082015181840152602081019050610d68565b50505050905001935050505060405180910390a150505050565b6000600380549050905090565b610db381611c24565b50565b600a5481565b60055481565b610dca611c75565b565b600960009054906101000a900473ffffffffffffffffffffffffffffffffffffffff1681565b6000600554610dff611b7a565b1015905090565b600080600c60008473ffffffffffffffffffffffffffffffffffffffff1673ffffffffffffffffffffffffffffffffffffffff16815260200190815260200160002090508060010154915050919050565b600460009054906101000a900473ffffffffffffffffffffffffffffffffffffffff1681565b60028181548110610e8a57fe5b906000526020600020016000915090505481565b60015481565b60026000541415610f1d576040517f08c379a000000000000000000000000000000000000000000000000000000000815260040180806020018281038252601f8152602001807f5265656e7472616e637947756172643a207265656e7472616e742063616c6c0081525060200191505060405180910390fd5b6002600081905550600960009054906101000a900473ffffffffffffffffffffffffffffffffffffffff1673ffffffffffffffffffffffffffffffffffffffff163373ffffffffffffffffffffffffffffffffffffffff1614610fcb576040517f08c379a00000000000000000000000000000000000000000000000000000000081526004018080602001828103825260298152602001806134066029913960400191505060405180910390fd5b60008173ffffffffffffffffffffffffffffffffffffffff166370a08231306040518263ffffffff1660e01b8152600401808273ffffffffffffffffffffffffffffffffffffffff16815260200191505060206040518083038186803b15801561103457600080fd5b505afa158015611048573d6000803e3d6000fd5b505050506040513d602081101561105e57600080fd5b81019080805190602001909291905050509050600081116110ca576040517f08c379a000000000000000000000000000000000000000000000000000000000815260040180806020018281038252603c815260200180613379603c913960400191505060405180910390fd5b600460009054906101000a900473ffffffffffffffffffffffffffffffffffffffff1673ffffffffffffffffffffffffffffffffffffffff168273ffffffffffffffffffffffffffffffffffffffff161415611171576040517f08c379a000000000000000000000000000000000000000000000000000000000815260040180806020018281038252603681526020018061316f6036913960400191505060405180910390fd5b6000600380549050905060005b8181101561124f576003818154811061119357fe5b9060005260206000200160009054906101000a900473ffffffffffffffffffffffffffffffffffffffff1673ffffffffffffffffffffffffffffffffffffffff168473ffffffffffffffffffffffffffffffffffffffff161415611242576040517f08c379a00000000000000000000000000000000000000000000000000000000081526004018080602001828103825260358152602001806131a56035913960400191505060405180910390fd5b808060010191505061117e565b5061127b84838573ffffffffffffffffffffffffffffffffffffffff16611b829092919063ffffffff16565b8373ffffffffffffffffffffffffffffffffffffffff16827fdf1b625465761dd1a4330a9b3a21d4943183f301036528a3544f8d891fdce2c260405160405180910390a3505060016000819055505050565b60008073ffffffffffffffffffffffffffffffffffffffff168273ffffffffffffffffffffffffffffffffffffffff161415611354576040517f08c379a000000000000000000000000000000000000000000000000000000000815260040180806020018281038252602d8152602001806131da602d913960400191505060405180910390fd5b6000600c60008473ffffffffffffffffffffffffffffffffffffffff1673ffffffffffffffffffffffffffffffffffffffff16815260200190815260200160002090508060030180549050915050919050565b60026000541415611420576040517f08c379a000000000000000000000000000000000000000000000000000000000815260040180806020018281038252601f8152602001807f5265656e7472616e637947756172643a207265656e7472616e742063616c6c0081525060200191505060405180910390fd5b600260008190555061143481336001611cc6565b600160008190555050565b60075481565b6003818154811061145257fe5b906000526020600020016000915054906101000a900473ffffffffffffffffffffffffffffffffffffffff1681565b60008073ffffffffffffffffffffffffffffffffffffffff168373ffffffffffffffffffffffffffffffffffffffff161415611508576040517f08c379a00000000000000000000000000000000000000000000000000000000081526004018080602001828103825260278152602001806133526027913960400191505060405180910390fd5b6000600c60008573ffffffffffffffffffffffffffffffffffffffff1673ffffffffffffffffffffffffffffffffffffffff168152602001908152602001600020905080600301838154811061155a57fe5b906000526020600020015491505092915050565b6000611578611b7a565b90506007548111611589575061176c565b6000600654821061159c5760065461159e565b815b905060006007548203905060008114156115ba5750505061176c565b600060015414156115d4578160078190555050505061176c565b6000600380549050905060005b8181101561175f576000600382815481106115f857fe5b9060005260206000200160009054906101000a900473ffffffffffffffffffffffffffffffffffffffff1673ffffffffffffffffffffffffffffffffffffffff1663313ce5676040518163ffffffff1660e01b815260040160206040518083038186803b15801561166857600080fd5b505afa15801561167c573d6000803e3d6000fd5b505050506040513d602081101561169257600080fd5b810190808051906020019092919050505060ff169050600081600a0a905060006116dc600285815481106116c257fe5b9060005260206000200154876121e790919063ffffffff16565b905060006117076001546116f985856121e790919063ffffffff16565b61226d90919063ffffffff16565b9050611733816008878154811061171a57fe5b90600052602060002001546122f690919063ffffffff16565b6008868154811061174057fe5b90600052602060002001819055505050505080806001019150506115e1565b5082600781905550505050505b565b600080611779611b7a565b90506000600654821061178e57600654611790565b815b905060006117a96007548361237e90919063ffffffff16565b90506000600386815481106117ba57fe5b9060005260206000200160009054906101000a900473ffffffffffffffffffffffffffffffffffffffff1673ffffffffffffffffffffffffffffffffffffffff1663313ce5676040518163ffffffff1660e01b815260040160206040518083038186803b15801561182a57600080fd5b505afa15801561183e573d6000803e3d6000fd5b505050506040513d602081101561185457600080fd5b810190808051906020019092919050505060ff169050600081600a0a9050600061189e6002898154811061188457fe5b9060005260206000200154856121e790919063ffffffff16565b905060006118c96001546118bb85856121e790919063ffffffff16565b61226d90919063ffffffff16565b905060006118f78260088c815481106118de57fe5b90600052602060002001546122f690919063ffffffff16565b90506000600c60008d73ffffffffffffffffffffffffffffffffffffffff1673ffffffffffffffffffffffffffffffffffffffff16815260200190815260200160002090506000611967866119598585600101546121e790919063ffffffff16565b61226d90919063ffffffff16565b90506000611997836002018e8154811061197d57fe5b90600052602060002001548361237e90919063ffffffff16565b90506119c581846003018f815481106119ac57fe5b90600052602060002001546122f690919063ffffffff16565b9b50505050505050505050505092915050565b60026000541415611a51576040517f08c379a000000000000000000000000000000000000000000000000000000000815260040180806020018281038252601f8152602001807f5265656e7472616e637947756172643a207265656e7472616e742063616c6c0081525060200191505060405180910390fd5b6002600081905550611a6233612401565b6001600081905550565b60008073ffffffffffffffffffffffffffffffffffffffff168373ffffffffffffffffffffffffffffffffffffffff161415611af3576040517f08c379a00000000000000000000000000000000000000000000000000000000081526004018080602001828103825260278152602001806131136027913960400191505060405180910390fd5b6000600c60008573ffffffffffffffffffffffffffffffffffffffff1673ffffffffffffffffffffffffffffffffffffffff1681526020019081526020016000209050806002018381548110611b4557fe5b906000526020600020015491505092915050565b60088181548110611b6657fe5b906000526020600020016000915090505481565b600043905090565b611c1f8363a9059cbb60e01b8484604051602401808373ffffffffffffffffffffffffffffffffffffffff16815260200182815260200192505050604051602081830303815290604052907bffffffffffffffffffffffffffffffffffffffffffffffffffffffff19166020820180517bffffffffffffffffffffffffffffffffffffffffffffffffffffffff83818316178352505050506124b1565b505050565b6040517f08c379a000000000000000000000000000000000000000000000000000000000815260040180806020018281038252603f815260200180613207603f913960400191505060405180910390fd5b6040517f08c379a000000000000000000000000000000000000000000000000000000000815260040180806020018281038252603c81526020018061329f603c913960400191505060405180910390fd5b6000611cd0611b7a565b90506005548111611d2c576040517f08c379a000000000000000000000000000000000000000000000000000000000815260040180806020018281038252602281526020018061330f6022913960400191505060405180910390fd5b600654811115611da4576040517f08c379a000000000000000000000000000000000000000000000000000000000815260040180806020018281038252601b8152602001807f5374616b653a3a5374616b696e67206861732066696e6973686564000000000081525060200191505060405180910390fd5b82846000600c60008473ffffffffffffffffffffffffffffffffffffffff1673ffffffffffffffffffffffffffffffffffffffff1681526020019081526020016000209050600a54611e038383600101546122f690919063ffffffff16565b1115611e5a576040517f08c379a00000000000000000000000000000000000000000000000000000000081526004018080602001828103825260288152602001806132776028913960400191505060405180910390fd5b600b54611e72836001546122f690919063ffffffff16565b1115611ec9576040517f08c379a00000000000000000000000000000000000000000000000000000000081526004018080602001828103825260318152602001806132466031913960400191505060405180910390fd5b60008711611f3f576040517f08c379a00000000000000000000000000000000000000000000000000000000081526004018080602001828103825260158152602001807f5374616b653a3a43616e6e6f74207374616b652030000000000000000000000081525060200191505060405180910390fd5b6000600c60008873ffffffffffffffffffffffffffffffffffffffff1673ffffffffffffffffffffffffffffffffffffffff1681526020019081526020016000209050600081600101541415611f9957611f98876126fc565b5b611fa161156e565b611faa87612753565b611fc18882600101546122f690919063ffffffff16565b8160010181905550611fde886001546122f690919063ffffffff16565b6001819055506000600380549050905060005b818110156121325760006003828154811061200857fe5b9060005260206000200160009054906101000a900473ffffffffffffffffffffffffffffffffffffffff1673ffffffffffffffffffffffffffffffffffffffff1663313ce5676040518163ffffffff1660e01b815260040160206040518083038186803b15801561207857600080fd5b505afa15801561208c573d6000803e3d6000fd5b505050506040513d60208110156120a257600080fd5b810190808051906020019092919050505060ff169050600081600a0a90506000612102826120f4600887815481106120d657fe5b906000526020600020015489600101546121e790919063ffffffff16565b61226d90919063ffffffff16565b90508086600201858154811061211457fe5b90600052602060002001819055505050508080600101915050611ff1565b5061218e876121415733612143565b885b308b600460009054906101000a900473ffffffffffffffffffffffffffffffffffffffff1673ffffffffffffffffffffffffffffffffffffffff166127ee909392919063ffffffff16565b8773ffffffffffffffffffffffffffffffffffffffff167f9e71bc8eea02a63969f509818f2dafb9254532904319f9dbda79b67bd34a5f3d8a6040518082815260200191505060405180910390a2505050505050505050565b6000808314156121fa5760009050612267565b600082840290508284828161220b57fe5b0414612262576040517f08c379a00000000000000000000000000000000000000000000000000000000081526004018080602001828103825260218152602001806133316021913960400191505060405180910390fd5b809150505b92915050565b60008082116122e4576040517f08c379a000000000000000000000000000000000000000000000000000000000815260040180806020018281038252601a8152602001807f536166654d6174683a206469766973696f6e206279207a65726f00000000000081525060200191505060405180910390fd5b8183816122ed57fe5b04905092915050565b600080828401905083811015612374576040517f08c379a000000000000000000000000000000000000000000000000000000000815260040180806020018281038252601b8152602001807f536166654d6174683a206164646974696f6e206f766572666c6f77000000000081525060200191505060405180910390fd5b8091505092915050565b6000828211156123f6576040517f08c379a000000000000000000000000000000000000000000000000000000000815260040180806020018281038252601e8152602001807f536166654d6174683a207375627472616374696f6e206f766572666c6f77000081525060200191505060405180910390fd5b818303905092915050565b6000600c60008373ffffffffffffffffffffffffffffffffffffffff1673ffffffffffffffffffffffffffffffffffffffff168152602001908152602001600020905061244d826128af565b61245b816001015483612a6e565b8173ffffffffffffffffffffffffffffffffffffffff167f920bb94eb3842a728db98228c375ff6b00c5bc5a54fac6736155517a0a20a61a82600101546040518082815260200191505060405180910390a25050565b6124d08273ffffffffffffffffffffffffffffffffffffffff16612d62565b612542576040517f08c379a000000000000000000000000000000000000000000000000000000000815260040180806020018281038252601f8152602001807f5361666545524332303a2063616c6c20746f206e6f6e2d636f6e74726163740081525060200191505060405180910390fd5b600060608373ffffffffffffffffffffffffffffffffffffffff16836040518082805190602001908083835b60208310612591578051825260208201915060208101905060208303925061256e565b6001836020036101000a0380198251168184511680821785525050505050509050019150506000604051808303816000865af19150503d80600081146125f3576040519150601f19603f3d011682016040523d82523d6000602084013e6125f8565b606091505b509150915081612670576040517f08c379a00000000000000000000000000000000000000000000000000000000081526004018080602001828103825260208152602001807f5361666545524332303a206c6f772d6c6576656c2063616c6c206661696c656481525060200191505060405180910390fd5b6000815111156126f65780806020019051602081101561268f57600080fd5b81019080805190602001909291905050506126f5576040517f08c379a000000000000000000000000000000000000000000000000000000000815260040180806020018281038252602a8152602001806133dc602a913960400191505060405180910390fd5b5b50505050565b6000600c60008373ffffffffffffffffffffffffffffffffffffffff1673ffffffffffffffffffffffffffffffffffffffff1681526020019081526020016000209050612747611b7a565b81600001819055505050565b6000600c60008373ffffffffffffffffffffffffffffffffffffffff1673ffffffffffffffffffffffffffffffffffffffff168152602001908152602001600020905061279f82612d75565b6127a882612e31565b6000816001015414156127bb57506127eb565b6000600380549050905060005b818110156127e7576127da8482612eed565b80806001019150506127c8565b5050505b50565b6128a9846323b872dd60e01b858585604051602401808473ffffffffffffffffffffffffffffffffffffffff1681526020018373ffffffffffffffffffffffffffffffffffffffff1681526020018281526020019350505050604051602081830303815290604052907bffffffffffffffffffffffffffffffffffffffffffffffffffffffff19166020820180517bffffffffffffffffffffffffffffffffffffffffffffffffffffffff83818316178352505050506124b1565b50505050565b6000600c60008373ffffffffffffffffffffffffffffffffffffffff1673ffffffffffffffffffffffffffffffffffffffff16815260200190815260200160002090506128fa61156e565b61290382612753565b6000600380549050905060005b81811015612a6857600083600301828154811061292957fe5b90600052602060002001549050600084600301838154811061294757fe5b90600052602060002001819055506129b785826003858154811061296757fe5b9060005260206000200160009054906101000a900473ffffffffffffffffffffffffffffffffffffffff1673ffffffffffffffffffffffffffffffffffffffff16611b829092919063ffffffff16565b8473ffffffffffffffffffffffffffffffffffffffff167f7e6632ca16a0ac6cf28448500b1a17d96c8b8163ad4c4a9b44ef5386cc02779e82600385815481106129fd57fe5b9060005260206000200160009054906101000a900473ffffffffffffffffffffffffffffffffffffffff16604051808381526020018273ffffffffffffffffffffffffffffffffffffffff1681526020019250505060405180910390a2508080600101915050612910565b50505050565b60008211612ae4576040517f08c379a000000000000000000000000000000000000000000000000000000000815260040180806020018281038252601b8152602001807f57697468647261773a3a43616e6e6f742077697468647261772030000000000081525060200191505060405180910390fd5b6000600c60008373ffffffffffffffffffffffffffffffffffffffff1673ffffffffffffffffffffffffffffffffffffffff1681526020019081526020016000209050612b2f61156e565b612b3882612753565b612b4f83826001015461237e90919063ffffffff16565b8160010181905550612b6c8360015461237e90919063ffffffff16565b6001819055506000600380549050905060005b81811015612cc057600060038281548110612b9657fe5b9060005260206000200160009054906101000a900473ffffffffffffffffffffffffffffffffffffffff1673ffffffffffffffffffffffffffffffffffffffff1663313ce5676040518163ffffffff1660e01b815260040160206040518083038186803b158015612c0657600080fd5b505afa158015612c1a573d6000803e3d6000fd5b505050506040513d6020811015612c3057600080fd5b810190808051906020019092919050505060ff169050600081600a0a90506000612c9082612c8260088781548110612c6457fe5b906000526020600020015489600101546121e790919063ffffffff16565b61226d90919063ffffffff16565b905080866002018581548110612ca257fe5b90600052602060002001819055505050508080600101915050612b7f565b50612d0e8385600460009054906101000a900473ffffffffffffffffffffffffffffffffffffffff1673ffffffffffffffffffffffffffffffffffffffff16611b829092919063ffffffff16565b8273ffffffffffffffffffffffffffffffffffffffff167f7084f5476618d8e60b11ef0d7d3f06914655adb8793e28ff7f018d4c76d505d5856040518082815260200191505060405180910390a250505050565b600080823b905060008111915050919050565b6000600c60008373ffffffffffffffffffffffffffffffffffffffff1673ffffffffffffffffffffffffffffffffffffffff168152602001908152602001600020905060038054905081600201805490501415612dd25750612e2e565b600060038054905090506000826002018054905090505b81811015612e2a5782600201600090806001815401808255809150506001900390600052602060002001600090919091909150558080600101915050612de9565b5050505b50565b6000600c60008373ffffffffffffffffffffffffffffffffffffffff1673ffffffffffffffffffffffffffffffffffffffff168152602001908152602001600020905060038054905081600301805490501415612e8e5750612eea565b600060038054905090506000826003018054905090505b81811015612ee65782600301600090806001815401808255809150506001900390600052602060002001600090919091909150558080600101915050612ea5565b5050505b50565b6000600c60008473ffffffffffffffffffffffffffffffffffffffff1673ffffffffffffffffffffffffffffffffffffffff1681526020019081526020016000209050600060038381548110612f3f57fe5b9060005260206000200160009054906101000a900473ffffffffffffffffffffffffffffffffffffffff1673ffffffffffffffffffffffffffffffffffffffff1663313ce5676040518163ffffffff1660e01b815260040160206040518083038186803b158015612faf57600080fd5b505afa158015612fc3573d6000803e3d6000fd5b505050506040513d6020811015612fd957600080fd5b810190808051906020019092919050505060ff169050600081600a0a905060006130398261302b6008888154811061300d57fe5b906000526020600020015487600101546121e790919063ffffffff16565b61226d90919063ffffffff16565b9050600061306985600201878154811061304f57fe5b90600052602060002001548361237e90919063ffffffff16565b905060008111156130dc576130a08186600301888154811061308757fe5b90600052602060002001546122f690919063ffffffff16565b8560030187815481106130af57fe5b9060005260206000200181905550818560020187815481106130cd57fe5b90600052602060002001819055505b5050505050505056fe47657455736572526577617264446562744c656e6774683a3a496e76616c69642075736572206164647265737347657455736572526577617264446562743a3a496e76616c696420757365722061646472657373457874656e643a3a456e6420626c6f636b206d757374206265206166746572207468652063757272656e7420656e6420626c6f636b57697468647261774c50526577617264733a3a2063616e6e6f742077697468647261772066726f6d20746865204c5020746f6b656e7357697468647261774c50526577617264733a3a43616e6e6f742077697468647261772066726f6d20746f6b656e207265776172647347657455736572546f6b656e734f7765644c656e6774683a3a496e76616c6964207573657220616464726573734f6e6c7945786974466561747572653a3a63616e6e6f742077697468647261772066726f6d207468697320636f6e74726163742e204f6e6c7920657869742e6f6e6c79556e6465725374616b654c696d69743a3a436f6e7472616374205374616b65206c696d697420726561636865646f6e6c79556e6465725374616b654c696d69743a3a5374616b65206c696d697420726561636865644f6e6c7945786974466561747572653a3a63616e6e6f7420636c61696d2066726f6d207468697320636f6e74726163742e204f6e6c7920657869742e457874656e643a3a5265776172647320616d6f756e7473206c656e677468206973206c657373207468616e2065787065637465645374616b653a3a5374616b696e6720686173206e6f74207965742073746172746564536166654d6174683a206d756c7469706c69636174696f6e206f766572666c6f77476574557365724f776564546f6b656e733a3a496e76616c69642075736572206164647265737357697468647261774c50526577617264733a3a546865726520617265206e6f20726577617264732066726f6d206c697175696469747920706f6f6c73457874656e643a3a456e6420626c6f636b206d75737420626520696e20746865206675747572655361666545524332303a204552433230206f7065726174696f6e20646964206e6f74207375636365656443616c6c6572206973206e6f742052657761726473506f6f6c466163746f727920636f6e7472616374a2646970667358221220a602f9409887d6c6496929175e41622ab5b1fac96fea35c23eb2ba151e3c614764736f6c634300060c0033436f6e7374727563746f723a3a5374616b65206c696d6974206e6565647320746f206265206d6f7265207468616e2030436f6e7374727563746f723a3a54686520656e6420626c6f636b206d75737420626520696e20746865206675747572652e436f6e7374727563746f723a3a526577617264732070657220626c6f636b20616e64207265776172647320746f6b656e73206d7573742062652077697468207468652073616d65206c656e6774682e436f6e7374727563746f723a3a20436f6e7472616374205374616b65206c696d6974206e6565647320746f206265206d6f7265207468616e2030436f6e7374727563746f723a3a546865207374617274696e6720626c6f636b206d75737420626520696e20746865206675747572652e",
  "source": "// SPDX-License-Identifier: MIT\n\npragma solidity 0.6.12;\n\nimport \"./../RewardsPoolBase.sol\";\nimport \"./../pool-features/OnlyExitFeature.sol\";\n\ncontract OnlyExitRewardsPoolMock is RewardsPoolBase, OnlyExitFeature {\n\tconstructor(\n        IERC20Detailed _stakingToken,\n        uint256 _startBlock,\n        uint256 _endBlock,\n        address[] memory _rewardsTokens,\n        uint256[] memory _rewardPerBlock,\n\t\tuint256 _stakeLimit,\n\t\tuint256 _contractStakeLimit\n    ) public RewardsPoolBase(_stakingToken, _startBlock, _endBlock, _rewardsTokens, _rewardPerBlock, _stakeLimit,_contractStakeLimit) {\n\n\t}\n\n\tfunction withdraw(uint256 _tokenAmount) public virtual override(OnlyExitFeature, RewardsPoolBase) {\n\t\tOnlyExitFeature.withdraw(_tokenAmount);\n\t}\n\n\tfunction claim() public virtual override(OnlyExitFeature, RewardsPoolBase) {\n\t\tOnlyExitFeature.claim();\n\t}\n}",
  "sourcePath": "/home/hellowodl/lmaas-liquidity-staker/contracts/mocks/OnlyExitRewardsPoolMock.sol",
  "compiler": {
    "name": "solc",
    "version": "0.6.12+commit.27d51765.Emscripten.clang",
    "optimizer": false,
    "runs": 200
  },
  "schemaVersion": "2.3.5",
  "updatedAt": "2021-04-27T17:14:31.170Z"
}