{
  "contractName": "PercentageCalculator",
  "abi": [
    {
      "inputs": [
        {
          "internalType": "uint256",
          "name": "_amount",
          "type": "uint256"
        },
        {
          "internalType": "uint256",
          "name": "_percentage",
          "type": "uint256"
        }
      ],
      "name": "percentageCalc",
      "outputs": [
        {
          "internalType": "uint256",
          "name": "",
          "type": "uint256"
        }
      ],
      "stateMutability": "pure",
      "type": "function"
    }
  ],
  "bytecode": "0x61018c610026600b82828239805160001a60731461001957fe5b30600052607381538281f3fe73000000000000000000000000000000000000000030146080604052600436106100355760003560e01c806354b4c2811461003a575b600080fd5b6100706004803603604081101561005057600080fd5b810190808035906020019092919080359060200190929190505050610086565b6040518082815260200191505060405180910390f35b6000620186a061009f83856100af90919063ffffffff16565b816100a657fe5b04905092915050565b6000808314156100c2576000905061012f565b60008284029050828482816100d357fe5b041461012a576040517f08c379a00000000000000000000000000000000000000000000000000000000081526004018080602001828103825260218152602001806101366021913960400191505060405180910390fd5b809150505b9291505056fe536166654d6174683a206d756c7469706c69636174696f6e206f766572666c6f77a2646970667358221220be05ba64497be1bfd18386237682fec8f205339a94d5402cf3fbc5e09588e73064736f6c634300060c0033",
  "source": "// SPDX-License-Identifier: MIT\npragma solidity 0.6.12;\n\nimport \"openzeppelin-solidity/contracts/math/Math.sol\";\nimport \"openzeppelin-solidity/contracts/math/SafeMath.sol\";\n\nlibrary PercentageCalculator {\n\tusing SafeMath for uint256;\n\n\t/*\n\tNote: Percentages will be provided in thousands to represent 3 digits after the decimal point.\n\tThe division is made by 100000 \n\t*/ \n\tfunction percentageCalc(uint256 _amount, uint256 _percentage) public pure returns(uint256) {\n\t\treturn _amount.mul(_percentage)/(100_000);\n\t}\n}",
  "sourcePath": "/home/hellowodl/lmaas-liquidity-staker/contracts/PercentageCalculator.sol",
  "compiler": {
    "name": "solc",
    "version": "0.6.12+commit.27d51765.Emscripten.clang",
    "optimizer": false,
    "runs": 200
  },
  "schemaVersion": "2.3.5",
  "updatedAt": "2021-04-27T17:14:31.119Z"
}