{
  "contractName": "RewardsPoolFactory",
  "abi": [
    {
      "anonymous": false,
      "inputs": [
        {
          "indexed": true,
          "internalType": "address",
          "name": "_oldOwner",
          "type": "address"
        },
        {
          "indexed": true,
          "internalType": "address",
          "name": "_newOwner",
          "type": "address"
        }
      ],
      "name": "OwnershipTransferProposed",
      "type": "event"
    },
    {
      "anonymous": false,
      "inputs": [
        {
          "indexed": true,
          "internalType": "address",
          "name": "_newOwner",
          "type": "address"
        }
      ],
      "name": "OwnershipTransferred",
      "type": "event"
    },
    {
      "anonymous": false,
      "inputs": [
        {
          "indexed": true,
          "internalType": "address",
          "name": "rewardsPoolAddress",
          "type": "address"
        },
        {
          "indexed": true,
          "internalType": "address",
          "name": "stakingToken",
          "type": "address"
        }
      ],
      "name": "RewardsPoolDeployed",
      "type": "event"
    },
    {
      "anonymous": false,
      "inputs": [
        {
          "indexed": false,
          "internalType": "address",
          "name": "rewardsToken",
          "type": "address"
        },
        {
          "indexed": false,
          "internalType": "uint256",
          "name": "amount",
          "type": "uint256"
        }
      ],
      "name": "RewardsWithdrawn",
      "type": "event"
    },
    {
      "inputs": [],
      "name": "acceptOwnership",
      "outputs": [],
      "stateMutability": "nonpayable",
      "type": "function"
    },
    {
      "inputs": [
        {
          "internalType": "uint256",
          "name": "_startBlock",
          "type": "uint256"
        },
        {
          "internalType": "uint256",
          "name": "_endBlock",
          "type": "uint256"
        },
        {
          "internalType": "uint256",
          "name": "_rewardPerBlock",
          "type": "uint256"
        }
      ],
      "name": "calculateRewardsAmount",
      "outputs": [
        {
          "internalType": "uint256",
          "name": "",
          "type": "uint256"
        }
      ],
      "stateMutability": "pure",
      "type": "function"
    },
    {
      "inputs": [],
      "name": "getRewardsPoolNumber",
      "outputs": [
        {
          "internalType": "uint256",
          "name": "",
          "type": "uint256"
        }
      ],
      "stateMutability": "view",
      "type": "function"
    },
    {
      "inputs": [],
      "name": "owner",
      "outputs": [
        {
          "internalType": "address",
          "name": "",
          "type": "address"
        }
      ],
      "stateMutability": "view",
      "type": "function"
    },
    {
      "inputs": [
        {
          "internalType": "uint256",
          "name": "",
          "type": "uint256"
        }
      ],
      "name": "rewardsPools",
      "outputs": [
        {
          "internalType": "address",
          "name": "",
          "type": "address"
        }
      ],
      "stateMutability": "view",
      "type": "function"
    },
    {
      "inputs": [
        {
          "internalType": "address",
          "name": "newOwner",
          "type": "address"
        }
      ],
      "name": "transferOwnership",
      "outputs": [],
      "stateMutability": "nonpayable",
      "type": "function"
    },
    {
      "inputs": [
        {
          "internalType": "address",
          "name": "rewardsPoolAddress",
          "type": "address"
        },
        {
          "internalType": "address",
          "name": "recipient",
          "type": "address"
        },
        {
          "internalType": "address",
          "name": "lpTokenContract",
          "type": "address"
        }
      ],
      "name": "withdrawLPRewards",
      "outputs": [],
      "stateMutability": "nonpayable",
      "type": "function"
    },
    {
      "inputs": [
        {
          "internalType": "address",
          "name": "_rewardsToken",
          "type": "address"
        }
      ],
      "name": "withdrawRewardsLeftovers",
      "outputs": [],
      "stateMutability": "nonpayable",
      "type": "function"
    },
    {
      "inputs": [
        {
          "internalType": "address",
          "name": "_stakingToken",
          "type": "address"
        },
        {
          "internalType": "uint256",
          "name": "_startBlock",
          "type": "uint256"
        },
        {
          "internalType": "uint256",
          "name": "_endBlock",
          "type": "uint256"
        },
        {
          "internalType": "address[]",
          "name": "_rewardsTokens",
          "type": "address[]"
        },
        {
          "internalType": "uint256[]",
          "name": "_rewardPerBlock",
          "type": "uint256[]"
        },
        {
          "internalType": "uint256",
          "name": "_stakeLimit",
          "type": "uint256"
        },
        {
          "internalType": "uint256",
          "name": "_contractStakeLimit",
          "type": "uint256"
        }
      ],
      "name": "deploy",
      "outputs": [],
      "stateMutability": "nonpayable",
      "type": "function"
    },
    {
      "inputs": [
        {
          "internalType": "uint256",
          "name": "_endBlock",
          "type": "uint256"
        },
        {
          "internalType": "uint256[]",
          "name": "_rewardsPerBlock",
          "type": "uint256[]"
        },
        {
          "internalType": "address",
          "name": "_rewardsPoolAddress",
          "type": "address"
        }
      ],
      "name": "extendRewardPool",
      "outputs": [],
      "stateMutability": "nonpayable",
      "type": "function"
    }
  ],
  "bytecode": "0x608060405234801561001057600080fd5b5033600160006101000a81548173ffffffffffffffffffffffffffffffffffffffff021916908373ffffffffffffffffffffffffffffffffffffffff160217905550615aa2806100616000396000f3fe60806040523480156200001157600080fd5b5060043610620000ac5760003560e01c8063986c1d0e116200006f578063986c1d0e14620002f2578063a1717c0214620003da578063b7b8fbd214620003fa578063dc8afbc11462000441578063f2fde38b146200049c57620000ac565b80632bb4e26914620000b157806379ba509714620001385780637f270667146200014457806382cca899146200019d5780638da5cb5b14620002bc575b600080fd5b6200013660048036036060811015620000c957600080fd5b81019080803573ffffffffffffffffffffffffffffffffffffffff169060200190929190803573ffffffffffffffffffffffffffffffffffffffff169060200190929190803573ffffffffffffffffffffffffffffffffffffffff169060200190929190505050620004e3565b005b62000142620006db565b005b62000187600480360360608110156200015c57600080fd5b810190808035906020019092919080359060200190929190803590602001909291905050506200084d565b6040518082815260200191505060405180910390f35b620002ba600480360360e0811015620001b557600080fd5b81019080803573ffffffffffffffffffffffffffffffffffffffff1690602001909291908035906020019092919080359060200190929190803590602001906401000000008111156200020757600080fd5b8201836020820111156200021a57600080fd5b803590602001918460208302840111640100000000831117156200023d57600080fd5b9091929391929390803590602001906401000000008111156200025f57600080fd5b8201836020820111156200027257600080fd5b803590602001918460208302840111640100000000831117156200029557600080fd5b90919293919293908035906020019092919080359060200190929190505050620008e1565b005b620002c662000e8d565b604051808273ffffffffffffffffffffffffffffffffffffffff16815260200191505060405180910390f35b620003d8600480360360608110156200030a57600080fd5b8101908080359060200190929190803590602001906401000000008111156200033257600080fd5b8201836020820111156200034557600080fd5b803590602001918460208302840111640100000000831117156200036857600080fd5b919080806020026020016040519081016040528093929190818152602001838360200280828437600081840152601f19601f820116905080830192505050505050509192919290803573ffffffffffffffffffffffffffffffffffffffff16906020019092919050505062000eb3565b005b620003e462001402565b6040518082815260200191505060405180910390f35b6200043f600480360360208110156200041257600080fd5b81019080803573ffffffffffffffffffffffffffffffffffffffff1690602001909291905050506200140e565b005b62000470600480360360208110156200045957600080fd5b8101908080359060200190929190505050620015e5565b604051808273ffffffffffffffffffffffffffffffffffffffff16815260200191505060405180910390f35b620004e160048036036020811015620004b457600080fd5b81019080803573ffffffffffffffffffffffffffffffffffffffff16906020019092919050505062001622565b005b600160009054906101000a900473ffffffffffffffffffffffffffffffffffffffff1673ffffffffffffffffffffffffffffffffffffffff163373ffffffffffffffffffffffffffffffffffffffff16146200058b576040517f08c379a0000000000000000000000000000000000000000000000000000000008152600401808060200182810382526027815260200180620059466027913960400191505060405180910390fd5b600073ffffffffffffffffffffffffffffffffffffffff168373ffffffffffffffffffffffffffffffffffffffff1614156200062f576040517f08c379a000000000000000000000000000000000000000000000000000000000815260040180806020018281038252601b8152602001807f73746172745374616b696e673a3a206e6f74206465706c6f796564000000000081525060200191505060405180910390fd5b60008390508073ffffffffffffffffffffffffffffffffffffffff1663a1002a0f84846040518363ffffffff1660e01b8152600401808373ffffffffffffffffffffffffffffffffffffffff1681526020018273ffffffffffffffffffffffffffffffffffffffff16815260200192505050600060405180830381600087803b158015620006bc57600080fd5b505af1158015620006d1573d6000803e3d6000fd5b5050505050505050565b600260009054906101000a900473ffffffffffffffffffffffffffffffffffffffff1673ffffffffffffffffffffffffffffffffffffffff163373ffffffffffffffffffffffffffffffffffffffff161462000783576040517f08c379a00000000000000000000000000000000000000000000000000000000081526004018080602001828103825260278152602001806200591f6027913960400191505060405180910390fd5b600260009054906101000a900473ffffffffffffffffffffffffffffffffffffffff16600160006101000a81548173ffffffffffffffffffffffffffffffffffffffff021916908373ffffffffffffffffffffffffffffffffffffffff160217905550600160009054906101000a900473ffffffffffffffffffffffffffffffffffffffff1673ffffffffffffffffffffffffffffffffffffffff167f04dba622d284ed0014ee4b9a6a68386be1a4c08a4913ae272de89199cc68616360405160405180910390a2565b6000808211620008a9576040517f08c379a0000000000000000000000000000000000000000000000000000000008152600401808060200182810382526044815260200180620058756044913960600191505060405180910390fd5b6000620008c085856200182e90919063ffffffff16565b9050620008d78184620018b290919063ffffffff16565b9150509392505050565b600160009054906101000a900473ffffffffffffffffffffffffffffffffffffffff1673ffffffffffffffffffffffffffffffffffffffff163373ffffffffffffffffffffffffffffffffffffffff161462000989576040517f08c379a0000000000000000000000000000000000000000000000000000000008152600401808060200182810382526027815260200180620059466027913960400191505060405180910390fd5b600073ffffffffffffffffffffffffffffffffffffffff168973ffffffffffffffffffffffffffffffffffffffff16141562000a11576040517f08c379a00000000000000000000000000000000000000000000000000000000081526004018080602001828103825260478152602001806200582e6047913960600191505060405180910390fd5b600086869050141562000a70576040517f08c379a000000000000000000000000000000000000000000000000000000000815260040180806020018281038252604281526020018062005a2b6042913960600191505060405180910390fd5b83839050868690501462000ad0576040517f08c379a0000000000000000000000000000000000000000000000000000000008152600401808060200182810382526059815260200180620059a86059913960600191505060405180910390fd5b600082141562000b2c576040517f08c379a000000000000000000000000000000000000000000000000000000000815260040180806020018281038252603b8152602001806200596d603b913960400191505060405180910390fd5b600089898989898989898960405162000b459062001c4b565b808a73ffffffffffffffffffffffffffffffffffffffff16815260200189815260200188815260200180602001806020018581526020018481526020018381038352898982818152602001925060200280828437600081840152601f19601f8201169050808301925050508381038252878782818152602001925060200280828437600081840152601f19601f8201169050808301925050509b505050505050505050505050604051809103906000f08015801562000c08573d6000803e3d6000fd5b50905060005b8787905081101562000dc357600073ffffffffffffffffffffffffffffffffffffffff1688888381811062000c3f57fe5b9050602002013573ffffffffffffffffffffffffffffffffffffffff1673ffffffffffffffffffffffffffffffffffffffff16141562000ccb576040517f08c379a0000000000000000000000000000000000000000000000000000000008152600401808060200182810382526045815260200180620058b96045913960600191505060405180910390fd5b600086868381811062000cda57fe5b90506020020135141562000d3a576040517f08c379a0000000000000000000000000000000000000000000000000000000008152600401808060200182810382526046815260200180620057e86046913960600191505060405180910390fd5b600062000d5c8b8b89898681811062000d4f57fe5b905060200201356200084d565b905062000db483828b8b8681811062000d7157fe5b9050602002013573ffffffffffffffffffffffffffffffffffffffff1673ffffffffffffffffffffffffffffffffffffffff166200193d9092919063ffffffff16565b50808060010191505062000c0e565b506000819080600181540180825580915050600190039060005260206000200160009091909190916101000a81548173ffffffffffffffffffffffffffffffffffffffff021916908373ffffffffffffffffffffffffffffffffffffffff1602179055508973ffffffffffffffffffffffffffffffffffffffff168173ffffffffffffffffffffffffffffffffffffffff167f0beb358d424af29f69271ee3de8255f28779b3af5cd0b8f8e785aa39c766770060405160405180910390a350505050505050505050565b600160009054906101000a900473ffffffffffffffffffffffffffffffffffffffff1681565b600160009054906101000a900473ffffffffffffffffffffffffffffffffffffffff1673ffffffffffffffffffffffffffffffffffffffff163373ffffffffffffffffffffffffffffffffffffffff161462000f5b576040517f08c379a0000000000000000000000000000000000000000000000000000000008152600401808060200182810382526027815260200180620059466027913960400191505060405180910390fd5b600081905060008173ffffffffffffffffffffffffffffffffffffffff1663083c63236040518163ffffffff1660e01b815260040160206040518083038186803b15801562000fa957600080fd5b505afa15801562000fbe573d6000803e3d6000fd5b505050506040513d602081101562000fd557600080fd5b810190808051906020019092919050505090506060845167ffffffffffffffff811180156200100357600080fd5b50604051908082528060200260200182016040528015620010335781602001602082028036833780820191505090505b5090506060855167ffffffffffffffff811180156200105157600080fd5b50604051908082528060200260200182016040528015620010815781602001602082028036833780820191505090505b50905060005b8651811015620012aa576200112c43858773ffffffffffffffffffffffffffffffffffffffff1663791f39cd856040518263ffffffff1660e01b81526004018082815260200191505060206040518083038186803b158015620010e957600080fd5b505afa158015620010fe573d6000803e3d6000fd5b505050506040513d60208110156200111557600080fd5b81019080805190602001909291905050506200084d565b8382815181106200113957fe5b6020026020010181815250506200116643898984815181106200115857fe5b60200260200101516200084d565b8282815181106200117357fe5b60200260200101818152505060008673ffffffffffffffffffffffffffffffffffffffff1663b6d0dcd8836040518263ffffffff1660e01b81526004018082815260200191505060206040518083038186803b158015620011d357600080fd5b505afa158015620011e8573d6000803e3d6000fd5b505050506040513d6020811015620011ff57600080fd5b810190808051906020019092919050505090508382815181106200121f57fe5b60200260200101518383815181106200123457fe5b602002602001015111156200129b576200129a878584815181106200125557fe5b60200260200101518585815181106200126a57fe5b6020026020010151038373ffffffffffffffffffffffffffffffffffffffff166200193d9092919063ffffffff16565b5b50808060010191505062001087565b508473ffffffffffffffffffffffffffffffffffffffff166320e67c76888885856040518563ffffffff1660e01b815260040180858152602001806020018060200180602001848103845287818151815260200191508051906020019060200280838360005b838110156200132d57808201518184015260208101905062001310565b50505050905001848103835286818151815260200191508051906020019060200280838360005b838110156200137157808201518184015260208101905062001354565b50505050905001848103825285818151815260200191508051906020019060200280838360005b83811015620013b557808201518184015260208101905062001398565b50505050905001975050505050505050600060405180830381600087803b158015620013e057600080fd5b505af1158015620013f5573d6000803e3d6000fd5b5050505050505050505050565b60008080549050905090565b600160009054906101000a900473ffffffffffffffffffffffffffffffffffffffff1673ffffffffffffffffffffffffffffffffffffffff163373ffffffffffffffffffffffffffffffffffffffff1614620014b6576040517f08c379a0000000000000000000000000000000000000000000000000000000008152600401808060200182810382526027815260200180620059466027913960400191505060405180910390fd5b60008173ffffffffffffffffffffffffffffffffffffffff166370a08231306040518263ffffffff1660e01b8152600401808273ffffffffffffffffffffffffffffffffffffffff16815260200191505060206040518083038186803b1580156200152057600080fd5b505afa15801562001535573d6000803e3d6000fd5b505050506040513d60208110156200154c57600080fd5b810190808051906020019092919050505090506200158c33828473ffffffffffffffffffffffffffffffffffffffff166200193d9092919063ffffffff16565b7f8a43c4352486ec339f487f64af78ca5cbf06cd47833f073d3baf3a193e5031618282604051808373ffffffffffffffffffffffffffffffffffffffff1681526020018281526020019250505060405180910390a15050565b60008181548110620015f357fe5b906000526020600020016000915054906101000a900473ffffffffffffffffffffffffffffffffffffffff1681565b600160009054906101000a900473ffffffffffffffffffffffffffffffffffffffff1673ffffffffffffffffffffffffffffffffffffffff163373ffffffffffffffffffffffffffffffffffffffff1614620016ca576040517f08c379a0000000000000000000000000000000000000000000000000000000008152600401808060200182810382526027815260200180620059466027913960400191505060405180910390fd5b600073ffffffffffffffffffffffffffffffffffffffff168173ffffffffffffffffffffffffffffffffffffffff1614156200176e576040517f08c379a000000000000000000000000000000000000000000000000000000000815260040180806020018281038252601d8152602001807f43616e6e6f7420736574206f776e657220746f2030206164647265737300000081525060200191505060405180910390fd5b80600260006101000a81548173ffffffffffffffffffffffffffffffffffffffff021916908373ffffffffffffffffffffffffffffffffffffffff160217905550600160009054906101000a900473ffffffffffffffffffffffffffffffffffffffff1673ffffffffffffffffffffffffffffffffffffffff163373ffffffffffffffffffffffffffffffffffffffff167ff4e75b79500ab730f8a026ed3cba6d55331bcb64c9e9f60c548e371356e5e3c060405160405180910390a350565b600082821115620018a7576040517f08c379a000000000000000000000000000000000000000000000000000000000815260040180806020018281038252601e8152602001807f536166654d6174683a207375627472616374696f6e206f766572666c6f77000081525060200191505060405180910390fd5b818303905092915050565b600080831415620018c7576000905062001937565b6000828402905082848281620018d957fe5b041462001932576040517f08c379a0000000000000000000000000000000000000000000000000000000008152600401808060200182810382526021815260200180620058fe6021913960400191505060405180910390fd5b809150505b92915050565b620019dc8363a9059cbb60e01b8484604051602401808373ffffffffffffffffffffffffffffffffffffffff16815260200182815260200192505050604051602081830303815290604052907bffffffffffffffffffffffffffffffffffffffffffffffffffffffff19166020820180517bffffffffffffffffffffffffffffffffffffffffffffffffffffffff8381831617835250505050620019e1565b505050565b62001a028273ffffffffffffffffffffffffffffffffffffffff1662001c38565b62001a75576040517f08c379a000000000000000000000000000000000000000000000000000000000815260040180806020018281038252601f8152602001807f5361666545524332303a2063616c6c20746f206e6f6e2d636f6e74726163740081525060200191505060405180910390fd5b600060608373ffffffffffffffffffffffffffffffffffffffff16836040518082805190602001908083835b6020831062001ac6578051825260208201915060208101905060208303925062001aa1565b6001836020036101000a0380198251168184511680821785525050505050509050019150506000604051808303816000865af19150503d806000811462001b2a576040519150601f19603f3d011682016040523d82523d6000602084013e62001b2f565b606091505b50915091508162001ba8576040517f08c379a00000000000000000000000000000000000000000000000000000000081526004018080602001828103825260208152602001807f5361666545524332303a206c6f772d6c6576656c2063616c6c206661696c656481525060200191505060405180910390fd5b60008151111562001c325780806020019051602081101562001bc957600080fd5b810190808051906020019092919050505062001c31576040517f08c379a000000000000000000000000000000000000000000000000000000000815260040180806020018281038252602a81526020018062005a01602a913960400191505060405180910390fd5b5b50505050565b600080823b905060008111915050919050565b613b8e8062001c5a8339019056fe60806040523480156200001157600080fd5b5060405162003b8e38038062003b8e833981810160405260e08110156200003757600080fd5b81019080805190602001909291908051906020019092919080519060200190929190805160405193929190846401000000008211156200007657600080fd5b838201915060208201858111156200008d57600080fd5b8251866020820283011164010000000082111715620000ab57600080fd5b8083526020830192505050908051906020019060200280838360005b83811015620000e4578082015181840152602081019050620000c7565b50505050905001604052602001805160405193929190846401000000008211156200010e57600080fd5b838201915060208201858111156200012557600080fd5b82518660208202830111640100000000821117156200014357600080fd5b8083526020830192505050908051906020019060200280838360005b838110156200017c5780820151818401526020810190506200015f565b5050505090500160405260200180519060200190929190805190602001909291905050506001600081905550620001b8620004be60201b60201c565b861162000211576040517f08c379a000000000000000000000000000000000000000000000000000000000815260040180806020018281038252603681526020018062003b586036913960400191505060405180910390fd5b62000221620004be60201b60201c565b85116200027a576040517f08c379a000000000000000000000000000000000000000000000000000000000815260040180806020018281038252603181526020018062003a9e6031913960400191505060405180910390fd5b8351835114620002d6576040517f08c379a000000000000000000000000000000000000000000000000000000000815260040180806020018281038252604f81526020018062003acf604f913960600191505060405180910390fd5b600082141562000332576040517f08c379a000000000000000000000000000000000000000000000000000000000815260040180806020018281038252603081526020018062003a6e6030913960400191505060405180910390fd5b60008114156200038e576040517f08c379a000000000000000000000000000000000000000000000000000000000815260040180806020018281038252603a81526020018062003b1e603a913960400191505060405180910390fd5b86600460006101000a81548173ffffffffffffffffffffffffffffffffffffffff021916908373ffffffffffffffffffffffffffffffffffffffff1602179055508260029080519060200190620003e7929190620004c6565b50856005819055508460068190555083600390805190602001906200040e92919062000518565b5060055460078190555033600960006101000a81548173ffffffffffffffffffffffffffffffffffffffff021916908373ffffffffffffffffffffffffffffffffffffffff16021790555081600a8190555080600b8190555060005b600380549050811015620004b05760086000908060018154018082558091505060019003906000526020600020016000909190919091505580806001019150506200046a565b505050505050505062000603565b600043905090565b82805482825590600052602060002090810192821562000505579160200282015b8281111562000504578251825591602001919060010190620004e7565b5b509050620005149190620005a7565b5090565b82805482825590600052602060002090810192821562000594579160200282015b82811115620005935782518260006101000a81548173ffffffffffffffffffffffffffffffffffffffff021916908373ffffffffffffffffffffffffffffffffffffffff1602179055509160200191906001019062000539565b5b509050620005a39190620005c6565b5090565b5b80821115620005c2576000816000905550600101620005a8565b5090565b5b80821115620005ff57600081816101000a81549073ffffffffffffffffffffffffffffffffffffffff021916905550600101620005c7565b5090565b61345b80620006136000396000f3fe608060405234801561001057600080fd5b50600436106101a85760003560e01c806372f702f3116100f9578063b6d0dcd811610097578063df9d777f11610071578063df9d777f14610828578063e9fad8ee1461088a578063f27d026414610894578063fb58cad1146108f6576101a8565b8063b6d0dcd814610764578063ce415302146107bc578063dd2da2201461081e576101a8565b8063a1002a0f116100d3578063a1002a0f1461065c578063a1292aea146106c0578063a694fc3a14610718578063a9f8d18114610746576101a8565b806372f702f3146105c8578063791f39cd146105fc578063817b1cd21461063e576101a8565b80632e1a7d4d116101665780634e71d92d116101405780634e71d92d1461051257806356409b811461051c57806357b4f01f1461055057806370a0823114610570576101a8565b80632e1a7d4d146104a857806345ef79af146104d657806348cd4cb1146104f4576101a8565b806284c927146101ad57806303d1dae014610205578063083c6323146102235780631959a0021461024157806320e67c76146102a05780632d9e88e11461048a575b600080fd5b6101ef600480360360208110156101c357600080fd5b81019080803573ffffffffffffffffffffffffffffffffffffffff169060200190929190505050610938565b6040518082815260200191505060405180910390f35b61020d610a12565b6040518082815260200191505060405180910390f35b61022b610a18565b6040518082815260200191505060405180910390f35b6102836004803603602081101561025757600080fd5b81019080803573ffffffffffffffffffffffffffffffffffffffff169060200190929190505050610a1e565b604051808381526020018281526020019250505060405180910390f35b610488600480360360808110156102b657600080fd5b8101908080359060200190929190803590602001906401000000008111156102dd57600080fd5b8201836020820111156102ef57600080fd5b8035906020019184602083028401116401000000008311171561031157600080fd5b919080806020026020016040519081016040528093929190818152602001838360200280828437600081840152601f19601f8201169050808301925050505050505091929192908035906020019064010000000081111561037157600080fd5b82018360208201111561038357600080fd5b803590602001918460208302840111640100000000831117156103a557600080fd5b919080806020026020016040519081016040528093929190818152602001838360200280828437600081840152601f19601f8201169050808301925050505050505091929192908035906020019064010000000081111561040557600080fd5b82018360208201111561041757600080fd5b8035906020019184602083028401116401000000008311171561043957600080fd5b919080806020026020016040519081016040528093929190818152602001838360200280828437600081840152601f19601f820116905080830192505050505050509192919290505050610a42565b005b610492610d9d565b6040518082815260200191505060405180910390f35b6104d4600480360360208110156104be57600080fd5b8101908080359060200190929190505050610daa565b005b6104de610e40565b6040518082815260200191505060405180910390f35b6104fc610e46565b6040518082815260200191505060405180910390f35b61051a610e4c565b005b610524610ee0565b604051808273ffffffffffffffffffffffffffffffffffffffff16815260200191505060405180910390f35b610558610f06565b60405180821515815260200191505060405180910390f35b6105b26004803603602081101561058657600080fd5b81019080803573ffffffffffffffffffffffffffffffffffffffff169060200190929190505050610f1a565b6040518082815260200191505060405180910390f35b6105d0610f6b565b604051808273ffffffffffffffffffffffffffffffffffffffff16815260200191505060405180910390f35b6106286004803603602081101561061257600080fd5b8101908080359060200190929190505050610f91565b6040518082815260200191505060405180910390f35b610646610fb2565b6040518082815260200191505060405180910390f35b6106be6004803603604081101561067257600080fd5b81019080803573ffffffffffffffffffffffffffffffffffffffff169060200190929190803573ffffffffffffffffffffffffffffffffffffffff169060200190929190505050610fb8565b005b610702600480360360208110156106d657600080fd5b81019080803573ffffffffffffffffffffffffffffffffffffffff1690602001909291905050506113e1565b6040518082815260200191505060405180910390f35b6107446004803603602081101561072e57600080fd5b81019080803590602001909291905050506114bb565b005b61074e611553565b6040518082815260200191505060405180910390f35b6107906004803603602081101561077a57600080fd5b8101908080359060200190929190505050611559565b604051808273ffffffffffffffffffffffffffffffffffffffff16815260200191505060405180910390f35b610808600480360360408110156107d257600080fd5b81019080803573ffffffffffffffffffffffffffffffffffffffff16906020019092919080359060200190929190505050611595565b6040518082815260200191505060405180910390f35b610826611682565b005b6108746004803603604081101561083e57600080fd5b81019080803573ffffffffffffffffffffffffffffffffffffffff16906020019092919080359060200190929190505050611882565b6040518082815260200191505060405180910390f35b610892611aec565b005b6108e0600480360360408110156108aa57600080fd5b81019080803573ffffffffffffffffffffffffffffffffffffffff16906020019092919080359060200190929190505050611b80565b6040518082815260200191505060405180910390f35b6109226004803603602081101561090c57600080fd5b8101908080359060200190929190505050611c6d565b6040518082815260200191505060405180910390f35b60008073ffffffffffffffffffffffffffffffffffffffff168273ffffffffffffffffffffffffffffffffffffffff1614156109bf576040517f08c379a000000000000000000000000000000000000000000000000000000000815260040180806020018281038252602d815260200180613158602d913960400191505060405180910390fd5b6000600c60008473ffffffffffffffffffffffffffffffffffffffff1673ffffffffffffffffffffffffffffffffffffffff16815260200190815260200160002090508060020180549050915050919050565b600b5481565b60065481565b600c6020528060005260406000206000915090508060000154908060010154905082565b600960009054906101000a900473ffffffffffffffffffffffffffffffffffffffff1673ffffffffffffffffffffffffffffffffffffffff163373ffffffffffffffffffffffffffffffffffffffff1614610ae8576040517f08c379a00000000000000000000000000000000000000000000000000000000081526004018080602001828103825260298152602001806133fd6029913960400191505060405180910390fd5b610af0611c8e565b8411610b47576040517f08c379a00000000000000000000000000000000000000000000000000000000081526004018080602001828103825260278152602001806133ac6027913960400191505060405180910390fd5b600654841015610ba2576040517f08c379a00000000000000000000000000000000000000000000000000000000081526004018080602001828103825260358152602001806131ac6035913960400191505060405180910390fd5b600380549050835114610c00576040517f08c379a00000000000000000000000000000000000000000000000000000000081526004018080602001828103825260348152602001806132d26034913960400191505060405180910390fd5b610c08611682565b60005b8351811015610d0f57600060038281548110610c2357fe5b9060005260206000200160009054906101000a900473ffffffffffffffffffffffffffffffffffffffff169050828281518110610c5c57fe5b6020026020010151848381518110610c7057fe5b60200260200101511115610cd257610cd133848481518110610c8e57fe5b6020026020010151868581518110610ca257fe5b6020026020010151038373ffffffffffffffffffffffffffffffffffffffff16611c969092919063ffffffff16565b5b848281518110610cde57fe5b602002602001015160028381548110610cf357fe5b9060005260206000200181905550508080600101915050610c0b565b50836006819055507f137c92cc7579cc4d6a2b109467cd475c205d1c136363ca854cc46d72f840d5de84846040518083815260200180602001828103825283818151815260200191508051906020019060200280838360005b83811015610d83578082015181840152602081019050610d68565b50505050905001935050505060405180910390a150505050565b6000600380549050905090565b60026000541415610e23576040517f08c379a000000000000000000000000000000000000000000000000000000000815260040180806020018281038252601f8152602001807f5265656e7472616e637947756172643a207265656e7472616e742063616c6c0081525060200191505060405180910390fd5b6002600081905550610e358133611d38565b600160008190555050565b600a5481565b60055481565b60026000541415610ec5576040517f08c379a000000000000000000000000000000000000000000000000000000000815260040180806020018281038252601f8152602001807f5265656e7472616e637947756172643a207265656e7472616e742063616c6c0081525060200191505060405180910390fd5b6002600081905550610ed63361202c565b6001600081905550565b600960009054906101000a900473ffffffffffffffffffffffffffffffffffffffff1681565b6000600554610f13611c8e565b1015905090565b600080600c60008473ffffffffffffffffffffffffffffffffffffffff1673ffffffffffffffffffffffffffffffffffffffff16815260200190815260200160002090508060010154915050919050565b600460009054906101000a900473ffffffffffffffffffffffffffffffffffffffff1681565b60028181548110610f9e57fe5b906000526020600020016000915090505481565b60015481565b60026000541415611031576040517f08c379a000000000000000000000000000000000000000000000000000000000815260040180806020018281038252601f8152602001807f5265656e7472616e637947756172643a207265656e7472616e742063616c6c0081525060200191505060405180910390fd5b6002600081905550600960009054906101000a900473ffffffffffffffffffffffffffffffffffffffff1673ffffffffffffffffffffffffffffffffffffffff163373ffffffffffffffffffffffffffffffffffffffff16146110df576040517f08c379a00000000000000000000000000000000000000000000000000000000081526004018080602001828103825260298152602001806133fd6029913960400191505060405180910390fd5b60008173ffffffffffffffffffffffffffffffffffffffff166370a08231306040518263ffffffff1660e01b8152600401808273ffffffffffffffffffffffffffffffffffffffff16815260200191505060206040518083038186803b15801561114857600080fd5b505afa15801561115c573d6000803e3d6000fd5b505050506040513d602081101561117257600080fd5b81019080805190602001909291905050509050600081116111de576040517f08c379a000000000000000000000000000000000000000000000000000000000815260040180806020018281038252603c815260200180613370603c913960400191505060405180910390fd5b600460009054906101000a900473ffffffffffffffffffffffffffffffffffffffff1673ffffffffffffffffffffffffffffffffffffffff168273ffffffffffffffffffffffffffffffffffffffff161415611285576040517f08c379a00000000000000000000000000000000000000000000000000000000081526004018080602001828103825260368152602001806131e16036913960400191505060405180910390fd5b6000600380549050905060005b8181101561136357600381815481106112a757fe5b9060005260206000200160009054906101000a900473ffffffffffffffffffffffffffffffffffffffff1673ffffffffffffffffffffffffffffffffffffffff168473ffffffffffffffffffffffffffffffffffffffff161415611356576040517f08c379a00000000000000000000000000000000000000000000000000000000081526004018080602001828103825260358152602001806132176035913960400191505060405180910390fd5b8080600101915050611292565b5061138f84838573ffffffffffffffffffffffffffffffffffffffff16611c969092919063ffffffff16565b8373ffffffffffffffffffffffffffffffffffffffff16827fdf1b625465761dd1a4330a9b3a21d4943183f301036528a3544f8d891fdce2c260405160405180910390a3505060016000819055505050565b60008073ffffffffffffffffffffffffffffffffffffffff168273ffffffffffffffffffffffffffffffffffffffff161415611468576040517f08c379a000000000000000000000000000000000000000000000000000000000815260040180806020018281038252602d81526020018061324c602d913960400191505060405180910390fd5b6000600c60008473ffffffffffffffffffffffffffffffffffffffff1673ffffffffffffffffffffffffffffffffffffffff16815260200190815260200160002090508060030180549050915050919050565b60026000541415611534576040517f08c379a000000000000000000000000000000000000000000000000000000000815260040180806020018281038252601f8152602001807f5265656e7472616e637947756172643a207265656e7472616e742063616c6c0081525060200191505060405180910390fd5b6002600081905550611548813360016121eb565b600160008190555050565b60075481565b6003818154811061156657fe5b906000526020600020016000915054906101000a900473ffffffffffffffffffffffffffffffffffffffff1681565b60008073ffffffffffffffffffffffffffffffffffffffff168373ffffffffffffffffffffffffffffffffffffffff16141561161c576040517f08c379a00000000000000000000000000000000000000000000000000000000081526004018080602001828103825260278152602001806133496027913960400191505060405180910390fd5b6000600c60008573ffffffffffffffffffffffffffffffffffffffff1673ffffffffffffffffffffffffffffffffffffffff168152602001908152602001600020905080600301838154811061166e57fe5b906000526020600020015491505092915050565b600061168c611c8e565b9050600754811161169d5750611880565b600060065482106116b0576006546116b2565b815b905060006007548203905060008114156116ce57505050611880565b600060015414156116e85781600781905550505050611880565b6000600380549050905060005b818110156118735760006003828154811061170c57fe5b9060005260206000200160009054906101000a900473ffffffffffffffffffffffffffffffffffffffff1673ffffffffffffffffffffffffffffffffffffffff1663313ce5676040518163ffffffff1660e01b815260040160206040518083038186803b15801561177c57600080fd5b505afa158015611790573d6000803e3d6000fd5b505050506040513d60208110156117a657600080fd5b810190808051906020019092919050505060ff169050600081600a0a905060006117f0600285815481106117d657fe5b90600052602060002001548761270c90919063ffffffff16565b9050600061181b60015461180d858561270c90919063ffffffff16565b61279290919063ffffffff16565b9050611847816008878154811061182e57fe5b906000526020600020015461281b90919063ffffffff16565b6008868154811061185457fe5b90600052602060002001819055505050505080806001019150506116f5565b5082600781905550505050505b565b60008061188d611c8e565b9050600060065482106118a2576006546118a4565b815b905060006118bd600754836128a390919063ffffffff16565b90506000600386815481106118ce57fe5b9060005260206000200160009054906101000a900473ffffffffffffffffffffffffffffffffffffffff1673ffffffffffffffffffffffffffffffffffffffff1663313ce5676040518163ffffffff1660e01b815260040160206040518083038186803b15801561193e57600080fd5b505afa158015611952573d6000803e3d6000fd5b505050506040513d602081101561196857600080fd5b810190808051906020019092919050505060ff169050600081600a0a905060006119b26002898154811061199857fe5b90600052602060002001548561270c90919063ffffffff16565b905060006119dd6001546119cf858561270c90919063ffffffff16565b61279290919063ffffffff16565b90506000611a0b8260088c815481106119f257fe5b906000526020600020015461281b90919063ffffffff16565b90506000600c60008d73ffffffffffffffffffffffffffffffffffffffff1673ffffffffffffffffffffffffffffffffffffffff16815260200190815260200160002090506000611a7b86611a6d85856001015461270c90919063ffffffff16565b61279290919063ffffffff16565b90506000611aab836002018e81548110611a9157fe5b9060005260206000200154836128a390919063ffffffff16565b9050611ad981846003018f81548110611ac057fe5b906000526020600020015461281b90919063ffffffff16565b9b50505050505050505050505092915050565b60026000541415611b65576040517f08c379a000000000000000000000000000000000000000000000000000000000815260040180806020018281038252601f8152602001807f5265656e7472616e637947756172643a207265656e7472616e742063616c6c0081525060200191505060405180910390fd5b6002600081905550611b7633612926565b6001600081905550565b60008073ffffffffffffffffffffffffffffffffffffffff168373ffffffffffffffffffffffffffffffffffffffff161415611c07576040517f08c379a00000000000000000000000000000000000000000000000000000000081526004018080602001828103825260278152602001806131856027913960400191505060405180910390fd5b6000600c60008573ffffffffffffffffffffffffffffffffffffffff1673ffffffffffffffffffffffffffffffffffffffff1681526020019081526020016000209050806002018381548110611c5957fe5b906000526020600020015491505092915050565b60088181548110611c7a57fe5b906000526020600020016000915090505481565b600043905090565b611d338363a9059cbb60e01b8484604051602401808373ffffffffffffffffffffffffffffffffffffffff16815260200182815260200192505050604051602081830303815290604052907bffffffffffffffffffffffffffffffffffffffffffffffffffffffff19166020820180517bffffffffffffffffffffffffffffffffffffffffffffffffffffffff83818316178352505050506129d6565b505050565b60008211611dae576040517f08c379a000000000000000000000000000000000000000000000000000000000815260040180806020018281038252601b8152602001807f57697468647261773a3a43616e6e6f742077697468647261772030000000000081525060200191505060405180910390fd5b6000600c60008373ffffffffffffffffffffffffffffffffffffffff1673ffffffffffffffffffffffffffffffffffffffff1681526020019081526020016000209050611df9611682565b611e0282612c21565b611e198382600101546128a390919063ffffffff16565b8160010181905550611e36836001546128a390919063ffffffff16565b6001819055506000600380549050905060005b81811015611f8a57600060038281548110611e6057fe5b9060005260206000200160009054906101000a900473ffffffffffffffffffffffffffffffffffffffff1673ffffffffffffffffffffffffffffffffffffffff1663313ce5676040518163ffffffff1660e01b815260040160206040518083038186803b158015611ed057600080fd5b505afa158015611ee4573d6000803e3d6000fd5b505050506040513d6020811015611efa57600080fd5b810190808051906020019092919050505060ff169050600081600a0a90506000611f5a82611f4c60088781548110611f2e57fe5b9060005260206000200154896001015461270c90919063ffffffff16565b61279290919063ffffffff16565b905080866002018581548110611f6c57fe5b90600052602060002001819055505050508080600101915050611e49565b50611fd88385600460009054906101000a900473ffffffffffffffffffffffffffffffffffffffff1673ffffffffffffffffffffffffffffffffffffffff16611c969092919063ffffffff16565b8273ffffffffffffffffffffffffffffffffffffffff167f7084f5476618d8e60b11ef0d7d3f06914655adb8793e28ff7f018d4c76d505d5856040518082815260200191505060405180910390a250505050565b6000600c60008373ffffffffffffffffffffffffffffffffffffffff1673ffffffffffffffffffffffffffffffffffffffff1681526020019081526020016000209050612077611682565b61208082612c21565b6000600380549050905060005b818110156121e55760008360030182815481106120a657fe5b9060005260206000200154905060008460030183815481106120c457fe5b90600052602060002001819055506121348582600385815481106120e457fe5b9060005260206000200160009054906101000a900473ffffffffffffffffffffffffffffffffffffffff1673ffffffffffffffffffffffffffffffffffffffff16611c969092919063ffffffff16565b8473ffffffffffffffffffffffffffffffffffffffff167f7e6632ca16a0ac6cf28448500b1a17d96c8b8163ad4c4a9b44ef5386cc02779e826003858154811061217a57fe5b9060005260206000200160009054906101000a900473ffffffffffffffffffffffffffffffffffffffff16604051808381526020018273ffffffffffffffffffffffffffffffffffffffff1681526020019250505060405180910390a250808060010191505061208d565b50505050565b60006121f5611c8e565b90506005548111612251576040517f08c379a00000000000000000000000000000000000000000000000000000000081526004018080602001828103825260228152602001806133066022913960400191505060405180910390fd5b6006548111156122c9576040517f08c379a000000000000000000000000000000000000000000000000000000000815260040180806020018281038252601b8152602001807f5374616b653a3a5374616b696e67206861732066696e6973686564000000000081525060200191505060405180910390fd5b82846000600c60008473ffffffffffffffffffffffffffffffffffffffff1673ffffffffffffffffffffffffffffffffffffffff1681526020019081526020016000209050600a5461232883836001015461281b90919063ffffffff16565b111561237f576040517f08c379a00000000000000000000000000000000000000000000000000000000081526004018080602001828103825260288152602001806132aa6028913960400191505060405180910390fd5b600b546123978360015461281b90919063ffffffff16565b11156123ee576040517f08c379a00000000000000000000000000000000000000000000000000000000081526004018080602001828103825260318152602001806132796031913960400191505060405180910390fd5b60008711612464576040517f08c379a00000000000000000000000000000000000000000000000000000000081526004018080602001828103825260158152602001807f5374616b653a3a43616e6e6f74207374616b652030000000000000000000000081525060200191505060405180910390fd5b6000600c60008873ffffffffffffffffffffffffffffffffffffffff1673ffffffffffffffffffffffffffffffffffffffff16815260200190815260200160002090506000816001015414156124be576124bd87612cbc565b5b6124c6611682565b6124cf87612c21565b6124e688826001015461281b90919063ffffffff16565b81600101819055506125038860015461281b90919063ffffffff16565b6001819055506000600380549050905060005b818110156126575760006003828154811061252d57fe5b9060005260206000200160009054906101000a900473ffffffffffffffffffffffffffffffffffffffff1673ffffffffffffffffffffffffffffffffffffffff1663313ce5676040518163ffffffff1660e01b815260040160206040518083038186803b15801561259d57600080fd5b505afa1580156125b1573d6000803e3d6000fd5b505050506040513d60208110156125c757600080fd5b810190808051906020019092919050505060ff169050600081600a0a9050600061262782612619600887815481106125fb57fe5b9060005260206000200154896001015461270c90919063ffffffff16565b61279290919063ffffffff16565b90508086600201858154811061263957fe5b90600052602060002001819055505050508080600101915050612516565b506126b3876126665733612668565b885b308b600460009054906101000a900473ffffffffffffffffffffffffffffffffffffffff1673ffffffffffffffffffffffffffffffffffffffff16612d13909392919063ffffffff16565b8773ffffffffffffffffffffffffffffffffffffffff167f9e71bc8eea02a63969f509818f2dafb9254532904319f9dbda79b67bd34a5f3d8a6040518082815260200191505060405180910390a2505050505050505050565b60008083141561271f576000905061278c565b600082840290508284828161273057fe5b0414612787576040517f08c379a00000000000000000000000000000000000000000000000000000000081526004018080602001828103825260218152602001806133286021913960400191505060405180910390fd5b809150505b92915050565b6000808211612809576040517f08c379a000000000000000000000000000000000000000000000000000000000815260040180806020018281038252601a8152602001807f536166654d6174683a206469766973696f6e206279207a65726f00000000000081525060200191505060405180910390fd5b81838161281257fe5b04905092915050565b600080828401905083811015612899576040517f08c379a000000000000000000000000000000000000000000000000000000000815260040180806020018281038252601b8152602001807f536166654d6174683a206164646974696f6e206f766572666c6f77000000000081525060200191505060405180910390fd5b8091505092915050565b60008282111561291b576040517f08c379a000000000000000000000000000000000000000000000000000000000815260040180806020018281038252601e8152602001807f536166654d6174683a207375627472616374696f6e206f766572666c6f77000081525060200191505060405180910390fd5b818303905092915050565b6000600c60008373ffffffffffffffffffffffffffffffffffffffff1673ffffffffffffffffffffffffffffffffffffffff16815260200190815260200160002090506129728261202c565b612980816001015483611d38565b8173ffffffffffffffffffffffffffffffffffffffff167f920bb94eb3842a728db98228c375ff6b00c5bc5a54fac6736155517a0a20a61a82600101546040518082815260200191505060405180910390a25050565b6129f58273ffffffffffffffffffffffffffffffffffffffff16612dd4565b612a67576040517f08c379a000000000000000000000000000000000000000000000000000000000815260040180806020018281038252601f8152602001807f5361666545524332303a2063616c6c20746f206e6f6e2d636f6e74726163740081525060200191505060405180910390fd5b600060608373ffffffffffffffffffffffffffffffffffffffff16836040518082805190602001908083835b60208310612ab65780518252602082019150602081019050602083039250612a93565b6001836020036101000a0380198251168184511680821785525050505050509050019150506000604051808303816000865af19150503d8060008114612b18576040519150601f19603f3d011682016040523d82523d6000602084013e612b1d565b606091505b509150915081612b95576040517f08c379a00000000000000000000000000000000000000000000000000000000081526004018080602001828103825260208152602001807f5361666545524332303a206c6f772d6c6576656c2063616c6c206661696c656481525060200191505060405180910390fd5b600081511115612c1b57808060200190516020811015612bb457600080fd5b8101908080519060200190929190505050612c1a576040517f08c379a000000000000000000000000000000000000000000000000000000000815260040180806020018281038252602a8152602001806133d3602a913960400191505060405180910390fd5b5b50505050565b6000600c60008373ffffffffffffffffffffffffffffffffffffffff1673ffffffffffffffffffffffffffffffffffffffff1681526020019081526020016000209050612c6d82612de7565b612c7682612ea3565b600081600101541415612c895750612cb9565b6000600380549050905060005b81811015612cb557612ca88482612f5f565b8080600101915050612c96565b5050505b50565b6000600c60008373ffffffffffffffffffffffffffffffffffffffff1673ffffffffffffffffffffffffffffffffffffffff1681526020019081526020016000209050612d07611c8e565b81600001819055505050565b612dce846323b872dd60e01b858585604051602401808473ffffffffffffffffffffffffffffffffffffffff1681526020018373ffffffffffffffffffffffffffffffffffffffff1681526020018281526020019350505050604051602081830303815290604052907bffffffffffffffffffffffffffffffffffffffffffffffffffffffff19166020820180517bffffffffffffffffffffffffffffffffffffffffffffffffffffffff83818316178352505050506129d6565b50505050565b600080823b905060008111915050919050565b6000600c60008373ffffffffffffffffffffffffffffffffffffffff1673ffffffffffffffffffffffffffffffffffffffff168152602001908152602001600020905060038054905081600201805490501415612e445750612ea0565b600060038054905090506000826002018054905090505b81811015612e9c5782600201600090806001815401808255809150506001900390600052602060002001600090919091909150558080600101915050612e5b565b5050505b50565b6000600c60008373ffffffffffffffffffffffffffffffffffffffff1673ffffffffffffffffffffffffffffffffffffffff168152602001908152602001600020905060038054905081600301805490501415612f005750612f5c565b600060038054905090506000826003018054905090505b81811015612f585782600301600090806001815401808255809150506001900390600052602060002001600090919091909150558080600101915050612f17565b5050505b50565b6000600c60008473ffffffffffffffffffffffffffffffffffffffff1673ffffffffffffffffffffffffffffffffffffffff1681526020019081526020016000209050600060038381548110612fb157fe5b9060005260206000200160009054906101000a900473ffffffffffffffffffffffffffffffffffffffff1673ffffffffffffffffffffffffffffffffffffffff1663313ce5676040518163ffffffff1660e01b815260040160206040518083038186803b15801561302157600080fd5b505afa158015613035573d6000803e3d6000fd5b505050506040513d602081101561304b57600080fd5b810190808051906020019092919050505060ff169050600081600a0a905060006130ab8261309d6008888154811061307f57fe5b9060005260206000200154876001015461270c90919063ffffffff16565b61279290919063ffffffff16565b905060006130db8560020187815481106130c157fe5b9060005260206000200154836128a390919063ffffffff16565b9050600081111561314e57613112818660030188815481106130f957fe5b906000526020600020015461281b90919063ffffffff16565b85600301878154811061312157fe5b90600052602060002001819055508185600201878154811061313f57fe5b90600052602060002001819055505b5050505050505056fe47657455736572526577617264446562744c656e6774683a3a496e76616c69642075736572206164647265737347657455736572526577617264446562743a3a496e76616c696420757365722061646472657373457874656e643a3a456e6420626c6f636b206d757374206265206166746572207468652063757272656e7420656e6420626c6f636b57697468647261774c50526577617264733a3a2063616e6e6f742077697468647261772066726f6d20746865204c5020746f6b656e7357697468647261774c50526577617264733a3a43616e6e6f742077697468647261772066726f6d20746f6b656e207265776172647347657455736572546f6b656e734f7765644c656e6774683a3a496e76616c6964207573657220616464726573736f6e6c79556e6465725374616b654c696d69743a3a436f6e7472616374205374616b65206c696d697420726561636865646f6e6c79556e6465725374616b654c696d69743a3a5374616b65206c696d69742072656163686564457874656e643a3a5265776172647320616d6f756e7473206c656e677468206973206c657373207468616e2065787065637465645374616b653a3a5374616b696e6720686173206e6f74207965742073746172746564536166654d6174683a206d756c7469706c69636174696f6e206f766572666c6f77476574557365724f776564546f6b656e733a3a496e76616c69642075736572206164647265737357697468647261774c50526577617264733a3a546865726520617265206e6f20726577617264732066726f6d206c697175696469747920706f6f6c73457874656e643a3a456e6420626c6f636b206d75737420626520696e20746865206675747572655361666545524332303a204552433230206f7065726174696f6e20646964206e6f74207375636365656443616c6c6572206973206e6f742052657761726473506f6f6c466163746f727920636f6e7472616374a26469706673582212205df9733d2546acba84a878b3251e05e23e29b1a5035fdeca30dd4c397444f3c264736f6c634300060c0033436f6e7374727563746f723a3a5374616b65206c696d6974206e6565647320746f206265206d6f7265207468616e2030436f6e7374727563746f723a3a54686520656e6420626c6f636b206d75737420626520696e20746865206675747572652e436f6e7374727563746f723a3a526577617264732070657220626c6f636b20616e64207265776172647320746f6b656e73206d7573742062652077697468207468652073616d65206c656e6774682e436f6e7374727563746f723a3a20436f6e7472616374205374616b65206c696d6974206e6565647320746f206265206d6f7265207468616e2030436f6e7374727563746f723a3a546865207374617274696e6720626c6f636b206d75737420626520696e20746865206675747572652e52657761726473506f6f6c466163746f72793a3a6465706c6f793a205265776172642070657220626c6f636b206d7573742062652067726561746572207468616e207a65726f52657761726473506f6f6c466163746f72793a3a6465706c6f793a205374616b696e6720746f6b656e20616464726573732063616e2774206265207a65726f206164647265737363616c63756c61746552657761726473416d6f756e743a3a20526577617264732070657220626c6f636b206d7573742062652067726561746572207468616e207a65726f52657761726473506f6f6c466163746f72793a3a6465706c6f793a2052657761726420746f6b656e206164647265737320636f756c64206e6f7420626520696e76616c6964536166654d6174683a206d756c7469706c69636174696f6e206f766572666c6f7753656e64657220697320646966666572656e742066726f6d2070726f706f736564206f776e65726f6e6c794f776e65723a3a205468652063616c6c6572206973206e6f7420746865206f776e657252657761726473506f6f6c466163746f72793a3a6465706c6f793a205374616b65206c696d6974206d757374206265206d6f7265207468616e203052657761726473506f6f6c466163746f72793a3a6465706c6f793a2052657761726473546f6b656e7320616e6420526577617264506572426c6f636b2073686f756c6420686176652061206d61746368696e672073697a65735361666545524332303a204552433230206f7065726174696f6e20646964206e6f74207375636365656452657761726473506f6f6c466163746f72793a3a6465706c6f793a2052657761726473546f6b656e7320617272617920636f756c64206e6f7420626520656d707479a264697066735822122074b08c134538a92c8e9ac49f31ac753d914b3b7c44f55b3fa014c492bc680d8b64736f6c634300060c0033",
  "source": "// SPDX-License-Identifier: MIT\npragma solidity 0.6.12;\n\nimport \"openzeppelin-solidity/contracts/math/Math.sol\";\nimport \"openzeppelin-solidity/contracts/math/SafeMath.sol\";\nimport \"openzeppelin-solidity/contracts/access/Ownable.sol\";\nimport \"./interfaces/IERC20Detailed.sol\";\nimport \"./SafeERC20Detailed.sol\";\nimport \"./RewardsPoolBase.sol\";\nimport \"./AbstractPoolsFactory.sol\";\n\ncontract RewardsPoolFactory is AbstractPoolsFactory {\n\tusing SafeMath for uint256;\n\tusing SafeERC20Detailed for IERC20Detailed;\n\n\tevent RewardsPoolDeployed(\n\t\taddress indexed rewardsPoolAddress,\n\t\taddress indexed stakingToken\n\t);\n\n\t/* ========== Permissioned FUNCTIONS ========== */\n\n\t/** @dev Deploy a reward pool base contract for the staking token, with the given parameters.\n\t * @param _stakingToken The address of the token being staked\n\t * @param _startBlock The start block of the rewards pool\n\t * @param _endBlock The end block of the rewards pool\n\t * @param _rewardsTokens The addresses of the tokens the rewards will be paid in\n\t * @param _rewardPerBlock Rewards per block\n\t * @param _stakeLimit The stake limit per user\n\t */\n\tfunction deploy(\n\t\taddress _stakingToken,\n\t\tuint256 _startBlock,\n\t\tuint256 _endBlock,\n\t\taddress[] calldata _rewardsTokens,\n\t\tuint256[] calldata _rewardPerBlock,\n\t\tuint256 _stakeLimit,\n\t\tuint256 _contractStakeLimit\n\t) external onlyOwner {\n\t\trequire(\n\t\t\t_stakingToken != address(0),\n\t\t\t\"RewardsPoolFactory::deploy: Staking token address can't be zero address\"\n\t\t);\n\t\trequire(\n\t\t\t_rewardsTokens.length != 0,\n\t\t\t\"RewardsPoolFactory::deploy: RewardsTokens array could not be empty\"\n\t\t);\n\t\trequire(\n\t\t\t_rewardsTokens.length == _rewardPerBlock.length,\n\t\t\t\"RewardsPoolFactory::deploy: RewardsTokens and RewardPerBlock should have a matching sizes\"\n\t\t);\n\n\t\trequire(\n\t\t\t_stakeLimit != 0,\n\t\t\t\"RewardsPoolFactory::deploy: Stake limit must be more than 0\"\n\t\t);\n\n\t\taddress rewardsPoolBase =\n\t\t\taddress(\n\t\t\t\tnew RewardsPoolBase(\n\t\t\t\t\tIERC20Detailed(_stakingToken),\n\t\t\t\t\t_startBlock,\n\t\t\t\t\t_endBlock,\n\t\t\t\t\t_rewardsTokens,\n\t\t\t\t\t_rewardPerBlock,\n\t\t\t\t\t_stakeLimit,\n\t\t\t\t\t_contractStakeLimit\n\t\t\t\t)\n\t\t\t);\n\n\t\tfor (uint256 i = 0; i < _rewardsTokens.length; i++) {\n\t\t\trequire(\n\t\t\t\t_rewardsTokens[i] != address(0),\n\t\t\t\t\"RewardsPoolFactory::deploy: Reward token address could not be invalid\"\n\t\t\t);\n\t\t\trequire(\n\t\t\t\t_rewardPerBlock[i] != 0,\n\t\t\t\t\"RewardsPoolFactory::deploy: Reward per block must be greater than zero\"\n\t\t\t);\n\n\t\t\tuint256 rewardsAmount =\n\t\t\t\tcalculateRewardsAmount(\n\t\t\t\t\t_startBlock,\n\t\t\t\t\t_endBlock,\n\t\t\t\t\t_rewardPerBlock[i]\n\t\t\t\t);\n\t\t\tIERC20Detailed(_rewardsTokens[i]).safeTransfer(\n\t\t\t\trewardsPoolBase,\n\t\t\t\trewardsAmount\n\t\t\t);\n\t\t}\n\t\trewardsPools.push(rewardsPoolBase);\n\n\t\temit RewardsPoolDeployed(rewardsPoolBase, _stakingToken);\n\t}\n\n\t/** @dev Function that will extend the rewards period, but not change the reward rate, for a given staking contract.\n\t * @param _endBlock The new endblock for the rewards pool.\n\t * @param _rewardsPerBlock Rewards per block .\n\t * @param _rewardsPoolAddress The address of the RewardsPoolBase contract.\n\t */\n\tfunction extendRewardPool(\n\t\tuint256 _endBlock,\n\t\tuint256[] memory _rewardsPerBlock,\n\t\taddress _rewardsPoolAddress\n\t) external onlyOwner {\n\n\t\tRewardsPoolBase pool = RewardsPoolBase(_rewardsPoolAddress);\n\t\tuint256 currentEndBlock = pool.endBlock();\n\t\tuint256[] memory currentRemainingRewards = new uint256[](_rewardsPerBlock.length);\n\t\tuint256[] memory newRemainingRewards = new uint256[](_rewardsPerBlock.length);\n\n\t\tfor (uint256 i = 0; i < _rewardsPerBlock.length; i++) {\n\n\t\t\tcurrentRemainingRewards[i] = calculateRewardsAmount(block.number, currentEndBlock, pool.rewardPerBlock(i));\n\t\t\tnewRemainingRewards[i] = calculateRewardsAmount(block.number, _endBlock, _rewardsPerBlock[i]);\n\n\t\t\taddress rewardsToken = RewardsPoolBase(_rewardsPoolAddress).rewardsTokens(i);\n\n\t\t\tif (newRemainingRewards[i] > currentRemainingRewards[i]) {\n\t\t\t\t// Some more reward needs to be transferred to the rewards pool contract\n\t\t\t\tIERC20Detailed(rewardsToken).safeTransfer(_rewardsPoolAddress, (newRemainingRewards[i] - currentRemainingRewards[i]));\n\t\t\t}\n\t\t}\n\n\t\tRewardsPoolBase(_rewardsPoolAddress).extend(\n\t\t\t_endBlock,\n\t\t\t_rewardsPerBlock,\n\t\t\tcurrentRemainingRewards,\n\t\t\tnewRemainingRewards\n\t\t);\n\n\t}\n\n}\n",
  "sourcePath": "/home/hellowodl/lmaas-liquidity-staker/contracts/RewardsPoolFactory.sol",
  "compiler": {
    "name": "solc",
    "version": "0.6.12+commit.27d51765.Emscripten.clang",
    "optimizer": false,
    "runs": 200
  },
  "schemaVersion": "2.3.5",
  "updatedAt": "2021-04-27T17:14:31.126Z"
}