{
  "contractName": "RewardsPool",
  "abi": [
    {
      "inputs": [
        {
          "internalType": "address[]",
          "name": "_rewardsTokens",
          "type": "address[]"
        },
        {
          "internalType": "uint256[]",
          "name": "_rewardsAmounts",
          "type": "uint256[]"
        },
        {
          "internalType": "address",
          "name": "_stakingToken",
          "type": "address"
        },
        {
          "internalType": "uint256",
          "name": "_rewardsDuration",
          "type": "uint256"
        }
      ],
      "stateMutability": "nonpayable",
      "type": "constructor"
    },
    {
      "anonymous": false,
      "inputs": [
        {
          "indexed": false,
          "internalType": "address[]",
          "name": "token",
          "type": "address[]"
        },
        {
          "indexed": false,
          "internalType": "uint256[]",
          "name": "reward",
          "type": "uint256[]"
        }
      ],
      "name": "RewardAdded",
      "type": "event"
    },
    {
      "anonymous": false,
      "inputs": [
        {
          "indexed": true,
          "internalType": "address",
          "name": "rewardToken",
          "type": "address"
        },
        {
          "indexed": false,
          "internalType": "uint256",
          "name": "rewardAmount",
          "type": "uint256"
        },
        {
          "indexed": false,
          "internalType": "uint256",
          "name": "date",
          "type": "uint256"
        },
        {
          "indexed": false,
          "internalType": "uint256",
          "name": "periodToExtend",
          "type": "uint256"
        }
      ],
      "name": "RewardExtended",
      "type": "event"
    },
    {
      "anonymous": false,
      "inputs": [
        {
          "indexed": true,
          "internalType": "address",
          "name": "user",
          "type": "address"
        },
        {
          "indexed": true,
          "internalType": "address",
          "name": "rewardToken",
          "type": "address"
        },
        {
          "indexed": false,
          "internalType": "uint256",
          "name": "rewardAmount",
          "type": "uint256"
        }
      ],
      "name": "RewardPaid",
      "type": "event"
    },
    {
      "anonymous": false,
      "inputs": [
        {
          "indexed": true,
          "internalType": "address",
          "name": "user",
          "type": "address"
        },
        {
          "indexed": false,
          "internalType": "uint256",
          "name": "amount",
          "type": "uint256"
        }
      ],
      "name": "Staked",
      "type": "event"
    },
    {
      "anonymous": false,
      "inputs": [
        {
          "indexed": true,
          "internalType": "uint256",
          "name": "rewardsAmount",
          "type": "uint256"
        },
        {
          "indexed": true,
          "internalType": "address",
          "name": "recipient",
          "type": "address"
        }
      ],
      "name": "WithdrawLPRewards",
      "type": "event"
    },
    {
      "anonymous": false,
      "inputs": [
        {
          "indexed": true,
          "internalType": "address",
          "name": "user",
          "type": "address"
        },
        {
          "indexed": false,
          "internalType": "uint256",
          "name": "amount",
          "type": "uint256"
        }
      ],
      "name": "Withdrawn",
      "type": "event"
    },
    {
      "inputs": [
        {
          "internalType": "uint256",
          "name": "",
          "type": "uint256"
        }
      ],
      "name": "rewardsAmountsArr",
      "outputs": [
        {
          "internalType": "uint256",
          "name": "",
          "type": "uint256"
        }
      ],
      "stateMutability": "view",
      "type": "function"
    },
    {
      "inputs": [],
      "name": "rewardsDistributor",
      "outputs": [
        {
          "internalType": "address",
          "name": "",
          "type": "address"
        }
      ],
      "stateMutability": "view",
      "type": "function"
    },
    {
      "inputs": [
        {
          "internalType": "uint256",
          "name": "",
          "type": "uint256"
        }
      ],
      "name": "rewardsTokensArr",
      "outputs": [
        {
          "internalType": "address",
          "name": "",
          "type": "address"
        }
      ],
      "stateMutability": "view",
      "type": "function"
    },
    {
      "inputs": [
        {
          "internalType": "address",
          "name": "",
          "type": "address"
        }
      ],
      "name": "rewardsTokensMap",
      "outputs": [
        {
          "internalType": "uint256",
          "name": "rewardRate",
          "type": "uint256"
        },
        {
          "internalType": "uint256",
          "name": "latestRewardPerTokenSaved",
          "type": "uint256"
        },
        {
          "internalType": "uint256",
          "name": "periodFinish",
          "type": "uint256"
        },
        {
          "internalType": "uint256",
          "name": "lastUpdateTime",
          "type": "uint256"
        },
        {
          "internalType": "uint256",
          "name": "rewardDuration",
          "type": "uint256"
        }
      ],
      "stateMutability": "view",
      "type": "function"
    },
    {
      "inputs": [],
      "name": "stakingToken",
      "outputs": [
        {
          "internalType": "contract IERC20Detailed",
          "name": "",
          "type": "address"
        }
      ],
      "stateMutability": "view",
      "type": "function"
    },
    {
      "inputs": [],
      "name": "getRewardsTokensCount",
      "outputs": [
        {
          "internalType": "uint256",
          "name": "",
          "type": "uint256"
        }
      ],
      "stateMutability": "view",
      "type": "function"
    },
    {
      "inputs": [
        {
          "internalType": "address",
          "name": "rewardToken",
          "type": "address"
        },
        {
          "internalType": "address",
          "name": "user",
          "type": "address"
        }
      ],
      "name": "getUserRewardPerTokenRecorded",
      "outputs": [
        {
          "internalType": "uint256",
          "name": "",
          "type": "uint256"
        }
      ],
      "stateMutability": "view",
      "type": "function"
    },
    {
      "inputs": [
        {
          "internalType": "address",
          "name": "rewardToken",
          "type": "address"
        },
        {
          "internalType": "address",
          "name": "user",
          "type": "address"
        }
      ],
      "name": "getUserReward",
      "outputs": [
        {
          "internalType": "uint256",
          "name": "",
          "type": "uint256"
        }
      ],
      "stateMutability": "view",
      "type": "function"
    },
    {
      "inputs": [],
      "name": "totalStakesAmount",
      "outputs": [
        {
          "internalType": "uint256",
          "name": "",
          "type": "uint256"
        }
      ],
      "stateMutability": "view",
      "type": "function"
    },
    {
      "inputs": [
        {
          "internalType": "address",
          "name": "account",
          "type": "address"
        }
      ],
      "name": "balanceOf",
      "outputs": [
        {
          "internalType": "uint256",
          "name": "",
          "type": "uint256"
        }
      ],
      "stateMutability": "view",
      "type": "function"
    },
    {
      "inputs": [
        {
          "internalType": "address",
          "name": "rewardToken",
          "type": "address"
        }
      ],
      "name": "getRewardForDuration",
      "outputs": [
        {
          "internalType": "uint256",
          "name": "",
          "type": "uint256"
        }
      ],
      "stateMutability": "view",
      "type": "function"
    },
    {
      "inputs": [],
      "name": "hasPeriodStarted",
      "outputs": [
        {
          "internalType": "bool",
          "name": "",
          "type": "bool"
        }
      ],
      "stateMutability": "view",
      "type": "function"
    },
    {
      "inputs": [
        {
          "internalType": "uint256",
          "name": "amount",
          "type": "uint256"
        }
      ],
      "name": "stake",
      "outputs": [],
      "stateMutability": "nonpayable",
      "type": "function"
    },
    {
      "inputs": [],
      "name": "exit",
      "outputs": [],
      "stateMutability": "nonpayable",
      "type": "function"
    },
    {
      "inputs": [],
      "name": "start",
      "outputs": [],
      "stateMutability": "nonpayable",
      "type": "function"
    },
    {
      "inputs": [
        {
          "internalType": "address",
          "name": "rewardToken",
          "type": "address"
        },
        {
          "internalType": "uint256",
          "name": "rewardAmount",
          "type": "uint256"
        }
      ],
      "name": "addRewards",
      "outputs": [],
      "stateMutability": "nonpayable",
      "type": "function"
    },
    {
      "inputs": [
        {
          "internalType": "address",
          "name": "rewardToken",
          "type": "address"
        }
      ],
      "name": "lastTimeRewardApplicable",
      "outputs": [
        {
          "internalType": "uint256",
          "name": "",
          "type": "uint256"
        }
      ],
      "stateMutability": "view",
      "type": "function"
    },
    {
      "inputs": [
        {
          "internalType": "address",
          "name": "rewardToken",
          "type": "address"
        }
      ],
      "name": "rewardPerToken",
      "outputs": [
        {
          "internalType": "uint256",
          "name": "",
          "type": "uint256"
        }
      ],
      "stateMutability": "view",
      "type": "function"
    },
    {
      "inputs": [
        {
          "internalType": "address",
          "name": "account",
          "type": "address"
        },
        {
          "internalType": "address",
          "name": "rewardToken",
          "type": "address"
        }
      ],
      "name": "earned",
      "outputs": [
        {
          "internalType": "uint256",
          "name": "",
          "type": "uint256"
        }
      ],
      "stateMutability": "view",
      "type": "function"
    },
    {
      "inputs": [
        {
          "internalType": "address",
          "name": "rewardToken",
          "type": "address"
        },
        {
          "internalType": "uint256",
          "name": "rewardAmount",
          "type": "uint256"
        }
      ],
      "name": "getPeriodsToExtend",
      "outputs": [
        {
          "internalType": "uint256",
          "name": "periodToExtend",
          "type": "uint256"
        }
      ],
      "stateMutability": "view",
      "type": "function"
    },
    {
      "inputs": [],
      "name": "hasPeriodFinished",
      "outputs": [
        {
          "internalType": "bool",
          "name": "",
          "type": "bool"
        }
      ],
      "stateMutability": "view",
      "type": "function"
    },
    {
      "inputs": [
        {
          "internalType": "uint256",
          "name": "amount",
          "type": "uint256"
        }
      ],
      "name": "withdraw",
      "outputs": [],
      "stateMutability": "nonpayable",
      "type": "function"
    },
    {
      "inputs": [],
      "name": "getReward",
      "outputs": [],
      "stateMutability": "nonpayable",
      "type": "function"
    },
    {
      "inputs": [
        {
          "internalType": "address",
          "name": "recipient",
          "type": "address"
        },
        {
          "internalType": "address",
          "name": "lpTokenContract",
          "type": "address"
        }
      ],
      "name": "withdrawLPRewards",
      "outputs": [],
      "stateMutability": "nonpayable",
      "type": "function"
    },
    {
      "inputs": [],
      "name": "withdrawRewards",
      "outputs": [],
      "stateMutability": "nonpayable",
      "type": "function"
    }
  ],
  "bytecode": "0x60806040523480156200001157600080fd5b506040516200386038038062003860833981810160405260808110156200003757600080fd5b81019080805160405193929190846401000000008211156200005857600080fd5b838201915060208201858111156200006f57600080fd5b82518660208202830111640100000000821117156200008d57600080fd5b8083526020830192505050908051906020019060200280838360005b83811015620000c6578082015181840152602081019050620000a9565b5050505090500160405260200180516040519392919084640100000000821115620000f057600080fd5b838201915060208201858111156200010757600080fd5b82518660208202830111640100000000821117156200012557600080fd5b8083526020830192505050908051906020019060200280838360005b838110156200015e57808201518184015260208101905062000141565b5050505090500160405260200180519060200190929190805190602001909291905050506001808190555060005b845181101562000257576040518060a00160405280600081526020016000815260200160008152602001600081526020018381525060056000878481518110620001d257fe5b602002602001015173ffffffffffffffffffffffffffffffffffffffff1673ffffffffffffffffffffffffffffffffffffffff168152602001908152602001600020600082015181600001556020820151816001015560408201518160020155606082015181600301556080820151816004015590505080806001019150506200018c565b5083600690805190602001906200027092919062000315565b50826007908051906020019062000289929190620003a4565b5081600260006101000a81548173ffffffffffffffffffffffffffffffffffffffff021916908373ffffffffffffffffffffffffffffffffffffffff160217905550336000806101000a81548173ffffffffffffffffffffffffffffffffffffffff021916908373ffffffffffffffffffffffffffffffffffffffff1602179055505050505062000452565b82805482825590600052602060002090810192821562000391579160200282015b82811115620003905782518260006101000a81548173ffffffffffffffffffffffffffffffffffffffff021916908373ffffffffffffffffffffffffffffffffffffffff1602179055509160200191906001019062000336565b5b509050620003a09190620003f6565b5090565b828054828255906000526020600020908101928215620003e3579160200282015b82811115620003e2578251825591602001919060010190620003c5565b5b509050620003f2919062000433565b5090565b5b808211156200042f57600081816101000a81549073ffffffffffffffffffffffffffffffffffffffff021916905550600101620003f7565b5090565b5b808211156200044e57600081600090555060010162000434565b5090565b6133fe80620004626000396000f3fe608060405234801561001057600080fd5b50600436106101735760003560e01c80639fdb41bc116100de578063c7b8981c11610097578063e2bcbb8511610071578063e2bcbb85146106e8578063e9fad8ee1461074a578063ef12d0d814610754578063f12297771461077257610173565b8063c7b8981c1461064c578063cba43fe614610656578063d487393d146106ca57610173565b80639fdb41bc14610492578063a1002a0f1461050a578063a694fc3a1461056e578063a9fc507b1461059c578063bcd11014146105ea578063be9a65551461064257610173565b80633f2a5540116101305780633f2a5540146102e2578063564fd910146103165780635ab764ed14610336578063638634ee146103ae57806370a082311461040657806372f702f31461045e57610173565b8063033050f214610178578063211dc32d146101d05780632bb603eb146102485780632e1a7d4d1461028a5780633c7df649146102b85780633d18b912146102d8575b600080fd5b6101a46004803603602081101561018e57600080fd5b81019080803590602001909291905050506107ca565b604051808273ffffffffffffffffffffffffffffffffffffffff16815260200191505060405180910390f35b610232600480360360408110156101e657600080fd5b81019080803573ffffffffffffffffffffffffffffffffffffffff169060200190929190803573ffffffffffffffffffffffffffffffffffffffff169060200190929190505050610806565b6040518082815260200191505060405180910390f35b6102746004803603602081101561025e57600080fd5b8101908080359060200190929190505050610a19565b6040518082815260200191505060405180910390f35b6102b6600480360360208110156102a057600080fd5b8101908080359060200190929190505050610a3a565b005b6102c0610e18565b60405180821515815260200191505060405180910390f35b6102e0610ece565b005b6102ea6112b5565b604051808273ffffffffffffffffffffffffffffffffffffffff16815260200191505060405180910390f35b61031e6112d9565b60405180821515815260200191505060405180910390f35b6103986004803603604081101561034c57600080fd5b81019080803573ffffffffffffffffffffffffffffffffffffffff169060200190929190803573ffffffffffffffffffffffffffffffffffffffff16906020019092919050505061138f565b6040518082815260200191505060405180910390f35b6103f0600480360360208110156103c457600080fd5b81019080803573ffffffffffffffffffffffffffffffffffffffff169060200190929190505050611419565b6040518082815260200191505060405180910390f35b6104486004803603602081101561041c57600080fd5b81019080803573ffffffffffffffffffffffffffffffffffffffff16906020019092919050505061146e565b6040518082815260200191505060405180910390f35b6104666114b7565b604051808273ffffffffffffffffffffffffffffffffffffffff16815260200191505060405180910390f35b6104f4600480360360408110156104a857600080fd5b81019080803573ffffffffffffffffffffffffffffffffffffffff169060200190929190803573ffffffffffffffffffffffffffffffffffffffff1690602001909291905050506114dd565b6040518082815260200191505060405180910390f35b61056c6004803603604081101561052057600080fd5b81019080803573ffffffffffffffffffffffffffffffffffffffff169060200190929190803573ffffffffffffffffffffffffffffffffffffffff169060200190929190505050611567565b005b61059a6004803603602081101561058457600080fd5b81019080803590602001909291905050506118e0565b005b6105e8600480360360408110156105b257600080fd5b81019080803573ffffffffffffffffffffffffffffffffffffffff16906020019092919080359060200190929190505050611cc0565b005b61062c6004803603602081101561060057600080fd5b81019080803573ffffffffffffffffffffffffffffffffffffffff169060200190929190505050612019565b6040518082815260200191505060405180910390f35b61064a612080565b005b6106546125e2565b005b6106986004803603602081101561066c57600080fd5b81019080803573ffffffffffffffffffffffffffffffffffffffff16906020019092919050505061298f565b604051808681526020018581526020018481526020018381526020018281526020019550505050505060405180910390f35b6106d26129c5565b6040518082815260200191505060405180910390f35b610734600480360360408110156106fe57600080fd5b81019080803573ffffffffffffffffffffffffffffffffffffffff169060200190929190803590602001909291905050506129d2565b6040518082815260200191505060405180910390f35b610752612b0b565b005b61075c612b5d565b6040518082815260200191505060405180910390f35b6107b46004803603602081101561078857600080fd5b81019080803573ffffffffffffffffffffffffffffffffffffffff169060200190929190505050612b67565b6040518082815260200191505060405180910390f35b600681815481106107d757fe5b906000526020600020016000915054906101000a900473ffffffffffffffffffffffffffffffffffffffff1681565b600080600560008473ffffffffffffffffffffffffffffffffffffffff1673ffffffffffffffffffffffffffffffffffffffff168152602001908152602001600020905060006108a88260050160008773ffffffffffffffffffffffffffffffffffffffff1673ffffffffffffffffffffffffffffffffffffffff1681526020019081526020016000205461089a86612b67565b612cf190919063ffffffff16565b905060006109b8600260009054906101000a900473ffffffffffffffffffffffffffffffffffffffff1673ffffffffffffffffffffffffffffffffffffffff1663313ce5676040518163ffffffff1660e01b815260040160206040518083038186803b15801561091757600080fd5b505afa15801561092b573d6000803e3d6000fd5b505050506040513d602081101561094157600080fd5b810190808051906020019092919050505060ff16600a0a6109aa84600460008b73ffffffffffffffffffffffffffffffffffffffff1673ffffffffffffffffffffffffffffffffffffffff16815260200190815260200160002054612d7490919063ffffffff16565b612dfa90919063ffffffff16565b9050610a0e818460060160008973ffffffffffffffffffffffffffffffffffffffff1673ffffffffffffffffffffffffffffffffffffffff16815260200190815260200160002054612e8390919063ffffffff16565b935050505092915050565b60078181548110610a2657fe5b906000526020600020016000915090505481565b60026001541415610ab3576040517f08c379a000000000000000000000000000000000000000000000000000000000815260040180806020018281038252601f8152602001807f5265656e7472616e637947756172643a207265656e7472616e742063616c6c0081525060200191505060405180910390fd5b60026001819055503360005b600680549050811015610c4a57600060068281548110610adb57fe5b9060005260206000200160009054906101000a900473ffffffffffffffffffffffffffffffffffffffff1690506000600560008373ffffffffffffffffffffffffffffffffffffffff1673ffffffffffffffffffffffffffffffffffffffff1681526020019081526020016000209050610b5482612b67565b8160010181905550610b6582611419565b8160030181905550600073ffffffffffffffffffffffffffffffffffffffff168473ffffffffffffffffffffffffffffffffffffffff1614610c3b57610bab8483610806565b8160060160008673ffffffffffffffffffffffffffffffffffffffff1673ffffffffffffffffffffffffffffffffffffffff1681526020019081526020016000208190555080600101548160050160008673ffffffffffffffffffffffffffffffffffffffff1673ffffffffffffffffffffffffffffffffffffffff168152602001908152602001600020819055505b50508080600101915050610abf565b506000821415610cc2576040517f08c379a00000000000000000000000000000000000000000000000000000000081526004018080602001828103825260118152602001807f43616e6e6f74207769746864726177203000000000000000000000000000000081525060200191505060405180910390fd5b610cd782600354612cf190919063ffffffff16565b600381905550610d2f82600460003373ffffffffffffffffffffffffffffffffffffffff1673ffffffffffffffffffffffffffffffffffffffff16815260200190815260200160002054612cf190919063ffffffff16565b600460003373ffffffffffffffffffffffffffffffffffffffff1673ffffffffffffffffffffffffffffffffffffffff16815260200190815260200160002081905550610dbf3383600260009054906101000a900473ffffffffffffffffffffffffffffffffffffffff1673ffffffffffffffffffffffffffffffffffffffff16612f0b9092919063ffffffff16565b3373ffffffffffffffffffffffffffffffffffffffff167f7084f5476618d8e60b11ef0d7d3f06914655adb8793e28ff7f018d4c76d505d5836040518082815260200191505060405180910390a2506001808190555050565b600080600090505b600680549050811015610ec55760006005600060068481548110610e4057fe5b9060005260206000200160009054906101000a900473ffffffffffffffffffffffffffffffffffffffff1673ffffffffffffffffffffffffffffffffffffffff1673ffffffffffffffffffffffffffffffffffffffff1681526020019081526020016000206002015414610eb8576001915050610ecb565b8080600101915050610e20565b50600090505b90565b60026001541415610f47576040517f08c379a000000000000000000000000000000000000000000000000000000000815260040180806020018281038252601f8152602001807f5265656e7472616e637947756172643a207265656e7472616e742063616c6c0081525060200191505060405180910390fd5b60026001819055503360005b6006805490508110156110de57600060068281548110610f6f57fe5b9060005260206000200160009054906101000a900473ffffffffffffffffffffffffffffffffffffffff1690506000600560008373ffffffffffffffffffffffffffffffffffffffff1673ffffffffffffffffffffffffffffffffffffffff1681526020019081526020016000209050610fe882612b67565b8160010181905550610ff982611419565b8160030181905550600073ffffffffffffffffffffffffffffffffffffffff168473ffffffffffffffffffffffffffffffffffffffff16146110cf5761103f8483610806565b8160060160008673ffffffffffffffffffffffffffffffffffffffff1673ffffffffffffffffffffffffffffffffffffffff1681526020019081526020016000208190555080600101548160050160008673ffffffffffffffffffffffffffffffffffffffff1673ffffffffffffffffffffffffffffffffffffffff168152602001908152602001600020819055505b50508080600101915050610f53565b506000600680549050905060005b818110156112a95760006006828154811061110357fe5b9060005260206000200160009054906101000a900473ffffffffffffffffffffffffffffffffffffffff1690506000600560008373ffffffffffffffffffffffffffffffffffffffff1673ffffffffffffffffffffffffffffffffffffffff168152602001908152602001600020905060008160060160003373ffffffffffffffffffffffffffffffffffffffff1673ffffffffffffffffffffffffffffffffffffffff168152602001908152602001600020549050600081146112995760008260060160003373ffffffffffffffffffffffffffffffffffffffff1673ffffffffffffffffffffffffffffffffffffffff1681526020019081526020016000208190555061123333828573ffffffffffffffffffffffffffffffffffffffff16612f0b9092919063ffffffff16565b8273ffffffffffffffffffffffffffffffffffffffff163373ffffffffffffffffffffffffffffffffffffffff167f540798df468d7b23d11f156fdb954cb19ad414d150722a7b6d55ba369dea792e836040518082815260200191505060405180910390a35b50505080806001019150506110ec565b50505060018081905550565b60008054906101000a900473ffffffffffffffffffffffffffffffffffffffff1681565b600080600090505b6006805490508110156113865760056000600683815481106112ff57fe5b9060005260206000200160009054906101000a900473ffffffffffffffffffffffffffffffffffffffff1673ffffffffffffffffffffffffffffffffffffffff1673ffffffffffffffffffffffffffffffffffffffff1681526020019081526020016000206002015442101561137957600091505061138c565b80806001019150506112e1565b50600190505b90565b6000600560008473ffffffffffffffffffffffffffffffffffffffff1673ffffffffffffffffffffffffffffffffffffffff16815260200190815260200160002060060160008373ffffffffffffffffffffffffffffffffffffffff1673ffffffffffffffffffffffffffffffffffffffff16815260200190815260200160002054905092915050565b600061146742600560008573ffffffffffffffffffffffffffffffffffffffff1673ffffffffffffffffffffffffffffffffffffffff16815260200190815260200160002060020154612fad565b9050919050565b6000600460008373ffffffffffffffffffffffffffffffffffffffff1673ffffffffffffffffffffffffffffffffffffffff168152602001908152602001600020549050919050565b600260009054906101000a900473ffffffffffffffffffffffffffffffffffffffff1681565b6000600560008473ffffffffffffffffffffffffffffffffffffffff1673ffffffffffffffffffffffffffffffffffffffff16815260200190815260200160002060050160008373ffffffffffffffffffffffffffffffffffffffff1673ffffffffffffffffffffffffffffffffffffffff16815260200190815260200160002054905092915050565b600260015414156115e0576040517f08c379a000000000000000000000000000000000000000000000000000000000815260040180806020018281038252601f8152602001807f5265656e7472616e637947756172643a207265656e7472616e742063616c6c0081525060200191505060405180910390fd5b600260018190555060008054906101000a900473ffffffffffffffffffffffffffffffffffffffff1673ffffffffffffffffffffffffffffffffffffffff163373ffffffffffffffffffffffffffffffffffffffff161461168c576040517f08c379a000000000000000000000000000000000000000000000000000000000815260040180806020018281038252602a81526020018061332a602a913960400191505060405180910390fd5b60008173ffffffffffffffffffffffffffffffffffffffff166370a08231306040518263ffffffff1660e01b8152600401808273ffffffffffffffffffffffffffffffffffffffff16815260200191505060206040518083038186803b1580156116f557600080fd5b505afa158015611709573d6000803e3d6000fd5b505050506040513d602081101561171f57600080fd5b810190808051906020019092919050505090506000811161178b576040517f08c379a00000000000000000000000000000000000000000000000000000000081526004018080602001828103825260298152602001806133546029913960400191505060405180910390fd5b60005b60068054905081101561186457600681815481106117a857fe5b9060005260206000200160009054906101000a900473ffffffffffffffffffffffffffffffffffffffff1673ffffffffffffffffffffffffffffffffffffffff168373ffffffffffffffffffffffffffffffffffffffff161415611857576040517f08c379a00000000000000000000000000000000000000000000000000000000081526004018080602001828103825260228152602001806133a76022913960400191505060405180910390fd5b808060010191505061178e565b5061189083828473ffffffffffffffffffffffffffffffffffffffff16612f0b9092919063ffffffff16565b8273ffffffffffffffffffffffffffffffffffffffff16817fdf1b625465761dd1a4330a9b3a21d4943183f301036528a3544f8d891fdce2c260405160405180910390a350600180819055505050565b60026001541415611959576040517f08c379a000000000000000000000000000000000000000000000000000000000815260040180806020018281038252601f8152602001807f5265656e7472616e637947756172643a207265656e7472616e742063616c6c0081525060200191505060405180910390fd5b60026001819055503360005b600680549050811015611af05760006006828154811061198157fe5b9060005260206000200160009054906101000a900473ffffffffffffffffffffffffffffffffffffffff1690506000600560008373ffffffffffffffffffffffffffffffffffffffff1673ffffffffffffffffffffffffffffffffffffffff16815260200190815260200160002090506119fa82612b67565b8160010181905550611a0b82611419565b8160030181905550600073ffffffffffffffffffffffffffffffffffffffff168473ffffffffffffffffffffffffffffffffffffffff1614611ae157611a518483610806565b8160060160008673ffffffffffffffffffffffffffffffffffffffff1673ffffffffffffffffffffffffffffffffffffffff1681526020019081526020016000208190555080600101548160050160008673ffffffffffffffffffffffffffffffffffffffff1673ffffffffffffffffffffffffffffffffffffffff168152602001908152602001600020819055505b50508080600101915050611965565b506000821415611b68576040517f08c379a000000000000000000000000000000000000000000000000000000000815260040180806020018281038252600e8152602001807f43616e6e6f74207374616b65203000000000000000000000000000000000000081525060200191505060405180910390fd5b611b7d82600354612e8390919063ffffffff16565b600381905550611bd582600460003373ffffffffffffffffffffffffffffffffffffffff1673ffffffffffffffffffffffffffffffffffffffff16815260200190815260200160002054612e8390919063ffffffff16565b600460003373ffffffffffffffffffffffffffffffffffffffff1673ffffffffffffffffffffffffffffffffffffffff16815260200190815260200160002081905550611c67333084600260009054906101000a900473ffffffffffffffffffffffffffffffffffffffff1673ffffffffffffffffffffffffffffffffffffffff16612fc6909392919063ffffffff16565b3373ffffffffffffffffffffffffffffffffffffffff167f9e71bc8eea02a63969f509818f2dafb9254532904319f9dbda79b67bd34a5f3d836040518082815260200191505060405180910390a2506001808190555050565b600080600090505b600680549050811015611e5357600060068281548110611ce457fe5b9060005260206000200160009054906101000a900473ffffffffffffffffffffffffffffffffffffffff1690506000600560008373ffffffffffffffffffffffffffffffffffffffff1673ffffffffffffffffffffffffffffffffffffffff1681526020019081526020016000209050611d5d82612b67565b8160010181905550611d6e82611419565b8160030181905550600073ffffffffffffffffffffffffffffffffffffffff168473ffffffffffffffffffffffffffffffffffffffff1614611e4457611db48483610806565b8160060160008673ffffffffffffffffffffffffffffffffffffffff1673ffffffffffffffffffffffffffffffffffffffff1681526020019081526020016000208190555080600101548160050160008673ffffffffffffffffffffffffffffffffffffffff1673ffffffffffffffffffffffffffffffffffffffff168152602001908152602001600020819055505b50508080600101915050611cc8565b5060008054906101000a900473ffffffffffffffffffffffffffffffffffffffff1673ffffffffffffffffffffffffffffffffffffffff163373ffffffffffffffffffffffffffffffffffffffff1614611ef8576040517f08c379a000000000000000000000000000000000000000000000000000000000815260040180806020018281038252602a81526020018061332a602a913960400191505060405180910390fd5b6000611f0484846129d2565b9050611f333330858773ffffffffffffffffffffffffffffffffffffffff16612fc6909392919063ffffffff16565b6000600560008673ffffffffffffffffffffffffffffffffffffffff1673ffffffffffffffffffffffffffffffffffffffff1681526020019081526020016000209050611f8d828260020154612e8390919063ffffffff16565b8160020181905550611fac828260040154612e8390919063ffffffff16565b81600401819055508473ffffffffffffffffffffffffffffffffffffffff167fce08a79bf02087a6d982e6a2df78836772baa4c16c084eae230ab65fe75cd7ad85428560405180848152602001838152602001828152602001935050505060405180910390a25050505050565b600080600560008473ffffffffffffffffffffffffffffffffffffffff1673ffffffffffffffffffffffffffffffffffffffff168152602001908152602001600020905061207881600401548260000154612d7490919063ffffffff16565b915050919050565b60008054906101000a900473ffffffffffffffffffffffffffffffffffffffff1673ffffffffffffffffffffffffffffffffffffffff163373ffffffffffffffffffffffffffffffffffffffff1614612124576040517f08c379a000000000000000000000000000000000000000000000000000000000815260040180806020018281038252602a81526020018061332a602a913960400191505060405180910390fd5b600080600090505b6006805490508110156122b75760006006828154811061214857fe5b9060005260206000200160009054906101000a900473ffffffffffffffffffffffffffffffffffffffff1690506000600560008373ffffffffffffffffffffffffffffffffffffffff1673ffffffffffffffffffffffffffffffffffffffff16815260200190815260200160002090506121c182612b67565b81600101819055506121d282611419565b8160030181905550600073ffffffffffffffffffffffffffffffffffffffff168473ffffffffffffffffffffffffffffffffffffffff16146122a8576122188483610806565b8160060160008673ffffffffffffffffffffffffffffffffffffffff1673ffffffffffffffffffffffffffffffffffffffff1681526020019081526020016000208190555080600101548160050160008673ffffffffffffffffffffffffffffffffffffffff1673ffffffffffffffffffffffffffffffffffffffff168152602001908152602001600020819055505b5050808060010191505061212c565b5060005b6006805490508110156124eb576000600682815481106122d757fe5b9060005260206000200160009054906101000a900473ffffffffffffffffffffffffffffffffffffffff1690506000600560008373ffffffffffffffffffffffffffffffffffffffff1673ffffffffffffffffffffffffffffffffffffffff168152602001908152602001600020905061237581600401546007858154811061235c57fe5b9060005260206000200154612dfa90919063ffffffff16565b816000018190555060008273ffffffffffffffffffffffffffffffffffffffff166370a08231306040518263ffffffff1660e01b8152600401808273ffffffffffffffffffffffffffffffffffffffff16815260200191505060206040518083038186803b1580156123e657600080fd5b505afa1580156123fa573d6000803e3d6000fd5b505050506040513d602081101561241057600080fd5b8101908080519060200190929190505050905061243a826004015482612dfa90919063ffffffff16565b826000015411156124b3576040517f08c379a00000000000000000000000000000000000000000000000000000000081526004018080602001828103825260188152602001807f50726f76696465642072657761726420746f6f2068696768000000000000000081525060200191505060405180910390fd5b4282600301819055506124d3826004015442612e8390919063ffffffff16565b826002018190555050505080806001019150506122bb565b507fa00d0d3f3be42a1502ce5722ccd702e27f4ea7059865db2087238a8bc541025360066007604051808060200180602001838103835285818154815260200191508054801561259057602002820191906000526020600020905b8160009054906101000a900473ffffffffffffffffffffffffffffffffffffffff1673ffffffffffffffffffffffffffffffffffffffff1681526020019060010190808311612546575b505083810382528481815481526020019150805480156125cf57602002820191906000526020600020905b8154815260200190600101908083116125bb575b505094505050505060405180910390a150565b6002600154141561265b576040517f08c379a000000000000000000000000000000000000000000000000000000000815260040180806020018281038252601f8152602001807f5265656e7472616e637947756172643a207265656e7472616e742063616c6c0081525060200191505060405180910390fd5b600260018190555060008054906101000a900473ffffffffffffffffffffffffffffffffffffffff1673ffffffffffffffffffffffffffffffffffffffff163373ffffffffffffffffffffffffffffffffffffffff1614612707576040517f08c379a000000000000000000000000000000000000000000000000000000000815260040180806020018281038252602a81526020018061332a602a913960400191505060405180910390fd5b60003073ffffffffffffffffffffffffffffffffffffffff16633c7df6496040518163ffffffff1660e01b815260040160206040518083038186803b15801561274f57600080fd5b505afa158015612763573d6000803e3d6000fd5b505050506040513d602081101561277957600080fd5b81019080805190602001909291905050509050600115158115151415612807576040517f08c379a00000000000000000000000000000000000000000000000000000000081526004018080602001828103825260208152602001807f54686520526577617264732043616d706169676e20686173207374617274656481525060200191505060405180910390fd5b60005b6006805490508110156129845760006006828154811061282657fe5b9060005260206000200160009054906101000a900473ffffffffffffffffffffffffffffffffffffffff1673ffffffffffffffffffffffffffffffffffffffff166370a08231306040518263ffffffff1660e01b8152600401808273ffffffffffffffffffffffffffffffffffffffff16815260200191505060206040518083038186803b1580156128b757600080fd5b505afa1580156128cb573d6000803e3d6000fd5b505050506040513d60208110156128e157600080fd5b8101908080519060200190929190505050905061297660008054906101000a900473ffffffffffffffffffffffffffffffffffffffff16826006858154811061292657fe5b9060005260206000200160009054906101000a900473ffffffffffffffffffffffffffffffffffffffff1673ffffffffffffffffffffffffffffffffffffffff16612f0b9092919063ffffffff16565b50808060010191505061280a565b505060018081905550565b60056020528060005260406000206000915090508060000154908060010154908060020154908060030154908060040154905085565b6000600680549050905090565b600080821415612a2d576040517f08c379a00000000000000000000000000000000000000000000000000000000081526004018080602001828103825260238152602001806132e66023913960400191505060405180910390fd5b6000600560008573ffffffffffffffffffffffffffffffffffffffff1673ffffffffffffffffffffffffffffffffffffffff1681526020019081526020016000209050600081600001541415612aeb576040517f08c379a000000000000000000000000000000000000000000000000000000000815260040180806020018281038252601a8152602001807f5374616b696e67206973206e6f7420796574207374617274656400000000000081525060200191505060405180910390fd5b612b02816000015484612dfa90919063ffffffff16565b91505092915050565b612b53600460003373ffffffffffffffffffffffffffffffffffffffff1673ffffffffffffffffffffffffffffffffffffffff16815260200190815260200160002054610a3a565b612b5b610ece565b565b6000600354905090565b600080600560008473ffffffffffffffffffffffffffffffffffffffff1673ffffffffffffffffffffffffffffffffffffffff168152602001908152602001600020905060006003541415612bc3578060010154915050612cec565b6000612be48260030154612bd686611419565b612cf190919063ffffffff16565b90506000612ccd600354612cbf600260009054906101000a900473ffffffffffffffffffffffffffffffffffffffff1673ffffffffffffffffffffffffffffffffffffffff1663313ce5676040518163ffffffff1660e01b815260040160206040518083038186803b158015612c5957600080fd5b505afa158015612c6d573d6000803e3d6000fd5b505050506040513d6020811015612c8357600080fd5b810190808051906020019092919050505060ff16600a0a612cb1876000015487612d7490919063ffffffff16565b612d7490919063ffffffff16565b612dfa90919063ffffffff16565b9050612ce6818460010154612e8390919063ffffffff16565b93505050505b919050565b600082821115612d69576040517f08c379a000000000000000000000000000000000000000000000000000000000815260040180806020018281038252601e8152602001807f536166654d6174683a207375627472616374696f6e206f766572666c6f77000081525060200191505060405180910390fd5b818303905092915050565b600080831415612d875760009050612df4565b6000828402905082848281612d9857fe5b0414612def576040517f08c379a00000000000000000000000000000000000000000000000000000000081526004018080602001828103825260218152602001806133096021913960400191505060405180910390fd5b809150505b92915050565b6000808211612e71576040517f08c379a000000000000000000000000000000000000000000000000000000000815260040180806020018281038252601a8152602001807f536166654d6174683a206469766973696f6e206279207a65726f00000000000081525060200191505060405180910390fd5b818381612e7a57fe5b04905092915050565b600080828401905083811015612f01576040517f08c379a000000000000000000000000000000000000000000000000000000000815260040180806020018281038252601b8152602001807f536166654d6174683a206164646974696f6e206f766572666c6f77000000000081525060200191505060405180910390fd5b8091505092915050565b612fa88363a9059cbb60e01b8484604051602401808373ffffffffffffffffffffffffffffffffffffffff16815260200182815260200192505050604051602081830303815290604052907bffffffffffffffffffffffffffffffffffffffffffffffffffffffff19166020820180517bffffffffffffffffffffffffffffffffffffffffffffffffffffffff8381831617835250505050613087565b505050565b6000818310612fbc5781612fbe565b825b905092915050565b613081846323b872dd60e01b858585604051602401808473ffffffffffffffffffffffffffffffffffffffff1681526020018373ffffffffffffffffffffffffffffffffffffffff1681526020018281526020019350505050604051602081830303815290604052907bffffffffffffffffffffffffffffffffffffffffffffffffffffffff19166020820180517bffffffffffffffffffffffffffffffffffffffffffffffffffffffff8381831617835250505050613087565b50505050565b6130a68273ffffffffffffffffffffffffffffffffffffffff166132d2565b613118576040517f08c379a000000000000000000000000000000000000000000000000000000000815260040180806020018281038252601f8152602001807f5361666545524332303a2063616c6c20746f206e6f6e2d636f6e74726163740081525060200191505060405180910390fd5b600060608373ffffffffffffffffffffffffffffffffffffffff16836040518082805190602001908083835b602083106131675780518252602082019150602081019050602083039250613144565b6001836020036101000a0380198251168184511680821785525050505050509050019150506000604051808303816000865af19150503d80600081146131c9576040519150601f19603f3d011682016040523d82523d6000602084013e6131ce565b606091505b509150915081613246576040517f08c379a00000000000000000000000000000000000000000000000000000000081526004018080602001828103825260208152602001807f5361666545524332303a206c6f772d6c6576656c2063616c6c206661696c656481525060200191505060405180910390fd5b6000815111156132cc5780806020019051602081101561326557600080fd5b81019080805190602001909291905050506132cb576040517f08c379a000000000000000000000000000000000000000000000000000000000815260040180806020018281038252602a81526020018061337d602a913960400191505060405180910390fd5b5b50505050565b600080823b90506000811191505091905056fe526577617264732073686f756c642062652067726561746572207468616e207a65726f536166654d6174683a206d756c7469706c69636174696f6e206f766572666c6f7743616c6c6572206973206e6f742052657761726473446973747269627574696f6e20636f6e7472616374546865726520617265206e6f20726577617264732066726f6d206c697175696469747920706f6f6c735361666545524332303a204552433230206f7065726174696f6e20646964206e6f74207375636365656443616e6e6f742077697468647261772066726f6d20746f6b656e2072657761726473a2646970667358221220e8423a1d0121881ba20983f93de3720dc9dc98a18715de9ff52fc3b6eb391ccb64736f6c634300060c0033",
  "source": "// SPDX-License-Identifier: MIT\npragma solidity 0.6.12;\n\nimport \"openzeppelin-solidity/contracts/math/Math.sol\";\nimport \"openzeppelin-solidity/contracts/math/SafeMath.sol\";\nimport \"openzeppelin-solidity/contracts/utils/ReentrancyGuard.sol\";\n\nimport \"../interfaces/IRewardsPool.sol\";\nimport \"../interfaces/IERC20Detailed.sol\";\nimport \"../SafeERC20Detailed.sol\";\nimport \"./RewardsDistributionRecipient.sol\";\n\ncontract RewardsPool is\n    IRewardsPool,\n    RewardsDistributionRecipient,\n    ReentrancyGuard\n{\n    using SafeMath for uint256;\n    using SafeERC20Detailed for IERC20Detailed;\n\n    /* ========== STATE VARIABLES ========== */\n\n    // staking\n    IERC20Detailed public stakingToken;\n    uint256 private _totalStakesAmount;\n    mapping(address => uint256) private _balances;\n\n    // reward\n    struct RewardInfo {\n        uint256 rewardRate;\n        uint256 latestRewardPerTokenSaved;\n        uint256 periodFinish;\n        uint256 lastUpdateTime;\n        uint256 rewardDuration;\n        // user rewards\n        mapping(address => uint256) userRewardPerTokenRecorded;\n        mapping(address => uint256) rewards;\n    }\n\n    mapping(address => RewardInfo) public rewardsTokensMap; // structure for fast access to token's data\n    address[] public rewardsTokensArr; // structure to iterate over\n    uint256[] public rewardsAmountsArr;\n\n    /* ========== EVENTS ========== */\n\n    event RewardAdded(address[] token, uint256[] reward);\n    event Staked(address indexed user, uint256 amount);\n    event Withdrawn(address indexed user, uint256 amount);\n    event RewardPaid(\n        address indexed user,\n        address indexed rewardToken,\n        uint256 rewardAmount\n    );\n    event RewardExtended(\n        address indexed rewardToken,\n        uint256 rewardAmount,\n        uint256 date,\n        uint256 periodToExtend\n    );\n    event WithdrawLPRewards(\n        uint256 indexed rewardsAmount,\n        address indexed recipient\n    );\n\n    /* ========== CONSTRUCTOR ========== */\n\n    /** @dev Function called once on deployment time\n     * @param _rewardsTokens The addresses of the tokens the rewards will be paid in\n     * @param _rewardsAmounts The reward amounts for each reward token\n     * @param _stakingToken The address of the token being staked\n     * @param _rewardsDuration Rewards duration in seconds\n     */\n    constructor(\n        address[] memory _rewardsTokens,\n        uint256[] memory _rewardsAmounts,\n        address _stakingToken,\n        uint256 _rewardsDuration\n    ) public {\n        for (uint256 i = 0; i < _rewardsTokens.length; i++) {\n            rewardsTokensMap[_rewardsTokens[i]] = RewardInfo(\n                0,\n                0,\n                0,\n                0,\n                _rewardsDuration\n            );\n        }\n        rewardsTokensArr = _rewardsTokens;\n        rewardsAmountsArr = _rewardsAmounts;\n        stakingToken = IERC20Detailed(_stakingToken);\n\n        rewardsDistributor = msg.sender;\n    }\n\n    /* ========== MODIFIERS ========== */\n\n    /** @dev Modifier that re-calculates the rewards per user on user action.\n     */\n    modifier updateReward(address account) {\n        for (uint256 i = 0; i < rewardsTokensArr.length; i++) {\n            address token = rewardsTokensArr[i];\n            RewardInfo storage ri = rewardsTokensMap[token];\n\n            ri.latestRewardPerTokenSaved = rewardPerToken(token); // Calculate the reward until now\n            ri.lastUpdateTime = lastTimeRewardApplicable(token); // Update the last update time to now (or end date) for future calculations\n\n            if (account != address(0)) {\n                ri.rewards[account] = earned(account, token);\n                ri.userRewardPerTokenRecorded[account] = ri\n                    .latestRewardPerTokenSaved;\n            }\n        }\n        _;\n    }\n\n    /* ========== FUNCTIONS ========== */\n\n    /** @dev Return the length of Rewards tokens array.\n     */\n    function getRewardsTokensCount() external view returns (uint256) {\n        return rewardsTokensArr.length;\n    }\n\n    /** @dev Returns reward per token for a specific user and specific reward token.\n     * @param rewardToken The reward token\n     * @param rewardToken The address of user\n     */\n    function getUserRewardPerTokenRecorded(address rewardToken, address user)\n        external\n        view\n        returns (uint256)\n    {\n        return rewardsTokensMap[rewardToken].userRewardPerTokenRecorded[user];\n    }\n\n    /** @dev Returns reward for a specific user and specific reward token.\n     * @param rewardToken The reward token\n     * @param rewardToken The address of user\n     */\n    function getUserReward(address rewardToken, address user)\n        external\n        view\n        returns (uint256)\n    {\n        return rewardsTokensMap[rewardToken].rewards[user];\n    }\n\n    /** @dev Returns the total amount of stakes.\n     */\n    function totalStakesAmount() external view override returns (uint256) {\n        return _totalStakesAmount;\n    }\n\n    /** @dev Returns the balance of specific user.\n     */\n    function balanceOf(address account)\n        external\n        view\n        override\n        returns (uint256)\n    {\n        return _balances[account];\n    }\n\n    /** @dev Calculates the rewards for this distribution.\n     * @param rewardToken The reward token for which calculations will be made for\n     */\n    function getRewardForDuration(address rewardToken)\n        external\n        view\n        override\n        returns (uint256)\n    {\n        RewardInfo storage ri = rewardsTokensMap[rewardToken];\n        return ri.rewardRate.mul(ri.rewardDuration);\n    }\n\n    /** @dev Checks if staking period has been started.\n     */\n    function hasPeriodStarted() external view returns (bool) {\n        for (uint256 i = 0; i < rewardsTokensArr.length; i++) {\n            if (rewardsTokensMap[rewardsTokensArr[i]].periodFinish != 0) {\n                return true;\n            }\n        }\n\n        return false;\n    }\n\n    /** @dev Providing LP tokens to stake, start calculating rewards for user.\n     * @param amount The amount to be staked\n     */\n    function stake(uint256 amount)\n        external\n        override\n        nonReentrant\n        updateReward(msg.sender)\n    {\n        require(amount != 0, \"Cannot stake 0\");\n        _totalStakesAmount = _totalStakesAmount.add(amount);\n        _balances[msg.sender] = _balances[msg.sender].add(amount);\n        stakingToken.safeTransferFrom(msg.sender, address(this), amount);\n        emit Staked(msg.sender, amount);\n    }\n\n    /** @dev Withdrawing the stake and claiming the rewards for the user\n     */\n    function exit() external override {\n        withdraw(_balances[msg.sender]);\n        getReward();\n    }\n\n    /** @dev Makes the needed calculations and starts the staking/rewarding.\n     */\n    function start()\n        external\n        override\n        onlyRewardsDistributor\n        updateReward(address(0))\n    {\n        for (uint256 i = 0; i < rewardsTokensArr.length; i++) {\n            address token = rewardsTokensArr[i];\n            RewardInfo storage ri = rewardsTokensMap[token];\n\n            ri.rewardRate = rewardsAmountsArr[i].div(ri.rewardDuration);\n            // Ensure the provided reward amount is not more than the balance in the contract.\n            // This keeps the reward rate in the right range, preventing overflows due to\n            // very high values of rewardRate in the earned and rewardsPerToken functions;\n            // Reward + leftover must be less than 2^256 / 10^18 to avoid overflow.\n            uint256 balance = IERC20Detailed(token).balanceOf(address(this));\n            require(\n                ri.rewardRate <= balance.div(ri.rewardDuration),\n                \"Provided reward too high\"\n            );\n\n            ri.lastUpdateTime = block.timestamp;\n            ri.periodFinish = block.timestamp.add(ri.rewardDuration);\n        }\n\n        emit RewardAdded(rewardsTokensArr, rewardsAmountsArr);\n    }\n\n    /** @dev Add's more rewards and updates the duration of the rewards distribution.\n     * @param rewardToken The token in which the additional reward amount will be distributed. Must be already known token.\n     * @param rewardAmount The additional reward amount\n     */\n    function addRewards(address rewardToken, uint256 rewardAmount)\n        external\n        updateReward(address(0))\n        onlyRewardsDistributor\n    {\n        uint256 periodToExtend = getPeriodsToExtend(rewardToken, rewardAmount);\n        IERC20Detailed(rewardToken).safeTransferFrom(\n            msg.sender,\n            address(this),\n            rewardAmount\n        );\n\n        RewardInfo storage ri = rewardsTokensMap[rewardToken];\n        ri.periodFinish = ri.periodFinish.add(periodToExtend);\n        ri.rewardDuration = ri.rewardDuration.add(periodToExtend);\n\n        emit RewardExtended(\n            rewardToken,\n            rewardAmount,\n            block.timestamp,\n            periodToExtend\n        );\n    }\n\n    /** @dev Calculates the last time reward could be paid up until this moment for specific reward token.\n     * @param rewardToken The reward token for which calculations will be made for\n     */\n    function lastTimeRewardApplicable(address rewardToken)\n        public\n        view\n        override\n        returns (uint256)\n    {\n        return\n            Math.min(\n                block.timestamp,\n                rewardsTokensMap[rewardToken].periodFinish\n            );\n    }\n\n    /** @dev Calculates how many rewards tokens you should get per 1 staked token until last applicable time (in most cases it is now) for specific token\n     * @param rewardToken The reward token for which calculations will be made for\n     */\n    function rewardPerToken(address rewardToken)\n        public\n        view\n        override\n        returns (uint256)\n    {\n        RewardInfo storage ri = rewardsTokensMap[rewardToken];\n\n        if (_totalStakesAmount == 0) {\n            return ri.latestRewardPerTokenSaved;\n        }\n\n        uint256 timeSinceLastSave =\n            lastTimeRewardApplicable(rewardToken).sub(ri.lastUpdateTime);\n\n        uint256 rewardPerTokenSinceLastSave =\n            timeSinceLastSave\n                .mul(ri.rewardRate)\n                .mul(\n                10**uint256(IERC20Detailed(address(stakingToken)).decimals())\n            )\n                .div(_totalStakesAmount);\n\n        return ri.latestRewardPerTokenSaved.add(rewardPerTokenSinceLastSave);\n    }\n\n    /** @dev Calculates how much rewards a user has earned.\n     * @param account The user for whom calculations will be done\n     * @param rewardToken The reward token for which calculations will be made for\n     */\n    function earned(address account, address rewardToken)\n        public\n        view\n        override\n        returns (uint256)\n    {\n        RewardInfo storage ri = rewardsTokensMap[rewardToken];\n\n        uint256 userRewardPerTokenSinceRecorded =\n            rewardPerToken(rewardToken).sub(\n                ri.userRewardPerTokenRecorded[account]\n            );\n\n        uint256 newReward =\n            _balances[account].mul(userRewardPerTokenSinceRecorded).div(\n                10**uint256(IERC20Detailed(address(stakingToken)).decimals())\n            );\n\n        return ri.rewards[account].add(newReward);\n    }\n\n    /** @dev Calculates the finish period extension based on the new reward amount added\n     * @param rewardAmount The additional reward amount\n     */\n    function getPeriodsToExtend(address rewardToken, uint256 rewardAmount)\n        public\n        view\n        returns (uint256 periodToExtend)\n    {\n        require(rewardAmount != 0, \"Rewards should be greater than zero\");\n\n        RewardInfo storage ri = rewardsTokensMap[rewardToken];\n        require(ri.rewardRate != 0, \"Staking is not yet started\");\n\n        periodToExtend = rewardAmount.div(ri.rewardRate);\n    }\n\n    /** @dev Checks if staking period for every reward token has expired.\n     * Returns false if atleast one reward token has not yet finished\n     */\n    function hasPeriodFinished() public view returns (bool) {\n        for (uint256 i = 0; i < rewardsTokensArr.length; i++) {\n            // on first token for which the period has not expired, returns false.\n            if (\n                block.timestamp <\n                rewardsTokensMap[rewardsTokensArr[i]].periodFinish\n            ) {\n                return false;\n            }\n        }\n\n        return true;\n    }\n\n    /** @dev Withdrawing/removing the staked tokens back to the user's wallet\n     * @param amount The amount to be withdrawn\n     */\n    function withdraw(uint256 amount)\n        public\n        override\n        nonReentrant\n        updateReward(msg.sender)\n    {\n        require(amount != 0, \"Cannot withdraw 0\");\n        _totalStakesAmount = _totalStakesAmount.sub(amount);\n        _balances[msg.sender] = _balances[msg.sender].sub(amount);\n        stakingToken.safeTransfer(msg.sender, amount);\n        emit Withdrawn(msg.sender, amount);\n    }\n\n    /** @dev Claiming earned rewards up to now\n     */\n    function getReward() public override nonReentrant updateReward(msg.sender) {\n        uint256 tokenArrLength = rewardsTokensArr.length;\n        for (uint256 i = 0; i < tokenArrLength; i++) {\n            address token = rewardsTokensArr[i];\n            RewardInfo storage ri = rewardsTokensMap[token];\n\n            uint256 reward = ri.rewards[msg.sender];\n            if (reward != 0) {\n                ri.rewards[msg.sender] = 0;\n                IERC20Detailed(token).safeTransfer(msg.sender, reward);\n                emit RewardPaid(msg.sender, token, reward);\n            }\n        }\n    }\n\n    /** @dev Withdrawing rewards acumulated from different pools for providing liquidity\n     * @param recipient The address to whom the rewards will be trasferred\n     * @param lpTokenContract The address of the rewards contract\n     */\n    function withdrawLPRewards(address recipient, address lpTokenContract)\n        public\n        nonReentrant\n        onlyRewardsDistributor\n    {\n        uint256 currentReward =\n            IERC20Detailed(lpTokenContract).balanceOf(address(this));\n        require(currentReward > 0, \"There are no rewards from liquidity pools\");\n\n        for (uint256 i = 0; i < rewardsTokensArr.length; i++) {\n            require(\n                lpTokenContract != rewardsTokensArr[i],\n                \"Cannot withdraw from token rewards\"\n            );\n        }\n        IERC20Detailed(lpTokenContract).safeTransfer(recipient, currentReward);\n        emit WithdrawLPRewards(currentReward, recipient);\n    }\n\n    /** @dev Withdrawing rewards before the campaign has started. This method can be used if tokens were accidentally transferred to the contract. The tokens will be returned to the factory contract.\n     */\n    function withdrawRewards() public nonReentrant onlyRewardsDistributor {\n        bool hasPeriodStartedCheck = this.hasPeriodStarted();\n        require(\n            hasPeriodStartedCheck != true,\n            \"The Rewards Campaign has started\"\n        );\n\n        for (uint256 i = 0; i < rewardsTokensArr.length; i++) {\n            uint256 rewardsAmount =\n                IERC20Detailed(rewardsTokensArr[i]).balanceOf(address(this));\n            IERC20Detailed(rewardsTokensArr[i]).safeTransfer(\n                rewardsDistributor,\n                rewardsAmount\n            );\n        }\n    }\n}\n",
  "sourcePath": "/home/hellowodl/lmaas-liquidity-staker/contracts/V1/RewardsPool.sol",
  "compiler": {
    "name": "solc",
    "version": "0.6.12+commit.27d51765.Emscripten.clang",
    "optimizer": false,
    "runs": 200
  },
  "schemaVersion": "2.3.5",
  "updatedAt": "2021-04-27T17:14:31.139Z"
}