{
  "contractName": "RewardsPoolBase",
  "abi": [
    {
      "inputs": [
        {
          "internalType": "contract IERC20Detailed",
          "name": "_stakingToken",
          "type": "address"
        },
        {
          "internalType": "uint256",
          "name": "_startBlock",
          "type": "uint256"
        },
        {
          "internalType": "uint256",
          "name": "_endBlock",
          "type": "uint256"
        },
        {
          "internalType": "address[]",
          "name": "_rewardsTokens",
          "type": "address[]"
        },
        {
          "internalType": "uint256[]",
          "name": "_rewardPerBlock",
          "type": "uint256[]"
        },
        {
          "internalType": "uint256",
          "name": "_stakeLimit",
          "type": "uint256"
        },
        {
          "internalType": "uint256",
          "name": "_contractStakeLimit",
          "type": "uint256"
        }
      ],
      "stateMutability": "nonpayable",
      "type": "constructor"
    },
    {
      "anonymous": false,
      "inputs": [
        {
          "indexed": true,
          "internalType": "address",
          "name": "user",
          "type": "address"
        },
        {
          "indexed": false,
          "internalType": "uint256",
          "name": "amount",
          "type": "uint256"
        },
        {
          "indexed": false,
          "internalType": "address",
          "name": "token",
          "type": "address"
        }
      ],
      "name": "Claimed",
      "type": "event"
    },
    {
      "anonymous": false,
      "inputs": [
        {
          "indexed": true,
          "internalType": "address",
          "name": "user",
          "type": "address"
        },
        {
          "indexed": false,
          "internalType": "uint256",
          "name": "amount",
          "type": "uint256"
        }
      ],
      "name": "Exited",
      "type": "event"
    },
    {
      "anonymous": false,
      "inputs": [
        {
          "indexed": false,
          "internalType": "uint256",
          "name": "newEndBlock",
          "type": "uint256"
        },
        {
          "indexed": false,
          "internalType": "uint256[]",
          "name": "newRewardsPerBlock",
          "type": "uint256[]"
        }
      ],
      "name": "Extended",
      "type": "event"
    },
    {
      "anonymous": false,
      "inputs": [
        {
          "indexed": true,
          "internalType": "address",
          "name": "user",
          "type": "address"
        },
        {
          "indexed": false,
          "internalType": "uint256",
          "name": "amount",
          "type": "uint256"
        }
      ],
      "name": "Staked",
      "type": "event"
    },
    {
      "anonymous": false,
      "inputs": [
        {
          "indexed": true,
          "internalType": "uint256",
          "name": "rewardsAmount",
          "type": "uint256"
        },
        {
          "indexed": true,
          "internalType": "address",
          "name": "recipient",
          "type": "address"
        }
      ],
      "name": "WithdrawLPRewards",
      "type": "event"
    },
    {
      "anonymous": false,
      "inputs": [
        {
          "indexed": true,
          "internalType": "address",
          "name": "user",
          "type": "address"
        },
        {
          "indexed": false,
          "internalType": "uint256",
          "name": "amount",
          "type": "uint256"
        }
      ],
      "name": "Withdrawn",
      "type": "event"
    },
    {
      "inputs": [
        {
          "internalType": "uint256",
          "name": "",
          "type": "uint256"
        }
      ],
      "name": "accumulatedRewardMultiplier",
      "outputs": [
        {
          "internalType": "uint256",
          "name": "",
          "type": "uint256"
        }
      ],
      "stateMutability": "view",
      "type": "function"
    },
    {
      "inputs": [],
      "name": "contractStakeLimit",
      "outputs": [
        {
          "internalType": "uint256",
          "name": "",
          "type": "uint256"
        }
      ],
      "stateMutability": "view",
      "type": "function"
    },
    {
      "inputs": [],
      "name": "endBlock",
      "outputs": [
        {
          "internalType": "uint256",
          "name": "",
          "type": "uint256"
        }
      ],
      "stateMutability": "view",
      "type": "function"
    },
    {
      "inputs": [],
      "name": "lastRewardBlock",
      "outputs": [
        {
          "internalType": "uint256",
          "name": "",
          "type": "uint256"
        }
      ],
      "stateMutability": "view",
      "type": "function"
    },
    {
      "inputs": [
        {
          "internalType": "uint256",
          "name": "",
          "type": "uint256"
        }
      ],
      "name": "rewardPerBlock",
      "outputs": [
        {
          "internalType": "uint256",
          "name": "",
          "type": "uint256"
        }
      ],
      "stateMutability": "view",
      "type": "function"
    },
    {
      "inputs": [],
      "name": "rewardsPoolFactory",
      "outputs": [
        {
          "internalType": "address",
          "name": "",
          "type": "address"
        }
      ],
      "stateMutability": "view",
      "type": "function"
    },
    {
      "inputs": [
        {
          "internalType": "uint256",
          "name": "",
          "type": "uint256"
        }
      ],
      "name": "rewardsTokens",
      "outputs": [
        {
          "internalType": "address",
          "name": "",
          "type": "address"
        }
      ],
      "stateMutability": "view",
      "type": "function"
    },
    {
      "inputs": [],
      "name": "stakeLimit",
      "outputs": [
        {
          "internalType": "uint256",
          "name": "",
          "type": "uint256"
        }
      ],
      "stateMutability": "view",
      "type": "function"
    },
    {
      "inputs": [],
      "name": "stakingToken",
      "outputs": [
        {
          "internalType": "contract IERC20Detailed",
          "name": "",
          "type": "address"
        }
      ],
      "stateMutability": "view",
      "type": "function"
    },
    {
      "inputs": [],
      "name": "startBlock",
      "outputs": [
        {
          "internalType": "uint256",
          "name": "",
          "type": "uint256"
        }
      ],
      "stateMutability": "view",
      "type": "function"
    },
    {
      "inputs": [],
      "name": "totalStaked",
      "outputs": [
        {
          "internalType": "uint256",
          "name": "",
          "type": "uint256"
        }
      ],
      "stateMutability": "view",
      "type": "function"
    },
    {
      "inputs": [
        {
          "internalType": "address",
          "name": "",
          "type": "address"
        }
      ],
      "name": "userInfo",
      "outputs": [
        {
          "internalType": "uint256",
          "name": "firstStakedBlockNumber",
          "type": "uint256"
        },
        {
          "internalType": "uint256",
          "name": "amountStaked",
          "type": "uint256"
        }
      ],
      "stateMutability": "view",
      "type": "function"
    },
    {
      "inputs": [
        {
          "internalType": "uint256",
          "name": "_tokenAmount",
          "type": "uint256"
        }
      ],
      "name": "stake",
      "outputs": [],
      "stateMutability": "nonpayable",
      "type": "function"
    },
    {
      "inputs": [],
      "name": "claim",
      "outputs": [],
      "stateMutability": "nonpayable",
      "type": "function"
    },
    {
      "inputs": [
        {
          "internalType": "uint256",
          "name": "_tokenAmount",
          "type": "uint256"
        }
      ],
      "name": "withdraw",
      "outputs": [],
      "stateMutability": "nonpayable",
      "type": "function"
    },
    {
      "inputs": [],
      "name": "exit",
      "outputs": [],
      "stateMutability": "nonpayable",
      "type": "function"
    },
    {
      "inputs": [
        {
          "internalType": "address",
          "name": "_userAddress",
          "type": "address"
        }
      ],
      "name": "balanceOf",
      "outputs": [
        {
          "internalType": "uint256",
          "name": "",
          "type": "uint256"
        }
      ],
      "stateMutability": "view",
      "type": "function"
    },
    {
      "inputs": [],
      "name": "updateRewardMultipliers",
      "outputs": [],
      "stateMutability": "nonpayable",
      "type": "function"
    },
    {
      "inputs": [],
      "name": "hasStakingStarted",
      "outputs": [
        {
          "internalType": "bool",
          "name": "",
          "type": "bool"
        }
      ],
      "stateMutability": "view",
      "type": "function"
    },
    {
      "inputs": [
        {
          "internalType": "address",
          "name": "_userAddress",
          "type": "address"
        },
        {
          "internalType": "uint256",
          "name": "_index",
          "type": "uint256"
        }
      ],
      "name": "getUserRewardDebt",
      "outputs": [
        {
          "internalType": "uint256",
          "name": "",
          "type": "uint256"
        }
      ],
      "stateMutability": "view",
      "type": "function"
    },
    {
      "inputs": [
        {
          "internalType": "address",
          "name": "_userAddress",
          "type": "address"
        },
        {
          "internalType": "uint256",
          "name": "_index",
          "type": "uint256"
        }
      ],
      "name": "getUserOwedTokens",
      "outputs": [
        {
          "internalType": "uint256",
          "name": "",
          "type": "uint256"
        }
      ],
      "stateMutability": "view",
      "type": "function"
    },
    {
      "inputs": [
        {
          "internalType": "address",
          "name": "_userAddress",
          "type": "address"
        },
        {
          "internalType": "uint256",
          "name": "tokenIndex",
          "type": "uint256"
        }
      ],
      "name": "getUserAccumulatedReward",
      "outputs": [
        {
          "internalType": "uint256",
          "name": "",
          "type": "uint256"
        }
      ],
      "stateMutability": "view",
      "type": "function"
    },
    {
      "inputs": [
        {
          "internalType": "address",
          "name": "_userAddress",
          "type": "address"
        }
      ],
      "name": "getUserTokensOwedLength",
      "outputs": [
        {
          "internalType": "uint256",
          "name": "",
          "type": "uint256"
        }
      ],
      "stateMutability": "view",
      "type": "function"
    },
    {
      "inputs": [
        {
          "internalType": "address",
          "name": "_userAddress",
          "type": "address"
        }
      ],
      "name": "getUserRewardDebtLength",
      "outputs": [
        {
          "internalType": "uint256",
          "name": "",
          "type": "uint256"
        }
      ],
      "stateMutability": "view",
      "type": "function"
    },
    {
      "inputs": [
        {
          "internalType": "uint256",
          "name": "_endBlock",
          "type": "uint256"
        },
        {
          "internalType": "uint256[]",
          "name": "_rewardsPerBlock",
          "type": "uint256[]"
        },
        {
          "internalType": "uint256[]",
          "name": "_currentRemainingRewards",
          "type": "uint256[]"
        },
        {
          "internalType": "uint256[]",
          "name": "_newRemainingRewards",
          "type": "uint256[]"
        }
      ],
      "name": "extend",
      "outputs": [],
      "stateMutability": "nonpayable",
      "type": "function"
    },
    {
      "inputs": [
        {
          "internalType": "address",
          "name": "recipient",
          "type": "address"
        },
        {
          "internalType": "address",
          "name": "lpTokenContract",
          "type": "address"
        }
      ],
      "name": "withdrawLPRewards",
      "outputs": [],
      "stateMutability": "nonpayable",
      "type": "function"
    },
    {
      "inputs": [],
      "name": "getRewardTokensCount",
      "outputs": [
        {
          "internalType": "uint256",
          "name": "",
          "type": "uint256"
        }
      ],
      "stateMutability": "view",
      "type": "function"
    }
  ],
  "bytecode": "0x60806040523480156200001157600080fd5b5060405162003b8e38038062003b8e833981810160405260e08110156200003757600080fd5b81019080805190602001909291908051906020019092919080519060200190929190805160405193929190846401000000008211156200007657600080fd5b838201915060208201858111156200008d57600080fd5b8251866020820283011164010000000082111715620000ab57600080fd5b8083526020830192505050908051906020019060200280838360005b83811015620000e4578082015181840152602081019050620000c7565b50505050905001604052602001805160405193929190846401000000008211156200010e57600080fd5b838201915060208201858111156200012557600080fd5b82518660208202830111640100000000821117156200014357600080fd5b8083526020830192505050908051906020019060200280838360005b838110156200017c5780820151818401526020810190506200015f565b5050505090500160405260200180519060200190929190805190602001909291905050506001600081905550620001b8620004be60201b60201c565b861162000211576040517f08c379a000000000000000000000000000000000000000000000000000000000815260040180806020018281038252603681526020018062003b586036913960400191505060405180910390fd5b62000221620004be60201b60201c565b85116200027a576040517f08c379a000000000000000000000000000000000000000000000000000000000815260040180806020018281038252603181526020018062003a9e6031913960400191505060405180910390fd5b8351835114620002d6576040517f08c379a000000000000000000000000000000000000000000000000000000000815260040180806020018281038252604f81526020018062003acf604f913960600191505060405180910390fd5b600082141562000332576040517f08c379a000000000000000000000000000000000000000000000000000000000815260040180806020018281038252603081526020018062003a6e6030913960400191505060405180910390fd5b60008114156200038e576040517f08c379a000000000000000000000000000000000000000000000000000000000815260040180806020018281038252603a81526020018062003b1e603a913960400191505060405180910390fd5b86600460006101000a81548173ffffffffffffffffffffffffffffffffffffffff021916908373ffffffffffffffffffffffffffffffffffffffff1602179055508260029080519060200190620003e7929190620004c6565b50856005819055508460068190555083600390805190602001906200040e92919062000518565b5060055460078190555033600960006101000a81548173ffffffffffffffffffffffffffffffffffffffff021916908373ffffffffffffffffffffffffffffffffffffffff16021790555081600a8190555080600b8190555060005b600380549050811015620004b05760086000908060018154018082558091505060019003906000526020600020016000909190919091505580806001019150506200046a565b505050505050505062000603565b600043905090565b82805482825590600052602060002090810192821562000505579160200282015b8281111562000504578251825591602001919060010190620004e7565b5b509050620005149190620005a7565b5090565b82805482825590600052602060002090810192821562000594579160200282015b82811115620005935782518260006101000a81548173ffffffffffffffffffffffffffffffffffffffff021916908373ffffffffffffffffffffffffffffffffffffffff1602179055509160200191906001019062000539565b5b509050620005a39190620005c6565b5090565b5b80821115620005c2576000816000905550600101620005a8565b5090565b5b80821115620005ff57600081816101000a81549073ffffffffffffffffffffffffffffffffffffffff021916905550600101620005c7565b5090565b61345b80620006136000396000f3fe608060405234801561001057600080fd5b50600436106101a85760003560e01c806372f702f3116100f9578063b6d0dcd811610097578063df9d777f11610071578063df9d777f14610828578063e9fad8ee1461088a578063f27d026414610894578063fb58cad1146108f6576101a8565b8063b6d0dcd814610764578063ce415302146107bc578063dd2da2201461081e576101a8565b8063a1002a0f116100d3578063a1002a0f1461065c578063a1292aea146106c0578063a694fc3a14610718578063a9f8d18114610746576101a8565b806372f702f3146105c8578063791f39cd146105fc578063817b1cd21461063e576101a8565b80632e1a7d4d116101665780634e71d92d116101405780634e71d92d1461051257806356409b811461051c57806357b4f01f1461055057806370a0823114610570576101a8565b80632e1a7d4d146104a857806345ef79af146104d657806348cd4cb1146104f4576101a8565b806284c927146101ad57806303d1dae014610205578063083c6323146102235780631959a0021461024157806320e67c76146102a05780632d9e88e11461048a575b600080fd5b6101ef600480360360208110156101c357600080fd5b81019080803573ffffffffffffffffffffffffffffffffffffffff169060200190929190505050610938565b6040518082815260200191505060405180910390f35b61020d610a12565b6040518082815260200191505060405180910390f35b61022b610a18565b6040518082815260200191505060405180910390f35b6102836004803603602081101561025757600080fd5b81019080803573ffffffffffffffffffffffffffffffffffffffff169060200190929190505050610a1e565b604051808381526020018281526020019250505060405180910390f35b610488600480360360808110156102b657600080fd5b8101908080359060200190929190803590602001906401000000008111156102dd57600080fd5b8201836020820111156102ef57600080fd5b8035906020019184602083028401116401000000008311171561031157600080fd5b919080806020026020016040519081016040528093929190818152602001838360200280828437600081840152601f19601f8201169050808301925050505050505091929192908035906020019064010000000081111561037157600080fd5b82018360208201111561038357600080fd5b803590602001918460208302840111640100000000831117156103a557600080fd5b919080806020026020016040519081016040528093929190818152602001838360200280828437600081840152601f19601f8201169050808301925050505050505091929192908035906020019064010000000081111561040557600080fd5b82018360208201111561041757600080fd5b8035906020019184602083028401116401000000008311171561043957600080fd5b919080806020026020016040519081016040528093929190818152602001838360200280828437600081840152601f19601f820116905080830192505050505050509192919290505050610a42565b005b610492610d9d565b6040518082815260200191505060405180910390f35b6104d4600480360360208110156104be57600080fd5b8101908080359060200190929190505050610daa565b005b6104de610e40565b6040518082815260200191505060405180910390f35b6104fc610e46565b6040518082815260200191505060405180910390f35b61051a610e4c565b005b610524610ee0565b604051808273ffffffffffffffffffffffffffffffffffffffff16815260200191505060405180910390f35b610558610f06565b60405180821515815260200191505060405180910390f35b6105b26004803603602081101561058657600080fd5b81019080803573ffffffffffffffffffffffffffffffffffffffff169060200190929190505050610f1a565b6040518082815260200191505060405180910390f35b6105d0610f6b565b604051808273ffffffffffffffffffffffffffffffffffffffff16815260200191505060405180910390f35b6106286004803603602081101561061257600080fd5b8101908080359060200190929190505050610f91565b6040518082815260200191505060405180910390f35b610646610fb2565b6040518082815260200191505060405180910390f35b6106be6004803603604081101561067257600080fd5b81019080803573ffffffffffffffffffffffffffffffffffffffff169060200190929190803573ffffffffffffffffffffffffffffffffffffffff169060200190929190505050610fb8565b005b610702600480360360208110156106d657600080fd5b81019080803573ffffffffffffffffffffffffffffffffffffffff1690602001909291905050506113e1565b6040518082815260200191505060405180910390f35b6107446004803603602081101561072e57600080fd5b81019080803590602001909291905050506114bb565b005b61074e611553565b6040518082815260200191505060405180910390f35b6107906004803603602081101561077a57600080fd5b8101908080359060200190929190505050611559565b604051808273ffffffffffffffffffffffffffffffffffffffff16815260200191505060405180910390f35b610808600480360360408110156107d257600080fd5b81019080803573ffffffffffffffffffffffffffffffffffffffff16906020019092919080359060200190929190505050611595565b6040518082815260200191505060405180910390f35b610826611682565b005b6108746004803603604081101561083e57600080fd5b81019080803573ffffffffffffffffffffffffffffffffffffffff16906020019092919080359060200190929190505050611882565b6040518082815260200191505060405180910390f35b610892611aec565b005b6108e0600480360360408110156108aa57600080fd5b81019080803573ffffffffffffffffffffffffffffffffffffffff16906020019092919080359060200190929190505050611b80565b6040518082815260200191505060405180910390f35b6109226004803603602081101561090c57600080fd5b8101908080359060200190929190505050611c6d565b6040518082815260200191505060405180910390f35b60008073ffffffffffffffffffffffffffffffffffffffff168273ffffffffffffffffffffffffffffffffffffffff1614156109bf576040517f08c379a000000000000000000000000000000000000000000000000000000000815260040180806020018281038252602d815260200180613158602d913960400191505060405180910390fd5b6000600c60008473ffffffffffffffffffffffffffffffffffffffff1673ffffffffffffffffffffffffffffffffffffffff16815260200190815260200160002090508060020180549050915050919050565b600b5481565b60065481565b600c6020528060005260406000206000915090508060000154908060010154905082565b600960009054906101000a900473ffffffffffffffffffffffffffffffffffffffff1673ffffffffffffffffffffffffffffffffffffffff163373ffffffffffffffffffffffffffffffffffffffff1614610ae8576040517f08c379a00000000000000000000000000000000000000000000000000000000081526004018080602001828103825260298152602001806133fd6029913960400191505060405180910390fd5b610af0611c8e565b8411610b47576040517f08c379a00000000000000000000000000000000000000000000000000000000081526004018080602001828103825260278152602001806133ac6027913960400191505060405180910390fd5b600654841015610ba2576040517f08c379a00000000000000000000000000000000000000000000000000000000081526004018080602001828103825260358152602001806131ac6035913960400191505060405180910390fd5b600380549050835114610c00576040517f08c379a00000000000000000000000000000000000000000000000000000000081526004018080602001828103825260348152602001806132d26034913960400191505060405180910390fd5b610c08611682565b60005b8351811015610d0f57600060038281548110610c2357fe5b9060005260206000200160009054906101000a900473ffffffffffffffffffffffffffffffffffffffff169050828281518110610c5c57fe5b6020026020010151848381518110610c7057fe5b60200260200101511115610cd257610cd133848481518110610c8e57fe5b6020026020010151868581518110610ca257fe5b6020026020010151038373ffffffffffffffffffffffffffffffffffffffff16611c969092919063ffffffff16565b5b848281518110610cde57fe5b602002602001015160028381548110610cf357fe5b9060005260206000200181905550508080600101915050610c0b565b50836006819055507f137c92cc7579cc4d6a2b109467cd475c205d1c136363ca854cc46d72f840d5de84846040518083815260200180602001828103825283818151815260200191508051906020019060200280838360005b83811015610d83578082015181840152602081019050610d68565b50505050905001935050505060405180910390a150505050565b6000600380549050905090565b60026000541415610e23576040517f08c379a000000000000000000000000000000000000000000000000000000000815260040180806020018281038252601f8152602001807f5265656e7472616e637947756172643a207265656e7472616e742063616c6c0081525060200191505060405180910390fd5b6002600081905550610e358133611d38565b600160008190555050565b600a5481565b60055481565b60026000541415610ec5576040517f08c379a000000000000000000000000000000000000000000000000000000000815260040180806020018281038252601f8152602001807f5265656e7472616e637947756172643a207265656e7472616e742063616c6c0081525060200191505060405180910390fd5b6002600081905550610ed63361202c565b6001600081905550565b600960009054906101000a900473ffffffffffffffffffffffffffffffffffffffff1681565b6000600554610f13611c8e565b1015905090565b600080600c60008473ffffffffffffffffffffffffffffffffffffffff1673ffffffffffffffffffffffffffffffffffffffff16815260200190815260200160002090508060010154915050919050565b600460009054906101000a900473ffffffffffffffffffffffffffffffffffffffff1681565b60028181548110610f9e57fe5b906000526020600020016000915090505481565b60015481565b60026000541415611031576040517f08c379a000000000000000000000000000000000000000000000000000000000815260040180806020018281038252601f8152602001807f5265656e7472616e637947756172643a207265656e7472616e742063616c6c0081525060200191505060405180910390fd5b6002600081905550600960009054906101000a900473ffffffffffffffffffffffffffffffffffffffff1673ffffffffffffffffffffffffffffffffffffffff163373ffffffffffffffffffffffffffffffffffffffff16146110df576040517f08c379a00000000000000000000000000000000000000000000000000000000081526004018080602001828103825260298152602001806133fd6029913960400191505060405180910390fd5b60008173ffffffffffffffffffffffffffffffffffffffff166370a08231306040518263ffffffff1660e01b8152600401808273ffffffffffffffffffffffffffffffffffffffff16815260200191505060206040518083038186803b15801561114857600080fd5b505afa15801561115c573d6000803e3d6000fd5b505050506040513d602081101561117257600080fd5b81019080805190602001909291905050509050600081116111de576040517f08c379a000000000000000000000000000000000000000000000000000000000815260040180806020018281038252603c815260200180613370603c913960400191505060405180910390fd5b600460009054906101000a900473ffffffffffffffffffffffffffffffffffffffff1673ffffffffffffffffffffffffffffffffffffffff168273ffffffffffffffffffffffffffffffffffffffff161415611285576040517f08c379a00000000000000000000000000000000000000000000000000000000081526004018080602001828103825260368152602001806131e16036913960400191505060405180910390fd5b6000600380549050905060005b8181101561136357600381815481106112a757fe5b9060005260206000200160009054906101000a900473ffffffffffffffffffffffffffffffffffffffff1673ffffffffffffffffffffffffffffffffffffffff168473ffffffffffffffffffffffffffffffffffffffff161415611356576040517f08c379a00000000000000000000000000000000000000000000000000000000081526004018080602001828103825260358152602001806132176035913960400191505060405180910390fd5b8080600101915050611292565b5061138f84838573ffffffffffffffffffffffffffffffffffffffff16611c969092919063ffffffff16565b8373ffffffffffffffffffffffffffffffffffffffff16827fdf1b625465761dd1a4330a9b3a21d4943183f301036528a3544f8d891fdce2c260405160405180910390a3505060016000819055505050565b60008073ffffffffffffffffffffffffffffffffffffffff168273ffffffffffffffffffffffffffffffffffffffff161415611468576040517f08c379a000000000000000000000000000000000000000000000000000000000815260040180806020018281038252602d81526020018061324c602d913960400191505060405180910390fd5b6000600c60008473ffffffffffffffffffffffffffffffffffffffff1673ffffffffffffffffffffffffffffffffffffffff16815260200190815260200160002090508060030180549050915050919050565b60026000541415611534576040517f08c379a000000000000000000000000000000000000000000000000000000000815260040180806020018281038252601f8152602001807f5265656e7472616e637947756172643a207265656e7472616e742063616c6c0081525060200191505060405180910390fd5b6002600081905550611548813360016121eb565b600160008190555050565b60075481565b6003818154811061156657fe5b906000526020600020016000915054906101000a900473ffffffffffffffffffffffffffffffffffffffff1681565b60008073ffffffffffffffffffffffffffffffffffffffff168373ffffffffffffffffffffffffffffffffffffffff16141561161c576040517f08c379a00000000000000000000000000000000000000000000000000000000081526004018080602001828103825260278152602001806133496027913960400191505060405180910390fd5b6000600c60008573ffffffffffffffffffffffffffffffffffffffff1673ffffffffffffffffffffffffffffffffffffffff168152602001908152602001600020905080600301838154811061166e57fe5b906000526020600020015491505092915050565b600061168c611c8e565b9050600754811161169d5750611880565b600060065482106116b0576006546116b2565b815b905060006007548203905060008114156116ce57505050611880565b600060015414156116e85781600781905550505050611880565b6000600380549050905060005b818110156118735760006003828154811061170c57fe5b9060005260206000200160009054906101000a900473ffffffffffffffffffffffffffffffffffffffff1673ffffffffffffffffffffffffffffffffffffffff1663313ce5676040518163ffffffff1660e01b815260040160206040518083038186803b15801561177c57600080fd5b505afa158015611790573d6000803e3d6000fd5b505050506040513d60208110156117a657600080fd5b810190808051906020019092919050505060ff169050600081600a0a905060006117f0600285815481106117d657fe5b90600052602060002001548761270c90919063ffffffff16565b9050600061181b60015461180d858561270c90919063ffffffff16565b61279290919063ffffffff16565b9050611847816008878154811061182e57fe5b906000526020600020015461281b90919063ffffffff16565b6008868154811061185457fe5b90600052602060002001819055505050505080806001019150506116f5565b5082600781905550505050505b565b60008061188d611c8e565b9050600060065482106118a2576006546118a4565b815b905060006118bd600754836128a390919063ffffffff16565b90506000600386815481106118ce57fe5b9060005260206000200160009054906101000a900473ffffffffffffffffffffffffffffffffffffffff1673ffffffffffffffffffffffffffffffffffffffff1663313ce5676040518163ffffffff1660e01b815260040160206040518083038186803b15801561193e57600080fd5b505afa158015611952573d6000803e3d6000fd5b505050506040513d602081101561196857600080fd5b810190808051906020019092919050505060ff169050600081600a0a905060006119b26002898154811061199857fe5b90600052602060002001548561270c90919063ffffffff16565b905060006119dd6001546119cf858561270c90919063ffffffff16565b61279290919063ffffffff16565b90506000611a0b8260088c815481106119f257fe5b906000526020600020015461281b90919063ffffffff16565b90506000600c60008d73ffffffffffffffffffffffffffffffffffffffff1673ffffffffffffffffffffffffffffffffffffffff16815260200190815260200160002090506000611a7b86611a6d85856001015461270c90919063ffffffff16565b61279290919063ffffffff16565b90506000611aab836002018e81548110611a9157fe5b9060005260206000200154836128a390919063ffffffff16565b9050611ad981846003018f81548110611ac057fe5b906000526020600020015461281b90919063ffffffff16565b9b50505050505050505050505092915050565b60026000541415611b65576040517f08c379a000000000000000000000000000000000000000000000000000000000815260040180806020018281038252601f8152602001807f5265656e7472616e637947756172643a207265656e7472616e742063616c6c0081525060200191505060405180910390fd5b6002600081905550611b7633612926565b6001600081905550565b60008073ffffffffffffffffffffffffffffffffffffffff168373ffffffffffffffffffffffffffffffffffffffff161415611c07576040517f08c379a00000000000000000000000000000000000000000000000000000000081526004018080602001828103825260278152602001806131856027913960400191505060405180910390fd5b6000600c60008573ffffffffffffffffffffffffffffffffffffffff1673ffffffffffffffffffffffffffffffffffffffff1681526020019081526020016000209050806002018381548110611c5957fe5b906000526020600020015491505092915050565b60088181548110611c7a57fe5b906000526020600020016000915090505481565b600043905090565b611d338363a9059cbb60e01b8484604051602401808373ffffffffffffffffffffffffffffffffffffffff16815260200182815260200192505050604051602081830303815290604052907bffffffffffffffffffffffffffffffffffffffffffffffffffffffff19166020820180517bffffffffffffffffffffffffffffffffffffffffffffffffffffffff83818316178352505050506129d6565b505050565b60008211611dae576040517f08c379a000000000000000000000000000000000000000000000000000000000815260040180806020018281038252601b8152602001807f57697468647261773a3a43616e6e6f742077697468647261772030000000000081525060200191505060405180910390fd5b6000600c60008373ffffffffffffffffffffffffffffffffffffffff1673ffffffffffffffffffffffffffffffffffffffff1681526020019081526020016000209050611df9611682565b611e0282612c21565b611e198382600101546128a390919063ffffffff16565b8160010181905550611e36836001546128a390919063ffffffff16565b6001819055506000600380549050905060005b81811015611f8a57600060038281548110611e6057fe5b9060005260206000200160009054906101000a900473ffffffffffffffffffffffffffffffffffffffff1673ffffffffffffffffffffffffffffffffffffffff1663313ce5676040518163ffffffff1660e01b815260040160206040518083038186803b158015611ed057600080fd5b505afa158015611ee4573d6000803e3d6000fd5b505050506040513d6020811015611efa57600080fd5b810190808051906020019092919050505060ff169050600081600a0a90506000611f5a82611f4c60088781548110611f2e57fe5b9060005260206000200154896001015461270c90919063ffffffff16565b61279290919063ffffffff16565b905080866002018581548110611f6c57fe5b90600052602060002001819055505050508080600101915050611e49565b50611fd88385600460009054906101000a900473ffffffffffffffffffffffffffffffffffffffff1673ffffffffffffffffffffffffffffffffffffffff16611c969092919063ffffffff16565b8273ffffffffffffffffffffffffffffffffffffffff167f7084f5476618d8e60b11ef0d7d3f06914655adb8793e28ff7f018d4c76d505d5856040518082815260200191505060405180910390a250505050565b6000600c60008373ffffffffffffffffffffffffffffffffffffffff1673ffffffffffffffffffffffffffffffffffffffff1681526020019081526020016000209050612077611682565b61208082612c21565b6000600380549050905060005b818110156121e55760008360030182815481106120a657fe5b9060005260206000200154905060008460030183815481106120c457fe5b90600052602060002001819055506121348582600385815481106120e457fe5b9060005260206000200160009054906101000a900473ffffffffffffffffffffffffffffffffffffffff1673ffffffffffffffffffffffffffffffffffffffff16611c969092919063ffffffff16565b8473ffffffffffffffffffffffffffffffffffffffff167f7e6632ca16a0ac6cf28448500b1a17d96c8b8163ad4c4a9b44ef5386cc02779e826003858154811061217a57fe5b9060005260206000200160009054906101000a900473ffffffffffffffffffffffffffffffffffffffff16604051808381526020018273ffffffffffffffffffffffffffffffffffffffff1681526020019250505060405180910390a250808060010191505061208d565b50505050565b60006121f5611c8e565b90506005548111612251576040517f08c379a00000000000000000000000000000000000000000000000000000000081526004018080602001828103825260228152602001806133066022913960400191505060405180910390fd5b6006548111156122c9576040517f08c379a000000000000000000000000000000000000000000000000000000000815260040180806020018281038252601b8152602001807f5374616b653a3a5374616b696e67206861732066696e6973686564000000000081525060200191505060405180910390fd5b82846000600c60008473ffffffffffffffffffffffffffffffffffffffff1673ffffffffffffffffffffffffffffffffffffffff1681526020019081526020016000209050600a5461232883836001015461281b90919063ffffffff16565b111561237f576040517f08c379a00000000000000000000000000000000000000000000000000000000081526004018080602001828103825260288152602001806132aa6028913960400191505060405180910390fd5b600b546123978360015461281b90919063ffffffff16565b11156123ee576040517f08c379a00000000000000000000000000000000000000000000000000000000081526004018080602001828103825260318152602001806132796031913960400191505060405180910390fd5b60008711612464576040517f08c379a00000000000000000000000000000000000000000000000000000000081526004018080602001828103825260158152602001807f5374616b653a3a43616e6e6f74207374616b652030000000000000000000000081525060200191505060405180910390fd5b6000600c60008873ffffffffffffffffffffffffffffffffffffffff1673ffffffffffffffffffffffffffffffffffffffff16815260200190815260200160002090506000816001015414156124be576124bd87612cbc565b5b6124c6611682565b6124cf87612c21565b6124e688826001015461281b90919063ffffffff16565b81600101819055506125038860015461281b90919063ffffffff16565b6001819055506000600380549050905060005b818110156126575760006003828154811061252d57fe5b9060005260206000200160009054906101000a900473ffffffffffffffffffffffffffffffffffffffff1673ffffffffffffffffffffffffffffffffffffffff1663313ce5676040518163ffffffff1660e01b815260040160206040518083038186803b15801561259d57600080fd5b505afa1580156125b1573d6000803e3d6000fd5b505050506040513d60208110156125c757600080fd5b810190808051906020019092919050505060ff169050600081600a0a9050600061262782612619600887815481106125fb57fe5b9060005260206000200154896001015461270c90919063ffffffff16565b61279290919063ffffffff16565b90508086600201858154811061263957fe5b90600052602060002001819055505050508080600101915050612516565b506126b3876126665733612668565b885b308b600460009054906101000a900473ffffffffffffffffffffffffffffffffffffffff1673ffffffffffffffffffffffffffffffffffffffff16612d13909392919063ffffffff16565b8773ffffffffffffffffffffffffffffffffffffffff167f9e71bc8eea02a63969f509818f2dafb9254532904319f9dbda79b67bd34a5f3d8a6040518082815260200191505060405180910390a2505050505050505050565b60008083141561271f576000905061278c565b600082840290508284828161273057fe5b0414612787576040517f08c379a00000000000000000000000000000000000000000000000000000000081526004018080602001828103825260218152602001806133286021913960400191505060405180910390fd5b809150505b92915050565b6000808211612809576040517f08c379a000000000000000000000000000000000000000000000000000000000815260040180806020018281038252601a8152602001807f536166654d6174683a206469766973696f6e206279207a65726f00000000000081525060200191505060405180910390fd5b81838161281257fe5b04905092915050565b600080828401905083811015612899576040517f08c379a000000000000000000000000000000000000000000000000000000000815260040180806020018281038252601b8152602001807f536166654d6174683a206164646974696f6e206f766572666c6f77000000000081525060200191505060405180910390fd5b8091505092915050565b60008282111561291b576040517f08c379a000000000000000000000000000000000000000000000000000000000815260040180806020018281038252601e8152602001807f536166654d6174683a207375627472616374696f6e206f766572666c6f77000081525060200191505060405180910390fd5b818303905092915050565b6000600c60008373ffffffffffffffffffffffffffffffffffffffff1673ffffffffffffffffffffffffffffffffffffffff16815260200190815260200160002090506129728261202c565b612980816001015483611d38565b8173ffffffffffffffffffffffffffffffffffffffff167f920bb94eb3842a728db98228c375ff6b00c5bc5a54fac6736155517a0a20a61a82600101546040518082815260200191505060405180910390a25050565b6129f58273ffffffffffffffffffffffffffffffffffffffff16612dd4565b612a67576040517f08c379a000000000000000000000000000000000000000000000000000000000815260040180806020018281038252601f8152602001807f5361666545524332303a2063616c6c20746f206e6f6e2d636f6e74726163740081525060200191505060405180910390fd5b600060608373ffffffffffffffffffffffffffffffffffffffff16836040518082805190602001908083835b60208310612ab65780518252602082019150602081019050602083039250612a93565b6001836020036101000a0380198251168184511680821785525050505050509050019150506000604051808303816000865af19150503d8060008114612b18576040519150601f19603f3d011682016040523d82523d6000602084013e612b1d565b606091505b509150915081612b95576040517f08c379a00000000000000000000000000000000000000000000000000000000081526004018080602001828103825260208152602001807f5361666545524332303a206c6f772d6c6576656c2063616c6c206661696c656481525060200191505060405180910390fd5b600081511115612c1b57808060200190516020811015612bb457600080fd5b8101908080519060200190929190505050612c1a576040517f08c379a000000000000000000000000000000000000000000000000000000000815260040180806020018281038252602a8152602001806133d3602a913960400191505060405180910390fd5b5b50505050565b6000600c60008373ffffffffffffffffffffffffffffffffffffffff1673ffffffffffffffffffffffffffffffffffffffff1681526020019081526020016000209050612c6d82612de7565b612c7682612ea3565b600081600101541415612c895750612cb9565b6000600380549050905060005b81811015612cb557612ca88482612f5f565b8080600101915050612c96565b5050505b50565b6000600c60008373ffffffffffffffffffffffffffffffffffffffff1673ffffffffffffffffffffffffffffffffffffffff1681526020019081526020016000209050612d07611c8e565b81600001819055505050565b612dce846323b872dd60e01b858585604051602401808473ffffffffffffffffffffffffffffffffffffffff1681526020018373ffffffffffffffffffffffffffffffffffffffff1681526020018281526020019350505050604051602081830303815290604052907bffffffffffffffffffffffffffffffffffffffffffffffffffffffff19166020820180517bffffffffffffffffffffffffffffffffffffffffffffffffffffffff83818316178352505050506129d6565b50505050565b600080823b905060008111915050919050565b6000600c60008373ffffffffffffffffffffffffffffffffffffffff1673ffffffffffffffffffffffffffffffffffffffff168152602001908152602001600020905060038054905081600201805490501415612e445750612ea0565b600060038054905090506000826002018054905090505b81811015612e9c5782600201600090806001815401808255809150506001900390600052602060002001600090919091909150558080600101915050612e5b565b5050505b50565b6000600c60008373ffffffffffffffffffffffffffffffffffffffff1673ffffffffffffffffffffffffffffffffffffffff168152602001908152602001600020905060038054905081600301805490501415612f005750612f5c565b600060038054905090506000826003018054905090505b81811015612f585782600301600090806001815401808255809150506001900390600052602060002001600090919091909150558080600101915050612f17565b5050505b50565b6000600c60008473ffffffffffffffffffffffffffffffffffffffff1673ffffffffffffffffffffffffffffffffffffffff1681526020019081526020016000209050600060038381548110612fb157fe5b9060005260206000200160009054906101000a900473ffffffffffffffffffffffffffffffffffffffff1673ffffffffffffffffffffffffffffffffffffffff1663313ce5676040518163ffffffff1660e01b815260040160206040518083038186803b15801561302157600080fd5b505afa158015613035573d6000803e3d6000fd5b505050506040513d602081101561304b57600080fd5b810190808051906020019092919050505060ff169050600081600a0a905060006130ab8261309d6008888154811061307f57fe5b9060005260206000200154876001015461270c90919063ffffffff16565b61279290919063ffffffff16565b905060006130db8560020187815481106130c157fe5b9060005260206000200154836128a390919063ffffffff16565b9050600081111561314e57613112818660030188815481106130f957fe5b906000526020600020015461281b90919063ffffffff16565b85600301878154811061312157fe5b90600052602060002001819055508185600201878154811061313f57fe5b90600052602060002001819055505b5050505050505056fe47657455736572526577617264446562744c656e6774683a3a496e76616c69642075736572206164647265737347657455736572526577617264446562743a3a496e76616c696420757365722061646472657373457874656e643a3a456e6420626c6f636b206d757374206265206166746572207468652063757272656e7420656e6420626c6f636b57697468647261774c50526577617264733a3a2063616e6e6f742077697468647261772066726f6d20746865204c5020746f6b656e7357697468647261774c50526577617264733a3a43616e6e6f742077697468647261772066726f6d20746f6b656e207265776172647347657455736572546f6b656e734f7765644c656e6774683a3a496e76616c6964207573657220616464726573736f6e6c79556e6465725374616b654c696d69743a3a436f6e7472616374205374616b65206c696d697420726561636865646f6e6c79556e6465725374616b654c696d69743a3a5374616b65206c696d69742072656163686564457874656e643a3a5265776172647320616d6f756e7473206c656e677468206973206c657373207468616e2065787065637465645374616b653a3a5374616b696e6720686173206e6f74207965742073746172746564536166654d6174683a206d756c7469706c69636174696f6e206f766572666c6f77476574557365724f776564546f6b656e733a3a496e76616c69642075736572206164647265737357697468647261774c50526577617264733a3a546865726520617265206e6f20726577617264732066726f6d206c697175696469747920706f6f6c73457874656e643a3a456e6420626c6f636b206d75737420626520696e20746865206675747572655361666545524332303a204552433230206f7065726174696f6e20646964206e6f74207375636365656443616c6c6572206973206e6f742052657761726473506f6f6c466163746f727920636f6e7472616374a26469706673582212205df9733d2546acba84a878b3251e05e23e29b1a5035fdeca30dd4c397444f3c264736f6c634300060c0033436f6e7374727563746f723a3a5374616b65206c696d6974206e6565647320746f206265206d6f7265207468616e2030436f6e7374727563746f723a3a54686520656e6420626c6f636b206d75737420626520696e20746865206675747572652e436f6e7374727563746f723a3a526577617264732070657220626c6f636b20616e64207265776172647320746f6b656e73206d7573742062652077697468207468652073616d65206c656e6774682e436f6e7374727563746f723a3a20436f6e7472616374205374616b65206c696d6974206e6565647320746f206265206d6f7265207468616e2030436f6e7374727563746f723a3a546865207374617274696e6720626c6f636b206d75737420626520696e20746865206675747572652e",
  "source": "// SPDX-License-Identifier: MIT\n\npragma solidity 0.6.12;\n\nimport \"openzeppelin-solidity/contracts/math/Math.sol\";\nimport \"openzeppelin-solidity/contracts/math/SafeMath.sol\";\nimport \"openzeppelin-solidity/contracts/utils/ReentrancyGuard.sol\";\nimport \"./interfaces/IERC20Detailed.sol\";\nimport \"./SafeERC20Detailed.sol\";\n\ncontract RewardsPoolBase is ReentrancyGuard {\n\tusing SafeMath for uint256;\n\tusing SafeERC20Detailed for IERC20Detailed;\n\n\tuint256 public totalStaked;\n\tuint256[] public rewardPerBlock;\n\taddress[] public rewardsTokens;\n\tIERC20Detailed public stakingToken;\n\tuint256 public startBlock;\n\tuint256 public endBlock;\n\tuint256 public lastRewardBlock;\n\tuint256[] public accumulatedRewardMultiplier;\n\taddress public rewardsPoolFactory;\n\tuint256 public stakeLimit;\n\tuint256 public contractStakeLimit;\n\n\tstruct UserInfo {\n\t\tuint256 firstStakedBlockNumber;\n\t\tuint256 amountStaked; // How many tokens the user has staked.\n\t\tuint256[] rewardDebt; //\n\t\tuint256[] tokensOwed; // How many tokens the contract owes to the user.\n\t}\n\n\tmapping(address => UserInfo) public userInfo;\n\n\tevent Staked(address indexed user, uint256 amount);\n\tevent Claimed(address indexed user, uint256 amount, address token);\n\tevent Withdrawn(address indexed user, uint256 amount);\n\tevent Exited(address indexed user, uint256 amount);\n\tevent Extended(uint256 newEndBlock, uint256[] newRewardsPerBlock);\n\tevent WithdrawLPRewards(uint256 indexed rewardsAmount, address indexed recipient);\n\n\tconstructor(\n\t\tIERC20Detailed _stakingToken,\n\t\tuint256 _startBlock,\n\t\tuint256 _endBlock,\n\t\taddress[] memory _rewardsTokens,\n\t\tuint256[] memory _rewardPerBlock,\n\t\tuint256 _stakeLimit,\n\t\tuint256 _contractStakeLimit\n\t) public {\n\t\trequire(\n\t\t\t_startBlock > _getBlock(),\n\t\t\t\"Constructor::The starting block must be in the future.\"\n\t\t);\n\t\trequire(\n\t\t\t_endBlock > _getBlock(),\n\t\t\t\"Constructor::The end block must be in the future.\"\n\t\t);\n\t\trequire(\n\t\t\t_rewardPerBlock.length == _rewardsTokens.length,\n\t\t\t\"Constructor::Rewards per block and rewards tokens must be with the same length.\"\n\t\t);\n\t\trequire(_stakeLimit != 0, \"Constructor::Stake limit needs to be more than 0\");\n\t\trequire(_contractStakeLimit != 0, \"Constructor:: Contract Stake limit needs to be more than 0\");\n\n\t\tstakingToken = _stakingToken;\n\t\trewardPerBlock = _rewardPerBlock;\n\t\tstartBlock = _startBlock;\n\t\tendBlock = _endBlock;\n\t\trewardsTokens = _rewardsTokens;\n\t\tlastRewardBlock = startBlock;\n\t\trewardsPoolFactory = msg.sender;\n\t\tstakeLimit = _stakeLimit;\n\t\tcontractStakeLimit = _contractStakeLimit;\n\t\tfor (uint256 i = 0; i < rewardsTokens.length; i++) {\n\t\t\taccumulatedRewardMultiplier.push(0);\n\t\t}\n\t}\n\n\tmodifier onlyInsideBlockBounds() {\n\t\tuint256 currentBlock = _getBlock();\n\t\trequire(\n\t\t\tcurrentBlock > startBlock,\n\t\t\t\"Stake::Staking has not yet started\"\n\t\t);\n\t\trequire(currentBlock <= endBlock, \"Stake::Staking has finished\");\n\t\t_;\n\t}\n\n\tmodifier onlyFactory() {\n\t\trequire(\n\t\t\tmsg.sender == rewardsPoolFactory,\n\t\t\t\"Caller is not RewardsPoolFactory contract\"\n\t\t);\n\t\t_;\n\t}\n\n\tmodifier onlyUnderStakeLimit(address staker, uint256 newStake) {\n\t\tUserInfo storage user = userInfo[staker];\n\t\trequire(user.amountStaked.add(newStake) <= stakeLimit, \"onlyUnderStakeLimit::Stake limit reached\");\n\t\trequire(totalStaked.add(newStake) <= contractStakeLimit, \"onlyUnderStakeLimit::Contract Stake limit reached\");\n\t\t_;\n\t}\n\n\t/** @dev Providing LP tokens to stake, update rewards.\n\t * @param _tokenAmount The amount to be staked\n\t */\n\tfunction stake(uint256 _tokenAmount) virtual public nonReentrant {\n\t\t_stake(_tokenAmount, msg.sender, true);\n\t}\n\n\t/** @dev Providing LP tokens to stake, update rewards.\n\t * @param _tokenAmount The amount to be staked\n\t * @param staker The staker to be associated with the stake\n\t * @param chargeStaker Whether to draw from the staker or from the msg.sender\n\t */\n\tfunction _stake(uint256 _tokenAmount, address staker, bool chargeStaker)\n\t\tinternal\n\t\tonlyInsideBlockBounds\n\t\tonlyUnderStakeLimit(staker, _tokenAmount)\n\t{\n\t\trequire(_tokenAmount > 0, \"Stake::Cannot stake 0\");\n\n\t\tUserInfo storage user = userInfo[staker];\n\n\t\t// if no amount has been staked this is considered the initial stake\n\t\tif (user.amountStaked == 0) {\n\t\t\tonInitialStake(staker);\n\t\t}\n\n\t\tupdateRewardMultipliers(); // Update the accumulated multipliers for everyone\n\t\tupdateUserAccruedReward(staker); // Update the accrued reward for this specific user\n\n\t\tuser.amountStaked = user.amountStaked.add(_tokenAmount);\n\t\ttotalStaked = totalStaked.add(_tokenAmount);\n\n\t\tuint256 rewardsTokensLength = rewardsTokens.length;\n\n\t\tfor (uint256 i = 0; i < rewardsTokensLength; i++) {\n\t\t\tuint256 tokenDecimals = IERC20Detailed(rewardsTokens[i]).decimals();\n\t\t\tuint256 tokenMultiplier = 10**tokenDecimals;\n\n\t\t\tuint256 totalDebt =\n\t\t\t\tuser.amountStaked.mul(accumulatedRewardMultiplier[i]).div(tokenMultiplier); // Update user reward debt for each token\n\t\t\tuser.rewardDebt[i] = totalDebt;\n\t\t}\n\n\t\tstakingToken.safeTransferFrom(\n\t\t\taddress(chargeStaker ? staker : msg.sender),\n\t\t\taddress(this),\n\t\t\t_tokenAmount\n\t\t);\n\t\t\n\t\temit Staked(staker, _tokenAmount);\n\t}\n\n\t/** @dev Claiming accrued rewards.\n\t */\n\tfunction claim() public virtual nonReentrant {\n\t\t_claim(msg.sender);\n\t}\n\n\tfunction _claim(address claimer) internal {\n\t\tUserInfo storage user = userInfo[claimer];\n\t\tupdateRewardMultipliers();\n\t\tupdateUserAccruedReward(claimer);\n\n\t\tuint256 rewardsTokensLength = rewardsTokens.length;\n\n\t\tfor (uint256 i = 0; i < rewardsTokensLength; i++) {\n\t\t\tuint256 reward = user.tokensOwed[i];\n\t\t\tuser.tokensOwed[i] = 0;\n\t\t\tIERC20Detailed(rewardsTokens[i]).safeTransfer(claimer, reward);\n\n\t\t\temit Claimed(claimer, reward, rewardsTokens[i]);\n\t\t}\n\t}\n\n\t/** @dev Withdrawing portion of staked tokens.\n\t * @param _tokenAmount The amount to be withdrawn\n\t */\n\tfunction withdraw(uint256 _tokenAmount) public virtual nonReentrant {\n\t\t_withdraw(_tokenAmount, msg.sender);\n\t}\n\n\tfunction _withdraw(uint256 _tokenAmount, address withdrawer) internal {\n\t\trequire(_tokenAmount > 0, \"Withdraw::Cannot withdraw 0\");\n\n\t\tUserInfo storage user = userInfo[withdrawer];\n\n\t\tupdateRewardMultipliers(); // Update the accumulated multipliers for everyone\n\t\tupdateUserAccruedReward(withdrawer); // Update the accrued reward for this specific user\n\n\t\tuser.amountStaked = user.amountStaked.sub(_tokenAmount);\n\t\ttotalStaked = totalStaked.sub(_tokenAmount);\n\n\t\tuint256 rewardsTokensLength = rewardsTokens.length;\n\n\t\tfor (uint256 i = 0; i < rewardsTokensLength; i++) {\n\t\t\tuint256 tokenDecimals = IERC20Detailed(rewardsTokens[i]).decimals();\n\t\t\tuint256 tokenMultiplier = 10**tokenDecimals;\n\t\t\tuint256 totalDebt =\n\t\t\t\tuser.amountStaked.mul(accumulatedRewardMultiplier[i]).div(tokenMultiplier); // Update user reward debt for each token\n\t\t\tuser.rewardDebt[i] = totalDebt;\n\t\t}\n\n\t\tstakingToken.safeTransfer(address(withdrawer), _tokenAmount);\n\n\t\temit Withdrawn(withdrawer, _tokenAmount);\n\t}\n\n\t/** @dev Claiming all rewards and withdrawing all staked tokens. Exits from the rewards pool\n\t */\n\tfunction exit() virtual public nonReentrant {\n\t\t_exit(msg.sender);\n\t}\n\n\tfunction _exit(address exiter) internal {\n\t\tUserInfo storage user = userInfo[exiter];\n\t\t_claim(exiter);\n\t\t_withdraw(user.amountStaked, exiter);\n\n\t\temit Exited(exiter, user.amountStaked);\n\t}\n\n\t/** @dev Returns the amount of tokens the user has staked\n\t */\n\tfunction balanceOf(address _userAddress) public view returns(uint256) {\n\t\tUserInfo storage user = userInfo[_userAddress];\n\t\treturn user.amountStaked;\n\t}\n\n\t/**\n\t\t@dev Execute logic on initial stake of the user.\n\t\tCould be overriden if needed by the later contracts.\n\t\t@param _userAddress the address of the user\n\t */\n\tfunction onInitialStake(address _userAddress) internal {\n\t\tUserInfo storage user = userInfo[_userAddress];\n\t\tuser.firstStakedBlockNumber = _getBlock();\n\t}\n\n\t/**\n\t\t@dev updates the accumulated reward multipliers for everyone and each token\n\t */\n\tfunction updateRewardMultipliers() public {\n\t\tuint256 currentBlock = _getBlock();\n\n\t\tif (currentBlock <= lastRewardBlock) {\n\t\t\treturn;\n\t\t}\n\n\t\tuint256 applicableBlock = (currentBlock < endBlock) ? currentBlock : endBlock;\n\n\t\tuint256 blocksSinceLastReward = applicableBlock - lastRewardBlock;\n\n\t\tif(blocksSinceLastReward == 0) { // Nothing to update\n\t\t\treturn;\n\t\t}\n\n\t\tif (totalStaked == 0) {\n\t\t\tlastRewardBlock = applicableBlock;\n\t\t\treturn;\n\t\t}\n\n\t\tuint256 rewardsTokensLength = rewardsTokens.length;\n\n\t\tfor (uint256 i = 0; i < rewardsTokensLength; i++) {\n\t\t\tuint256 tokenDecimals = IERC20Detailed(rewardsTokens[i]).decimals();\n\t\t\tuint256 tokenMultiplier = 10**tokenDecimals;\n\n\t\t\tuint256 newReward = blocksSinceLastReward.mul(rewardPerBlock[i]); // Get newly accumulated reward\n\t\t\tuint256 rewardMultiplierIncrease =\n\t\t\t\tnewReward.mul(tokenMultiplier).div(totalStaked); // Calculate the multiplier increase\n\t\t\taccumulatedRewardMultiplier[i] = accumulatedRewardMultiplier[i].add(\n\t\t\t\trewardMultiplierIncrease\n\t\t\t); // Add the multiplier increase to the accumulated multiplier\n\t\t}\n\t\tlastRewardBlock = applicableBlock;\n\t}\n\n\t/**\n\t\t@dev updates the accumulated reward for the user with the _userAddress address\n\t\t@param _userAddress the address of the updated user\n\t */\n\tfunction updateUserAccruedReward(address _userAddress) internal {\n\t\tUserInfo storage user = userInfo[_userAddress];\n\n\t\tinitialiseUserRewardDebt(_userAddress);\n\t\tinitialiseUserTokensOwed(_userAddress);\n\n\t\tif (user.amountStaked == 0) {\n\t\t\treturn;\n\t\t}\n\n\t\tuint256 rewardsTokensLength = rewardsTokens.length; \n\n\t\tfor (\n\t\t\tuint256 tokenIndex = 0;\n\t\t\ttokenIndex < rewardsTokensLength;\n\t\t\ttokenIndex++\n\t\t) {\n\t\t\tupdateUserRewardForToken(_userAddress, tokenIndex);\n\t\t}\n\t}\n\n\t/**\n\t\t@dev initialises the tokensOwed array for the user\n\t\t@param _userAddress the address of the user\n\t */\n\tfunction initialiseUserTokensOwed(address _userAddress) internal {\n\t\tUserInfo storage user = userInfo[_userAddress];\n\n\t\tif (user.tokensOwed.length == rewardsTokens.length) {\n\t\t\t// Already initialised\n\t\t\treturn;\n\t\t}\n\n\t\tuint256 rewardsTokensLength = rewardsTokens.length; \n\n\t\tfor (\n\t\t\tuint256 i = user.tokensOwed.length;\n\t\t\ti < rewardsTokensLength;\n\t\t\ti++\n\t\t) {\n\t\t\tuser.tokensOwed.push(0);\n\t\t}\n\t}\n\n\t/**\n\t\t@dev initialises the rewardDebt array for the user\n\t\t@param _userAddress the address of the user\n\t */\n\tfunction initialiseUserRewardDebt(address _userAddress) internal {\n\t\tUserInfo storage user = userInfo[_userAddress];\n\n\t\tif (user.rewardDebt.length == rewardsTokens.length) {\n\t\t\t// Allready initialised\n\t\t\treturn;\n\t\t}\n\n\t\tuint256 rewardsTokensLength = rewardsTokens.length; \n\n\t\tfor (\n\t\t\tuint256 i = user.rewardDebt.length;\n\t\t\ti < rewardsTokensLength;\n\t\t\ti++\n\t\t) {\n\t\t\tuser.rewardDebt.push(0);\n\t\t}\n\t}\n\n\t/**\n\t\t@dev calculates and updates the current user rewardDebt. Accrues accumulated reward.\n\t\t@param _userAddress the address of the user\n\t */\n\tfunction updateUserRewardForToken(address _userAddress, uint256 tokenIndex)\n\t\tinternal\n\t{\n\t\tUserInfo storage user = userInfo[_userAddress];\n\t\tuint256 tokenDecimals = IERC20Detailed(rewardsTokens[tokenIndex]).decimals();\n\t\tuint256 tokenMultiplier = 10**tokenDecimals;\n\n\t\tuint256 totalDebt =\n\t\t\tuser.amountStaked.mul(accumulatedRewardMultiplier[tokenIndex]).div(\n\t\t\t\ttokenMultiplier\n\t\t\t);\n\t\tuint256 pendingDebt = totalDebt.sub(user.rewardDebt[tokenIndex]);\n\t\tif (pendingDebt > 0) {\n\t\t\tuser.tokensOwed[tokenIndex] = user.tokensOwed[tokenIndex].add(\n\t\t\t\tpendingDebt\n\t\t\t);\n\t\t\tuser.rewardDebt[tokenIndex] = totalDebt;\n\t\t}\n\t}\n\n\tfunction _getBlock() internal view virtual returns (uint256) {\n\t\treturn block.number;\n\t}\n\n\tfunction hasStakingStarted() public view returns (bool) {\n\t\treturn (_getBlock() >= startBlock);\n\t}\n\n\tfunction getUserRewardDebt(address _userAddress, uint256 _index)\n\t\texternal\n\t\tview\n\t\treturns (uint256)\n\t{\n\t\trequire(\n\t\t\t_userAddress != address(0),\n\t\t\t\"GetUserRewardDebt::Invalid user address\"\n\t\t);\n\t\tUserInfo storage user = userInfo[_userAddress];\n\t\treturn user.rewardDebt[_index];\n\t}\n\n\tfunction getUserOwedTokens(address _userAddress, uint256 _index)\n\t\texternal\n\t\tview\n\t\treturns (uint256)\n\t{\n\t\trequire(\n\t\t\t_userAddress != address(0),\n\t\t\t\"GetUserOwedTokens::Invalid user address\"\n\t\t);\n\t\tUserInfo storage user = userInfo[_userAddress];\n\t\treturn user.tokensOwed[_index];\n\t}\n\n\t/**\n\t\t@dev Simulate all conditions in order to calculate the calculated reward at the moment\n\t\t@param _userAddress the address of the user\n\t\t@param tokenIndex the index of the reward token you are interested\n\t */\n\tfunction getUserAccumulatedReward(address _userAddress, uint256 tokenIndex)\n\t\tpublic\n\t\tview\n\t\treturns (uint256)\n\t{\t\n\n\t\tuint256 currentBlock = _getBlock();\n\t\tuint256 applicableBlock = (currentBlock < endBlock) ? currentBlock : endBlock;\n\n\t\tuint256 blocksSinceLastReward = applicableBlock.sub(lastRewardBlock);\n\n\t\tuint256 tokenDecimals = IERC20Detailed(rewardsTokens[tokenIndex]).decimals();\n\t\tuint256 tokenMultiplier = 10**tokenDecimals;\n\n\t\tuint256 newReward =\n\t\t\tblocksSinceLastReward.mul(rewardPerBlock[tokenIndex]); // Get newly accumulated reward\n\t\tuint256 rewardMultiplierIncrease = newReward.mul(tokenMultiplier).div(totalStaked); // Calculate the multiplier increase\n\t\tuint256 currentMultiplier =\n\t\t\taccumulatedRewardMultiplier[tokenIndex].add(\n\t\t\t\trewardMultiplierIncrease\n\t\t\t); // Simulate the multiplier increase to the accumulated multiplier\n\n\t\tUserInfo storage user = userInfo[_userAddress];\n\n\t\tuint256 totalDebt = user.amountStaked.mul(currentMultiplier).div(tokenMultiplier); // Simulate the current debt\n\t\tuint256 pendingDebt = totalDebt.sub(user.rewardDebt[tokenIndex]); // Simulate the pending debt\n\t\treturn user.tokensOwed[tokenIndex].add(pendingDebt);\n\t}\n\n\tfunction getUserTokensOwedLength(address _userAddress)\n\t\texternal\n\t\tview\n\t\treturns (uint256)\n\t{\n\t\trequire(\n\t\t\t_userAddress != address(0),\n\t\t\t\"GetUserTokensOwedLength::Invalid user address\"\n\t\t);\n\t\tUserInfo storage user = userInfo[_userAddress];\n\t\treturn user.tokensOwed.length;\n\t}\n\n\tfunction getUserRewardDebtLength(address _userAddress)\n\t\texternal\n\t\tview\n\t\treturns (uint256)\n\t{\n\t\trequire(\n\t\t\t_userAddress != address(0),\n\t\t\t\"GetUserRewardDebtLength::Invalid user address\"\n\t\t);\n\t\tUserInfo storage user = userInfo[_userAddress];\n\t\treturn user.rewardDebt.length;\n\t}\n\n\t/**\n\t\t@dev Extends the rewards period and updates the rates\n\t\t@param _endBlock  new end block for the rewards\n\t\t@param _rewardsPerBlock array with new rewards per block for each token \n\t */\n\tfunction extend(uint256 _endBlock, uint256[] memory _rewardsPerBlock, uint256[] memory _currentRemainingRewards, uint256[] memory _newRemainingRewards)\n\t\texternal\n\t\tvirtual\n\t\tonlyFactory\n\t{\n\t\trequire(\n\t\t\t_endBlock > _getBlock(),\n\t\t\t\"Extend::End block must be in the future\"\n\t\t);\n\t\trequire(\n\t\t\t_endBlock >= endBlock,\n\t\t\t\"Extend::End block must be after the current end block\"\n\t\t);\n\t\trequire(\n\t\t\t_rewardsPerBlock.length == rewardsTokens.length,\n\t\t\t\"Extend::Rewards amounts length is less than expected\"\n\t\t);\n\t\tupdateRewardMultipliers();\n\n\t\tfor (uint256 i = 0; i < _rewardsPerBlock.length; i++) {\n\n\t\t\taddress rewardsToken = rewardsTokens[i];\n\n\t\t\tif (_currentRemainingRewards[i] > _newRemainingRewards[i]) {\n\t\t\t\t// Some reward leftover needs to be returned\n\t\t\t\tIERC20Detailed(rewardsToken).safeTransfer(\n\t\t\t\t\tmsg.sender,\n\t\t\t\t\t(_currentRemainingRewards[i] - _newRemainingRewards[i])\n\t\t\t\t);\n\t\t\t}\n\n\t\t\trewardPerBlock[i] = _rewardsPerBlock[i];\n\t\t}\n\n\t\tendBlock = _endBlock;\n\n\t\temit Extended(_endBlock, _rewardsPerBlock);\n\t}\n\n\t/** @dev Withdrawing rewards acumulated from different pools for providing liquidity\n\t * @param recipient The address to whom the rewards will be trasferred\n\t * @param lpTokenContract The address of the rewards contract\n\t */\n\tfunction withdrawLPRewards(address recipient, address lpTokenContract)\n\t\texternal\n\t\tnonReentrant\n\t\tonlyFactory\n\t{\n\t\tuint256 currentReward =\n\t\t\tIERC20Detailed(lpTokenContract).balanceOf(address(this));\n\t\trequire(\n\t\t\tcurrentReward > 0,\n\t\t\t\"WithdrawLPRewards::There are no rewards from liquidity pools\"\n\t\t);\n\n\t\trequire(lpTokenContract != address(stakingToken), \"WithdrawLPRewards:: cannot withdraw from the LP tokens\");\n\n\t\tuint256 rewardsTokensLength = rewardsTokens.length; \n\n\t\tfor (uint256 i = 0; i < rewardsTokensLength; i++) {\n\t\t\trequire(\n\t\t\t\tlpTokenContract != rewardsTokens[i],\n\t\t\t\t\"WithdrawLPRewards::Cannot withdraw from token rewards\"\n\t\t\t);\n\t\t}\n\t\tIERC20Detailed(lpTokenContract).safeTransfer(recipient, currentReward);\n\t\temit WithdrawLPRewards(currentReward, recipient);\n\t}\n\n\t/** @dev Helper function to calculate how much tokens should be transffered to a rewards pool.\n\t */\n\tfunction calculateRewardsAmount(\n\t\tuint256 _startBlock,\n\t\tuint256 _endBlock,\n\t\tuint256 _rewardPerBlock\n\t) internal pure returns (uint256) {\n\t\trequire(\n\t\t\t_rewardPerBlock > 0,\n\t\t\t\"RewardsPoolBase::calculateRewardsAmount: Rewards per block must be greater than zero\"\n\t\t);\n\n\t\tuint256 rewardsPeriod = _endBlock.sub(_startBlock);\n\n\t\treturn _rewardPerBlock.mul(rewardsPeriod);\n\t}\n\n\t/** @dev Helper function to get the reward tokens count.\n\t */\n\tfunction getRewardTokensCount() public view returns (uint256) {\n\t\treturn rewardsTokens.length;\n\t}\n}\n",
  "sourcePath": "/home/hellowodl/lmaas-liquidity-staker/contracts/RewardsPoolBase.sol",
  "compiler": {
    "name": "solc",
    "version": "0.6.12+commit.27d51765.Emscripten.clang",
    "optimizer": false,
    "runs": 200
  },
  "schemaVersion": "2.3.5",
  "updatedAt": "2021-04-27T17:14:31.119Z"
}