{
  "contractName": "StakingRewardsFactory",
  "abi": [
    {
      "inputs": [
        {
          "internalType": "uint256",
          "name": "_stakingRewardsGenesis",
          "type": "uint256"
        }
      ],
      "stateMutability": "nonpayable",
      "type": "constructor"
    },
    {
      "anonymous": false,
      "inputs": [
        {
          "indexed": true,
          "internalType": "address",
          "name": "previousOwner",
          "type": "address"
        },
        {
          "indexed": true,
          "internalType": "address",
          "name": "newOwner",
          "type": "address"
        }
      ],
      "name": "OwnershipTransferred",
      "type": "event"
    },
    {
      "inputs": [],
      "name": "owner",
      "outputs": [
        {
          "internalType": "address",
          "name": "",
          "type": "address"
        }
      ],
      "stateMutability": "view",
      "type": "function"
    },
    {
      "inputs": [],
      "name": "renounceOwnership",
      "outputs": [],
      "stateMutability": "nonpayable",
      "type": "function"
    },
    {
      "inputs": [
        {
          "internalType": "address",
          "name": "",
          "type": "address"
        }
      ],
      "name": "stakingRewardsByStakingToken",
      "outputs": [
        {
          "internalType": "address",
          "name": "",
          "type": "address"
        }
      ],
      "stateMutability": "view",
      "type": "function"
    },
    {
      "inputs": [],
      "name": "stakingRewardsGenesis",
      "outputs": [
        {
          "internalType": "uint256",
          "name": "",
          "type": "uint256"
        }
      ],
      "stateMutability": "view",
      "type": "function"
    },
    {
      "inputs": [
        {
          "internalType": "uint256",
          "name": "",
          "type": "uint256"
        }
      ],
      "name": "stakingTokens",
      "outputs": [
        {
          "internalType": "address",
          "name": "",
          "type": "address"
        }
      ],
      "stateMutability": "view",
      "type": "function"
    },
    {
      "inputs": [
        {
          "internalType": "address",
          "name": "newOwner",
          "type": "address"
        }
      ],
      "name": "transferOwnership",
      "outputs": [],
      "stateMutability": "nonpayable",
      "type": "function"
    },
    {
      "inputs": [
        {
          "internalType": "address",
          "name": "_stakingToken",
          "type": "address"
        },
        {
          "internalType": "address[]",
          "name": "_rewardsTokens",
          "type": "address[]"
        },
        {
          "internalType": "uint256[]",
          "name": "_rewardsAmounts",
          "type": "uint256[]"
        },
        {
          "internalType": "uint256",
          "name": "_rewardsDuration",
          "type": "uint256"
        }
      ],
      "name": "deploy",
      "outputs": [],
      "stateMutability": "nonpayable",
      "type": "function"
    },
    {
      "inputs": [
        {
          "internalType": "address",
          "name": "stakingToken",
          "type": "address"
        },
        {
          "internalType": "address",
          "name": "extendRewardToken",
          "type": "address"
        },
        {
          "internalType": "uint256",
          "name": "extendRewardAmount",
          "type": "uint256"
        }
      ],
      "name": "extendRewardPeriod",
      "outputs": [],
      "stateMutability": "nonpayable",
      "type": "function"
    },
    {
      "inputs": [],
      "name": "startStakings",
      "outputs": [],
      "stateMutability": "nonpayable",
      "type": "function"
    },
    {
      "inputs": [
        {
          "internalType": "address",
          "name": "stakingRewards",
          "type": "address"
        }
      ],
      "name": "hasStakingStarted",
      "outputs": [
        {
          "internalType": "bool",
          "name": "",
          "type": "bool"
        }
      ],
      "stateMutability": "view",
      "type": "function"
    },
    {
      "inputs": [
        {
          "internalType": "address",
          "name": "stakingToken",
          "type": "address"
        }
      ],
      "name": "startStaking",
      "outputs": [],
      "stateMutability": "nonpayable",
      "type": "function"
    },
    {
      "inputs": [
        {
          "internalType": "address",
          "name": "stakingToken",
          "type": "address"
        },
        {
          "internalType": "address",
          "name": "recipient",
          "type": "address"
        },
        {
          "internalType": "address",
          "name": "lpTokenContract",
          "type": "address"
        }
      ],
      "name": "withdrawLPRewards",
      "outputs": [],
      "stateMutability": "nonpayable",
      "type": "function"
    }
  ],
  "bytecode": "0x608060405234801561001057600080fd5b5060405162005a6a38038062005a6a8339818101604052602081101561003557600080fd5b8101908080519060200190929190505050600061005661015b60201b60201c565b9050806000806101000a81548173ffffffffffffffffffffffffffffffffffffffff021916908373ffffffffffffffffffffffffffffffffffffffff1602179055508073ffffffffffffffffffffffffffffffffffffffff16600073ffffffffffffffffffffffffffffffffffffffff167f8be0079c531659141344cd1fd0a4f28419497f9722a3daafe3b4186f6b6457e060405160405180910390a3504281101561014e576040517f08c379a000000000000000000000000000000000000000000000000000000000815260040180806020018281038252603481526020018062005a366034913960400191505060405180910390fd5b8060018190555050610163565b600033905090565b6158c380620001736000396000f3fe60806040523480156200001157600080fd5b5060043610620000c45760003560e01c806384d938f2116200007b57806384d938f214620003215780638b21d95114620003925780638da5cb5b14620003d9578063a0928c11146200040f578063aaf5a58f146200042f578063f2fde38b14620004a057620000c4565b8063074115ad14620000c95780631ac6244914620001ca57806325ca128714620002275780632bb4e2691462000233578063344e5e3414620002ba578063715018a61462000315575b600080fd5b620001c860048036036080811015620000e157600080fd5b81019080803573ffffffffffffffffffffffffffffffffffffffff169060200190929190803590602001906401000000008111156200011f57600080fd5b8201836020820111156200013257600080fd5b803590602001918460208302840111640100000000831117156200015557600080fd5b9091929391929390803590602001906401000000008111156200017757600080fd5b8201836020820111156200018a57600080fd5b80359060200191846020830284011164010000000083111715620001ad57600080fd5b909192939192939080359060200190929190505050620004e7565b005b6200020f60048036036020811015620001e257600080fd5b81019080803573ffffffffffffffffffffffffffffffffffffffff16906020019092919050505062000a85565b60405180821515815260200191505060405180910390f35b6200023162000b12565b005b620002b8600480360360608110156200024b57600080fd5b81019080803573ffffffffffffffffffffffffffffffffffffffff169060200190929190803573ffffffffffffffffffffffffffffffffffffffff169060200190929190803573ffffffffffffffffffffffffffffffffffffffff16906020019092919050505062000bd8565b005b620002e960048036036020811015620002d257600080fd5b810190808035906020019092919050505062000e25565b604051808273ffffffffffffffffffffffffffffffffffffffff16815260200191505060405180910390f35b6200031f62000e62565b005b62000390600480360360608110156200033957600080fd5b81019080803573ffffffffffffffffffffffffffffffffffffffff169060200190929190803573ffffffffffffffffffffffffffffffffffffffff1690602001909291908035906020019092919050505062000fd4565b005b620003d760048036036020811015620003aa57600080fd5b81019080803573ffffffffffffffffffffffffffffffffffffffff16906020019092919050505062001422565b005b620003e362001900565b604051808273ffffffffffffffffffffffffffffffffffffffff16815260200191505060405180910390f35b6200041962001929565b6040518082815260200191505060405180910390f35b62000474600480360360208110156200044757600080fd5b81019080803573ffffffffffffffffffffffffffffffffffffffff1690602001909291905050506200192f565b604051808273ffffffffffffffffffffffffffffffffffffffff16815260200191505060405180910390f35b620004e560048036036020811015620004b857600080fd5b81019080803573ffffffffffffffffffffffffffffffffffffffff16906020019092919050505062001962565b005b620004f162001b5b565b73ffffffffffffffffffffffffffffffffffffffff166200051162001900565b73ffffffffffffffffffffffffffffffffffffffff16146200059b576040517f08c379a00000000000000000000000000000000000000000000000000000000081526004018080602001828103825260208152602001807f4f776e61626c653a2063616c6c6572206973206e6f7420746865206f776e657281525060200191505060405180910390fd5b600073ffffffffffffffffffffffffffffffffffffffff16600360008873ffffffffffffffffffffffffffffffffffffffff1673ffffffffffffffffffffffffffffffffffffffff16815260200190815260200160002060009054906101000a900473ffffffffffffffffffffffffffffffffffffffff1673ffffffffffffffffffffffffffffffffffffffff161462000681576040517f08c379a000000000000000000000000000000000000000000000000000000000815260040180806020018281038252602f81526020018062005693602f913960400191505060405180910390fd5b6000811415620006dd576040517f08c379a0000000000000000000000000000000000000000000000000000000008152600401808060200182810382526046815260200180620055a06046913960600191505060405180910390fd5b60008585905014156200073c576040517f08c379a00000000000000000000000000000000000000000000000000000000081526004018080602001828103825260598152602001806200545d6059913960600191505060405180910390fd5b8282905085859050146200079c576040517f08c379a000000000000000000000000000000000000000000000000000000000815260040180806020018281038252605c815260200180620057b3605c913960600191505060405180910390fd5b60005b85859050811015620008d957600073ffffffffffffffffffffffffffffffffffffffff16868683818110620007d057fe5b9050602002013573ffffffffffffffffffffffffffffffffffffffff1673ffffffffffffffffffffffffffffffffffffffff1614156200085c576040517f08c379a0000000000000000000000000000000000000000000000000000000008152600401808060200182810382526048815260200180620058466048913960600191505060405180910390fd5b60008484838181106200086b57fe5b905060200201351415620008cb576040517f08c379a000000000000000000000000000000000000000000000000000000000815260040180806020018281038252603f81526020018062005561603f913960400191505060405180910390fd5b80806001019150506200079f565b50848484848985604051620008ee9062001f9a565b8080602001806020018573ffffffffffffffffffffffffffffffffffffffff1681526020018481526020018381038352898982818152602001925060200280828437600081840152601f19601f8201169050808301925050508381038252878782818152602001925060200280828437600081840152601f19601f82011690508083019250505098505050505050505050604051809103906000f0801580156200099c573d6000803e3d6000fd5b50600360008873ffffffffffffffffffffffffffffffffffffffff1673ffffffffffffffffffffffffffffffffffffffff16815260200190815260200160002060006101000a81548173ffffffffffffffffffffffffffffffffffffffff021916908373ffffffffffffffffffffffffffffffffffffffff1602179055506002869080600181540180825580915050600190039060005260206000200160009091909190916101000a81548173ffffffffffffffffffffffffffffffffffffffff021916908373ffffffffffffffffffffffffffffffffffffffff160217905550505050505050565b60008173ffffffffffffffffffffffffffffffffffffffff16633c7df6496040518163ffffffff1660e01b815260040160206040518083038186803b15801562000ace57600080fd5b505afa15801562000ae3573d6000803e3d6000fd5b505050506040513d602081101562000afa57600080fd5b81019080805190602001909291905050509050919050565b6000600280549050141562000b73576040517f08c379a000000000000000000000000000000000000000000000000000000000815260040180806020018281038252603f815260200180620056c2603f913960400191505060405180910390fd5b60005b60028054905081101562000bd55762000bc76002828154811062000b9657fe5b9060005260206000200160009054906101000a900473ffffffffffffffffffffffffffffffffffffffff1662001422565b808060010191505062000b76565b50565b62000be262001b5b565b73ffffffffffffffffffffffffffffffffffffffff1662000c0262001900565b73ffffffffffffffffffffffffffffffffffffffff161462000c8c576040517f08c379a00000000000000000000000000000000000000000000000000000000081526004018080602001828103825260208152602001807f4f776e61626c653a2063616c6c6572206973206e6f7420746865206f776e657281525060200191505060405180910390fd5b6000600360008573ffffffffffffffffffffffffffffffffffffffff1673ffffffffffffffffffffffffffffffffffffffff16815260200190815260200160002060009054906101000a900473ffffffffffffffffffffffffffffffffffffffff169050600073ffffffffffffffffffffffffffffffffffffffff168173ffffffffffffffffffffffffffffffffffffffff16141562000d78576040517f08c379a0000000000000000000000000000000000000000000000000000000008152600401808060200182810382526031815260200180620054f86031913960400191505060405180910390fd5b60008190508073ffffffffffffffffffffffffffffffffffffffff1663a1002a0f85856040518363ffffffff1660e01b8152600401808373ffffffffffffffffffffffffffffffffffffffff1681526020018273ffffffffffffffffffffffffffffffffffffffff16815260200192505050600060405180830381600087803b15801562000e0557600080fd5b505af115801562000e1a573d6000803e3d6000fd5b505050505050505050565b6002818154811062000e3357fe5b906000526020600020016000915054906101000a900473ffffffffffffffffffffffffffffffffffffffff1681565b62000e6c62001b5b565b73ffffffffffffffffffffffffffffffffffffffff1662000e8c62001900565b73ffffffffffffffffffffffffffffffffffffffff161462000f16576040517f08c379a00000000000000000000000000000000000000000000000000000000081526004018080602001828103825260208152602001807f4f776e61626c653a2063616c6c6572206973206e6f7420746865206f776e657281525060200191505060405180910390fd5b600073ffffffffffffffffffffffffffffffffffffffff1660008054906101000a900473ffffffffffffffffffffffffffffffffffffffff1673ffffffffffffffffffffffffffffffffffffffff167f8be0079c531659141344cd1fd0a4f28419497f9722a3daafe3b4186f6b6457e060405160405180910390a360008060006101000a81548173ffffffffffffffffffffffffffffffffffffffff021916908373ffffffffffffffffffffffffffffffffffffffff160217905550565b62000fde62001b5b565b73ffffffffffffffffffffffffffffffffffffffff1662000ffe62001900565b73ffffffffffffffffffffffffffffffffffffffff161462001088576040517f08c379a00000000000000000000000000000000000000000000000000000000081526004018080602001828103825260208152602001807f4f776e61626c653a2063616c6c6572206973206e6f7420746865206f776e657281525060200191505060405180910390fd5b6000811415620010e4576040517f08c379a000000000000000000000000000000000000000000000000000000000815260040180806020018281038252604b8152602001806200561a604b913960600191505060405180910390fd5b6000600360008573ffffffffffffffffffffffffffffffffffffffff1673ffffffffffffffffffffffffffffffffffffffff16815260200190815260200160002060009054906101000a900473ffffffffffffffffffffffffffffffffffffffff169050600073ffffffffffffffffffffffffffffffffffffffff168173ffffffffffffffffffffffffffffffffffffffff161415620011d0576040517f08c379a00000000000000000000000000000000000000000000000000000000081526004018080602001828103825260378152602001806200580f6037913960400191505060405180910390fd5b620011db8162000a85565b62001232576040517f08c379a0000000000000000000000000000000000000000000000000000000008152600401808060200182810382526042815260200180620054b66042913960600191505060405180910390fd5b60008173ffffffffffffffffffffffffffffffffffffffff1663cba43fe6856040518263ffffffff1660e01b8152600401808273ffffffffffffffffffffffffffffffffffffffff16815260200191505060a06040518083038186803b1580156200129c57600080fd5b505afa158015620012b1573d6000803e3d6000fd5b505050506040513d60a0811015620012c857600080fd5b810190808051906020019092919080519060200190929190805190602001909291908051906020019092919080519060200190929190505050505050509050600081141562001363576040517f08c379a0000000000000000000000000000000000000000000000000000000008152600401808060200182810382526052815260200180620057016052913960600191505060405180910390fd5b6200139082848673ffffffffffffffffffffffffffffffffffffffff1662001b639092919063ffffffff16565b8173ffffffffffffffffffffffffffffffffffffffff1663a9fc507b85856040518363ffffffff1660e01b8152600401808373ffffffffffffffffffffffffffffffffffffffff16815260200182815260200192505050600060405180830381600087803b1580156200140257600080fd5b505af115801562001417573d6000803e3d6000fd5b505050505050505050565b6001544210156200147f576040517f08c379a000000000000000000000000000000000000000000000000000000000815260040180806020018281038252602e81526020018062005665602e913960400191505060405180910390fd5b6000600360008373ffffffffffffffffffffffffffffffffffffffff1673ffffffffffffffffffffffffffffffffffffffff16815260200190815260200160002060009054906101000a900473ffffffffffffffffffffffffffffffffffffffff1690506000819050600073ffffffffffffffffffffffffffffffffffffffff168273ffffffffffffffffffffffffffffffffffffffff16141562001570576040517f08c379a0000000000000000000000000000000000000000000000000000000008152600401808060200182810382526031815260200180620054f86031913960400191505060405180910390fd5b6200157b8262000a85565b15620015d3576040517f08c379a0000000000000000000000000000000000000000000000000000000008152600401808060200182810382526038815260200180620055296038913960400191505060405180910390fd5b60008173ffffffffffffffffffffffffffffffffffffffff1663d487393d6040518163ffffffff1660e01b815260040160206040518083038186803b1580156200161c57600080fd5b505afa15801562001631573d6000803e3d6000fd5b505050506040513d60208110156200164857600080fd5b8101908080519060200190929190505050905060005b8181101562001897578273ffffffffffffffffffffffffffffffffffffffff1663033050f2826040518263ffffffff1660e01b81526004018082815260200191505060206040518083038186803b158015620016b957600080fd5b505afa158015620016ce573d6000803e3d6000fd5b505050506040513d6020811015620016e557600080fd5b810190808051906020019092919050505073ffffffffffffffffffffffffffffffffffffffff1663a9059cbb858573ffffffffffffffffffffffffffffffffffffffff16632bb603eb856040518263ffffffff1660e01b81526004018082815260200191505060206040518083038186803b1580156200176457600080fd5b505afa15801562001779573d6000803e3d6000fd5b505050506040513d60208110156200179057600080fd5b81019080805190602001909291905050506040518363ffffffff1660e01b8152600401808373ffffffffffffffffffffffffffffffffffffffff16815260200182815260200192505050602060405180830381600087803b158015620017f557600080fd5b505af11580156200180a573d6000803e3d6000fd5b505050506040513d60208110156200182157600080fd5b810190808051906020019092919050505062001889576040517f08c379a0000000000000000000000000000000000000000000000000000000008152600401808060200182810382526034815260200180620055e66034913960400191505060405180910390fd5b80806001019150506200165e565b508173ffffffffffffffffffffffffffffffffffffffff1663be9a65556040518163ffffffff1660e01b8152600401600060405180830381600087803b158015620018e157600080fd5b505af1158015620018f6573d6000803e3d6000fd5b5050505050505050565b60008060009054906101000a900473ffffffffffffffffffffffffffffffffffffffff16905090565b60015481565b60036020528060005260406000206000915054906101000a900473ffffffffffffffffffffffffffffffffffffffff1681565b6200196c62001b5b565b73ffffffffffffffffffffffffffffffffffffffff166200198c62001900565b73ffffffffffffffffffffffffffffffffffffffff161462001a16576040517f08c379a00000000000000000000000000000000000000000000000000000000081526004018080602001828103825260208152602001807f4f776e61626c653a2063616c6c6572206973206e6f7420746865206f776e657281525060200191505060405180910390fd5b600073ffffffffffffffffffffffffffffffffffffffff168173ffffffffffffffffffffffffffffffffffffffff16141562001a9e576040517f08c379a0000000000000000000000000000000000000000000000000000000008152600401808060200182810382526026815260200180620054376026913960400191505060405180910390fd5b8073ffffffffffffffffffffffffffffffffffffffff1660008054906101000a900473ffffffffffffffffffffffffffffffffffffffff1673ffffffffffffffffffffffffffffffffffffffff167f8be0079c531659141344cd1fd0a4f28419497f9722a3daafe3b4186f6b6457e060405160405180910390a3806000806101000a81548173ffffffffffffffffffffffffffffffffffffffff021916908373ffffffffffffffffffffffffffffffffffffffff16021790555050565b600033905090565b600081148062001c35575060008373ffffffffffffffffffffffffffffffffffffffff1663dd62ed3e30856040518363ffffffff1660e01b8152600401808373ffffffffffffffffffffffffffffffffffffffff1681526020018273ffffffffffffffffffffffffffffffffffffffff1681526020019250505060206040518083038186803b15801562001bf657600080fd5b505afa15801562001c0b573d6000803e3d6000fd5b505050506040513d602081101562001c2257600080fd5b8101908080519060200190929190505050145b62001c8c576040517f08c379a00000000000000000000000000000000000000000000000000000000081526004018080602001828103825260368152602001806200577d6036913960400191505060405180910390fd5b62001d2b8363095ea7b360e01b8484604051602401808373ffffffffffffffffffffffffffffffffffffffff16815260200182815260200192505050604051602081830303815290604052907bffffffffffffffffffffffffffffffffffffffffffffffffffffffff19166020820180517bffffffffffffffffffffffffffffffffffffffffffffffffffffffff838183161783525050505062001d30565b505050565b62001d518273ffffffffffffffffffffffffffffffffffffffff1662001f87565b62001dc4576040517f08c379a000000000000000000000000000000000000000000000000000000000815260040180806020018281038252601f8152602001807f5361666545524332303a2063616c6c20746f206e6f6e2d636f6e74726163740081525060200191505060405180910390fd5b600060608373ffffffffffffffffffffffffffffffffffffffff16836040518082805190602001908083835b6020831062001e15578051825260208201915060208101905060208303925062001df0565b6001836020036101000a0380198251168184511680821785525050505050509050019150506000604051808303816000865af19150503d806000811462001e79576040519150601f19603f3d011682016040523d82523d6000602084013e62001e7e565b606091505b50915091508162001ef7576040517f08c379a00000000000000000000000000000000000000000000000000000000081526004018080602001828103825260208152602001807f5361666545524332303a206c6f772d6c6576656c2063616c6c206661696c656481525060200191505060405180910390fd5b60008151111562001f815780806020019051602081101562001f1857600080fd5b810190808051906020019092919050505062001f80576040517f08c379a000000000000000000000000000000000000000000000000000000000815260040180806020018281038252602a81526020018062005753602a913960400191505060405180910390fd5b5b50505050565b600080823b905060008111915050919050565b61348e8062001fa98339019056fe60806040523480156200001157600080fd5b506040516200348e3803806200348e833981810160405260808110156200003757600080fd5b81019080805160405193929190846401000000008211156200005857600080fd5b838201915060208201858111156200006f57600080fd5b82518660208202830111640100000000821117156200008d57600080fd5b8083526020830192505050908051906020019060200280838360005b83811015620000c6578082015181840152602081019050620000a9565b5050505090500160405260200180516040519392919084640100000000821115620000f057600080fd5b838201915060208201858111156200010757600080fd5b82518660208202830111640100000000821117156200012557600080fd5b8083526020830192505050908051906020019060200280838360005b838110156200015e57808201518184015260208101905062000141565b5050505090500160405260200180519060200190929190805190602001909291905050506001808190555060005b845181101562000257576040518060a00160405280600081526020016000815260200160008152602001600081526020018381525060056000878481518110620001d257fe5b602002602001015173ffffffffffffffffffffffffffffffffffffffff1673ffffffffffffffffffffffffffffffffffffffff168152602001908152602001600020600082015181600001556020820151816001015560408201518160020155606082015181600301556080820151816004015590505080806001019150506200018c565b5083600690805190602001906200027092919062000315565b50826007908051906020019062000289929190620003a4565b5081600260006101000a81548173ffffffffffffffffffffffffffffffffffffffff021916908373ffffffffffffffffffffffffffffffffffffffff160217905550336000806101000a81548173ffffffffffffffffffffffffffffffffffffffff021916908373ffffffffffffffffffffffffffffffffffffffff1602179055505050505062000452565b82805482825590600052602060002090810192821562000391579160200282015b82811115620003905782518260006101000a81548173ffffffffffffffffffffffffffffffffffffffff021916908373ffffffffffffffffffffffffffffffffffffffff1602179055509160200191906001019062000336565b5b509050620003a09190620003f6565b5090565b828054828255906000526020600020908101928215620003e3579160200282015b82811115620003e2578251825591602001919060010190620003c5565b5b509050620003f2919062000433565b5090565b5b808211156200042f57600081816101000a81549073ffffffffffffffffffffffffffffffffffffffff021916905550600101620003f7565b5090565b5b808211156200044e57600081600090555060010162000434565b5090565b61302c80620004626000396000f3fe608060405234801561001057600080fd5b50600436106101585760003560e01c80639fdb41bc116100c3578063cba43fe61161007c578063cba43fe614610631578063d487393d146106a5578063e2bcbb85146106c3578063e9fad8ee14610725578063ef12d0d81461072f578063f12297771461074d57610158565b80639fdb41bc14610477578063a1002a0f146104ef578063a694fc3a14610553578063a9fc507b14610581578063bcd11014146105cf578063be9a65551461062757610158565b80633f2a5540116101155780633f2a5540146102c7578063564fd910146102fb5780635ab764ed1461031b578063638634ee1461039357806370a08231146103eb57806372f702f31461044357610158565b8063033050f21461015d578063211dc32d146101b55780632bb603eb1461022d5780632e1a7d4d1461026f5780633c7df6491461029d5780633d18b912146102bd575b600080fd5b6101896004803603602081101561017357600080fd5b81019080803590602001909291905050506107a5565b604051808273ffffffffffffffffffffffffffffffffffffffff16815260200191505060405180910390f35b610217600480360360408110156101cb57600080fd5b81019080803573ffffffffffffffffffffffffffffffffffffffff169060200190929190803573ffffffffffffffffffffffffffffffffffffffff1690602001909291905050506107e1565b6040518082815260200191505060405180910390f35b6102596004803603602081101561024357600080fd5b81019080803590602001909291905050506109f4565b6040518082815260200191505060405180910390f35b61029b6004803603602081101561028557600080fd5b8101908080359060200190929190505050610a15565b005b6102a5610df3565b60405180821515815260200191505060405180910390f35b6102c5610ea9565b005b6102cf611290565b604051808273ffffffffffffffffffffffffffffffffffffffff16815260200191505060405180910390f35b6103036112b4565b60405180821515815260200191505060405180910390f35b61037d6004803603604081101561033157600080fd5b81019080803573ffffffffffffffffffffffffffffffffffffffff169060200190929190803573ffffffffffffffffffffffffffffffffffffffff16906020019092919050505061136a565b6040518082815260200191505060405180910390f35b6103d5600480360360208110156103a957600080fd5b81019080803573ffffffffffffffffffffffffffffffffffffffff1690602001909291905050506113f4565b6040518082815260200191505060405180910390f35b61042d6004803603602081101561040157600080fd5b81019080803573ffffffffffffffffffffffffffffffffffffffff169060200190929190505050611449565b6040518082815260200191505060405180910390f35b61044b611492565b604051808273ffffffffffffffffffffffffffffffffffffffff16815260200191505060405180910390f35b6104d96004803603604081101561048d57600080fd5b81019080803573ffffffffffffffffffffffffffffffffffffffff169060200190929190803573ffffffffffffffffffffffffffffffffffffffff1690602001909291905050506114b8565b6040518082815260200191505060405180910390f35b6105516004803603604081101561050557600080fd5b81019080803573ffffffffffffffffffffffffffffffffffffffff169060200190929190803573ffffffffffffffffffffffffffffffffffffffff169060200190929190505050611542565b005b61057f6004803603602081101561056957600080fd5b81019080803590602001909291905050506118bb565b005b6105cd6004803603604081101561059757600080fd5b81019080803573ffffffffffffffffffffffffffffffffffffffff16906020019092919080359060200190929190505050611c9b565b005b610611600480360360208110156105e557600080fd5b81019080803573ffffffffffffffffffffffffffffffffffffffff169060200190929190505050611ff4565b6040518082815260200191505060405180910390f35b61062f61205b565b005b6106736004803603602081101561064757600080fd5b81019080803573ffffffffffffffffffffffffffffffffffffffff1690602001909291905050506125bd565b604051808681526020018581526020018481526020018381526020018281526020019550505050505060405180910390f35b6106ad6125f3565b6040518082815260200191505060405180910390f35b61070f600480360360408110156106d957600080fd5b81019080803573ffffffffffffffffffffffffffffffffffffffff16906020019092919080359060200190929190505050612600565b6040518082815260200191505060405180910390f35b61072d612739565b005b61073761278b565b6040518082815260200191505060405180910390f35b61078f6004803603602081101561076357600080fd5b81019080803573ffffffffffffffffffffffffffffffffffffffff169060200190929190505050612795565b6040518082815260200191505060405180910390f35b600681815481106107b257fe5b906000526020600020016000915054906101000a900473ffffffffffffffffffffffffffffffffffffffff1681565b600080600560008473ffffffffffffffffffffffffffffffffffffffff1673ffffffffffffffffffffffffffffffffffffffff168152602001908152602001600020905060006108838260050160008773ffffffffffffffffffffffffffffffffffffffff1673ffffffffffffffffffffffffffffffffffffffff1681526020019081526020016000205461087586612795565b61291f90919063ffffffff16565b90506000610993600260009054906101000a900473ffffffffffffffffffffffffffffffffffffffff1673ffffffffffffffffffffffffffffffffffffffff1663313ce5676040518163ffffffff1660e01b815260040160206040518083038186803b1580156108f257600080fd5b505afa158015610906573d6000803e3d6000fd5b505050506040513d602081101561091c57600080fd5b810190808051906020019092919050505060ff16600a0a61098584600460008b73ffffffffffffffffffffffffffffffffffffffff1673ffffffffffffffffffffffffffffffffffffffff168152602001908152602001600020546129a290919063ffffffff16565b612a2890919063ffffffff16565b90506109e9818460060160008973ffffffffffffffffffffffffffffffffffffffff1673ffffffffffffffffffffffffffffffffffffffff16815260200190815260200160002054612ab190919063ffffffff16565b935050505092915050565b60078181548110610a0157fe5b906000526020600020016000915090505481565b60026001541415610a8e576040517f08c379a000000000000000000000000000000000000000000000000000000000815260040180806020018281038252601f8152602001807f5265656e7472616e637947756172643a207265656e7472616e742063616c6c0081525060200191505060405180910390fd5b60026001819055503360005b600680549050811015610c2557600060068281548110610ab657fe5b9060005260206000200160009054906101000a900473ffffffffffffffffffffffffffffffffffffffff1690506000600560008373ffffffffffffffffffffffffffffffffffffffff1673ffffffffffffffffffffffffffffffffffffffff1681526020019081526020016000209050610b2f82612795565b8160010181905550610b40826113f4565b8160030181905550600073ffffffffffffffffffffffffffffffffffffffff168473ffffffffffffffffffffffffffffffffffffffff1614610c1657610b8684836107e1565b8160060160008673ffffffffffffffffffffffffffffffffffffffff1673ffffffffffffffffffffffffffffffffffffffff1681526020019081526020016000208190555080600101548160050160008673ffffffffffffffffffffffffffffffffffffffff1673ffffffffffffffffffffffffffffffffffffffff168152602001908152602001600020819055505b50508080600101915050610a9a565b506000821415610c9d576040517f08c379a00000000000000000000000000000000000000000000000000000000081526004018080602001828103825260118152602001807f43616e6e6f74207769746864726177203000000000000000000000000000000081525060200191505060405180910390fd5b610cb28260035461291f90919063ffffffff16565b600381905550610d0a82600460003373ffffffffffffffffffffffffffffffffffffffff1673ffffffffffffffffffffffffffffffffffffffff1681526020019081526020016000205461291f90919063ffffffff16565b600460003373ffffffffffffffffffffffffffffffffffffffff1673ffffffffffffffffffffffffffffffffffffffff16815260200190815260200160002081905550610d9a3383600260009054906101000a900473ffffffffffffffffffffffffffffffffffffffff1673ffffffffffffffffffffffffffffffffffffffff16612b399092919063ffffffff16565b3373ffffffffffffffffffffffffffffffffffffffff167f7084f5476618d8e60b11ef0d7d3f06914655adb8793e28ff7f018d4c76d505d5836040518082815260200191505060405180910390a2506001808190555050565b600080600090505b600680549050811015610ea05760006005600060068481548110610e1b57fe5b9060005260206000200160009054906101000a900473ffffffffffffffffffffffffffffffffffffffff1673ffffffffffffffffffffffffffffffffffffffff1673ffffffffffffffffffffffffffffffffffffffff1681526020019081526020016000206002015414610e93576001915050610ea6565b8080600101915050610dfb565b50600090505b90565b60026001541415610f22576040517f08c379a000000000000000000000000000000000000000000000000000000000815260040180806020018281038252601f8152602001807f5265656e7472616e637947756172643a207265656e7472616e742063616c6c0081525060200191505060405180910390fd5b60026001819055503360005b6006805490508110156110b957600060068281548110610f4a57fe5b9060005260206000200160009054906101000a900473ffffffffffffffffffffffffffffffffffffffff1690506000600560008373ffffffffffffffffffffffffffffffffffffffff1673ffffffffffffffffffffffffffffffffffffffff1681526020019081526020016000209050610fc382612795565b8160010181905550610fd4826113f4565b8160030181905550600073ffffffffffffffffffffffffffffffffffffffff168473ffffffffffffffffffffffffffffffffffffffff16146110aa5761101a84836107e1565b8160060160008673ffffffffffffffffffffffffffffffffffffffff1673ffffffffffffffffffffffffffffffffffffffff1681526020019081526020016000208190555080600101548160050160008673ffffffffffffffffffffffffffffffffffffffff1673ffffffffffffffffffffffffffffffffffffffff168152602001908152602001600020819055505b50508080600101915050610f2e565b506000600680549050905060005b81811015611284576000600682815481106110de57fe5b9060005260206000200160009054906101000a900473ffffffffffffffffffffffffffffffffffffffff1690506000600560008373ffffffffffffffffffffffffffffffffffffffff1673ffffffffffffffffffffffffffffffffffffffff168152602001908152602001600020905060008160060160003373ffffffffffffffffffffffffffffffffffffffff1673ffffffffffffffffffffffffffffffffffffffff168152602001908152602001600020549050600081146112745760008260060160003373ffffffffffffffffffffffffffffffffffffffff1673ffffffffffffffffffffffffffffffffffffffff1681526020019081526020016000208190555061120e33828573ffffffffffffffffffffffffffffffffffffffff16612b399092919063ffffffff16565b8273ffffffffffffffffffffffffffffffffffffffff163373ffffffffffffffffffffffffffffffffffffffff167f540798df468d7b23d11f156fdb954cb19ad414d150722a7b6d55ba369dea792e836040518082815260200191505060405180910390a35b50505080806001019150506110c7565b50505060018081905550565b60008054906101000a900473ffffffffffffffffffffffffffffffffffffffff1681565b600080600090505b6006805490508110156113615760056000600683815481106112da57fe5b9060005260206000200160009054906101000a900473ffffffffffffffffffffffffffffffffffffffff1673ffffffffffffffffffffffffffffffffffffffff1673ffffffffffffffffffffffffffffffffffffffff16815260200190815260200160002060020154421015611354576000915050611367565b80806001019150506112bc565b50600190505b90565b6000600560008473ffffffffffffffffffffffffffffffffffffffff1673ffffffffffffffffffffffffffffffffffffffff16815260200190815260200160002060060160008373ffffffffffffffffffffffffffffffffffffffff1673ffffffffffffffffffffffffffffffffffffffff16815260200190815260200160002054905092915050565b600061144242600560008573ffffffffffffffffffffffffffffffffffffffff1673ffffffffffffffffffffffffffffffffffffffff16815260200190815260200160002060020154612bdb565b9050919050565b6000600460008373ffffffffffffffffffffffffffffffffffffffff1673ffffffffffffffffffffffffffffffffffffffff168152602001908152602001600020549050919050565b600260009054906101000a900473ffffffffffffffffffffffffffffffffffffffff1681565b6000600560008473ffffffffffffffffffffffffffffffffffffffff1673ffffffffffffffffffffffffffffffffffffffff16815260200190815260200160002060050160008373ffffffffffffffffffffffffffffffffffffffff1673ffffffffffffffffffffffffffffffffffffffff16815260200190815260200160002054905092915050565b600260015414156115bb576040517f08c379a000000000000000000000000000000000000000000000000000000000815260040180806020018281038252601f8152602001807f5265656e7472616e637947756172643a207265656e7472616e742063616c6c0081525060200191505060405180910390fd5b600260018190555060008054906101000a900473ffffffffffffffffffffffffffffffffffffffff1673ffffffffffffffffffffffffffffffffffffffff163373ffffffffffffffffffffffffffffffffffffffff1614611667576040517f08c379a000000000000000000000000000000000000000000000000000000000815260040180806020018281038252602a815260200180612f58602a913960400191505060405180910390fd5b60008173ffffffffffffffffffffffffffffffffffffffff166370a08231306040518263ffffffff1660e01b8152600401808273ffffffffffffffffffffffffffffffffffffffff16815260200191505060206040518083038186803b1580156116d057600080fd5b505afa1580156116e4573d6000803e3d6000fd5b505050506040513d60208110156116fa57600080fd5b8101908080519060200190929190505050905060008111611766576040517f08c379a0000000000000000000000000000000000000000000000000000000008152600401808060200182810382526029815260200180612f826029913960400191505060405180910390fd5b60005b60068054905081101561183f576006818154811061178357fe5b9060005260206000200160009054906101000a900473ffffffffffffffffffffffffffffffffffffffff1673ffffffffffffffffffffffffffffffffffffffff168373ffffffffffffffffffffffffffffffffffffffff161415611832576040517f08c379a0000000000000000000000000000000000000000000000000000000008152600401808060200182810382526022815260200180612fd56022913960400191505060405180910390fd5b8080600101915050611769565b5061186b83828473ffffffffffffffffffffffffffffffffffffffff16612b399092919063ffffffff16565b8273ffffffffffffffffffffffffffffffffffffffff16817fdf1b625465761dd1a4330a9b3a21d4943183f301036528a3544f8d891fdce2c260405160405180910390a350600180819055505050565b60026001541415611934576040517f08c379a000000000000000000000000000000000000000000000000000000000815260040180806020018281038252601f8152602001807f5265656e7472616e637947756172643a207265656e7472616e742063616c6c0081525060200191505060405180910390fd5b60026001819055503360005b600680549050811015611acb5760006006828154811061195c57fe5b9060005260206000200160009054906101000a900473ffffffffffffffffffffffffffffffffffffffff1690506000600560008373ffffffffffffffffffffffffffffffffffffffff1673ffffffffffffffffffffffffffffffffffffffff16815260200190815260200160002090506119d582612795565b81600101819055506119e6826113f4565b8160030181905550600073ffffffffffffffffffffffffffffffffffffffff168473ffffffffffffffffffffffffffffffffffffffff1614611abc57611a2c84836107e1565b8160060160008673ffffffffffffffffffffffffffffffffffffffff1673ffffffffffffffffffffffffffffffffffffffff1681526020019081526020016000208190555080600101548160050160008673ffffffffffffffffffffffffffffffffffffffff1673ffffffffffffffffffffffffffffffffffffffff168152602001908152602001600020819055505b50508080600101915050611940565b506000821415611b43576040517f08c379a000000000000000000000000000000000000000000000000000000000815260040180806020018281038252600e8152602001807f43616e6e6f74207374616b65203000000000000000000000000000000000000081525060200191505060405180910390fd5b611b5882600354612ab190919063ffffffff16565b600381905550611bb082600460003373ffffffffffffffffffffffffffffffffffffffff1673ffffffffffffffffffffffffffffffffffffffff16815260200190815260200160002054612ab190919063ffffffff16565b600460003373ffffffffffffffffffffffffffffffffffffffff1673ffffffffffffffffffffffffffffffffffffffff16815260200190815260200160002081905550611c42333084600260009054906101000a900473ffffffffffffffffffffffffffffffffffffffff1673ffffffffffffffffffffffffffffffffffffffff16612bf4909392919063ffffffff16565b3373ffffffffffffffffffffffffffffffffffffffff167f9e71bc8eea02a63969f509818f2dafb9254532904319f9dbda79b67bd34a5f3d836040518082815260200191505060405180910390a2506001808190555050565b600080600090505b600680549050811015611e2e57600060068281548110611cbf57fe5b9060005260206000200160009054906101000a900473ffffffffffffffffffffffffffffffffffffffff1690506000600560008373ffffffffffffffffffffffffffffffffffffffff1673ffffffffffffffffffffffffffffffffffffffff1681526020019081526020016000209050611d3882612795565b8160010181905550611d49826113f4565b8160030181905550600073ffffffffffffffffffffffffffffffffffffffff168473ffffffffffffffffffffffffffffffffffffffff1614611e1f57611d8f84836107e1565b8160060160008673ffffffffffffffffffffffffffffffffffffffff1673ffffffffffffffffffffffffffffffffffffffff1681526020019081526020016000208190555080600101548160050160008673ffffffffffffffffffffffffffffffffffffffff1673ffffffffffffffffffffffffffffffffffffffff168152602001908152602001600020819055505b50508080600101915050611ca3565b5060008054906101000a900473ffffffffffffffffffffffffffffffffffffffff1673ffffffffffffffffffffffffffffffffffffffff163373ffffffffffffffffffffffffffffffffffffffff1614611ed3576040517f08c379a000000000000000000000000000000000000000000000000000000000815260040180806020018281038252602a815260200180612f58602a913960400191505060405180910390fd5b6000611edf8484612600565b9050611f0e3330858773ffffffffffffffffffffffffffffffffffffffff16612bf4909392919063ffffffff16565b6000600560008673ffffffffffffffffffffffffffffffffffffffff1673ffffffffffffffffffffffffffffffffffffffff1681526020019081526020016000209050611f68828260020154612ab190919063ffffffff16565b8160020181905550611f87828260040154612ab190919063ffffffff16565b81600401819055508473ffffffffffffffffffffffffffffffffffffffff167fce08a79bf02087a6d982e6a2df78836772baa4c16c084eae230ab65fe75cd7ad85428560405180848152602001838152602001828152602001935050505060405180910390a25050505050565b600080600560008473ffffffffffffffffffffffffffffffffffffffff1673ffffffffffffffffffffffffffffffffffffffff1681526020019081526020016000209050612053816004015482600001546129a290919063ffffffff16565b915050919050565b60008054906101000a900473ffffffffffffffffffffffffffffffffffffffff1673ffffffffffffffffffffffffffffffffffffffff163373ffffffffffffffffffffffffffffffffffffffff16146120ff576040517f08c379a000000000000000000000000000000000000000000000000000000000815260040180806020018281038252602a815260200180612f58602a913960400191505060405180910390fd5b600080600090505b6006805490508110156122925760006006828154811061212357fe5b9060005260206000200160009054906101000a900473ffffffffffffffffffffffffffffffffffffffff1690506000600560008373ffffffffffffffffffffffffffffffffffffffff1673ffffffffffffffffffffffffffffffffffffffff168152602001908152602001600020905061219c82612795565b81600101819055506121ad826113f4565b8160030181905550600073ffffffffffffffffffffffffffffffffffffffff168473ffffffffffffffffffffffffffffffffffffffff1614612283576121f384836107e1565b8160060160008673ffffffffffffffffffffffffffffffffffffffff1673ffffffffffffffffffffffffffffffffffffffff1681526020019081526020016000208190555080600101548160050160008673ffffffffffffffffffffffffffffffffffffffff1673ffffffffffffffffffffffffffffffffffffffff168152602001908152602001600020819055505b50508080600101915050612107565b5060005b6006805490508110156124c6576000600682815481106122b257fe5b9060005260206000200160009054906101000a900473ffffffffffffffffffffffffffffffffffffffff1690506000600560008373ffffffffffffffffffffffffffffffffffffffff1673ffffffffffffffffffffffffffffffffffffffff168152602001908152602001600020905061235081600401546007858154811061233757fe5b9060005260206000200154612a2890919063ffffffff16565b816000018190555060008273ffffffffffffffffffffffffffffffffffffffff166370a08231306040518263ffffffff1660e01b8152600401808273ffffffffffffffffffffffffffffffffffffffff16815260200191505060206040518083038186803b1580156123c157600080fd5b505afa1580156123d5573d6000803e3d6000fd5b505050506040513d60208110156123eb57600080fd5b81019080805190602001909291905050509050612415826004015482612a2890919063ffffffff16565b8260000154111561248e576040517f08c379a00000000000000000000000000000000000000000000000000000000081526004018080602001828103825260188152602001807f50726f76696465642072657761726420746f6f2068696768000000000000000081525060200191505060405180910390fd5b4282600301819055506124ae826004015442612ab190919063ffffffff16565b82600201819055505050508080600101915050612296565b507fa00d0d3f3be42a1502ce5722ccd702e27f4ea7059865db2087238a8bc541025360066007604051808060200180602001838103835285818154815260200191508054801561256b57602002820191906000526020600020905b8160009054906101000a900473ffffffffffffffffffffffffffffffffffffffff1673ffffffffffffffffffffffffffffffffffffffff1681526020019060010190808311612521575b505083810382528481815481526020019150805480156125aa57602002820191906000526020600020905b815481526020019060010190808311612596575b505094505050505060405180910390a150565b60056020528060005260406000206000915090508060000154908060010154908060020154908060030154908060040154905085565b6000600680549050905090565b60008082141561265b576040517f08c379a0000000000000000000000000000000000000000000000000000000008152600401808060200182810382526023815260200180612f146023913960400191505060405180910390fd5b6000600560008573ffffffffffffffffffffffffffffffffffffffff1673ffffffffffffffffffffffffffffffffffffffff1681526020019081526020016000209050600081600001541415612719576040517f08c379a000000000000000000000000000000000000000000000000000000000815260040180806020018281038252601a8152602001807f5374616b696e67206973206e6f7420796574207374617274656400000000000081525060200191505060405180910390fd5b612730816000015484612a2890919063ffffffff16565b91505092915050565b612781600460003373ffffffffffffffffffffffffffffffffffffffff1673ffffffffffffffffffffffffffffffffffffffff16815260200190815260200160002054610a15565b612789610ea9565b565b6000600354905090565b600080600560008473ffffffffffffffffffffffffffffffffffffffff1673ffffffffffffffffffffffffffffffffffffffff1681526020019081526020016000209050600060035414156127f157806001015491505061291a565b60006128128260030154612804866113f4565b61291f90919063ffffffff16565b905060006128fb6003546128ed600260009054906101000a900473ffffffffffffffffffffffffffffffffffffffff1673ffffffffffffffffffffffffffffffffffffffff1663313ce5676040518163ffffffff1660e01b815260040160206040518083038186803b15801561288757600080fd5b505afa15801561289b573d6000803e3d6000fd5b505050506040513d60208110156128b157600080fd5b810190808051906020019092919050505060ff16600a0a6128df8760000154876129a290919063ffffffff16565b6129a290919063ffffffff16565b612a2890919063ffffffff16565b9050612914818460010154612ab190919063ffffffff16565b93505050505b919050565b600082821115612997576040517f08c379a000000000000000000000000000000000000000000000000000000000815260040180806020018281038252601e8152602001807f536166654d6174683a207375627472616374696f6e206f766572666c6f77000081525060200191505060405180910390fd5b818303905092915050565b6000808314156129b55760009050612a22565b60008284029050828482816129c657fe5b0414612a1d576040517f08c379a0000000000000000000000000000000000000000000000000000000008152600401808060200182810382526021815260200180612f376021913960400191505060405180910390fd5b809150505b92915050565b6000808211612a9f576040517f08c379a000000000000000000000000000000000000000000000000000000000815260040180806020018281038252601a8152602001807f536166654d6174683a206469766973696f6e206279207a65726f00000000000081525060200191505060405180910390fd5b818381612aa857fe5b04905092915050565b600080828401905083811015612b2f576040517f08c379a000000000000000000000000000000000000000000000000000000000815260040180806020018281038252601b8152602001807f536166654d6174683a206164646974696f6e206f766572666c6f77000000000081525060200191505060405180910390fd5b8091505092915050565b612bd68363a9059cbb60e01b8484604051602401808373ffffffffffffffffffffffffffffffffffffffff16815260200182815260200192505050604051602081830303815290604052907bffffffffffffffffffffffffffffffffffffffffffffffffffffffff19166020820180517bffffffffffffffffffffffffffffffffffffffffffffffffffffffff8381831617835250505050612cb5565b505050565b6000818310612bea5781612bec565b825b905092915050565b612caf846323b872dd60e01b858585604051602401808473ffffffffffffffffffffffffffffffffffffffff1681526020018373ffffffffffffffffffffffffffffffffffffffff1681526020018281526020019350505050604051602081830303815290604052907bffffffffffffffffffffffffffffffffffffffffffffffffffffffff19166020820180517bffffffffffffffffffffffffffffffffffffffffffffffffffffffff8381831617835250505050612cb5565b50505050565b612cd48273ffffffffffffffffffffffffffffffffffffffff16612f00565b612d46576040517f08c379a000000000000000000000000000000000000000000000000000000000815260040180806020018281038252601f8152602001807f5361666545524332303a2063616c6c20746f206e6f6e2d636f6e74726163740081525060200191505060405180910390fd5b600060608373ffffffffffffffffffffffffffffffffffffffff16836040518082805190602001908083835b60208310612d955780518252602082019150602081019050602083039250612d72565b6001836020036101000a0380198251168184511680821785525050505050509050019150506000604051808303816000865af19150503d8060008114612df7576040519150601f19603f3d011682016040523d82523d6000602084013e612dfc565b606091505b509150915081612e74576040517f08c379a00000000000000000000000000000000000000000000000000000000081526004018080602001828103825260208152602001807f5361666545524332303a206c6f772d6c6576656c2063616c6c206661696c656481525060200191505060405180910390fd5b600081511115612efa57808060200190516020811015612e9357600080fd5b8101908080519060200190929190505050612ef9576040517f08c379a000000000000000000000000000000000000000000000000000000000815260040180806020018281038252602a815260200180612fab602a913960400191505060405180910390fd5b5b50505050565b600080823b90506000811191505091905056fe526577617264732073686f756c642062652067726561746572207468616e207a65726f536166654d6174683a206d756c7469706c69636174696f6e206f766572666c6f7743616c6c6572206973206e6f742052657761726473446973747269627574696f6e20636f6e7472616374546865726520617265206e6f20726577617264732066726f6d206c697175696469747920706f6f6c735361666545524332303a204552433230206f7065726174696f6e20646964206e6f74207375636365656443616e6e6f742077697468647261772066726f6d20746f6b656e2072657761726473a264697066735822122039d7dd4b45300fe9a59f17bc0fe4684ba1ccb60618a6d3dbd833dddbf0dd79de64736f6c634300060c00334f776e61626c653a206e6577206f776e657220697320746865207a65726f20616464726573735374616b696e6752657761726473466163746f72793a3a6465706c6f793a2052657761726473546f6b656e7320616e642052657761726473416d6f756e74732061727261797320636f756c64206e6f7420626520656d7074795374616b696e6752657761726473466163746f72793a3a657874656e64526577617264506572696f643a205374616b696e6720686173206e6f7420737461727465645374616b696e6752657761726473466163746f72793a3a73746172745374616b696e673a206e6f74206465706c6f7965645374616b696e6752657761726473466163746f72793a3a73746172745374616b696e673a205374616b696e672068617320737461727465645374616b696e6752657761726473466163746f72793a3a6465706c6f793a20526577617264206d7573742062652067726561746572207468616e207a65726f5374616b696e6752657761726473466163746f72793a3a6465706c6f793a546865204475726174696f6e2073686f756c642062652067726561746572207468616e207a65726f5374616b696e6752657761726473466163746f72793a3a73746172745374616b696e673a207472616e73666572206661696c65645374616b696e6752657761726473466163746f72793a3a657874656e64526577617264506572696f643a20526577617264206d7573742062652067726561746572207468616e207a65726f5374616b696e6752657761726473466163746f72793a3a73746172745374616b696e673a206e6f742072656164795374616b696e6752657761726473466163746f72793a3a6465706c6f793a20616c7265616479206465706c6f7965645374616b696e6752657761726473466163746f72793a3a73746172745374616b696e67733a2063616c6c6564206265666f726520616e79206465706c6f79735374616b696e6752657761726473466163746f72793a3a657874656e64526577617264506572696f643a20546f6b656e20666f7220657874656e64696e6720726577617264206973206e6f74206b6e6f776e5361666545524332303a204552433230206f7065726174696f6e20646964206e6f7420737563636565645361666545524332303a20617070726f76652066726f6d206e6f6e2d7a65726f20746f206e6f6e2d7a65726f20616c6c6f77616e63655374616b696e6752657761726473466163746f72793a3a6465706c6f793a2052657761726473546f6b656e7320616e642052657761726473416d6f756e74732073686f756c6420686176652061206d61746368696e672073697a65735374616b696e6752657761726473466163746f72793a3a657874656e64526577617264506572696f643a206e6f74206465706c6f7965645374616b696e6752657761726473466163746f72793a3a6465706c6f793a2052657761726420746f6b656e206164647265737320636f756c64206e6f7420626520696e76616c6964a2646970667358221220ce2d17c273b69fcc65fa49382048af76d2461b8a8a3ebfefc4e7d994707a208f64736f6c634300060c00335374616b696e6752657761726473466163746f72793a3a636f6e7374727563746f723a2067656e6573697320746f6f20736f6f6e",
  "source": "// SPDX-License-Identifier: MIT\npragma solidity 0.6.12;\n\nimport \"openzeppelin-solidity/contracts/access/Ownable.sol\";\nimport \"./StakingRewards.sol\";\n\ncontract StakingRewardsFactory is Ownable {\n    using SafeERC20Detailed for IERC20Detailed;\n\n    uint256 public stakingRewardsGenesis;\n\n    /** @dev the staking tokens for which the rewards contract has been deployed\n     */\n    address[] public stakingTokens;\n\n    /** @dev Mapping holding information about a particular Staking Rewards Contract Address by Staking Token\n     */\n    mapping(address => address) public stakingRewardsByStakingToken;\n\n    /* ========== CONSTRUCTOR ========== */\n\n    /** @dev Function called once on deployment time\n     * @param _stakingRewardsGenesis Timestamp after which the staking can start\n     */\n    constructor(uint256 _stakingRewardsGenesis) public {\n        require(\n            _stakingRewardsGenesis >= block.timestamp,\n            \"StakingRewardsFactory::constructor: genesis too soon\"\n        );\n\n        stakingRewardsGenesis = _stakingRewardsGenesis;\n    }\n\n    /* ========== Permissioned FUNCTIONS ========== */\n\n    /** @dev Deploy a staking reward contract for the staking token, and store the reward amount,the reward will be distributed to the staking reward contract no sooner than the genesis\n     * @param _stakingToken The address of the token being staked\n     * @param _rewardsTokens The addresses of the tokens the rewards will be paid in\n     * @param _rewardsAmounts The reward amounts\n     * @param _rewardsDuration Rewards duration in seconds\n     */\n    function deploy(\n        address _stakingToken,\n        address[] calldata _rewardsTokens,\n        uint256[] calldata _rewardsAmounts,\n        uint256 _rewardsDuration\n    ) external onlyOwner {\n        require(\n            stakingRewardsByStakingToken[_stakingToken] == address(0),\n            \"StakingRewardsFactory::deploy: already deployed\"\n        );\n        require(\n            _rewardsDuration != 0,\n            \"StakingRewardsFactory::deploy:The Duration should be greater than zero\"\n        );\n        require(\n            _rewardsTokens.length != 0,\n            \"StakingRewardsFactory::deploy: RewardsTokens and RewardsAmounts arrays could not be empty\"\n        );\n        require(\n            _rewardsTokens.length == _rewardsAmounts.length,\n            \"StakingRewardsFactory::deploy: RewardsTokens and RewardsAmounts should have a matching sizes\"\n        );\n\n        for (uint256 i = 0; i < _rewardsTokens.length; i++) {\n            require(\n                _rewardsTokens[i] != address(0),\n                \"StakingRewardsFactory::deploy: Reward token address could not be invalid\"\n            );\n            require(\n                _rewardsAmounts[i] != 0,\n                \"StakingRewardsFactory::deploy: Reward must be greater than zero\"\n            );\n        }\n\n        stakingRewardsByStakingToken[_stakingToken] = address(\n            new StakingRewards(\n                _rewardsTokens,\n                _rewardsAmounts,\n                _stakingToken,\n                _rewardsDuration\n            )\n        );\n\n        stakingTokens.push(_stakingToken);\n    }\n\n    /** @dev Function that will extend the rewards period, but not change the reward rate, for a given staking contract.\n     * @param stakingToken The address of the token being staked\n     * @param extendRewardToken The address of the token the rewards will be paid in\n     * @param extendRewardAmount The additional reward amount\n     */\n    function extendRewardPeriod(\n        address stakingToken,\n        address extendRewardToken,\n        uint256 extendRewardAmount\n    ) external onlyOwner {\n        require(\n            extendRewardAmount != 0,\n            \"StakingRewardsFactory::extendRewardPeriod: Reward must be greater than zero\"\n        );\n\n        address sr = stakingRewardsByStakingToken[stakingToken]; // StakingRewards\n\n        require(\n            sr != address(0),\n            \"StakingRewardsFactory::extendRewardPeriod: not deployed\"\n        );\n        require(\n            hasStakingStarted(sr),\n            \"StakingRewardsFactory::extendRewardPeriod: Staking has not started\"\n        );\n\n        (uint256 rate, , , , ) =\n            StakingRewards(sr).rewardsTokensMap(extendRewardToken);\n\n        require(\n            rate != 0,\n            \"StakingRewardsFactory::extendRewardPeriod: Token for extending reward is not known\"\n        ); // its expected that valid token should have a valid rate\n\n        IERC20Detailed(extendRewardToken).safeApprove(sr, extendRewardAmount);\n        StakingRewards(sr).addRewards(extendRewardToken, extendRewardAmount);\n    }\n\n    /* ========== Permissionless FUNCTIONS ========== */\n\n    /** @dev Calls startStakings for all staking tokens.\n     */\n    function startStakings() external {\n        require(\n            stakingTokens.length != 0,\n            \"StakingRewardsFactory::startStakings: called before any deploys\"\n        );\n\n        for (uint256 i = 0; i < stakingTokens.length; i++) {\n            startStaking(stakingTokens[i]);\n        }\n    }\n\n    /** @dev Function to determine whether the staking and rewards distribution has stared for a given StakingRewards contract\n     * @param stakingRewards The address of the staking rewards contract\n     */\n    function hasStakingStarted(address stakingRewards)\n        public\n        view\n        returns (bool)\n    {\n        return StakingRewards(stakingRewards).hasPeriodStarted();\n    }\n\n    /** @dev Starts the staking and rewards distribution for a given staking token. This is a fallback in case the startStakings() costs too much gas to call for all contracts\n     * @param stakingToken The address of the token being staked\n     */\n    function startStaking(address stakingToken) public {\n        require(\n            block.timestamp >= stakingRewardsGenesis,\n            \"StakingRewardsFactory::startStaking: not ready\"\n        );\n\n        address sr = stakingRewardsByStakingToken[stakingToken]; // StakingRewards\n\n        StakingRewards srInstance = StakingRewards(sr);\n        require(\n            sr != address(0),\n            \"StakingRewardsFactory::startStaking: not deployed\"\n        );\n        require(\n            !hasStakingStarted(sr),\n            \"StakingRewardsFactory::startStaking: Staking has started\"\n        );\n\n        uint256 rtsSize = srInstance.getRewardsTokensCount();\n        for (uint256 i = 0; i < rtsSize; i++) {\n            require(\n                IERC20Detailed(srInstance.rewardsTokensArr(i)).transfer(\n                    sr,\n                    srInstance.rewardsAmountsArr(i)\n                ),\n                \"StakingRewardsFactory::startStaking: transfer failed\"\n            );\n        }\n\n        srInstance.start();\n    }\n\n    /** @dev Triggers the withdrawal of LP rewards from the staking rewards contract to the given recipient address\n     * @param stakingToken The address of the token being staked\n     * @param recipient The address to whom the rewards will be trasferred\n     * @param lpTokenContract The address of the rewards contract\n     */\n    function withdrawLPRewards(\n        address stakingToken,\n        address recipient,\n        address lpTokenContract\n    ) external onlyOwner {\n        address sr = stakingRewardsByStakingToken[stakingToken]; // StakingRewards\n\n        require(\n            sr != address(0),\n            \"StakingRewardsFactory::startStaking: not deployed\"\n        );\n        StakingRewards srInstance = StakingRewards(sr);\n        srInstance.withdrawLPRewards(recipient, lpTokenContract);\n    }\n}\n",
  "sourcePath": "/home/hellowodl/lmaas-liquidity-staker/contracts/V1/StakingRewardsFactory.sol",
  "compiler": {
    "name": "solc",
    "version": "0.6.12+commit.27d51765.Emscripten.clang",
    "optimizer": false,
    "runs": 200
  },
  "schemaVersion": "2.3.5",
  "updatedAt": "2021-04-27T17:14:31.153Z"
}