{
  "contractName": "ThrottledExitRewardsPoolMock",
  "abi": [
    {
      "inputs": [
        {
          "internalType": "contract IERC20Detailed",
          "name": "_stakingToken",
          "type": "address"
        },
        {
          "internalType": "uint256",
          "name": "_startBlock",
          "type": "uint256"
        },
        {
          "internalType": "uint256",
          "name": "_endBlock",
          "type": "uint256"
        },
        {
          "internalType": "address[]",
          "name": "_rewardsTokens",
          "type": "address[]"
        },
        {
          "internalType": "uint256[]",
          "name": "_rewardPerBlock",
          "type": "uint256[]"
        },
        {
          "internalType": "uint256",
          "name": "_stakeLimit",
          "type": "uint256"
        },
        {
          "internalType": "uint256",
          "name": "throttleRoundBlocks",
          "type": "uint256"
        },
        {
          "internalType": "uint256",
          "name": "throttleRoundCap",
          "type": "uint256"
        },
        {
          "internalType": "uint256",
          "name": "_contractStakeLimit",
          "type": "uint256"
        }
      ],
      "stateMutability": "nonpayable",
      "type": "constructor"
    },
    {
      "anonymous": false,
      "inputs": [
        {
          "indexed": true,
          "internalType": "address",
          "name": "user",
          "type": "address"
        },
        {
          "indexed": false,
          "internalType": "uint256",
          "name": "amount",
          "type": "uint256"
        },
        {
          "indexed": false,
          "internalType": "address",
          "name": "token",
          "type": "address"
        }
      ],
      "name": "Claimed",
      "type": "event"
    },
    {
      "anonymous": false,
      "inputs": [
        {
          "indexed": false,
          "internalType": "address",
          "name": "user",
          "type": "address"
        },
        {
          "indexed": false,
          "internalType": "uint256",
          "name": "stake",
          "type": "uint256"
        }
      ],
      "name": "ExitCompleted",
      "type": "event"
    },
    {
      "anonymous": false,
      "inputs": [
        {
          "indexed": false,
          "internalType": "address",
          "name": "user",
          "type": "address"
        },
        {
          "indexed": false,
          "internalType": "uint256",
          "name": "exitBlock",
          "type": "uint256"
        }
      ],
      "name": "ExitRequested",
      "type": "event"
    },
    {
      "anonymous": false,
      "inputs": [
        {
          "indexed": true,
          "internalType": "address",
          "name": "user",
          "type": "address"
        },
        {
          "indexed": false,
          "internalType": "uint256",
          "name": "amount",
          "type": "uint256"
        }
      ],
      "name": "Exited",
      "type": "event"
    },
    {
      "anonymous": false,
      "inputs": [
        {
          "indexed": false,
          "internalType": "uint256",
          "name": "newEndBlock",
          "type": "uint256"
        },
        {
          "indexed": false,
          "internalType": "uint256[]",
          "name": "newRewardsPerBlock",
          "type": "uint256[]"
        }
      ],
      "name": "Extended",
      "type": "event"
    },
    {
      "anonymous": false,
      "inputs": [
        {
          "indexed": true,
          "internalType": "address",
          "name": "user",
          "type": "address"
        },
        {
          "indexed": false,
          "internalType": "uint256",
          "name": "amount",
          "type": "uint256"
        }
      ],
      "name": "Staked",
      "type": "event"
    },
    {
      "anonymous": false,
      "inputs": [
        {
          "indexed": true,
          "internalType": "uint256",
          "name": "rewardsAmount",
          "type": "uint256"
        },
        {
          "indexed": true,
          "internalType": "address",
          "name": "recipient",
          "type": "address"
        }
      ],
      "name": "WithdrawLPRewards",
      "type": "event"
    },
    {
      "anonymous": false,
      "inputs": [
        {
          "indexed": true,
          "internalType": "address",
          "name": "user",
          "type": "address"
        },
        {
          "indexed": false,
          "internalType": "uint256",
          "name": "amount",
          "type": "uint256"
        }
      ],
      "name": "Withdrawn",
      "type": "event"
    },
    {
      "inputs": [
        {
          "internalType": "uint256",
          "name": "",
          "type": "uint256"
        }
      ],
      "name": "accumulatedRewardMultiplier",
      "outputs": [
        {
          "internalType": "uint256",
          "name": "",
          "type": "uint256"
        }
      ],
      "stateMutability": "view",
      "type": "function"
    },
    {
      "inputs": [
        {
          "internalType": "address",
          "name": "_userAddress",
          "type": "address"
        }
      ],
      "name": "balanceOf",
      "outputs": [
        {
          "internalType": "uint256",
          "name": "",
          "type": "uint256"
        }
      ],
      "stateMutability": "view",
      "type": "function"
    },
    {
      "inputs": [],
      "name": "completeExit",
      "outputs": [],
      "stateMutability": "nonpayable",
      "type": "function"
    },
    {
      "inputs": [],
      "name": "contractStakeLimit",
      "outputs": [
        {
          "internalType": "uint256",
          "name": "",
          "type": "uint256"
        }
      ],
      "stateMutability": "view",
      "type": "function"
    },
    {
      "inputs": [],
      "name": "endBlock",
      "outputs": [
        {
          "internalType": "uint256",
          "name": "",
          "type": "uint256"
        }
      ],
      "stateMutability": "view",
      "type": "function"
    },
    {
      "inputs": [
        {
          "internalType": "address",
          "name": "",
          "type": "address"
        }
      ],
      "name": "exitInfo",
      "outputs": [
        {
          "internalType": "uint256",
          "name": "exitBlock",
          "type": "uint256"
        },
        {
          "internalType": "uint256",
          "name": "exitStake",
          "type": "uint256"
        }
      ],
      "stateMutability": "view",
      "type": "function"
    },
    {
      "inputs": [
        {
          "internalType": "uint256",
          "name": "_endBlock",
          "type": "uint256"
        },
        {
          "internalType": "uint256[]",
          "name": "_rewardsPerBlock",
          "type": "uint256[]"
        },
        {
          "internalType": "uint256[]",
          "name": "_currentRemainingRewards",
          "type": "uint256[]"
        },
        {
          "internalType": "uint256[]",
          "name": "_newRemainingRewards",
          "type": "uint256[]"
        }
      ],
      "name": "extend",
      "outputs": [],
      "stateMutability": "nonpayable",
      "type": "function"
    },
    {
      "inputs": [
        {
          "internalType": "uint256",
          "name": "tokenIndex",
          "type": "uint256"
        }
      ],
      "name": "getPendingReward",
      "outputs": [
        {
          "internalType": "uint256",
          "name": "",
          "type": "uint256"
        }
      ],
      "stateMutability": "view",
      "type": "function"
    },
    {
      "inputs": [],
      "name": "getRewardTokensCount",
      "outputs": [
        {
          "internalType": "uint256",
          "name": "",
          "type": "uint256"
        }
      ],
      "stateMutability": "view",
      "type": "function"
    },
    {
      "inputs": [
        {
          "internalType": "address",
          "name": "_userAddress",
          "type": "address"
        },
        {
          "internalType": "uint256",
          "name": "tokenIndex",
          "type": "uint256"
        }
      ],
      "name": "getUserAccumulatedReward",
      "outputs": [
        {
          "internalType": "uint256",
          "name": "",
          "type": "uint256"
        }
      ],
      "stateMutability": "view",
      "type": "function"
    },
    {
      "inputs": [
        {
          "internalType": "address",
          "name": "_userAddress",
          "type": "address"
        },
        {
          "internalType": "uint256",
          "name": "_index",
          "type": "uint256"
        }
      ],
      "name": "getUserOwedTokens",
      "outputs": [
        {
          "internalType": "uint256",
          "name": "",
          "type": "uint256"
        }
      ],
      "stateMutability": "view",
      "type": "function"
    },
    {
      "inputs": [
        {
          "internalType": "address",
          "name": "_userAddress",
          "type": "address"
        },
        {
          "internalType": "uint256",
          "name": "_index",
          "type": "uint256"
        }
      ],
      "name": "getUserRewardDebt",
      "outputs": [
        {
          "internalType": "uint256",
          "name": "",
          "type": "uint256"
        }
      ],
      "stateMutability": "view",
      "type": "function"
    },
    {
      "inputs": [
        {
          "internalType": "address",
          "name": "_userAddress",
          "type": "address"
        }
      ],
      "name": "getUserRewardDebtLength",
      "outputs": [
        {
          "internalType": "uint256",
          "name": "",
          "type": "uint256"
        }
      ],
      "stateMutability": "view",
      "type": "function"
    },
    {
      "inputs": [
        {
          "internalType": "address",
          "name": "_userAddress",
          "type": "address"
        }
      ],
      "name": "getUserTokensOwedLength",
      "outputs": [
        {
          "internalType": "uint256",
          "name": "",
          "type": "uint256"
        }
      ],
      "stateMutability": "view",
      "type": "function"
    },
    {
      "inputs": [],
      "name": "hasStakingStarted",
      "outputs": [
        {
          "internalType": "bool",
          "name": "",
          "type": "bool"
        }
      ],
      "stateMutability": "view",
      "type": "function"
    },
    {
      "inputs": [],
      "name": "lastRewardBlock",
      "outputs": [
        {
          "internalType": "uint256",
          "name": "",
          "type": "uint256"
        }
      ],
      "stateMutability": "view",
      "type": "function"
    },
    {
      "inputs": [],
      "name": "lockEndBlock",
      "outputs": [
        {
          "internalType": "uint256",
          "name": "",
          "type": "uint256"
        }
      ],
      "stateMutability": "view",
      "type": "function"
    },
    {
      "inputs": [],
      "name": "nextAvailableExitBlock",
      "outputs": [
        {
          "internalType": "uint256",
          "name": "",
          "type": "uint256"
        }
      ],
      "stateMutability": "view",
      "type": "function"
    },
    {
      "inputs": [],
      "name": "nextAvailableRoundExitVolume",
      "outputs": [
        {
          "internalType": "uint256",
          "name": "",
          "type": "uint256"
        }
      ],
      "stateMutability": "view",
      "type": "function"
    },
    {
      "inputs": [
        {
          "internalType": "uint256",
          "name": "",
          "type": "uint256"
        }
      ],
      "name": "rewardPerBlock",
      "outputs": [
        {
          "internalType": "uint256",
          "name": "",
          "type": "uint256"
        }
      ],
      "stateMutability": "view",
      "type": "function"
    },
    {
      "inputs": [],
      "name": "rewardsPoolFactory",
      "outputs": [
        {
          "internalType": "address",
          "name": "",
          "type": "address"
        }
      ],
      "stateMutability": "view",
      "type": "function"
    },
    {
      "inputs": [
        {
          "internalType": "uint256",
          "name": "",
          "type": "uint256"
        }
      ],
      "name": "rewardsTokens",
      "outputs": [
        {
          "internalType": "address",
          "name": "",
          "type": "address"
        }
      ],
      "stateMutability": "view",
      "type": "function"
    },
    {
      "inputs": [
        {
          "internalType": "uint256",
          "name": "_tokenAmount",
          "type": "uint256"
        }
      ],
      "name": "stake",
      "outputs": [],
      "stateMutability": "nonpayable",
      "type": "function"
    },
    {
      "inputs": [],
      "name": "stakeLimit",
      "outputs": [
        {
          "internalType": "uint256",
          "name": "",
          "type": "uint256"
        }
      ],
      "stateMutability": "view",
      "type": "function"
    },
    {
      "inputs": [],
      "name": "stakingToken",
      "outputs": [
        {
          "internalType": "contract IERC20Detailed",
          "name": "",
          "type": "address"
        }
      ],
      "stateMutability": "view",
      "type": "function"
    },
    {
      "inputs": [],
      "name": "startBlock",
      "outputs": [
        {
          "internalType": "uint256",
          "name": "",
          "type": "uint256"
        }
      ],
      "stateMutability": "view",
      "type": "function"
    },
    {
      "inputs": [],
      "name": "throttleRoundBlocks",
      "outputs": [
        {
          "internalType": "uint256",
          "name": "",
          "type": "uint256"
        }
      ],
      "stateMutability": "view",
      "type": "function"
    },
    {
      "inputs": [],
      "name": "throttleRoundCap",
      "outputs": [
        {
          "internalType": "uint256",
          "name": "",
          "type": "uint256"
        }
      ],
      "stateMutability": "view",
      "type": "function"
    },
    {
      "inputs": [],
      "name": "totalStaked",
      "outputs": [
        {
          "internalType": "uint256",
          "name": "",
          "type": "uint256"
        }
      ],
      "stateMutability": "view",
      "type": "function"
    },
    {
      "inputs": [],
      "name": "updateRewardMultipliers",
      "outputs": [],
      "stateMutability": "nonpayable",
      "type": "function"
    },
    {
      "inputs": [
        {
          "internalType": "address",
          "name": "",
          "type": "address"
        }
      ],
      "name": "userInfo",
      "outputs": [
        {
          "internalType": "uint256",
          "name": "firstStakedBlockNumber",
          "type": "uint256"
        },
        {
          "internalType": "uint256",
          "name": "amountStaked",
          "type": "uint256"
        }
      ],
      "stateMutability": "view",
      "type": "function"
    },
    {
      "inputs": [
        {
          "internalType": "address",
          "name": "recipient",
          "type": "address"
        },
        {
          "internalType": "address",
          "name": "lpTokenContract",
          "type": "address"
        }
      ],
      "name": "withdrawLPRewards",
      "outputs": [],
      "stateMutability": "nonpayable",
      "type": "function"
    },
    {
      "inputs": [
        {
          "internalType": "uint256",
          "name": "_tokenAmount",
          "type": "uint256"
        }
      ],
      "name": "withdraw",
      "outputs": [],
      "stateMutability": "nonpayable",
      "type": "function"
    },
    {
      "inputs": [],
      "name": "claim",
      "outputs": [],
      "stateMutability": "nonpayable",
      "type": "function"
    },
    {
      "inputs": [],
      "name": "exit",
      "outputs": [],
      "stateMutability": "nonpayable",
      "type": "function"
    }
  ],
  "bytecode": "0x60a06040523480156200001157600080fd5b50604051620044683803806200446883398181016040526101208110156200003857600080fd5b81019080805190602001909291908051906020019092919080519060200190929190805160405193929190846401000000008211156200007757600080fd5b838201915060208201858111156200008e57600080fd5b8251866020820283011164010000000082111715620000ac57600080fd5b8083526020830192505050908051906020019060200280838360005b83811015620000e5578082015181840152602081019050620000c8565b50505050905001604052602001805160405193929190846401000000008211156200010f57600080fd5b838201915060208201858111156200012657600080fd5b82518660208202830111640100000000821117156200014457600080fd5b8083526020830192505050908051906020019060200280838360005b838110156200017d57808201518184015260208101905062000160565b505050509050016040526020018051906020019092919080519060200190929190805190602001909291908051906020019092919050505086898989898989876001600081905550620001d56200055a60201b60201c565b86116200022e576040517f08c379a0000000000000000000000000000000000000000000000000000000008152600401808060200182810382526036815260200180620044326036913960400191505060405180910390fd5b6200023e6200055a60201b60201c565b851162000297576040517f08c379a0000000000000000000000000000000000000000000000000000000008152600401808060200182810382526031815260200180620043146031913960400191505060405180910390fd5b8351835114620002f3576040517f08c379a000000000000000000000000000000000000000000000000000000000815260040180806020018281038252604f81526020018062004345604f913960600191505060405180910390fd5b60008214156200034f576040517f08c379a0000000000000000000000000000000000000000000000000000000008152600401808060200182810382526030815260200180620042b36030913960400191505060405180910390fd5b6000811415620003ab576040517f08c379a000000000000000000000000000000000000000000000000000000000815260040180806020018281038252603a815260200180620043f8603a913960400191505060405180910390fd5b86600460006101000a81548173ffffffffffffffffffffffffffffffffffffffff021916908373ffffffffffffffffffffffffffffffffffffffff16021790555082600290805190602001906200040492919062000742565b50856005819055508460068190555083600390805190602001906200042b92919062000794565b5060055460078190555033600960006101000a81548173ffffffffffffffffffffffffffffffffffffffff021916908373ffffffffffffffffffffffffffffffffffffffff16021790555081600a8190555080600b8190555060005b600380549050811015620004cd57600860009080600181540180825580915050600190039060005260206000200160009091909190915055808060010191505062000487565b50505050505050504381116200052f576040517f08c379a000000000000000000000000000000000000000000000000000000000815260040180806020018281038252602e815260200180620043ca602e913960400191505060405180910390fd5b8060808181525050506200054b8383896200056260201b60201c565b5050505050505050506200087f565b600043905090565b60008311620005bd576040517f08c379a0000000000000000000000000000000000000000000000000000000008152600401808060200182810382526036815260200180620043946036913960400191505060405180910390fd5b6000821162000618576040517f08c379a0000000000000000000000000000000000000000000000000000000008152600401808060200182810382526033815260200180620042806033913960400191505060405180910390fd5b6000600f541480156200062d57506000601054145b62000684576040517f08c379a0000000000000000000000000000000000000000000000000000000008152600401808060200182810382526031815260200180620042e36031913960400191505060405180910390fd5b82600f8190555081601081905550620006ae600f5482620006b960201b62001f141790919060201c565b600d81905550505050565b60008082840190508381101562000738576040517f08c379a000000000000000000000000000000000000000000000000000000000815260040180806020018281038252601b8152602001807f536166654d6174683a206164646974696f6e206f766572666c6f77000000000081525060200191505060405180910390fd5b8091505092915050565b82805482825590600052602060002090810192821562000781579160200282015b828111156200078057825182559160200191906001019062000763565b5b50905062000790919062000823565b5090565b82805482825590600052602060002090810192821562000810579160200282015b828111156200080f5782518260006101000a81548173ffffffffffffffffffffffffffffffffffffffff021916908373ffffffffffffffffffffffffffffffffffffffff16021790555091602001919060010190620007b5565b5b5090506200081f919062000842565b5090565b5b808211156200083e57600081600090555060010162000824565b5090565b5b808211156200087b57600081816101000a81549073ffffffffffffffffffffffffffffffffffffffff02191690555060010162000843565b5090565b6080516139dc620008a4600039806110c752806116b0528061296b52506139dc6000f3fe608060405234801561001057600080fd5b50600436106102105760003560e01c806372f702f311610125578063b01eb660116100ad578063df9d777f1161007c578063df9d777f146109b3578063e9fad8ee14610a15578063ee483cdf14610a1f578063f27d026414610a3d578063fb58cad114610a9f57610210565b8063b01eb660146108e5578063b6d0dcd8146108ef578063ce41530214610947578063dd2da220146109a957610210565b806394f66417116100f457806394f664171461077e578063a1002a0f146107dd578063a1292aea14610841578063a694fc3a14610899578063a9f8d181146108c757610210565b806372f702f3146106cc578063791f39cd14610700578063817b1cd2146107425780638587edbb1461076057610210565b806345ef79af116101a857806356409b811161017757806356409b81146105c057806357b4f01f146105f45780636eb957df1461061457806370a08231146106325780637211bbc91461068a57610210565b806345ef79af1461055c57806348cd4cb11461057a5780634e71d92d146105985780634ff3306f146105a257610210565b80631c1f9cc0116101e45780631c1f9cc01461030857806320e67c76146103265780632d9e88e1146105105780632e1a7d4d1461052e57610210565b806284c9271461021557806303d1dae01461026d578063083c63231461028b5780631959a002146102a9575b600080fd5b6102576004803603602081101561022b57600080fd5b81019080803573ffffffffffffffffffffffffffffffffffffffff169060200190929190505050610ae1565b6040518082815260200191505060405180910390f35b610275610bbb565b6040518082815260200191505060405180910390f35b610293610bc1565b6040518082815260200191505060405180910390f35b6102eb600480360360208110156102bf57600080fd5b81019080803573ffffffffffffffffffffffffffffffffffffffff169060200190929190505050610bc7565b604051808381526020018281526020019250505060405180910390f35b610310610beb565b6040518082815260200191505060405180910390f35b61050e6004803603608081101561033c57600080fd5b81019080803590602001909291908035906020019064010000000081111561036357600080fd5b82018360208201111561037557600080fd5b8035906020019184602083028401116401000000008311171561039757600080fd5b919080806020026020016040519081016040528093929190818152602001838360200280828437600081840152601f19601f820116905080830192505050505050509192919290803590602001906401000000008111156103f757600080fd5b82018360208201111561040957600080fd5b8035906020019184602083028401116401000000008311171561042b57600080fd5b919080806020026020016040519081016040528093929190818152602001838360200280828437600081840152601f19601f8201169050808301925050505050505091929192908035906020019064010000000081111561048b57600080fd5b82018360208201111561049d57600080fd5b803590602001918460208302840111640100000000831117156104bf57600080fd5b919080806020026020016040519081016040528093929190818152602001838360200280828437600081840152601f19601f820116905080830192505050505050509192919290505050610bf1565b005b610518610f4c565b6040518082815260200191505060405180910390f35b61055a6004803603602081101561054457600080fd5b8101908080359060200190929190505050610f59565b005b610564610f65565b6040518082815260200191505060405180910390f35b610582610f6b565b6040518082815260200191505060405180910390f35b6105a0610f71565b005b6105aa610f7b565b6040518082815260200191505060405180910390f35b6105c8610f81565b604051808273ffffffffffffffffffffffffffffffffffffffff16815260200191505060405180910390f35b6105fc610fa7565b60405180821515815260200191505060405180910390f35b61061c610fbb565b6040518082815260200191505060405180910390f35b6106746004803603602081101561064857600080fd5b81019080803573ffffffffffffffffffffffffffffffffffffffff169060200190929190505050610fc1565b6040518082815260200191505060405180910390f35b6106b6600480360360208110156106a057600080fd5b8101908080359060200190929190505050611012565b6040518082815260200191505060405180910390f35b6106d4611078565b604051808273ffffffffffffffffffffffffffffffffffffffff16815260200191505060405180910390f35b61072c6004803603602081101561071657600080fd5b810190808035906020019092919050505061109e565b6040518082815260200191505060405180910390f35b61074a6110bf565b6040518082815260200191505060405180910390f35b6107686110c5565b6040518082815260200191505060405180910390f35b6107c06004803603602081101561079457600080fd5b81019080803573ffffffffffffffffffffffffffffffffffffffff1690602001909291905050506110e9565b604051808381526020018281526020019250505060405180910390f35b61083f600480360360408110156107f357600080fd5b81019080803573ffffffffffffffffffffffffffffffffffffffff169060200190929190803573ffffffffffffffffffffffffffffffffffffffff16906020019092919050505061110d565b005b6108836004803603602081101561085757600080fd5b81019080803573ffffffffffffffffffffffffffffffffffffffff169060200190929190505050611536565b6040518082815260200191505060405180910390f35b6108c5600480360360208110156108af57600080fd5b8101908080359060200190929190505050611610565b005b6108cf6116a8565b6040518082815260200191505060405180910390f35b6108ed6116ae565b005b61091b6004803603602081101561090557600080fd5b8101908080359060200190929190505050611863565b604051808273ffffffffffffffffffffffffffffffffffffffff16815260200191505060405180910390f35b6109936004803603604081101561095d57600080fd5b81019080803573ffffffffffffffffffffffffffffffffffffffff1690602001909291908035906020019092919050505061189f565b6040518082815260200191505060405180910390f35b6109b161198c565b005b6109ff600480360360408110156109c957600080fd5b81019080803573ffffffffffffffffffffffffffffffffffffffff16906020019092919080359060200190929190505050611b8c565b6040518082815260200191505060405180910390f35b610a1d611df6565b005b610a27611e00565b6040518082815260200191505060405180910390f35b610a8960048036036040811015610a5357600080fd5b81019080803573ffffffffffffffffffffffffffffffffffffffff16906020019092919080359060200190929190505050611e06565b6040518082815260200191505060405180910390f35b610acb60048036036020811015610ab557600080fd5b8101908080359060200190929190505050611ef3565b6040518082815260200191505060405180910390f35b60008073ffffffffffffffffffffffffffffffffffffffff168273ffffffffffffffffffffffffffffffffffffffff161415610b68576040517f08c379a000000000000000000000000000000000000000000000000000000000815260040180806020018281038252602d8152602001806135f6602d913960400191505060405180910390fd5b6000600c60008473ffffffffffffffffffffffffffffffffffffffff1673ffffffffffffffffffffffffffffffffffffffff16815260200190815260200160002090508060020180549050915050919050565b600b5481565b60065481565b600c6020528060005260406000206000915090508060000154908060010154905082565b600d5481565b600960009054906101000a900473ffffffffffffffffffffffffffffffffffffffff1673ffffffffffffffffffffffffffffffffffffffff163373ffffffffffffffffffffffffffffffffffffffff1614610c97576040517f08c379a000000000000000000000000000000000000000000000000000000000815260040180806020018281038252602981526020018061397e6029913960400191505060405180910390fd5b610c9f611f9c565b8411610cf6576040517f08c379a000000000000000000000000000000000000000000000000000000000815260040180806020018281038252602781526020018061392d6027913960400191505060405180910390fd5b600654841015610d51576040517f08c379a000000000000000000000000000000000000000000000000000000000815260040180806020018281038252603581526020018061364a6035913960400191505060405180910390fd5b600380549050835114610daf576040517f08c379a00000000000000000000000000000000000000000000000000000000081526004018080602001828103825260348152602001806138536034913960400191505060405180910390fd5b610db761198c565b60005b8351811015610ebe57600060038281548110610dd257fe5b9060005260206000200160009054906101000a900473ffffffffffffffffffffffffffffffffffffffff169050828281518110610e0b57fe5b6020026020010151848381518110610e1f57fe5b60200260200101511115610e8157610e8033848481518110610e3d57fe5b6020026020010151868581518110610e5157fe5b6020026020010151038373ffffffffffffffffffffffffffffffffffffffff16611fa49092919063ffffffff16565b5b848281518110610e8d57fe5b602002602001015160028381548110610ea257fe5b9060005260206000200181905550508080600101915050610dba565b50836006819055507f137c92cc7579cc4d6a2b109467cd475c205d1c136363ca854cc46d72f840d5de84846040518083815260200180602001828103825283818151815260200191508051906020019060200280838360005b83811015610f32578082015181840152602081019050610f17565b50505050905001935050505060405180910390a150505050565b6000600380549050905090565b610f6281612046565b50565b600a5481565b60055481565b610f79612097565b565b60105481565b600960009054906101000a900473ffffffffffffffffffffffffffffffffffffffff1681565b6000600554610fb4611f9c565b1015905090565b600f5481565b600080600c60008473ffffffffffffffffffffffffffffffffffffffff1673ffffffffffffffffffffffffffffffffffffffff16815260200190815260200160002090508060010154915050919050565b600080601160003373ffffffffffffffffffffffffffffffffffffffff1673ffffffffffffffffffffffffffffffffffffffff168152602001908152602001600020905080600201838154811061106557fe5b9060005260206000200154915050919050565b600460009054906101000a900473ffffffffffffffffffffffffffffffffffffffff1681565b600281815481106110ab57fe5b906000526020600020016000915090505481565b60015481565b7f000000000000000000000000000000000000000000000000000000000000000081565b60116020528060005260406000206000915090508060000154908060010154905082565b60026000541415611186576040517f08c379a000000000000000000000000000000000000000000000000000000000815260040180806020018281038252601f8152602001807f5265656e7472616e637947756172643a207265656e7472616e742063616c6c0081525060200191505060405180910390fd5b6002600081905550600960009054906101000a900473ffffffffffffffffffffffffffffffffffffffff1673ffffffffffffffffffffffffffffffffffffffff163373ffffffffffffffffffffffffffffffffffffffff1614611234576040517f08c379a000000000000000000000000000000000000000000000000000000000815260040180806020018281038252602981526020018061397e6029913960400191505060405180910390fd5b60008173ffffffffffffffffffffffffffffffffffffffff166370a08231306040518263ffffffff1660e01b8152600401808273ffffffffffffffffffffffffffffffffffffffff16815260200191505060206040518083038186803b15801561129d57600080fd5b505afa1580156112b1573d6000803e3d6000fd5b505050506040513d60208110156112c757600080fd5b8101908080519060200190929190505050905060008111611333576040517f08c379a000000000000000000000000000000000000000000000000000000000815260040180806020018281038252603c8152602001806138f1603c913960400191505060405180910390fd5b600460009054906101000a900473ffffffffffffffffffffffffffffffffffffffff1673ffffffffffffffffffffffffffffffffffffffff168273ffffffffffffffffffffffffffffffffffffffff1614156113da576040517f08c379a00000000000000000000000000000000000000000000000000000000081526004018080602001828103825260368152602001806136a56036913960400191505060405180910390fd5b6000600380549050905060005b818110156114b857600381815481106113fc57fe5b9060005260206000200160009054906101000a900473ffffffffffffffffffffffffffffffffffffffff1673ffffffffffffffffffffffffffffffffffffffff168473ffffffffffffffffffffffffffffffffffffffff1614156114ab576040517f08c379a00000000000000000000000000000000000000000000000000000000081526004018080602001828103825260358152602001806136db6035913960400191505060405180910390fd5b80806001019150506113e7565b506114e484838573ffffffffffffffffffffffffffffffffffffffff16611fa49092919063ffffffff16565b8373ffffffffffffffffffffffffffffffffffffffff16827fdf1b625465761dd1a4330a9b3a21d4943183f301036528a3544f8d891fdce2c260405160405180910390a3505060016000819055505050565b60008073ffffffffffffffffffffffffffffffffffffffff168273ffffffffffffffffffffffffffffffffffffffff1614156115bd576040517f08c379a000000000000000000000000000000000000000000000000000000000815260040180806020018281038252602d815260200180613752602d913960400191505060405180910390fd5b6000600c60008473ffffffffffffffffffffffffffffffffffffffff1673ffffffffffffffffffffffffffffffffffffffff16815260200190815260200160002090508060030180549050915050919050565b60026000541415611689576040517f08c379a000000000000000000000000000000000000000000000000000000000815260040180806020018281038252601f8152602001807f5265656e7472616e637947756172643a207265656e7472616e742063616c6c0081525060200191505060405180910390fd5b600260008190555061169d813360016120e8565b600160008190555050565b60075481565b7f00000000000000000000000000000000000000000000000000000000000000004311611726576040517f08c379a00000000000000000000000000000000000000000000000000000000081526004018080602001828103825260428152602001806137106042913960600191505060405180910390fd5b6002600054141561179f576040517f08c379a000000000000000000000000000000000000000000000000000000000815260040180806020018281038252601f8152602001807f5265656e7472616e637947756172643a207265656e7472616e742063616c6c0081525060200191505060405180910390fd5b6002600081905550611859600460009054906101000a900473ffffffffffffffffffffffffffffffffffffffff16600380548060200260200160405190810160405280929190818152602001828054801561184f57602002820191906000526020600020905b8160009054906101000a900473ffffffffffffffffffffffffffffffffffffffff1673ffffffffffffffffffffffffffffffffffffffff1681526020019060010190808311611805575b5050505050612609565b6001600081905550565b6003818154811061187057fe5b906000526020600020016000915054906101000a900473ffffffffffffffffffffffffffffffffffffffff1681565b60008073ffffffffffffffffffffffffffffffffffffffff168373ffffffffffffffffffffffffffffffffffffffff161415611926576040517f08c379a00000000000000000000000000000000000000000000000000000000081526004018080602001828103825260278152602001806138ca6027913960400191505060405180910390fd5b6000600c60008573ffffffffffffffffffffffffffffffffffffffff1673ffffffffffffffffffffffffffffffffffffffff168152602001908152602001600020905080600301838154811061197857fe5b906000526020600020015491505092915050565b6000611996611f9c565b905060075481116119a75750611b8a565b600060065482106119ba576006546119bc565b815b905060006007548203905060008114156119d857505050611b8a565b600060015414156119f25781600781905550505050611b8a565b6000600380549050905060005b81811015611b7d57600060038281548110611a1657fe5b9060005260206000200160009054906101000a900473ffffffffffffffffffffffffffffffffffffffff1673ffffffffffffffffffffffffffffffffffffffff1663313ce5676040518163ffffffff1660e01b815260040160206040518083038186803b158015611a8657600080fd5b505afa158015611a9a573d6000803e3d6000fd5b505050506040513d6020811015611ab057600080fd5b810190808051906020019092919050505060ff169050600081600a0a90506000611afa60028581548110611ae057fe5b9060005260206000200154876127d790919063ffffffff16565b90506000611b25600154611b1785856127d790919063ffffffff16565b61285d90919063ffffffff16565b9050611b518160088781548110611b3857fe5b9060005260206000200154611f1490919063ffffffff16565b60088681548110611b5e57fe5b90600052602060002001819055505050505080806001019150506119ff565b5082600781905550505050505b565b600080611b97611f9c565b905060006006548210611bac57600654611bae565b815b90506000611bc7600754836128e690919063ffffffff16565b9050600060038681548110611bd857fe5b9060005260206000200160009054906101000a900473ffffffffffffffffffffffffffffffffffffffff1673ffffffffffffffffffffffffffffffffffffffff1663313ce5676040518163ffffffff1660e01b815260040160206040518083038186803b158015611c4857600080fd5b505afa158015611c5c573d6000803e3d6000fd5b505050506040513d6020811015611c7257600080fd5b810190808051906020019092919050505060ff169050600081600a0a90506000611cbc60028981548110611ca257fe5b9060005260206000200154856127d790919063ffffffff16565b90506000611ce7600154611cd985856127d790919063ffffffff16565b61285d90919063ffffffff16565b90506000611d158260088c81548110611cfc57fe5b9060005260206000200154611f1490919063ffffffff16565b90506000600c60008d73ffffffffffffffffffffffffffffffffffffffff1673ffffffffffffffffffffffffffffffffffffffff16815260200190815260200160002090506000611d8586611d778585600101546127d790919063ffffffff16565b61285d90919063ffffffff16565b90506000611db5836002018e81548110611d9b57fe5b9060005260206000200154836128e690919063ffffffff16565b9050611de381846003018f81548110611dca57fe5b9060005260206000200154611f1490919063ffffffff16565b9b50505050505050505050505092915050565b611dfe612969565b565b600e5481565b60008073ffffffffffffffffffffffffffffffffffffffff168373ffffffffffffffffffffffffffffffffffffffff161415611e8d576040517f08c379a00000000000000000000000000000000000000000000000000000000081526004018080602001828103825260278152602001806136236027913960400191505060405180910390fd5b6000600c60008573ffffffffffffffffffffffffffffffffffffffff1673ffffffffffffffffffffffffffffffffffffffff1681526020019081526020016000209050806002018381548110611edf57fe5b906000526020600020015491505092915050565b60088181548110611f0057fe5b906000526020600020016000915090505481565b600080828401905083811015611f92576040517f08c379a000000000000000000000000000000000000000000000000000000000815260040180806020018281038252601b8152602001807f536166654d6174683a206164646974696f6e206f766572666c6f77000000000081525060200191505060405180910390fd5b8091505092915050565b600043905090565b6120418363a9059cbb60e01b8484604051602401808373ffffffffffffffffffffffffffffffffffffffff16815260200182815260200192505050604051602081830303815290604052907bffffffffffffffffffffffffffffffffffffffffffffffffffffffff19166020820180517bffffffffffffffffffffffffffffffffffffffffffffffffffffffff8381831617835250505050612bc0565b505050565b6040517f08c379a000000000000000000000000000000000000000000000000000000000815260040180806020018281038252603f81526020018061377f603f913960400191505060405180910390fd5b6040517f08c379a000000000000000000000000000000000000000000000000000000000815260040180806020018281038252603c815260200180613817603c913960400191505060405180910390fd5b60006120f2611f9c565b9050600554811161214e576040517f08c379a00000000000000000000000000000000000000000000000000000000081526004018080602001828103825260228152602001806138876022913960400191505060405180910390fd5b6006548111156121c6576040517f08c379a000000000000000000000000000000000000000000000000000000000815260040180806020018281038252601b8152602001807f5374616b653a3a5374616b696e67206861732066696e6973686564000000000081525060200191505060405180910390fd5b82846000600c60008473ffffffffffffffffffffffffffffffffffffffff1673ffffffffffffffffffffffffffffffffffffffff1681526020019081526020016000209050600a54612225838360010154611f1490919063ffffffff16565b111561227c576040517f08c379a00000000000000000000000000000000000000000000000000000000081526004018080602001828103825260288152602001806137ef6028913960400191505060405180910390fd5b600b5461229483600154611f1490919063ffffffff16565b11156122eb576040517f08c379a00000000000000000000000000000000000000000000000000000000081526004018080602001828103825260318152602001806137be6031913960400191505060405180910390fd5b60008711612361576040517f08c379a00000000000000000000000000000000000000000000000000000000081526004018080602001828103825260158152602001807f5374616b653a3a43616e6e6f74207374616b652030000000000000000000000081525060200191505060405180910390fd5b6000600c60008873ffffffffffffffffffffffffffffffffffffffff1673ffffffffffffffffffffffffffffffffffffffff16815260200190815260200160002090506000816001015414156123bb576123ba87612e0b565b5b6123c361198c565b6123cc87612e62565b6123e3888260010154611f1490919063ffffffff16565b816001018190555061240088600154611f1490919063ffffffff16565b6001819055506000600380549050905060005b818110156125545760006003828154811061242a57fe5b9060005260206000200160009054906101000a900473ffffffffffffffffffffffffffffffffffffffff1673ffffffffffffffffffffffffffffffffffffffff1663313ce5676040518163ffffffff1660e01b815260040160206040518083038186803b15801561249a57600080fd5b505afa1580156124ae573d6000803e3d6000fd5b505050506040513d60208110156124c457600080fd5b810190808051906020019092919050505060ff169050600081600a0a9050600061252482612516600887815481106124f857fe5b906000526020600020015489600101546127d790919063ffffffff16565b61285d90919063ffffffff16565b90508086600201858154811061253657fe5b90600052602060002001819055505050508080600101915050612413565b506125b0876125635733612565565b885b308b600460009054906101000a900473ffffffffffffffffffffffffffffffffffffffff1673ffffffffffffffffffffffffffffffffffffffff16612efd909392919063ffffffff16565b8773ffffffffffffffffffffffffffffffffffffffff167f9e71bc8eea02a63969f509818f2dafb9254532904319f9dbda79b67bd34a5f3d8a6040518082815260200191505060405180910390a2505050505050505050565b6000601160003373ffffffffffffffffffffffffffffffffffffffff1673ffffffffffffffffffffffffffffffffffffffff1681526020019081526020016000209050806000015443116126a8576040517f08c379a000000000000000000000000000000000000000000000000000000000815260040180806020018281038252602681526020018061367f6026913960400191505060405180910390fd5b600081600101549050600082600101819055506126e633828673ffffffffffffffffffffffffffffffffffffffff16611fa49092919063ffffffff16565b60005b835181101561277b57600083600201828154811061270357fe5b90600052602060002001549050600084600201838154811061272157fe5b906000526020600020018190555061276d338287858151811061274057fe5b602002602001015173ffffffffffffffffffffffffffffffffffffffff16611fa49092919063ffffffff16565b5080806001019150506126e9565b507f548aea05c5e3b6ba34acdf7b3ad06c7bb667ed71d1761e2c177167be0a9eb0593382604051808373ffffffffffffffffffffffffffffffffffffffff1681526020018281526020019250505060405180910390a150505050565b6000808314156127ea5760009050612857565b60008284029050828482816127fb57fe5b0414612852576040517f08c379a00000000000000000000000000000000000000000000000000000000081526004018080602001828103825260218152602001806138a96021913960400191505060405180910390fd5b809150505b92915050565b60008082116128d4576040517f08c379a000000000000000000000000000000000000000000000000000000000815260040180806020018281038252601a8152602001807f536166654d6174683a206469766973696f6e206279207a65726f00000000000081525060200191505060405180910390fd5b8183816128dd57fe5b04905092915050565b60008282111561295e576040517f08c379a000000000000000000000000000000000000000000000000000000000815260040180806020018281038252601e8152602001807f536166654d6174683a207375627472616374696f6e206f766572666c6f77000081525060200191505060405180910390fd5b818303905092915050565b7f000000000000000000000000000000000000000000000000000000000000000043116129e1576040517f08c379a00000000000000000000000000000000000000000000000000000000081526004018080602001828103825260428152602001806137106042913960600191505060405180910390fd5b60026000541415612a5a576040517f08c379a000000000000000000000000000000000000000000000000000000000815260040180806020018281038252601f8152602001807f5265656e7472616e637947756172643a207265656e7472616e742063616c6c0081525060200191505060405180910390fd5b60026000819055506000600c60003373ffffffffffffffffffffffffffffffffffffffff1673ffffffffffffffffffffffffffffffffffffffff1681526020019081526020016000209050612aad61198c565b600081600101541415612ac05750612bb6565b612ac933612e62565b612b2f816001015460038054905083600301805480602002602001604051908101604052809291908181526020018280548015612b2557602002820191906000526020600020905b815481526020019060010190808311612b11575b5050505050612fbe565b612b4881600101546001546128e690919063ffffffff16565b6001819055506000816001018190555060005b600380549050811015612bb3576000826003018281548110612b7957fe5b90600052602060002001819055506000826002018281548110612b9857fe5b90600052602060002001819055508080600101915050612b5b565b50505b6001600081905550565b612bdf8273ffffffffffffffffffffffffffffffffffffffff1661310f565b612c51576040517f08c379a000000000000000000000000000000000000000000000000000000000815260040180806020018281038252601f8152602001807f5361666545524332303a2063616c6c20746f206e6f6e2d636f6e74726163740081525060200191505060405180910390fd5b600060608373ffffffffffffffffffffffffffffffffffffffff16836040518082805190602001908083835b60208310612ca05780518252602082019150602081019050602083039250612c7d565b6001836020036101000a0380198251168184511680821785525050505050509050019150506000604051808303816000865af19150503d8060008114612d02576040519150601f19603f3d011682016040523d82523d6000602084013e612d07565b606091505b509150915081612d7f576040517f08c379a00000000000000000000000000000000000000000000000000000000081526004018080602001828103825260208152602001807f5361666545524332303a206c6f772d6c6576656c2063616c6c206661696c656481525060200191505060405180910390fd5b600081511115612e0557808060200190516020811015612d9e57600080fd5b8101908080519060200190929190505050612e04576040517f08c379a000000000000000000000000000000000000000000000000000000000815260040180806020018281038252602a815260200180613954602a913960400191505060405180910390fd5b5b50505050565b6000600c60008373ffffffffffffffffffffffffffffffffffffffff1673ffffffffffffffffffffffffffffffffffffffff1681526020019081526020016000209050612e56611f9c565b81600001819055505050565b6000600c60008373ffffffffffffffffffffffffffffffffffffffff1673ffffffffffffffffffffffffffffffffffffffff1681526020019081526020016000209050612eae82613122565b612eb7826131de565b600081600101541415612eca5750612efa565b6000600380549050905060005b81811015612ef657612ee9848261329a565b8080600101915050612ed7565b5050505b50565b612fb8846323b872dd60e01b858585604051602401808473ffffffffffffffffffffffffffffffffffffffff1681526020018373ffffffffffffffffffffffffffffffffffffffff1681526020018281526020019350505050604051602081830303815290604052907bffffffffffffffffffffffffffffffffffffffffffffffffffffffff19166020820180517bffffffffffffffffffffffffffffffffffffffffffffffffffffffff8381831617835250505050612bc0565b50505050565b612fc83383613492565b6000601160003373ffffffffffffffffffffffffffffffffffffffff1673ffffffffffffffffffffffffffffffffffffffff16815260200190815260200160002090506130148461353f565b8160000181905550613033848260010154611f1490919063ffffffff16565b816001018190555060005b838110156130af5761308583828151811061305557fe5b602002602001015183600201838154811061306c57fe5b9060005260206000200154611f1490919063ffffffff16565b82600201828154811061309457fe5b9060005260206000200181905550808060010191505061303e565b507fd9217a461a0f7f84171a8866118c3d92e943ba7c1ba89b819371f729b5cabcbc338260000154604051808373ffffffffffffffffffffffffffffffffffffffff1681526020018281526020019250505060405180910390a150505050565b600080823b905060008111915050919050565b6000600c60008373ffffffffffffffffffffffffffffffffffffffff1673ffffffffffffffffffffffffffffffffffffffff16815260200190815260200160002090506003805490508160020180549050141561317f57506131db565b600060038054905090506000826002018054905090505b818110156131d75782600201600090806001815401808255809150506001900390600052602060002001600090919091909150558080600101915050613196565b5050505b50565b6000600c60008373ffffffffffffffffffffffffffffffffffffffff1673ffffffffffffffffffffffffffffffffffffffff16815260200190815260200160002090506003805490508160030180549050141561323b5750613297565b600060038054905090506000826003018054905090505b818110156132935782600301600090806001815401808255809150506001900390600052602060002001600090919091909150558080600101915050613252565b5050505b50565b6000600c60008473ffffffffffffffffffffffffffffffffffffffff1673ffffffffffffffffffffffffffffffffffffffff16815260200190815260200160002090506000600383815481106132ec57fe5b9060005260206000200160009054906101000a900473ffffffffffffffffffffffffffffffffffffffff1673ffffffffffffffffffffffffffffffffffffffff1663313ce5676040518163ffffffff1660e01b815260040160206040518083038186803b15801561335c57600080fd5b505afa158015613370573d6000803e3d6000fd5b505050506040513d602081101561338657600080fd5b810190808051906020019092919050505060ff169050600081600a0a905060006133e6826133d8600888815481106133ba57fe5b906000526020600020015487600101546127d790919063ffffffff16565b61285d90919063ffffffff16565b905060006134168560020187815481106133fc57fe5b9060005260206000200154836128e690919063ffffffff16565b905060008111156134895761344d8186600301888154811061343457fe5b9060005260206000200154611f1490919063ffffffff16565b85600301878154811061345c57fe5b90600052602060002001819055508185600201878154811061347a57fe5b90600052602060002001819055505b50505050505050565b6000601160008473ffffffffffffffffffffffffffffffffffffffff1673ffffffffffffffffffffffffffffffffffffffff168152602001908152602001600020905081816002018054905014156134ea575061353b565b6000816002018054905090505b8281101561353857816002016000908060018154018082558091505060019003906000526020600020016000909190919091505580806001019150506134f7565b50505b5050565b6000600d5443111561359e576000600f54600d5443038161355c57fe5b069050613586600f5461357883436128e690919063ffffffff16565b611f1490919063ffffffff16565b600d8190555082600e81905550600d549150506135f0565b6135b382600e54611f1490919063ffffffff16565b600e81905550600d549050601054600e54106135ef576135e0600f54600d54611f1490919063ffffffff16565b600d819055506000600e819055505b5b91905056fe47657455736572526577617264446562744c656e6774683a3a496e76616c69642075736572206164647265737347657455736572526577617264446562743a3a496e76616c696420757365722061646472657373457874656e643a3a456e6420626c6f636b206d757374206265206166746572207468652063757272656e7420656e6420626c6f636b66696e616c697a65457869743a3a547279696e6720746f206578697420746f6f206561726c7957697468647261774c50526577617264733a3a2063616e6e6f742077697468647261772066726f6d20746865204c5020746f6b656e7357697468647261774c50526577617264733a3a43616e6e6f742077697468647261772066726f6d20746f6b656e20726577617264736f6e6c79556e6c6f636b65643a3a63616e6e6f7420706572666f726d207468697320616374696f6e20756e74696c2074686520656e64206f6620746865206c6f636b47657455736572546f6b656e734f7765644c656e6774683a3a496e76616c6964207573657220616464726573734f6e6c7945786974466561747572653a3a63616e6e6f742077697468647261772066726f6d207468697320636f6e74726163742e204f6e6c7920657869742e6f6e6c79556e6465725374616b654c696d69743a3a436f6e7472616374205374616b65206c696d697420726561636865646f6e6c79556e6465725374616b654c696d69743a3a5374616b65206c696d697420726561636865644f6e6c7945786974466561747572653a3a63616e6e6f7420636c61696d2066726f6d207468697320636f6e74726163742e204f6e6c7920657869742e457874656e643a3a5265776172647320616d6f756e7473206c656e677468206973206c657373207468616e2065787065637465645374616b653a3a5374616b696e6720686173206e6f74207965742073746172746564536166654d6174683a206d756c7469706c69636174696f6e206f766572666c6f77476574557365724f776564546f6b656e733a3a496e76616c69642075736572206164647265737357697468647261774c50526577617264733a3a546865726520617265206e6f20726577617264732066726f6d206c697175696469747920706f6f6c73457874656e643a3a456e6420626c6f636b206d75737420626520696e20746865206675747572655361666545524332303a204552433230206f7065726174696f6e20646964206e6f74207375636365656443616c6c6572206973206e6f742052657761726473506f6f6c466163746f727920636f6e7472616374a2646970667358221220d3bfb916e055d72f7ce47fe3044a3eca9514f35d8b59a6eb8a4ceed48484e92864736f6c634300060c00337365745468726f74746c653a3a7468726f74746c6520726f756e6420636170206d757374206265206d6f7265207468616e2030436f6e7374727563746f723a3a5374616b65206c696d6974206e6565647320746f206265206d6f7265207468616e20307365745468726f74746c653a3a7468726f74746c6520706172616d6574657273207765726520616c726561647920736574436f6e7374727563746f723a3a54686520656e6420626c6f636b206d75737420626520696e20746865206675747572652e436f6e7374727563746f723a3a526577617264732070657220626c6f636b20616e64207265776172647320746f6b656e73206d7573742062652077697468207468652073616d65206c656e6774682e7365745468726f74746c653a3a7468726f74746c6520726f756e6420626c6f636b73206d757374206265206d6f7265207468616e20307365744c6f636b456e643a3a4c6f636b20656e64206e6565647320746f20626520696e2074686520667574757265436f6e7374727563746f723a3a20436f6e7472616374205374616b65206c696d6974206e6565647320746f206265206d6f7265207468616e2030436f6e7374727563746f723a3a546865207374617274696e6720626c6f636b206d75737420626520696e20746865206675747572652e",
  "source": "// SPDX-License-Identifier: MIT\n\npragma solidity 0.6.12;\n\nimport \"./../pool-features/ThrottledExitFeature.sol\";\n\ncontract ThrottledExitRewardsPoolMock is RewardsPoolBase, OnlyExitFeature, ThrottledExitFeature {\n\tconstructor(\n        IERC20Detailed _stakingToken,\n        uint256 _startBlock,\n        uint256 _endBlock,\n        address[] memory _rewardsTokens,\n        uint256[] memory _rewardPerBlock,\n\t\tuint256 _stakeLimit,\n\t\tuint256 throttleRoundBlocks,\n\t\tuint256 throttleRoundCap,\n\t\tuint256 _contractStakeLimit\n    ) public RewardsPoolBase(_stakingToken, _startBlock, _endBlock, _rewardsTokens, _rewardPerBlock, _stakeLimit, _contractStakeLimit) StakeLock(_endBlock) {\n\t\tsetThrottleParams(throttleRoundBlocks, throttleRoundCap, _endBlock);\n\t}\n\n\tfunction withdraw(uint256 _tokenAmount) public override(OnlyExitFeature, RewardsPoolBase) {\n\t\tOnlyExitFeature.withdraw(_tokenAmount);\n\t}\n\n\tfunction claim() public override(OnlyExitFeature, RewardsPoolBase) {\n\t\tOnlyExitFeature.claim();\n\t}\n\n\tfunction exit() public override(ThrottledExitFeature, RewardsPoolBase) {\n\t\tThrottledExitFeature.exit();\n\t}\n}",
  "sourcePath": "/home/hellowodl/lmaas-liquidity-staker/contracts/mocks/ThrottledExitRewardsPoolMock.sol",
  "compiler": {
    "name": "solc",
    "version": "0.6.12+commit.27d51765.Emscripten.clang",
    "optimizer": false,
    "runs": 200
  },
  "schemaVersion": "2.3.5",
  "updatedAt": "2021-04-27T17:14:31.172Z"
}