{
  "contractName": "Treasury",
  "abi": [
    {
      "inputs": [
        {
          "internalType": "address",
          "name": "_uniswapRouter",
          "type": "address"
        },
        {
          "internalType": "address",
          "name": "_externalRewardToken",
          "type": "address"
        }
      ],
      "stateMutability": "nonpayable",
      "type": "constructor"
    },
    {
      "anonymous": false,
      "inputs": [
        {
          "indexed": true,
          "internalType": "address",
          "name": "previousOwner",
          "type": "address"
        },
        {
          "indexed": true,
          "internalType": "address",
          "name": "newOwner",
          "type": "address"
        }
      ],
      "name": "OwnershipTransferred",
      "type": "event"
    },
    {
      "inputs": [],
      "name": "externalRewardToken",
      "outputs": [
        {
          "internalType": "address",
          "name": "",
          "type": "address"
        }
      ],
      "stateMutability": "view",
      "type": "function"
    },
    {
      "inputs": [
        {
          "internalType": "address",
          "name": "",
          "type": "address"
        }
      ],
      "name": "liquidityDrawn",
      "outputs": [
        {
          "internalType": "uint256",
          "name": "",
          "type": "uint256"
        }
      ],
      "stateMutability": "view",
      "type": "function"
    },
    {
      "inputs": [],
      "name": "owner",
      "outputs": [
        {
          "internalType": "address",
          "name": "",
          "type": "address"
        }
      ],
      "stateMutability": "view",
      "type": "function"
    },
    {
      "inputs": [],
      "name": "renounceOwnership",
      "outputs": [],
      "stateMutability": "nonpayable",
      "type": "function"
    },
    {
      "inputs": [
        {
          "internalType": "address",
          "name": "newOwner",
          "type": "address"
        }
      ],
      "name": "transferOwnership",
      "outputs": [],
      "stateMutability": "nonpayable",
      "type": "function"
    },
    {
      "inputs": [],
      "name": "uniswapRouter",
      "outputs": [
        {
          "internalType": "contract IUniswapV2Router",
          "name": "",
          "type": "address"
        }
      ],
      "stateMutability": "view",
      "type": "function"
    },
    {
      "inputs": [
        {
          "internalType": "address[]",
          "name": "rewardPools",
          "type": "address[]"
        },
        {
          "internalType": "uint256[]",
          "name": "amounts",
          "type": "uint256[]"
        }
      ],
      "name": "withdrawLiquidity",
      "outputs": [],
      "stateMutability": "nonpayable",
      "type": "function"
    },
    {
      "inputs": [
        {
          "internalType": "address[]",
          "name": "rewardPools",
          "type": "address[]"
        },
        {
          "internalType": "uint256[]",
          "name": "externalRewards",
          "type": "uint256[]"
        }
      ],
      "name": "returnLiquidity",
      "outputs": [],
      "stateMutability": "nonpayable",
      "type": "function"
    },
    {
      "inputs": [
        {
          "internalType": "address",
          "name": "tokenA",
          "type": "address"
        },
        {
          "internalType": "address",
          "name": "tokenB",
          "type": "address"
        },
        {
          "internalType": "uint256",
          "name": "amountADesired",
          "type": "uint256"
        },
        {
          "internalType": "uint256",
          "name": "amountBDesired",
          "type": "uint256"
        },
        {
          "internalType": "uint256",
          "name": "amountAMin",
          "type": "uint256"
        },
        {
          "internalType": "uint256",
          "name": "amountBMin",
          "type": "uint256"
        },
        {
          "internalType": "uint256",
          "name": "deadline",
          "type": "uint256"
        }
      ],
      "name": "addUniswapLiquidity",
      "outputs": [
        {
          "internalType": "uint256",
          "name": "amountA",
          "type": "uint256"
        },
        {
          "internalType": "uint256",
          "name": "amountB",
          "type": "uint256"
        },
        {
          "internalType": "uint256",
          "name": "liquidity",
          "type": "uint256"
        }
      ],
      "stateMutability": "nonpayable",
      "type": "function"
    },
    {
      "inputs": [
        {
          "internalType": "address",
          "name": "tokenA",
          "type": "address"
        },
        {
          "internalType": "address",
          "name": "tokenB",
          "type": "address"
        },
        {
          "internalType": "address",
          "name": "lpToken",
          "type": "address"
        },
        {
          "internalType": "uint256",
          "name": "liquidity",
          "type": "uint256"
        },
        {
          "internalType": "uint256",
          "name": "amountAMin",
          "type": "uint256"
        },
        {
          "internalType": "uint256",
          "name": "amountBMin",
          "type": "uint256"
        },
        {
          "internalType": "uint256",
          "name": "deadline",
          "type": "uint256"
        }
      ],
      "name": "removeUniswapLiquidity",
      "outputs": [
        {
          "internalType": "uint256",
          "name": "amountA",
          "type": "uint256"
        },
        {
          "internalType": "uint256",
          "name": "amountB",
          "type": "uint256"
        }
      ],
      "stateMutability": "nonpayable",
      "type": "function"
    },
    {
      "inputs": [
        {
          "internalType": "address",
          "name": "token",
          "type": "address"
        },
        {
          "internalType": "uint256",
          "name": "amount",
          "type": "uint256"
        }
      ],
      "name": "withdrawToken",
      "outputs": [],
      "stateMutability": "nonpayable",
      "type": "function"
    }
  ],
  "bytecode": "0x60c06040523480156200001157600080fd5b5060405162001fb038038062001fb0833981810160405260408110156200003757600080fd5b8101908080519060200190929190805190602001909291905050506000620000646200028860201b60201c565b9050806000806101000a81548173ffffffffffffffffffffffffffffffffffffffff021916908373ffffffffffffffffffffffffffffffffffffffff1602179055508073ffffffffffffffffffffffffffffffffffffffff16600073ffffffffffffffffffffffffffffffffffffffff167f8be0079c531659141344cd1fd0a4f28419497f9722a3daafe3b4186f6b6457e060405160405180910390a350600073ffffffffffffffffffffffffffffffffffffffff168273ffffffffffffffffffffffffffffffffffffffff1614156200018a576040517f08c379a000000000000000000000000000000000000000000000000000000000815260040180806020018281038252602581526020018062001f636025913960400191505060405180910390fd5b600073ffffffffffffffffffffffffffffffffffffffff168173ffffffffffffffffffffffffffffffffffffffff16141562000212576040517f08c379a000000000000000000000000000000000000000000000000000000000815260040180806020018281038252602881526020018062001f886028913960400191505060405180910390fd5b8173ffffffffffffffffffffffffffffffffffffffff1660a08173ffffffffffffffffffffffffffffffffffffffff1660601b815250508073ffffffffffffffffffffffffffffffffffffffff1660808173ffffffffffffffffffffffffffffffffffffffff1660601b81525050505062000290565b600033905090565b60805160601c60a05160601c611c8b620002d860003980610a8b5280610ad35280610cc35280610d0e5280610d5652806110125250806108b052806109b25250611c8b6000f3fe608060405234801561001057600080fd5b50600436106100a95760003560e01c8063735de9f711610071578063735de9f7146103395780638da5cb5b1461036d5780639e281a98146103a1578063a3d44c2e146103ef578063e2b2056c14610447578063f2fde38b14610515576100a9565b80632491b5f5146100ae578063333609b61461017c578063364c9074146101b0578063658e96a314610277578063715018a61461032f575b600080fd5b61017a600480360360408110156100c457600080fd5b81019080803590602001906401000000008111156100e157600080fd5b8201836020820111156100f357600080fd5b8035906020019184602083028401116401000000008311171561011557600080fd5b90919293919293908035906020019064010000000081111561013657600080fd5b82018360208201111561014857600080fd5b8035906020019184602083028401116401000000008311171561016a57600080fd5b9091929391929390505050610559565b005b6101846109b0565b604051808273ffffffffffffffffffffffffffffffffffffffff16815260200191505060405180910390f35b61025a600480360360e08110156101c657600080fd5b81019080803573ffffffffffffffffffffffffffffffffffffffff169060200190929190803573ffffffffffffffffffffffffffffffffffffffff169060200190929190803573ffffffffffffffffffffffffffffffffffffffff169060200190929190803590602001909291908035906020019092919080359060200190929190803590602001909291905050506109d4565b604051808381526020018281526020019250505060405180910390f35b61030b600480360360e081101561028d57600080fd5b81019080803573ffffffffffffffffffffffffffffffffffffffff169060200190929190803573ffffffffffffffffffffffffffffffffffffffff1690602001909291908035906020019092919080359060200190929190803590602001909291908035906020019092919080359060200190929190505050610c0a565b60405180848152602001838152602001828152602001935050505060405180910390f35b610337610ea3565b005b610341611010565b604051808273ffffffffffffffffffffffffffffffffffffffff16815260200191505060405180910390f35b610375611034565b604051808273ffffffffffffffffffffffffffffffffffffffff16815260200191505060405180910390f35b6103ed600480360360408110156103b757600080fd5b81019080803573ffffffffffffffffffffffffffffffffffffffff1690602001909291908035906020019092919050505061105d565b005b6104316004803603602081101561040557600080fd5b81019080803573ffffffffffffffffffffffffffffffffffffffff16906020019092919050505061113b565b6040518082815260200191505060405180910390f35b6105136004803603604081101561045d57600080fd5b810190808035906020019064010000000081111561047a57600080fd5b82018360208201111561048c57600080fd5b803590602001918460208302840111640100000000831117156104ae57600080fd5b9091929391929390803590602001906401000000008111156104cf57600080fd5b8201836020820111156104e157600080fd5b8035906020019184602083028401116401000000008311171561050357600080fd5b9091929391929390505050611153565b005b6105576004803603602081101561052b57600080fd5b81019080803573ffffffffffffffffffffffffffffffffffffffff16906020019092919050505061141e565b005b610561611610565b73ffffffffffffffffffffffffffffffffffffffff1661057f611034565b73ffffffffffffffffffffffffffffffffffffffff1614610608576040517f08c379a00000000000000000000000000000000000000000000000000000000081526004018080602001828103825260208152602001807f4f776e61626c653a2063616c6c6572206973206e6f7420746865206f776e657281525060200191505060405180910390fd5b818190508484905014610666576040517f08c379a0000000000000000000000000000000000000000000000000000000008152600401808060200182810382526038815260200180611b8c6038913960400191505060405180910390fd5b60005b848490508110156109a957600085858381811061068257fe5b9050602002013573ffffffffffffffffffffffffffffffffffffffff1673ffffffffffffffffffffffffffffffffffffffff166372f702f36040518163ffffffff1660e01b815260040160206040518083038186803b1580156106e457600080fd5b505afa1580156106f8573d6000803e3d6000fd5b505050506040513d602081101561070e57600080fd5b8101908080519060200190929190505050905060006001600088888681811061073357fe5b9050602002013573ffffffffffffffffffffffffffffffffffffffff1673ffffffffffffffffffffffffffffffffffffffff1673ffffffffffffffffffffffffffffffffffffffff16815260200190815260200160002054905060006001600089898781811061079f57fe5b9050602002013573ffffffffffffffffffffffffffffffffffffffff1673ffffffffffffffffffffffffffffffffffffffff1673ffffffffffffffffffffffffffffffffffffffff1681526020019081526020016000208190555061084d87878581811061080957fe5b9050602002013573ffffffffffffffffffffffffffffffffffffffff16828473ffffffffffffffffffffffffffffffffffffffff166116189092919063ffffffff16565b600085858581811061085b57fe5b90506020020135141561086f57505061099c565b6108f487878581811061087e57fe5b9050602002013573ffffffffffffffffffffffffffffffffffffffff168686868181106108a757fe5b905060200201357f000000000000000000000000000000000000000000000000000000000000000073ffffffffffffffffffffffffffffffffffffffff166116ba9092919063ffffffff16565b86868481811061090057fe5b9050602002013573ffffffffffffffffffffffffffffffffffffffff1673ffffffffffffffffffffffffffffffffffffffff166350afa34b86868681811061094457fe5b905060200201356040518263ffffffff1660e01b815260040180828152602001915050600060405180830381600087803b15801561098157600080fd5b505af1158015610995573d6000803e3d6000fd5b5050505050505b8080600101915050610669565b5050505050565b7f000000000000000000000000000000000000000000000000000000000000000081565b6000806109df611610565b73ffffffffffffffffffffffffffffffffffffffff166109fd611034565b73ffffffffffffffffffffffffffffffffffffffff1614610a86576040517f08c379a00000000000000000000000000000000000000000000000000000000081526004018080602001828103825260208152602001807f4f776e61626c653a2063616c6c6572206973206e6f7420746865206f776e657281525060200191505060405180910390fd5b610ad17f0000000000000000000000000000000000000000000000000000000000000000878973ffffffffffffffffffffffffffffffffffffffff166116ba9092919063ffffffff16565b7f000000000000000000000000000000000000000000000000000000000000000073ffffffffffffffffffffffffffffffffffffffff1663baa2abde8a8a898989308a6040518863ffffffff1660e01b8152600401808873ffffffffffffffffffffffffffffffffffffffff1681526020018773ffffffffffffffffffffffffffffffffffffffff1681526020018681526020018581526020018481526020018373ffffffffffffffffffffffffffffffffffffffff1681526020018281526020019750505050505050506040805180830381600087803b158015610bb557600080fd5b505af1158015610bc9573d6000803e3d6000fd5b505050506040513d6040811015610bdf57600080fd5b8101908080519060200190929190805190602001909291905050509150915097509795505050505050565b6000806000610c17611610565b73ffffffffffffffffffffffffffffffffffffffff16610c35611034565b73ffffffffffffffffffffffffffffffffffffffff1614610cbe576040517f08c379a00000000000000000000000000000000000000000000000000000000081526004018080602001828103825260208152602001807f4f776e61626c653a2063616c6c6572206973206e6f7420746865206f776e657281525060200191505060405180910390fd5b610d097f0000000000000000000000000000000000000000000000000000000000000000898c73ffffffffffffffffffffffffffffffffffffffff166116ba9092919063ffffffff16565b610d547f0000000000000000000000000000000000000000000000000000000000000000888b73ffffffffffffffffffffffffffffffffffffffff166116ba9092919063ffffffff16565b7f000000000000000000000000000000000000000000000000000000000000000073ffffffffffffffffffffffffffffffffffffffff1663e8e337008b8b8b8b8b8b308c6040518963ffffffff1660e01b8152600401808973ffffffffffffffffffffffffffffffffffffffff1681526020018873ffffffffffffffffffffffffffffffffffffffff1681526020018781526020018681526020018581526020018481526020018373ffffffffffffffffffffffffffffffffffffffff16815260200182815260200198505050505050505050606060405180830381600087803b158015610e4157600080fd5b505af1158015610e55573d6000803e3d6000fd5b505050506040513d6060811015610e6b57600080fd5b810190808051906020019092919080519060200190929190805190602001909291905050509250925092509750975097945050505050565b610eab611610565b73ffffffffffffffffffffffffffffffffffffffff16610ec9611034565b73ffffffffffffffffffffffffffffffffffffffff1614610f52576040517f08c379a00000000000000000000000000000000000000000000000000000000081526004018080602001828103825260208152602001807f4f776e61626c653a2063616c6c6572206973206e6f7420746865206f776e657281525060200191505060405180910390fd5b600073ffffffffffffffffffffffffffffffffffffffff1660008054906101000a900473ffffffffffffffffffffffffffffffffffffffff1673ffffffffffffffffffffffffffffffffffffffff167f8be0079c531659141344cd1fd0a4f28419497f9722a3daafe3b4186f6b6457e060405160405180910390a360008060006101000a81548173ffffffffffffffffffffffffffffffffffffffff021916908373ffffffffffffffffffffffffffffffffffffffff160217905550565b7f000000000000000000000000000000000000000000000000000000000000000081565b60008060009054906101000a900473ffffffffffffffffffffffffffffffffffffffff16905090565b611065611610565b73ffffffffffffffffffffffffffffffffffffffff16611083611034565b73ffffffffffffffffffffffffffffffffffffffff161461110c576040517f08c379a00000000000000000000000000000000000000000000000000000000081526004018080602001828103825260208152602001807f4f776e61626c653a2063616c6c6572206973206e6f7420746865206f776e657281525060200191505060405180910390fd5b61113733828473ffffffffffffffffffffffffffffffffffffffff166116189092919063ffffffff16565b5050565b60016020528060005260406000206000915090505481565b61115b611610565b73ffffffffffffffffffffffffffffffffffffffff16611179611034565b73ffffffffffffffffffffffffffffffffffffffff1614611202576040517f08c379a00000000000000000000000000000000000000000000000000000000081526004018080602001828103825260208152602001807f4f776e61626c653a2063616c6c6572206973206e6f7420746865206f776e657281525060200191505060405180910390fd5b818190508484905014611260576040517f08c379a0000000000000000000000000000000000000000000000000000000008152600401808060200182810382526032815260200180611bc46032913960400191505060405180910390fd5b60005b84849050811015611417576112fa83838381811061127d57fe5b905060200201356001600088888681811061129457fe5b9050602002013573ffffffffffffffffffffffffffffffffffffffff1673ffffffffffffffffffffffffffffffffffffffff1673ffffffffffffffffffffffffffffffffffffffff1681526020019081526020016000205461187f90919063ffffffff16565b6001600087878581811061130a57fe5b9050602002013573ffffffffffffffffffffffffffffffffffffffff1673ffffffffffffffffffffffffffffffffffffffff1673ffffffffffffffffffffffffffffffffffffffff1681526020019081526020016000208190555084848281811061137157fe5b9050602002013573ffffffffffffffffffffffffffffffffffffffff1673ffffffffffffffffffffffffffffffffffffffff166325d5971f8484848181106113b557fe5b905060200201356040518263ffffffff1660e01b815260040180828152602001915050600060405180830381600087803b1580156113f257600080fd5b505af1158015611406573d6000803e3d6000fd5b505050508080600101915050611263565b5050505050565b611426611610565b73ffffffffffffffffffffffffffffffffffffffff16611444611034565b73ffffffffffffffffffffffffffffffffffffffff16146114cd576040517f08c379a00000000000000000000000000000000000000000000000000000000081526004018080602001828103825260208152602001807f4f776e61626c653a2063616c6c6572206973206e6f7420746865206f776e657281525060200191505060405180910390fd5b600073ffffffffffffffffffffffffffffffffffffffff168173ffffffffffffffffffffffffffffffffffffffff161415611553576040517f08c379a0000000000000000000000000000000000000000000000000000000008152600401808060200182810382526026815260200180611b666026913960400191505060405180910390fd5b8073ffffffffffffffffffffffffffffffffffffffff1660008054906101000a900473ffffffffffffffffffffffffffffffffffffffff1673ffffffffffffffffffffffffffffffffffffffff167f8be0079c531659141344cd1fd0a4f28419497f9722a3daafe3b4186f6b6457e060405160405180910390a3806000806101000a81548173ffffffffffffffffffffffffffffffffffffffff021916908373ffffffffffffffffffffffffffffffffffffffff16021790555050565b600033905090565b6116b58363a9059cbb60e01b8484604051602401808373ffffffffffffffffffffffffffffffffffffffff16815260200182815260200192505050604051602081830303815290604052907bffffffffffffffffffffffffffffffffffffffffffffffffffffffff19166020820180517bffffffffffffffffffffffffffffffffffffffffffffffffffffffff8381831617835250505050611907565b505050565b6000811480611788575060008373ffffffffffffffffffffffffffffffffffffffff1663dd62ed3e30856040518363ffffffff1660e01b8152600401808373ffffffffffffffffffffffffffffffffffffffff1681526020018273ffffffffffffffffffffffffffffffffffffffff1681526020019250505060206040518083038186803b15801561174b57600080fd5b505afa15801561175f573d6000803e3d6000fd5b505050506040513d602081101561177557600080fd5b8101908080519060200190929190505050145b6117dd576040517f08c379a0000000000000000000000000000000000000000000000000000000008152600401808060200182810382526036815260200180611c206036913960400191505060405180910390fd5b61187a8363095ea7b360e01b8484604051602401808373ffffffffffffffffffffffffffffffffffffffff16815260200182815260200192505050604051602081830303815290604052907bffffffffffffffffffffffffffffffffffffffffffffffffffffffff19166020820180517bffffffffffffffffffffffffffffffffffffffffffffffffffffffff8381831617835250505050611907565b505050565b6000808284019050838110156118fd576040517f08c379a000000000000000000000000000000000000000000000000000000000815260040180806020018281038252601b8152602001807f536166654d6174683a206164646974696f6e206f766572666c6f77000000000081525060200191505060405180910390fd5b8091505092915050565b6119268273ffffffffffffffffffffffffffffffffffffffff16611b52565b611998576040517f08c379a000000000000000000000000000000000000000000000000000000000815260040180806020018281038252601f8152602001807f5361666545524332303a2063616c6c20746f206e6f6e2d636f6e74726163740081525060200191505060405180910390fd5b600060608373ffffffffffffffffffffffffffffffffffffffff16836040518082805190602001908083835b602083106119e757805182526020820191506020810190506020830392506119c4565b6001836020036101000a0380198251168184511680821785525050505050509050019150506000604051808303816000865af19150503d8060008114611a49576040519150601f19603f3d011682016040523d82523d6000602084013e611a4e565b606091505b509150915081611ac6576040517f08c379a00000000000000000000000000000000000000000000000000000000081526004018080602001828103825260208152602001807f5361666545524332303a206c6f772d6c6576656c2063616c6c206661696c656481525060200191505060405180910390fd5b600081511115611b4c57808060200190516020811015611ae557600080fd5b8101908080519060200190929190505050611b4b576040517f08c379a000000000000000000000000000000000000000000000000000000000815260040180806020018281038252602a815260200180611bf6602a913960400191505060405180910390fd5b5b50505050565b600080823b90506000811191505091905056fe4f776e61626c653a206e6577206f776e657220697320746865207a65726f206164647265737372657475726e4c69717569646974793a3a20706f6f6c7320616e642065787465726e616c20746f6b656e7320646f206e6f74206d6174636877697468647261774c69717569646974793a3a20706f6f6c7320616e6420616d6f756e747320646f206e6f74206d617463685361666545524332303a204552433230206f7065726174696f6e20646964206e6f7420737563636565645361666545524332303a20617070726f76652066726f6d206e6f6e2d7a65726f20746f206e6f6e2d7a65726f20616c6c6f77616e6365a26469706673582212209304d66dbdb93f9519908a478385d4e36dd339436b77685192668fff6ee527ac64736f6c634300060c003354726561737572793a3a20556e697377617020726f757465722063616e6e6f74206265203054726561737572793a3a2045787465726e616c2072657761726420746f6b656e206e6f7420736574",
  "source": "// SPDX-License-Identifier: MIT\n\npragma solidity 0.6.12;\n\nimport \"openzeppelin-solidity/contracts/math/SafeMath.sol\";\nimport \"openzeppelin-solidity/contracts/access/Ownable.sol\";\nimport \"./../interfaces/IERC20Detailed.sol\";\nimport \"./../interfaces/ITreasuryOperated.sol\";\nimport \"./../interfaces/IRewardsPoolBase.sol\";\nimport \"./../SafeERC20Detailed.sol\";\nimport \"./../interfaces/IUniswapV2Router.sol\";\n\n\ncontract Treasury is Ownable {\n\tusing SafeMath for uint256;\n\tusing SafeERC20Detailed for IERC20Detailed;\n\n\taddress public immutable externalRewardToken;\n\n\tmapping(address => uint256) public liquidityDrawn;\n\tIUniswapV2Router public immutable uniswapRouter;\n\t\n\tconstructor(address _uniswapRouter, address _externalRewardToken) public {\n\t\trequire(_uniswapRouter != address(0x0), \"Treasury:: Uniswap router cannot be 0\");\n\t\trequire(_externalRewardToken != address(0x0), \"Treasury:: External reward token not set\");\n\t\tuniswapRouter = IUniswapV2Router(_uniswapRouter);\n\t\texternalRewardToken = _externalRewardToken;\n\t}\n\n\tfunction withdrawLiquidity(address[] calldata rewardPools, uint256[] calldata amounts) public onlyOwner {\n\t\trequire(rewardPools.length == amounts.length, \"withdrawLiquidity:: pools and amounts do not match\");\n\t\tfor (uint256 i = 0; i < rewardPools.length; i++) {\n\t\t\tliquidityDrawn[rewardPools[i]] = liquidityDrawn[rewardPools[i]].add(amounts[i]);\n\t\t\tITreasuryOperated(rewardPools[i]).withdrawStake(amounts[i]);\n\t\t}\n\t}\n\n\tfunction returnLiquidity(address[] calldata rewardPools, uint[] calldata externalRewards) public onlyOwner {\n\t\trequire(rewardPools.length == externalRewards.length, \"returnLiquidity:: pools and external tokens do not match\");\n\t\tfor (uint256 i = 0; i < rewardPools.length; i++) {\n\t\t\taddress stakingToken = IRewardsPoolBase(rewardPools[i]).stakingToken();\n\t\t\t\n\t\t\tuint256 drawnLiquidity = liquidityDrawn[rewardPools[i]];\n\t\t\tliquidityDrawn[rewardPools[i]] = 0;\n\t\t\tIERC20Detailed(stakingToken).safeTransfer(rewardPools[i], drawnLiquidity);\n\t\t\t\n\t\t\tif(externalRewards[i] == 0) {\n\t\t\t\tcontinue;\n\t\t\t}\n\t\t\tIERC20Detailed(externalRewardToken).safeApprove(rewardPools[i], externalRewards[i]);\n\t\t\tITreasuryOperated(rewardPools[i]).notifyExternalReward(externalRewards[i]);\n\t\t}\n\t}\n\n\tfunction addUniswapLiquidity(\n\t\taddress tokenA,\n\t\taddress tokenB,\n\t\tuint256 amountADesired,\n\t\tuint256 amountBDesired,\n\t\tuint256 amountAMin,\n\t\tuint256 amountBMin,\n\t\tuint256 deadline\n\t) external onlyOwner returns (uint256 amountA, uint256 amountB, uint256 liquidity) {\n\t\tIERC20Detailed(tokenA).safeApprove(address(uniswapRouter), amountADesired);\n\t\tIERC20Detailed(tokenB).safeApprove(address(uniswapRouter), amountBDesired);\n\t\treturn uniswapRouter.addLiquidity(tokenA, tokenB, amountADesired, amountBDesired, amountAMin, amountBMin, address(this), deadline);\n\t}\n\t\n\tfunction removeUniswapLiquidity(\n\t\taddress tokenA,\n\t\taddress tokenB,\n\t\taddress lpToken,\n\t\tuint256 liquidity,\n\t\tuint256 amountAMin,\n\t\tuint256 amountBMin,\n\t\tuint256 deadline\n\t) external onlyOwner returns (uint256 amountA, uint256 amountB) {\n\t\tIERC20Detailed(lpToken).safeApprove(address(uniswapRouter), liquidity);\n\t\treturn uniswapRouter.removeLiquidity(tokenA, tokenB, liquidity, amountAMin, amountBMin, address(this), deadline);\n\t}\n\n\tfunction withdrawToken(address token, uint256 amount) external onlyOwner {\n\t\tIERC20Detailed(token).safeTransfer(msg.sender, amount);\n\t}\n\n}",
  "sourcePath": "/home/hellowodl/lmaas-liquidity-staker/contracts/V2/Treasury.sol",
  "compiler": {
    "name": "solc",
    "version": "0.6.12+commit.27d51765.Emscripten.clang",
    "optimizer": false,
    "runs": 200
  },
  "schemaVersion": "2.3.5",
  "updatedAt": "2021-04-27T17:14:31.157Z"
}